:020000040800F2
:10000000280305247903000867470008313E0008EB
:10001000654700084D0700080F7500080000000044
:10002000000000000000000000000000AD490008D2
:10003000950B00080000000069470008AF49000860
:100040009303000893030008930300089303000838
:100050009303000893030008930300089303000828
:100060009303000893030008930300085107000856
:100070009303000893030008930300089303000808
:1000800093030008930300089303000893030008F8
:1000900093030008930300089303000893030008E8
:1000A00093030008930300089303000893030008D8
:1000B00093030008E16D0008930300089303000810
:1000C00093030008930300089303000893030008B8
:1000D00093030008930300089303000893030008A8
:1000E0009303000893030008000000009303000836
:1000F0009303000893030008930300089303000888
:100100009303000893030008930300089303000877
:100110009303000893030008930300089303000867
:100120009303000893030008930300089303000857
:100130009303000893030008930300089303000847
:1001400000000000000000000000000000000000AF
:100150009303000893030008930300089303000827
:100160009303000893030008930300089303000817
:1001700093030008930300089303000800000000A5
:1001800093030008930300089303000893030008F7
:1001900093030008930300089303000893030008E7
:1001A00093030008930300089303000893030008D7
:1001B00093030008930300089303000893030008C7
:1001C00093030008930300089303000893030008B7
:1001D00093030008930300089303000893030008A7
:1001E0009303000893030008930300089303000897
:1001F0009303000893030008930300089303000887
:100200009303000893030008930300089303000876
:100210009303000893030008930300089303000866
:1002200093030008930300089303000800000000F4
:1002300093030008930300080000000093030008E4
:100240009303000893030008930300089303000836
:100250009303000893030008930300089303000826
:100260009303000893030008930300089303000816
:1002700093030008930300089303000800000000A4
:100280009303000893030008930300080000000094
:10029000000000009303000800F002F800F05CF892
:1002A0000AA090E8000C82448344AAF10107DA45D1
:1002B00001D100F051F8AFF2090EBAE80F0013F0C7
:1002C000010F18BFFB1A43F001031847A0090900EA
:1002D000C00909000A444FF0000C10F8013B13F06C
:1002E000070408BF10F8014B1D1108BF10F8015B8F
:1002F000641E05D010F8016B641E01F8016BF9D182
:1003000013F0080F1EBF10F8014BAD1C0C1B09D1D8
:100310006D1E58BF01F801CBFAD505E014F8016B4A
:1003200001F8016B6D1EF9D59142D6D370470000DC
:100330000023002400250026103A28BF78C1FBD8EE
:10034000520728BF30C148BF0B6070471FB52CF063
:10035000B4F91FBD10B510BD00F0C5F91146FFF787
:10036000F5FF27F0E9FB00F0E3F903B4FFF7F2FF34
:1003700003BC00F0B1F90000094880470948004774
:10038000FEE7FEE7FEE7FEE7FEE7FEE7FEE7FEE745
:10039000FEE7FEE704480549054A064B70470000A2
:1003A0005D4A00089902000828F304242803052464
:1003B00028FB042428FB042453EA020C00F0698083
:1003C0002DE9F04B4FF00006002B1FBFB3FA83F569
:1003D00003FA05F424FA05F65E4012BF1643B2FA9A
:1003E00082F502FA05F4C5F120051EBF22FA05FCCC
:1003F00044EA0C04203556EA044C4FEA144418BF72
:10040000641C4FF000084FF00009904271EB030CA0
:1004100039D3002919BFB1FA81F701FA07F6B0FA0A
:1004200080F700FA07F6C7F120071EBF20FA07FC85
:1004300046EA0C062037B6FBF4FCA7EB0507103F95
:1004400007F01F0BCBF120060CFA0BFB2CFA06F67B
:1004500044BFB3460026202FA4BF5E464FF0000BDA
:100460005BEA060C08BF4FF0010B19EB0B09ABFB65
:10047000027C48EB0608C01B06FB02CC0BFB03CC3E
:1004800071EB0C01C1E70B46024641464846BDE808
:10049000F08B13B54FF000004FF00001AFF3008078
:1004A000BDE81C40704740EA0103024630B59B0797
:1004B00010D14FF0013400E008C208C91D1B9D4354
:1004C00015EAC41FF8D013F0FF0102F8011B0DD08C
:1004D0001B0AF8E711F8013B002B02F8013B05D09D
:1004E00011F8013B002B02F8013BF3D130BD10B5F0
:1004F000431C02E010F8011B71B18107FAD14FF0E3
:10050000013202C88C1A8C4314EAC211F9D0C01A05
:100510000A0603D0C01E10BDC01A10BD0A0401D0C7
:10052000801E10BD0902FCD0401E10BD032A40F2FF
:10053000308010F0030C00F0158011F8013BBCF185
:10054000020F624498BF11F801CB00F8013B38BF9D
:1005500011F8013BA2F1040298BF00F801CB38BFAB
:1005600000F8013B11F0030300F02580083AC0F0C9
:10057000088051F8043B083A51F804CBA0E8081071
:10058000F5E7121D5CBF51F8043B40F8043BAFF3A4
:100590000080D20724BF11F8013B11F801CB48BFFE
:1005A00011F8012B24BF00F8013B00F801CB48BF34
:1005B00000F8012B704710B5203AC0F00B80B1E86D
:1005C0001850203AA0E81850B1E81850A0E8185088
:1005D000BFF4F5AF5FEA027C24BFB1E81850A0E891
:1005E000185044BF18C918C0BDE810405FEA827CAB
:1005F00024BF51F8043B40F8043B08BF7047D207C2
:1006000028BF31F8023B48BF11F8012B28BF20F862
:10061000023B48BF00F8012B70474FF0000200B5C5
:10062000134694469646203922BFA0E80C50A0E815
:100630000C50B1F12001BFF4F7AF090728BFA0E8C3
:100640000C5048BF0CC05DF804EB890028BF40F88F
:10065000042B08BF704748BF20F8022B11F0804FD1
:1006600018BF00F8012B70474FF0013C50F8042BE5
:1006700051F8043B9A4215D1A2EB0C03934313EAC1
:10068000CC130BD150F8042B51F8043B9A4209D1FA
:10069000A2EB0C03934313EACC13E7D04FF0000016
:1006A000704700BFD01A01BAB1FA81F101F0180108
:1006B00022FA01F0CB40C1F12001DBB2C0B2C01A76
:1006C0002CFA01F3D11A914311EAC311E6D1704714
:1006D000704770477047000001491820ABBEFEE725
:1006E000260002007047754600F02CF8AE46050063
:1006F0006946534620F00700854618B020B5FFF73D
:1007000049FEBDE820404FF000064FF000074FF0D3
:1007100000084FF0000B21F00701AC46ACE8C0091F
:10072000ACE8C009ACE8C009ACE8C0098D46704728
:1007300010B50446AFF300802046BDE81040FFF737
:1007400014BE000000487047C4F20424FEE7000015
:10075000014800F06BBB000090040024294A0168A6
:1007600091423AD0274A1832914236D0254A303247
:10077000914232D0234A483291422ED0214A6032EF
:1007800091422AD01F4A7832914226D01D4A903297
:10079000914222D01B4AA83291421ED01A4A91425D
:1007A0001BD0194A1832914217D0174A3032914261
:1007B00013D0154A483291420FD0134A6032914209
:1007C0000BD0114A7832914207D00F4A90329142B1
:1007D00003D00D4AA832914211D1CAB21823103A5F
:1007E000B2FBF3F26FF30901032A02F00703074A91
:1007F000D25CC26500D9091D81650846704721F0A9
:10080000FF01F9E71000024010040240C4C60208CC
:1008100030B5224A012301689142CAB21BD01F4C55
:100820001434A14217D01D4C2834A14213D01B4CC4
:100830003C34A1420FD0194C5034A1420BD0174C7C
:100840006434A14207D0154C7834A14203D0134C34
:100850008C34A1420CD11421114C083AB2FBF1F1B5
:100860000F4A803201F01F0504EB8101AB4010E01C
:100870000C4D1824103A0D44B2FBF4F1A82D00D809
:100880000831094A01F01F0402EB8101064AA34026
:100890008032603080E80E0030BD000008540258FD
:1008A00000580258F0FBFDBF0008024010B5027965
:1008B000531E072B2DD8174C0168A1421BD0154C95
:1008C0001434A14217D0134C2834A14213D0114C38
:1008D0003C34A1420FD00F4C5034A1420BD00D4CF0
:1008E0006434A14207D00B4C7834A14203D0094CA8
:1008F0008C34A14203D10849074C443102E0074936
:10090000064C443104EB8202C0E91B2101219940CD
:10091000416710BD08540258FC580258FC080240B8
:1009200010B583694FF0C074826A0146002053B14C
:10093000B3F5005F15D072B1012A0CD0022A0AD09B
:10094000032A09D104E01AB1012A06D0022A03D1F0
:10095000C96AC90100D5012010BDC96AA142FAD0F7
:1009600010BD002AF7D0012AF2D0022AF3D0032AC0
:10097000F3D010BD2DE9F04F804E804FDFF8FC9191
:100980001836DFF8F8A148370468856D0AF1300A97
:10099000DFF8ECB14C45DFF8ECC1DFF8ECE16DD0ED
:1009A000B4426BD0544569D0BC4267D0DFF8D081E7
:1009B000A8F11808444561D05C455FD064455DD01E
:1009C00074455BD0DFF8C481444557D0DFF8BC8163
:1009D00008F11808444551D0DFF8B08108F130081B
:1009E00044454BD0DFF8A48108F14808444545D080
:1009F000DFF8988108F1600844453FD0DFF88C812A
:100A000008F17808444539D0DFF8808108F1900872
:100A1000444533D0DFF8748108F1A80844452DD04F
:100A2000DFF86C81444529D0DFF8648108F11408AF
:100A3000444523D0DFF8588108F1280844451DD0EB
:100A4000DFF84C8108F13C08444517D0DFF84081BD
:100A500008F15008444511D0DFF8348108F16408EA
:100A600044450BD0DFF8288108F17808444505D0CB
:100A7000DFF81C8108F18C08444509D1D0E91948F8
:100A8000C4F80480C46E1CB1D0E91C48C4F80480CA
:100A900004684C452ED0B4422CD054452AD0BC42D8
:100AA00028D0374E183EB44224D05C4522D064454D
:100AB00020D074451ED0354EB4421BD0334E18366C
:100AC000B44217D0314E3036B44213D02F4E483690
:100AD000B4420FD02D4E6036B4420BD02B4E783638
:100AE000B44207D0294E9036B44203D0274EA836E0
:100AF000B44215D190F85C603F2406F01F06B44064
:100B0000AC600468256825F4802525602EE09A6095
:100B10000068C160BDE8F08F99600068C260F9E7C5
:100B20001B4EB4421BD01A4E1436B44217D0184E86
:100B30002836B44213D0164E3C36B4420FD0144E71
:100B40005036B4420BD0124E6436B44207D0104E29
:100B50007836B44203D00E4E8C36B442DAD190F8D7
:100B60005C60012406F01F06B4406C60046863609A
:100B70008368402B0368CFD1C9E700001000024012
:100B800088000240A0000240B80002401004024069
:100B900008540258704772B6FEE70000F0B5B3F58E
:100BA000804F05D06FF0704140F822100020F0BD5A
:100BB00091E838008F898E6950F822102401334360
:100BC000054E44EA05242343314043EA07430B43DF
:100BD00040F82230EAE700000000F0CFF0B50A68E4
:100BE00050F8223023F0010340F822308C68082CA2
:100BF0002CD000264A68D1E903CE22434CEA060CE9
:100C000001F1140342EA0C0242EA0E0293E8F850A2
:100C10001A4322430C682A43D1E90C35324350F879
:100C200024603A4342EA0C02DFF840C042EA0E0276
:100C30008F6B13431D432F4326EA0C063E4340F8B7
:100C400024600A6BB2F5801F02D007E04026D1E78E
:100C50000A684AB1026842F4801202600A681AB156
:100C60000268496B0A4302600020F0BD7FFB3F0031
:100C7000F0B58C6800EB8202D1E90036B1F80CE0E7
:100C80004FEA042C134C0D8A43EA06130E7D6701CC
:100C90004CEA0E4C43EA0C0304EB05552B438D69DB
:100CA00007EB0666576833432B4307F040452B4359
:100CB00053600268D2020BD5098A4268436804EB8C
:100CC000015122F47002114323F470030B4343607B
:100CD0000020F0BD0000F0FFF0B5D1E90843CD6978
:100CE0000A68C2B10268254322F4F84213431D4347
:100CF0000560D1E90125D1E903364C692A434568ED
:100D0000334389691A43EB0B2243DB030A431A433B
:100D100042600020F0BDD1E9012ED1E9036CD1E998
:100D2000057142EA0E0246EA0C0632433A430A4390
:100D300001682A4322431A436FF30E010A430260FB
:100D4000E7E7426943F6FE739A4342EA4101416193
:100D50000020704770B591E81C00C9686FF01F054E
:100D600006691A4305EB441444EA41210A4306EAA2
:100D700045431A430261002070BD00002DE9F04F89
:100D80008B8A6FF00F05264C4FF07F4BD1F80C90FB
:100D900004EB03536FF0FF044FEA042A1AB386688A
:100DA0004FEA09321F4FA2F580521A433E403243A8
:100DB0008260D1E900278E68521E05EB07150F8A65
:100DC0002A43C56804EB06240E7E0AEB0743224340
:100DD0001A430BEB06610A4305F070431A43C260E5
:100DE0000020BDE8F08F91E804110F4E521E0F8ACB
:100DF00005EB08152A4304EB0C2C06EB09350E7E97
:100E000042EA0C022A4385680AEB074422431A434C
:100E10000BEB06610A4305F070431A438260DFE77B
:100E20000000F0FFFF0F0FFF00F0FFFF2DE9FC5F58
:100E30000446F74E0020DFF8D88300904FF4165296
:100E4000F44808F11808A56DDFF8C493DFF8C0A3D3
:100E5000016809F1300920680AF1480AB1FBF2F192
:100E6000B04201912F68D5F800C0DFF8ACB335D09F
:100E70004146884232D0484530D050452ED0584562
:100E80002CD0E5491831884228D0E34930318842D6
:100E900024D0E1494831884220D0E04988421DD021
:100EA000DE491831884219D0DC493031884215D0EA
:100EB000DA494831884211D0DFF860E30EF1600E64
:100EC00070450BD0D54A7832904207D0D34B90333F
:100ED000984203D0D149A83188427DD194F85C2052
:100EE000082102F01F0201FA02F23A424AD0B0424F
:100EF00032D0404530D048452ED050452CD05845B2
:100F00002AD0C54A1832904226D0C34A3032904285
:100F100022D0C14A483290421ED0C04A90421BD0D3
:100F2000BE4A1832904217D0BC4A3032904213D099
:100F3000BA4A483290420FD0B84A603290420BD041
:100F4000B64A7832904207D0B44A9032904203D0E9
:100F5000B24AA832904203D1026802F0040202E0D1
:100F6000026802F008026AB1026822F0040202601C
:100F700094F85C0000F01F008140A960606D40F0B3
:100F80000100606594F85C00012100F01F008140C1
:100F9000394240D02068B04234D0404532D0484534
:100FA00030D050452ED058452CD09B4A1832904214
:100FB00028D0994A3032904224D0974A4832904201
:100FC00020D0964A90421DD0944A1832904219D0AF
:100FD000924A3032904200E0AFE113D08F4A48325B
:100FE00090420FD08D4A603290420BD08B4A7832BB
:100FF000904207D0894A9032904203D0874AA83263
:1010000090427DD1406910F0800F04D0A960606DDE
:1010100040F00200606594F85C00042100F01F00BD
:10102000814039423ED02068B04232D0404530D075
:1010300048452ED050452CD058452AD0764A1832F3
:10104000904226D0744A3032904222D0724A4832BE
:1010500090421ED0714A90421BD0704A1832904282
:1010600017D06E4A3032904213D06C4A48329042C8
:101070000FD06A4A603290420BD0684A7832904270
:1010800007D0664A9032904203D0644AA832904218
:101090004ED1006810F0020F04D0A960606D40F0DE
:1010A0000400606594F85C00102100F01F0081408E
:1010B000394258D02068B04234D0404532D04845FB
:1010C00030D050452ED058452CD0534A183290423B
:1010D00028D0514A3032904224D04F4A4832904270
:1010E00020D04E4A90421DD04C4A1832904219D01E
:1010F0004A4A3032904215D0484A4832904200E085
:1011000014E00FD0454A603290420BD0434A783207
:10111000904207D0414A9032904203D03F4AA832D1
:10112000904207D1006800F0080006E0006872E70E
:101130000068B7E7006800F00400A0B1A96020686B
:101140000168490304D50068000308D5A16C07E0D5
:101150000168C90503D4016821F008010160216C10
:1011600009B12046884794F85C00202100F01F0058
:101170008140394279D02068B04232D0404530D0E9
:1011800048452ED050452CD058452AD0224A1832F6
:10119000904226D0204A3032904222D01E4A483215
:1011A00090421ED01D4A90421BD01C4A18329042D9
:1011B00017D01A4A3032904213D0184A483290421F
:1011C0000FD0164A603290420BD0144A78329042C7
:1011D00007D0124A9032904203D0104AA83290426F
:1011E00003D1006800F0100002E0006800F0020087
:1011F000B0B3A96094F835000428206801680FD0C6
:1012000049037ED5006800032BD4616C2AE00000FE
:10121000100002401400002470000240100402403C
:1012200021F0160101602068416921F080014161CF
:10123000206C08B9A06C20B12068016821F0080179
:10124000016094F85C303F21012003F01F0300226D
:101250009940A96084F8350084F83420216D65E058
:1012600003E0E16B09B120468847606D00287DD01E
:10127000606DC00759D02068042184F83510B04251
:101280002BD0404529D0484527D0504525D058453A
:1012900023D09D49884220D09B49183188421CD0D8
:1012A00099493031884218D09849884215D09749D9
:1012B0001831884211D09549303188420DD0934978
:1012C0004831884209D091496031884205D08F4920
:1012D0007831884201D08D499031016821F00101B7
:1012E000016020680099019A491C0091914202D83E
:1012F0000168C907F6D10068C00710D003200FE0CD
:10130000FFE70168C905ACD403680121002223F07E
:101310001003036084F8351084F83420A1E701201D
:1013200084F83500002084F83400E16C00291DD0D9
:1013300002B02046BDE8F05F0847754988421DD0DD
:1013400073491431884219D071492831884215D027
:101350006F493C31884211D06D49503188420DD0DF
:101360006B496431884209D0694900E084E07831F2
:10137000884203D066498C3188427DD194F85C80E4
:101380000427016808F01F0807FA08F717EA0C0F8E
:10139000009746D04F0744D500980F04686003D5E6
:1013A000C8033CD4A16CC1E7880638D42068B04299
:1013B0002DD055496039884229D0484527D050451D
:1013C00025D0584523D05049884220D04E49183165
:1013D00088421CD04C493031884218D04B49884251
:1013E00015D04A491831884211D0484930318842D5
:1013F0000DD046494831884209D0704507D0904207
:1014000005D0984203D04149A831884203D10168F0
:1014100021F0080102E0016821F004010160216C63
:1014200084E7022707FA08F717EA0C0F00974ED057
:101430008F074CD500980F04686003D5C80344D4C7
:10144000616C73E7880640D42068B0422FD02E49E3
:10145000603988422BD0484529D0504527D058457F
:1014600025D02949884222D02749183188421ED0E8
:1014700025493031884200E044E018D023498842B1
:1014800015D022491831884211D020493031884284
:101490000DD01E494831884209D0704507D090428E
:1014A00005D0984203D01949A831884203D1016878
:1014B00021F0140102E0016821F00A01016001211C
:1014C00084F83510002084F83400E16B2EE7082200
:1014D00002FA08F212EA0C0F14D0090712D50168BB
:1014E00021F00E01016094F85C100120002201F04F
:1014F0001F0100FA01F16960606584F8350084F825
:10150000342012E7BDE8FC9F88000240100402402E
:10151000085402582DE9F05F044600F0D9FC002C75
:1015200007467DD0E34E022120684FF00308DFF824
:1015300088934FF00005DFF884A3B042DFF880B352
:1015400034D0DC4A1832904230D048452ED0504535
:101550002CD058452AD0DA4A1832904226D0D84AA0
:101560003032904222D0D64A483290421ED0D54ADC
:1015700090421BD0D34A1832904217D0D14A303211
:10158000904213D0CF4A483290420FD0CD4A6032B9
:1015900090420BD0CB4A7832904207D0C94A903261
:1015A000904203D0C74AA83290427DD184F83510CA
:1015B000B04284F834502ED0BE49183188422AD027
:1015C000484528D0504526D0584524D0BC4918312C
:1015D000884220D0BA49303188421CD0B8494831BD
:1015E000884218D0B749884215D0B6491831884288
:1015F00011D0B449303188420DD0B24948318842C7
:1016000009D0B0496031884205D0AE49783188426E
:1016100001D0AC499031016821F00101016008E07E
:1016200027E100BF00F054FCC01B052801D9202190
:101630001CE120680068C007F4D104F108002168AB
:10164000D4E9053C8E4685C809681043D4E90728CB
:101650001F43636A38439C4F40EA0C0010433940F3
:1016600040EA0800042B40EA010003D1D4E90B1240
:1016700011430843954909686FF30F01B1F1005F09
:101680000FD36168A1F12902052A08D9163A032A65
:1016900005D9083A012A02D94F39032901D840F463
:1016A0008010CEF8000000E023E02068676A4069FF
:1016B000042F20F0070047EA00070DD1D4E90A0102
:1016C000074349B12046FFF72BF928B14020606558
:1016D000012184F83510CCE0206847612046FFF7EF
:1016E0003DF894F85C203F2102F01F029140816098
:1016F00054E0774A90421BD0754B1433984217D070
:10170000734B2833984213D0714B3C3398420FD01F
:101710006F4B503398420BD06D4B6433984207D0D7
:101720006B4B7833984203D0694B8C3398427DD110
:1017300084F8351084F83450664B0168A26801EAD9
:10174000030E402A73D0802A72D00022D4E9037895
:10175000D4E9053142EAD70242EAD8085C4AD4E922
:10176000077C48EAD30848EAD10141EAD70152424E
:1017700041EA1C11142341EA0E0101602068104463
:10178000B0FBF3F08000E0652046FEF7E7FF94F839
:101790005C20012102F01F02914041602068B042AC
:1017A00057D044491831884253D0484551D050450C
:1017B0004FD058454DD042491831884249D0404910
:1017C0003031884245D03E494831884241D03D4978
:1017D00088423ED03B49183188423AD039493031AD
:1017E000884236D037494831884232D03549603155
:1017F00088422ED03349783188422AD031499031FD
:10180000884226D02F49A831884222D030498842C8
:101810001FD02F49143188421BD02D4928318842CE
:1018200017D02B493C31884213D002E01DE017E06D
:1018300018E02749503188420BD02549643188424D
:1018400007D023497831884203D021498C3188421E
:1018500029D12046FEF7DCFFA06880280CD00CE0E0
:10186000102273E74FF4804270E74021616584F8ED
:1018700035800120BDE8F09F6560216E2079086009
:10188000D4E9190141606068401E072808D8204645
:10189000FFF70CF8E06E0560D4E91C01416002E03E
:1018A000E566256765670120656584F835000020D9
:1018B000E0E70000100002404000024058000240F3
:1018C00070000240100402403F8010FE0010005CD7
:1018D000085402580F00FEFF30B54FF0000358B116
:1018E00090F83440012C09D090F83550012480F84C
:1018F0003440012D04D016E0012030BD022030BD5F
:10190000062910D2DFE801F0030507090B0DC263B9
:101910000AE0026408E0426406E0826404E0C26413
:1019200002E0026500E00123002180F8341018462F
:1019300030BD00002DE9F84F04008C464FF0000048
:10194000009014D094F83400012812D094F8355047
:101950000120002184F83400012D0CD0C002606504
:101960000120009084F834100098BDE8F88F012021
:10197000FBE70220F9E78C4D0226206884F83560E9
:10198000A8428A4D61658A4E8A4FDFF82C82DFF8C3
:101990002C92DFF82CA2DFF82CB226D0A84224D05B
:1019A000B04222D0B84220D040451ED048451CD07D
:1019B00050451AD0584518D08349884215D08249DD
:1019C0001831884211D08049303188420DD07E498B
:1019D0004831884209D07C496031884205D07A4933
:1019E0007831884201D078499031016821F00101B5
:1019F000016061462046FEF7BDFF6B4920688842C2
:101A00002CD0A8422AD0B04228D0B84226D0404597
:101A100024D0484522D0504520D058451ED06A4A8F
:101A200090421BD0684A1832904217D0664A303232
:101A3000904213D0644A483290420FD0624A6032DA
:101A400090420BD0604A7832904207D05E4A903282
:101A5000904203D05C4AA83290420CD1026822F036
:101A60001E0242F016020260206C88B120680268F3
:101A700042F008020BE0026822F00E0242F00A0275
:101A80000260206C20B12068026842F0040202600B
:101A9000206888424BD0A84249D0B04247D0B842D3
:101AA00045D0404543D0484541D050453FD05845AA
:101AB0003DD0454A90423AD0434A1832904236D0FF
:101AC000414A3032904232D03F4A483290422ED082
:101AD0003D4A603290422AD03B4A7832904226D02A
:101AE000394A9032904222D0374AA83290421ED0D2
:101AF000364A90421BD0354A1432904217D0334AAE
:101B00002832904213D0314A3C3290420FD02F4AB3
:101B1000503290420BD02D4A6432904207D02B4A6B
:101B20007832904203D0294A8C3290420DD1206EF7
:101B30000268D20303D5026842F480720260E06E4C
:101B400018B1026842F4807202602068884226D090
:101B5000A84224D0B04222D0B84220D040451ED066
:101B600048451CD050451AD0584518D016498842CF
:101B700015D015491831884211D0134930318842A7
:101B80000DD011494831884209D00F49603188424F
:101B900005D00D497831884201D00B499031016858
:101BA00041F001010160DFE6100002402800024020
:101BB000400002405800024070000240880002408D
:101BC000A0000240B800024010040240085402582D
:101BD00070B5044600F07CF90546601C02D004484C
:101BE0000078044400F074F9401BA042FAD370BDA1
:101BF00008000024F0B5B5B014212FA8FEF70DFDA4
:101C00001C480168002932D101210160BC216846CD
:101C1000FEF703FD4FF08070009000246846119499
:101C200000F0CEFB08B1FEF7B6FF1348016841F49F
:101C3000805101600068022531AA00F48050349080
:101C40004FF68070CDE92F0503260C480C2782E85B
:101C5000D0002FA900F016F831AA4EF2B370CDE9EA
:101C60002F0507482FA982E8D00000F00BF835B007
:101C7000F0BD000000000024D444025800100258B7
:101C8000000C02582DE9F84F03247D4D00234FF03E
:101C900001094FF0B04B4FF00F0AE9E009FA03F7E2
:101CA0003A4076D00E7906F00306012E01D0022EBE
:101CB00018D1D0F808C04FEA430ECE6804FA0EF8E7
:101CC0002CEA080C06FA0EF646EA0C068660D0F8F6
:101CD00004C00E792CEA070CC6F300169E4046EAB3
:101CE0000C0646600E79F643B6070BD0C6684FEA7D
:101CF00043088F6804FA08FC26EA0C0607FA08F77E
:101D00003743C7600E7906F00306022E12D1DE08B3
:101D10000F694FEA437C00EB8606B646366A4FEA07
:101D2000DC6C0AFA0CF807FA0CF726EA08063743C7
:101D3000CEF820700F7906684FEA430807F00307D2
:101D400004FA08FC07FA08F726EA0C06374307608E
:101D50004E6816F4403F1CD04A4E376847F00207E1
:101D6000376036689F0706F00206009623F00306E8
:101D700006F1B046B6463F0FD6F80864DFF8088192
:101D80000AFA07FC404526EA0C0603D14FF0000C86
:101D900041E06CE0DFF8F4C0604502D14FF0010C87
:101DA00039E0DFF8ECC0604502D14FF0020C32E0C0
:101DB000DFF8E0C0604502D14FF0030C2BE0DFF804
:101DC000D8C0604502D14FF0040C24E0DFF8CCC04D
:101DD000604502D14FF0050C1DE0DFF8C4C060453E
:101DE00002D14FF0060C16E0DFF8B8C0604502D112
:101DF0004FF0070C0FE0DFF8B0C0604502D14FF0A4
:101E0000080C08E0DFF8A4C0604502D14FF0090CCF
:101E100001E04FF00A0C0CFA07FC4CEA060CCEF875
:101E200008C44F68DBF80060FF0226EA020600D50E
:101E300016435F46CBF80060D1F804C0DBF80460BD
:101E40005FEA8C2C26EA020600D516437E606E6897
:101E50004F6826EA0206BF0300D516436E602E685F
:101E60004F6826EA0206FF0300D516432E605B1C6E
:101E70000A6832FA03F67FF411AFBDE8F88F00006C
:101E800080000058F4440258000002580004025830
:101E900000080258000C02580010025800140258A2
:101EA00000180258001C0258002002580024025852
:101EB0000069084000D0012070470AB18161704775
:101EC0000904FBE701480068000C70470010005C43
:101ED00001488068704700000800002402488168BB
:101EE000027811448160704708000024032010B577
:101EF00000F0D4F801F042F80F4A10491468136852
:101F0000C4F3032203F00F038A5CC95C02F01F02D2
:101F100001F01F01D0400A4A20FA01F1116009497D
:101F200008600F2000F010F808B1012010BD00F08B
:101F300079F8002010BD000018440258F4C60208C9
:101F4000180000241400002470B50D4D04462878B4
:101F5000A0B14FF47A71B1FBF0F00A490968B1FB06
:101F6000F0F001F03FFC48B9102C07D200222146C6
:101F7000501E00F073F800206C6070BD012070BD31
:101F80000800002414000024F0B5154C4378211DEE
:101F90000A1D23600378F3B143680B60057BC67AA2
:101FA000817A437B2D07847B45EA0665C77B90F8E1
:101FB00009C0067A90F800E045EAC14040EA834053
:101FC00040EA444040EA074040EA0C2040EA46002C
:101FD00040EA0E0001E0002008601060F0BD000043
:101FE00098ED00E0BFF35F8F044800210368034AC7
:101FF00023F48033036070321160704724ED00E0F9
:10200000074A40F00100064970321060086840F449
:1020100080300860BFF34F8FBFF36F8F70470000B1
:1020200024ED00E0054808B5016841F002010160B7
:10203000006800F00200009008BD0000F44402585F
:10204000002809DB410900F01F028900012001F18D
:10205000E0219040C1F80001704700000E4BF0B441
:102060001B680D46C3F30223C3F10706042E00D9F3
:102070000426191D072901D2002300E0DB1E0124DC
:1020800004FA06F19C40491E2940641E9940144000
:102090002143F0BC05F03CBA0CED00E0064900F02D
:1020A000070210B54FF6FF040868044B204040EAD1
:1020B00002201843086010BD0CED00E00000FA0596
:1020C000134970B50A68D243520705D5096801F073
:1020D0000701814213D118E00A6822F00702024387
:1020E0000A60FFF7F5FE0A4D4FF47A760446083D84
:1020F00007E000BFFFF7ECFE001BB04201D9012052
:1021000070BD2868C0438004F4D4002070BD000076
:102110000C48025810B500F0EBFE05490968054A65
:10212000C1F30211515C01F01F01C84010BD000055
:1021300020440258F4C60208494930B5484C0B1DEA
:102140000A68143409681D68246802F00303C5F3A3
:102150000012C1F30531C4F3CC04002914FB02F2D0
:1021600000EE102AF8EE400A75D03F4A9FED3D1A66
:10217000B7EE000A6BB1DFED3D1A012B01D0022B47
:1021800064D002EE101A1168F8EE422A81EEA22AFB
:1021900021E0334C283C23689B0612D5344B24683D
:1021A00001EE901A1168C4F3C104F8EE612AE3400D
:1021B00001EE903AC1F30801F8EE611A81EEA22A0D
:1021C0000BE001EE901ADFED2B2A00BFF8EE611A4A
:1021D000116882EEA12AC1F3080101EE901A11687C
:1021E000F8EE611A40EE811A71EE800A62EE200A62
:1021F000C1F3462101EE101AB8EE411A31EE001A71
:10220000C0EE811ABCEEE11A80ED001A1168C1F32C
:10221000064101EE101AB8EE411A31EE001AC0EE76
:10222000811ABCEEE11A80ED011A1168C1F3066152
:1022300001EE101AB8EE411A31EE000A80EE801A53
:10224000BCEEC10A80ED020A30BD04E001EE901A36
:10225000DFED092ABAE70021016041608160F3E700
:102260002844025800000039384402580024744AB7
:102270000090D0030024744C20BCBE4B494930B5BB
:10228000484C0B1D0A681C3409681D68246802F05C
:102290000303C5F30022C1F30551C4F3CC040029A4
:1022A00014FB02F200EE102AF8EE400A75D03F4A05
:1022B0009FED3D1AB7EE000A6BB1DFED3D1A012B21
:1022C00001D0022B64D002EE101A1168F8EE422AF7
:1022D00081EEA22A21E0334C283C23689B0612D5CC
:1022E000344B246801EE901A1168C4F3C104F8EE6F
:1022F000612AE34001EE903AC1F30801F8EE611A59
:1023000081EEA22A0BE001EE901ADFED2B2A00BF2E
:10231000F8EE611A116882EEA12AC1F3080101EEFC
:10232000901A1168F8EE611A40EE811A71EE800A77
:1023300062EE200AC1F3462101EE101AB8EE411AEE
:1023400031EE001AC0EE811ABCEEE11A80ED001ADF
:102350001168C1F3064101EE101AB8EE411A31EED0
:10236000001AC0EE811ABCEEE11A80ED011A116864
:10237000C1F3066101EE101AB8EE411A31EE000AFF
:1023800080EE801ABCEEC10A80ED020A30BD04E086
:1023900001EE901ADFED092ABAE7002101604160E1
:1023A0008160F3E728440258000000394044025895
:1023B0000024744A0090D0030024744C20BCBE4B0F
:1023C0002DE9FC5F044650F8241B002500902E46A2
:1023D0000801FE4FDFF8F8831DD5606E50B1B0F5EF
:1023E000801F0CD0B0F5001F0ED0B0F5401F1DD0DF
:1023F00001250FE0386840F40030386016E0022113
:10240000201D02F0B3F903E00098022102F03EFA29
:1024100005000BD02E462088C00523D5606D052809
:102420001ED2DFE800F00C11161B1B00626ED8F8FC
:10243000001021F440111143C8F80010EBE7386890
:1024400040F40030386009E00021201D02F08EF9D0
:1024500003E00098002102F019FA05466DB100E092
:1024600001252E462088800528D5A06D80281ED005
:102470000CDC90B140280ED114E0626DD8F8001049
:1024800021F007011143C8F80010EBE7C02813D072
:10249000B0F5807F10D001250FE0386840F400309F
:1024A000386009E00021201D02F060F903E0009887
:1024B000002102F0EBF9054695B12E462088DFF8A1
:1024C0001093400509F108092CD5D4F8A400B0F503
:1024D000800F20D00DDCA0B1B0F5001F0FD115E0AA
:1024E000A26DD8F8001021F4E0711143C8F8001073
:1024F000E4E7B0F5C00F13D0B0F5000F10D0012500
:102500000FE0386840F40030386009E00021201DF9
:1025100002F02CF903E00098002102F0B7F905461B
:1025200075B12E46208800052DD5D4F8A800B0F14D
:10253000007F21D00EDCA8B1B0F1807F10D116E071
:10254000D4F8A420D9F8001021F460011143C9F88F
:102550000010E7E7B0F1407F13D0B0F1806F10D0EA
:1025600001250FE0386840F40030386009E00021B0
:10257000201D02F0FBF803E00098002102F086F92C
:1025800005466DB12E46206880011FD5A06CD8B1DC
:1025900010280FD0202812D0302815D0012514E0A3
:1025A000D4F8A820D9F8001021F0E0611143C9F84F
:1025B0000010E8E7386840F40030386004E0022199
:1025C000201D02F0D3F805466DB12E462088C004C8
:1025D0002BD5E06DB0F5005F20D00DDCA0B1B0F5DB
:1025E000805F0FD115E07A48A26C001F016821F0CE
:1025F000300111430160E9E7B0F5405F13D0B0F559
:10260000804F10D001250FE0386840F4003038606A
:1026100009E00021201D02F0A9F803E00098002144
:1026200002F034F9054685B12E462088800429D56C
:10263000206EB0F5403F23D010DC08B3B0F5803FEA
:1026400014D0B0F5003F0FD115E0E26DD8F80010BE
:1026500021F4E0411143C8F80010E6E7B0F5802FFF
:102660000ED0B0F5A02F0BD001250AE00121201DCE
:1026700002F07CF803E00098012102F007F905461A
:102680008DB12E46208840042AD5D4F8AC00B0F194
:10269000405F23D010DC08B3B0F1805F14D0B0F1FC
:1026A000005F0FD115E0226ED8F8001021F4E02170
:1026B0001143C8F80010E5E7B0F1804F0ED0B0F13B
:1026C000A04F0BD001250AE00121201D02F04EF899
:1026D00003E00098012102F0D9F805466DB12E46BD
:1026E000208800041FD5E06ED8B1B0F1805F0ED015
:1026F000B0F1005F10D0012514E0D4F8AC20D9F877
:10270000001021F0E0411143C9F80010E8E73868F3
:1027100040F40030386004E00121201D02F026F86A
:1027200005466DB12E462068C0011ED5606CD0B143
:1027300001280ED0022811D0032814D0012513E05F
:10274000E26ED8F8001021F040511143C8F8001093
:10275000E9E7386840F40030386004E00221201DC9
:1027600002F004F8054685B12E462068DFF85CB01B
:102770004002ABF11C0B57D51648016841F480713B
:102780000160FFF7A5FB82460EE01148626C001F56
:10279000016821F0030111430160E6E7FFF798FBB0
:1027A000A0EB0A0064283DD80A480068C005F5D5AA
:1027B0007DBBDFF81CA0B4F8B0200AF1200ADAF8DB
:1027C000001002F4407001F4407105E02C440258FE
:1027D0005044025800480258814211D0DAF80010E3
:1027E000DAF8002021F4407142F48032CAF8002067
:1027F000DAF8002022F48032CAF80020CAF800106B
:10280000D4F8B000B0F5807F21D1FFF761FB0190D3
:1028100019E008E0FFF75CFB0199411A41F28830AA
:10282000814210D903252E462078DFF844A4C00742
:102830003DD0A06F182838D026DC80B3082829D0D6
:10284000102825D12CE0DAF800008007E2D5D4F872
:10285000B010C1F30120032858460DD0016821F4BF
:102860007C510160B4F8B020DAF80010C2F30B021A
:102870001143CAF80010D7E7FE4A036802EA1112B2
:1028800023F47C511143ECE720280ED028280CD0EB
:1028900001250BE00121201D01F068FF04E004E0A8
:1028A0000098012101F0F2FF05465DB12E46207827
:1028B00080071ED5606F062819D2DFE800F0160CDD
:1028C00011161616A26FDAF8001021F03801114324
:1028D000CAF80010EBE70121201D01F047FF03E0DB
:1028E0000098012101F0D2FF054675B100E00125F5
:1028F0002E46207840071FD5D4F89000062819D21C
:10290000DFE800F0160C11161616626FDAF80010E8
:1029100021F007011143CAF80010EAE70121201D48
:1029200001F024FF03E00098012101F0AFFF05460C
:102930009DB100E001252E46207880062BD5D4F8E5
:102940008C00B0F1405F24D011DC10B3B0F1805F97
:1029500015D0B0F1005F10D116E0D4F89020D9F86E
:10296000001021F007011143C9F80010E4E7B0F1AD
:10297000804F0ED0B0F1A04F0BD001250AE000210E
:10298000201D01F0F3FE03E00098022101F07EFF1C
:1029900005468DB12E46207840062BD5D4F89800F8
:1029A000B0F5406F24D011DC10B3B0F5806F15D0B6
:1029B000B0F5006F10D116E0D4F88C20DAF80010D2
:1029C00021F0E0411143CAF80010E4E7B0F5805F60
:1029D0000ED0B0F5A05F0BD001250AE00021201D2C
:1029E00001F0C4FE03E00098022101F04FFF05460C
:1029F0008DB12E46207800062BD5D4F89C00B0F57A
:102A0000C04F24D011DC10B3B0F5005F15D0B0F585
:102A1000804F10D116E0D4F89820D9F8001021F496
:102A2000E0511143C9F80010E4E7B0F5004F0ED0B3
:102A3000B0F5204F0BD001250AE00021201D01F048
:102A400095FE03E00098022101F020FF05464DB1FC
:102A50002E46207800071ED5D4F88000B0F5805FA0
:102A60000AD00FE0D4F89C20D9F8001021F460417E
:102A70001143C9F80010ECE70098022101F006FFAD
:102A800000B10126D4F88020DAF8001021F440517A
:102A90001143CAF800102078C00613D5D4F894006A
:102AA000B0F5807F05D10098022101F0EFFE00B162
:102AB0000126D4F89420D9F8001021F44071114374
:102AC000C9F800102068000316D5D4F8A00038B16A
:102AD000B0F5803F09D0B0F5003F0BD001250AE0EA
:102AE0000021201D01F042FE03E00098022101F0C8
:102AF000CDFE054685B12E462068400322D5D4F888
:102B00008400B0F5801F11D0B0F5001F13D0B0F5D0
:102B1000401F15D0012514E0D4F8A020D9F80010EA
:102B200021F440311143C9F80010E5E7386840F45A
:102B30000030386004E00098012101F0A7FE05464E
:102B400055B12E462068C0031CD5E06C70B1B0F5BD
:102B5000803F10D0012514E0D4F88420DAF800106A
:102B600021F440111143CAF80010EBE7386840F433
:102B70000030386004E00221201D01F0F7FD054619
:102B8000CDB12E462068800005D50098022101F0C5
:102B90007DFE00B10126206880031BD5E06FB8B12F
:102BA000B0F5807F10D0B0F5007F11D0B0F5407F38
:102BB0000ED001250DE02E48E26C0838016821F4A2
:102BC000803111430160DDE7386840F4003038603F
:102BD000F5B32E462068C00207D5226FD8F8001042
:102BE00021F000411143C8F800102068C00008D54A
:102BF000D4F8B420DBF8001021F480411143CBF865
:102C000000102068800207D5A26ED8F8001021F0CD
:102C100080711143C8F80010206840000CD5DBF823
:102C2000001021F40041CBF80010DBF80010D4F8BC
:102C3000B8201143CBF800102068002807DA0C48B0
:102C4000226D0838016821F040511143016000E015
:102C500014E02068000208D5D4F88820DAF80010C3
:102C600021F440011143CAF8001086B1012003E0AD
:102C700054440258CFFFFF00BDE8FC9FE26FDAF832
:102C8000001021F440711143CAF80010A2E700209F
:102C9000EDE700002DE9F05F04000F467ED0DFF87D
:102CA0003882D8F8000000F00F00B8420CD2D8F8F3
:102CB000001021F00F013943C8F80010D8F80000C7
:102CC00000F00F00B84269D12078844D40070AD542
:102CD0002069296801F07001884204D9296821F02F
:102CE00070010143296020787C4E361D00070AD50B
:102CF0006069316801F07001884204D9316821F0BF
:102D00007001014331602078C0060AD5A06931689E
:102D100001F4E061884204D9316821F4E0610143A3
:102D200031602078DFF8B4B180060BF1080B0CD5C8
:102D3000E1695846DBF8002002F07002914204D9A4
:102D4000026822F070020A430260207880070AD5E8
:102D5000E068296801F00F01884204D9296821F050
:102D60000F01014329602078C0073ED05B49A2686B
:102D70002868183920F470601043286060680228C1
:102D800018D0032819D00968012819D0490700294B
:102D90004ADADFF848A1AAF1080A00E044E0DAF8CC
:102DA000002022F007020243CAF80020FFF790F843
:102DB000814612E009688903E9E709688901E6E7C5
:102DC000C905E4E7FFF784F8A0EB090141F2883078
:102DD000814202D90320BDE8F09F6168DAF8000063
:102DE00000F03800B0EBC10FECD1207880070AD595
:102DF000E068296801F00F01884204D2296821F0B7
:102E00000F0101432960D8F80010404601F00F017E
:102E1000B9420BD9016821F00F0139430160006804
:102E200000F00F00B84201D00120D4E7207840071D
:102E30000AD52069296801F07001884204D2296806
:102E400021F0700101432960207800070AD56069EC
:102E5000316801F07001884204D2316821F07001BC
:102E6000014331602078C0060AD5A069316801F4B9
:102E7000E061884204D2316821F4E06101433160AD
:102E8000207880060CD5E1695846DBF8002002F076
:102E90007002914204D2026822F070020A4302607A
:102EA00000F06CF80E492A682B68C2F3032203F085
:102EB0000F038A5CC95C02F01F0201F01F01D040C1
:102EC000084A20FA01F111600749086007480068C4
:102ED000BDE8F05FFFF738B80020005218440258F0
:102EE000F4C6020818000024140000240C0000247A
:102EF00030B500F043F80B4A0B490C4B15681468C9
:102F0000C5F3032204F00F048A5C095D02F01F027E
:102F100001F01F01D040064A20FA01F1196010604B
:102F2000084630BD18440258F4C6020818000024B0
:102F30001400002400B5FFF7DBFF05490968054AC6
:102F4000C1F30211515C01F01F01C84000BD000037
:102F50001C440258F4C6020800B5FFF7C9FF054932
:102F60000968054AC1F30221515C01F01F01C84004
:102F700000BD00001C440258F4C60208454970B563
:102F800045480968434B103B11F0380208D0011145
:102F9000082A03D0102A0BD0182A0BD0084670BD7F
:102FA00019688906FBD51968C1F3C101C84070BD15
:102FB0003A4870BD3749374D18310C1D24350A6821
:102FC000096826682D6802F0030406F00102C1F3C7
:102FD0000511C5F3CC0515FB02F200EE102AB8EE80
:102FE000400AE9B32F4ADFED2E0AB7EE001A6CB1A2
:102FF000DFED2D1A012C01D0022C43D002EE101A65
:103000001068F8EE422A81EEA22A1EE01C68A4068F
:1030100011D51B6801EE901A1168C3F3C103F8EED5
:10302000612AD84001EE900AC1F30800F8EE611A57
:1030300081EEA22A0BE001EE901ADFED1C2A00BF00
:10304000F8EE611A106882EEA12AC0F3080001EEC2
:10305000900AF8EE611A40EE201A31EE810A00E083
:1030600015E022EE000A1068C0F34620401C00EE76
:10307000900AF8EE600A80EE201ABCEEC10A10EE4B
:10308000100A70BD01EE901ADFED092AD8E7002082
:1030900070BD0000104402580090D00340787D01BC
:1030A00000000039304402580024744A0024744C53
:1030B00020BCBE4B2DE9F05F04007DD0FF4F20788F
:1030C000FE4D1837DFF8F493103DC00748D0D9F80B
:1030D0000000396800F03800102815D0182803D1F6
:1030E00001F0030002280FD06068B0F5803F12D0D5
:1030F00010B1B0F5A02F18D0286820F480302860D7
:10310000286820F4802009E02868800328D56068BA
:103110000028D2D024E0286840F48030286060681D
:1031200088B1FEF7D5FE064609E0286840F4802005
:103130002860F0E7FEF7CCFE801B64286FD8286873
:103140008003F7D50CE0FEF7C3FE064605E000BF9E
:10315000FEF7BEFE801B6428F0D828688003F7D4F1
:10316000207841F20308D54E0C3E800769D5D9F886
:103170000000396810F038000ED0182801D18807F7
:103180000AD0E06890B3296821F019010143296051
:10319000FEF79EFE824631E02868400702D5E068CF
:1031A00000288AD0E168286820F0190008432860C8
:1031B000FEF78EFE824607E0DFE000BFFEF788FEE6
:1031C000A0EB0A000228B9D828684007F6D500BF4E
:1031D000FEF778FE40451BD82069402812D03168A0
:1031E00021F47C3141EA003030602AE018E000BF71
:1031F000FEF76EFEA0EB0A0002289FD82868400761
:10320000F6D5E5E7306820F47C3040F40030EBE799
:10321000207C316821F0FE4141EA0060E4E70DE1E5
:10322000286820F001002860FEF752FE824605E083
:10323000FEF74EFEA0EB0A0002288DD82868400752
:10324000F6D42078C0065DD5D9F80000DFF86CB25E
:10325000396800F03800ABF1040B082810D01828AA
:1032600003D101F0030001280AD0E0690028286892
:1032700038D040F080002860FEF72AFE824623E026
:103280002868C00523D5E069802876D11FE0206A30
:10329000202821D0316821F0F84141EA8060306077
:1032A00030E000BF94F82010DBF8002022F07C52C0
:1032B00042EA0161CBF8001024E000BFFEF708FEEF
:1032C000A0EB0A00022898D82868C005F6D5FEF7BA
:1032D000F9FD4045E6D8DAE7306820F0F84040F0E4
:1032E0008040DCE720F080002860FEF7F1FD064614
:1032F00005E000BFFEF7ECFD801B02289DD8286882
:10330000C005F7D42078000729D56C48616964307E
:1033100000298046016811D041F001010160FEF7EB
:10332000D7FD064605E000BFFEF7D2FD801B022850
:10333000C9D8D8F800008007F6D510E021F00101C7
:103340000160FEF7C5FD064605E000BFFEF7C0FDC3
:10335000801B022872D8D8F800008007F6D42078A5
:10336000800623D5A0690028286810D040F480503A
:103370002860FEF7ADFD064605E02CE1FEF7A8FD4E
:10338000801B02285AD828688004F7D50EE020F464
:1033900080502860FEF79CFD064604E0FEF798FD8D
:1033A000801B02284AD828688004F7D42078400778
:1033B0004FD5DFF80C81D8F8001041F48071C8F8BF
:1033C0000010FEF785FD064605E000BFFEF780FD14
:1033D000801B642832D8D8F80000C005F6D5374ED7
:1033E000A068603601280AD008B1052813D03068DB
:1033F00020F001003060306820F0040002E0306806
:1034000040F001003060A06841F2883A90B1FEF7C8
:103410005FFD80460AE0306840F004003060EEE76F
:10342000FEF756FDA0EB0801514507D8306880072C
:10343000F6D50EE0FEF74CFD804607E084E000BFC5
:10344000FEF746FDA0EB080151457DD830688007A6
:10345000F6D4606AB0B3DFF86480D9F8001008F1E0
:103460002008C1F3C20103296FD00228286820F088
:103470008070286003D0FEF72BFD044680E0FEF745
:1034800027FD064605E000BFFEF722FD801B02284F
:1034900073D828688001F7D4E26A40F2F3313868C3
:1034A00054F8283F884340EA021018433860217BD3
:1034B0004FF4FE0C22894FF0FE4704E010440258FE
:1034C0000048025889E0208A4902521E267DA1F553
:1034D000007189B2401EC2F308021143761E0CEA45
:1034E000004001433E4807EA066211433C4AC8F8DF
:1034F00000100832016821F00101016011684FF6E7
:10350000F876236AB14341EAC30111600168A269F8
:1035100021F00C01114301600168E26921F0020110
:1035200011430160016841F480310160016841F498
:1035300000310160016841F480210160016841F0BF
:1035400001010160286801E017E01DE040F0807093
:103550002860FEF7BDFC044605E000BFFEF7B8FC9E
:10356000001B022809D828688001F7D535E000BF84
:10357000FEF7AEFC001B022802D90320BDE8F09F35
:1035800028688001F4D428E039680128D8F80000C0
:1035900021D0A26A01F0030393421CD1E26AC1F375
:1035A00005118A4217D1216BC0F30802491E8A42D5
:1035B00011D1616BC0F34622491E91420BD1A16B20
:1035C000C0F30642491E914205D1E16BC0F306608B
:1035D000491E814201D00120D0E70020CEE7000043
:1035E0002C44025870B504000D4603D094F82C000A
:1035F00010B107E0012070BD002084F82D002046A6
:1036000000F018F8022084F82C002068211DFDF736
:1036100063FBD4E900022946FDF7B0FB0448012111
:10362000026842F00042026084F82C10002070BD55
:10363000004000522E4810B586B0016841F4805118
:103640000160006800F48050059029480C30016842
:1036500041F004010160016801F004010591016875
:1036600041F008010160016801F00801059101685D
:1036700041F010010160016801F01001059101683D
:1036800041F020010160016801F02001059101680D
:1036900041F04001016000680221012200F0400079
:1036A00005900D2003230C248DE81F001148694666
:1036B000FEF7E8FA4CF2037000900F486946FEF7F7
:1036C000E1FA4FF6837000900C486946FEF7DAFA8B
:1036D0004FF63F0000900A486946FEF7D3FA48F2D9
:1036E0003710009007486946FEF7CCFA06B010BDC7
:1036F000D444025800080258000C02580010025826
:10370000001402580018025810B5044690F82C0016
:10371000022804D094F82C00012801D0012010BD0B
:10372000022084F82C002068FDF70BFB012084F8B0
:103730002C00002010BD000070B5044690F82C004D
:103740000D46022804D0012803D0052801D001200D
:1037500070BD022084F82C002068FDF7FBFA286871
:10376000022805D05FF0010084F82C00002070BD15
:103770000520F9E770B5040015460E4603D094F80D
:10378000450010B107E0012070BD002084F844001E
:10379000204600F025F8206804F10801FDF71EFA24
:1037A000A26831462068FDF763FAE36A2946D4E946
:1037B0000102FDF7F3F9A16801232068074A50F8D8
:1037C000215045F0010540F82150106840F00040BC
:1037D000106084F84530002070BD000000400052A9
:1037E000FEF708BA401EB0F1807F10B501D301206A
:1037F00010BD4FF0E02460610F21601703F088FED8
:103800000020A0610721216110BD704770477047FB
:10381000F0B590F83C20012A3BD01F4E012480F8DF
:103820003C40022280F83D2002681C4D5368B242A1
:10383000D2F808C001D0AA4203D14F6823F4700324
:103840003B430F6823F070031F4357600268B24286
:1038500013D0B2F1804F10D0114B9A420DD0114BC2
:103860009A420AD0104B9A4207D0AA4205D00F4B79
:103870009A4202D00E4B9A4204D189682CF0800300
:1038800019439160002180F83D4080F83C100846C3
:10389000F0BD0220F0BD0000000001400004014026
:1038A0000004004000080040000C004000180040E8
:1038B0000040014010B5040003D094F83D0010B161
:1038C00007E0012010BD002084F83C00204600F0F5
:1038D00023F8022084F83D002068211D03F08CFAB3
:1038E000012084F8480084F83E0084F83F0084F802
:1038F000400084F8410084F8420084F8430084F8D2
:10390000440084F8450084F8460084F8470084F8B1
:103910003D00002010BD000008B500680B4988423A
:1039200012D10B48016841F00201016000680022D9
:10393000114600F0020000901D20FEF78FFBBDE84D
:1039400008401D20FEF77CBB08BD000000040040BD
:10395000E844025890F83D10012901D00120704739
:10396000174A022180F83D100168CB6843F001033B
:10397000CB600068904214D0B0F1804F11D0114953
:1039800088420ED0104988420BD01049884208D096
:103990000F49884205D00F49884202D00E4988421B
:1039A00007D181680D4A1140062906D0B1F5803F44
:1039B00003D0016841F00101016000207047000060
:1039C000000001400004004000080040000C0040DE
:1039D00000040140001800400040014007000100C1
:1039E00070B5044690F83C000025012814D03A4BED
:1039F000012684F83C60022084F83D00226890682B
:103A0000184020F47F409060086870282FD010DCA8
:103A100010F00F0F03D022E04FF0020070BD4FEA0C
:103A20002012072A1BD2DFE802F0535353534B39BD
:103A30004100B0F1101F4BD009DCB0F5805F0FD012
:103A4000B0F5005F1ED0B0F5801F08D140E0A0F5B2
:103A5000801120393CD010293AD0202938D00125B6
:103A600084F83D60002084F83C00284670BD4A6818
:103A70002068D1E9021303F021FA2068816841F03F
:103A8000770109E04A682068D1E9021303F016FAC9
:103A90002068816841F480418160E1E7CA68496833
:103AA000206803F01FFA2068502106E0CA684968C0
:103AB000206803F028FA2068602103F009FACFE7B4
:103AC000CA684968206803F00DFA20684021F4E7CD
:103AD000226801461046F0E788FFCEFF704770B5B8
:103AE0000446006800250169C943890715D4C168E7
:103AF000C943890711D4EA1E026101212177206898
:103B000080698007204602D0FFF7E8FF04E000F05C
:103B1000A7F8204600F0A5F8257720680169C94379
:103B2000490717D4C168C943490713D402216FF06C
:103B30000402026121772068806910F4407F2046EA
:103B400002D0FFF7CBFF04E000F08AF8204600F037
:103B500088F8257720680169C943090716D4C16828
:103B6000C943090712D404216FF0080202612177CA
:103B70002068C0698007204602D0FFF7AFFF04E04D
:103B800000F06EF8204600F06CF825772068016997
:103B9000C943C90617D4C168C943C90613D408214B
:103BA0006FF01002026121772068C06910F4407F35
:103BB000204602D0FFF792FF04E000F051F82046C3
:103BC00000F04FF8257720680169C943C90708D17B
:103BD000C168C943C90704D1891E0161204600F0AC
:103BE00041F820680169C943090609D4C168C9437D
:103BF000090605D46FF0800101612046FFF706FE3B
:103C000020680169C943C90509D4C168C9430906C7
:103C100005D46FF4807101612046FFF7F6FD20683E
:103C20000169C943490609D4C168C943490605D495
:103C30006FF040010161204600F015F8206801692D
:103C4000C94389060BD4C168C943890607D46FF0FC
:103C5000200101612046BDE87040FFF7D8BD70BD6E
:103C6000704770477047704730B590F88010012951
:103C700018D0012280F880202421C0F8841000226E
:103C8000202450F8641B0B680D6823F0005325F0C6
:103C900001050D60026050F8641C0B60046202773D
:103CA000104630BD022030BD70B5044690F880004B
:103CB00001281DD0012284F880202420C4F884002B
:103CC00020680568026822F00102026020688268AC
:103CD00022F060620A438260204603F027F92268DE
:103CE000202100201560C4F8841084F8800070BD85
:103CF000022070BD70B5044690F8800001281DD0E8
:103D0000012284F880202420C4F8840020680568FB
:103D1000026822F0010202602068826822F060429C
:103D20000A438260204603F001F922682021002026
:103D30001560C4F8841084F8800070BD022070BD46
:103D400010B5040003D0D4F8840010B107E00120BE
:103D500010BD002084F88000204600F027F82420C1
:103D6000C4F884002068016821F001010160204648
:103D700003F092F90128EBD0A06A10B1204603F0BD
:103D8000F7F82068416821F490414160206881681B
:103D900021F02A0181602068016841F00101016081
:103DA0002046BDE8104003F047B9000010B5B6B09A
:103DB000044614212FA8FCF730FCBC216846FCF710
:103DC0002CFC18492068884229D100241E94012027
:103DD00000906846FEF7F4FA08B1FCF7DCFE1248E2
:103DE000016841F010010160006800F0100034909B
:103DF0000D481038016841F00101016000682FABE7
:103E0000022100F0010034904FF4C060072283E8E3
:103E1000130006482FA9CDE93242FDF733FF36B033
:103E200010BD000000100140F0440258000002588C
:103E3000FEE700000A4970B50646088800244D8850
:103E400021464543204600F091F900F0EDFAB0B26A
:103E5000044901E00880641CAC42FBD370BD000043
:103E600030060024000008602DE9F04F36492C236D
:103E700000284FF02A094FF4305E4FF02B044FF426
:103E8000487545F2105B887108464FF4A0774FF0F3
:103E9000F00C4FF4F07249F24138808845F2103648
:103EA0000CD00F804045BA46A1F802C001D0B04204
:103EB0002AD10B81A1F80A908C813AE0A1F800C0C8
:103EC00040454F8001D0B04208D10B81B042A1F8EB
:103ED0000A908C8132D10F804A802FE0584508D15A
:103EE000A1F808E04FF428544C814FF42C538B81F7
:103EF00007E0A0F5C856633E20D10B814C81A1F8A4
:103F00000C900A804D8019E0584508D1A1F808E0CE
:103F10004FF428544C814FF42C578F8107E0A0F5C3
:103F2000C857633F05D10B81A1F80A908C810D80A1
:103F30004A80B04202D10A80A1F802A00020BDE868
:103F4000F04F00F037B8000030060024034808B5F1
:103F50000088ADF80000BDF8000008BD0000086052
:103F60000246BE2000B500F053FA052000F044FAE6
:103F700000EE102A9FED0D1BB8EE400B20EE010B5A
:103F8000BCEEC00B10EE100A80B200F035FA012032
:103F900000F032FAFF2000F02FFA002000F02CFA97
:103FA0005DF804EB002000F027BA00006666666644
:103FB00066660440F0B56C4C002541F66317214657
:103FC000A2798988012A01D01AB11BE0B94202D135
:103FD00018E0B94216D1082814D2DFE800F0040630
:103FE000080A0C0E101206200CE007200AE004203C
:103FF00008E0052006E0012004E0002002E00320A4
:1040000000E0022045F21032A1F5134345F21056AC
:10401000413B05D0914203D0B14201D0B94277D1A2
:10402000082812D2DFE800F0110406080A0C0E106E
:1040300080250AE0402508E0C02506E0202504E0B0
:10404000602502E0A02500E0E025B14202D14FF456
:10405000585000E03620914205D0B14203D0B94219
:1040600001D045F00805294600F0E8F9A188B942D9
:104070000AD06288A806208802D5904202D303E0C5
:10408000904201D922806080B142608941D100F024
:10409000BFF9002000F0B0F96089401C80B200F048
:1040A000B7F9002000F0A8F96089801C80B200F008
:1040B000AFF92088401EC0F30F2000F09DF9608901
:1040C000C01C80B200F0A4F92078401EC0B200F0FD
:1040D00093F9A08900F09CF9002000F08DF9A089E7
:1040E000401C80B200F094F9002000F085F9A0890E
:1040F000801C80B200F08CF96088401EC0F30F2055
:1041000000F07AF9A089C01C80B200F081F922E0A9
:1041100028E000F07DF9002000F06EF9002000F0AA
:104120006BF92088401EC0F30F2000F065F920785D
:10413000401EC0B200F060F9A08900F069F90020CB
:1041400000F05AF9002000F057F96088401EC0F3D3
:104150000F2000F051F9A078BDE8F040401EC0B239
:1041600000F04AB9F0BD000030060024F0B53F4A27
:10417000060A04460D4610460F0A91884089A1F5AB
:104180001343413B28D0A1F5A643103B24D0A1F511
:10419000C853633B2FD0A1F5AA43103B64D100F074
:1041A00037F9304600F028F95089401C80B200F001
:1041B0002FF9E0B200F020F9908900F029F9384693
:1041C00000F01AF99089401C80B200F021F9E8B2A1
:1041D000BDE8F04000F010B900F01AF9304600F0E8
:1041E0000BF9E0B200F008F9908900F011F93846B7
:1041F00000F002F9EBE7917929B300F009F93046B4
:1042000000F0FAF8E0B200F0F7F81088401EC0F3B2
:104210000F2000F0F1F81078401EC0B200F0ECF86A
:10422000908900F0F5F8384600F0E6F8E8B200F0C2
:10423000E3F85088401EC0F30F2000F0DDF89078BE
:10424000401EC0B2C4E71188091B491E8CB200F0A1
:10425000DFF8002000F0D0F8002000F0CDF8200AB0
:1042600000F0CAF8E0B2D9E7F0BD00003006002443
:104270002DE9FC4FDFF87C910D4619440446831864
:104280005B1E8618B9F804004FEA034C491E761EDF
:10429000A0F51343413BC1F3072301934FEA1523D4
:1042A00000934B46B6B21FFA81F85B894FEA1C6B4C
:1042B0004FEA142A0BD0A0F5A647103F07D099F873
:1042C000067041F6631C012F1ED160451CD11846B3
:1042D00000F09EF8504600F08FF8E0B200F08CF845
:1042E000584600F089F8F0B200F086F8B9F80C00F2
:1042F00000F08EF8009800F07FF8E8B200F07CF84B
:10430000019800F079F86CE0604526D1B9F800001A
:104310008EB2801A001B84B2184600F079F8200A89
:1043200000F06AF8E0B200F067F82244521EC2F3CF
:104330000F2000F061F8D0B200F05EF8B9F80C0080
:1043400000F066F8009800F057F8E8B200F054F872
:10435000300A00F051F8F0B245E0A0F5AA4110395A
:1043600045D1184600F054F8504600F045F8B9F829
:104370000A00401C80B200F04BF8E0B200F03CF8BC
:10438000B9F80A00801C80B200F042F8584600F0EC
:1043900033F8B9F80A00C01C80B200F039F8F0B266
:1043A00000F02AF8B9F80C0000F032F8009800F09C
:1043B00023F8B9F80C00401C80B200F029F8E8B2EC
:1043C00000F01AF8B9F80C00801C80B200F020F858
:1043D000019800F011F8B9F80C00C01C80B200F090
:1043E00017F808F0FF00BDE8FC4F00F005B8BDE885
:1043F000FC8F00003006002401B5BDF80010034812
:10440000ADF80010BDF80010018008BD0000086084
:1044100001B5BDF800100348ADF80010BDF800105C
:10442000018008BDFEFF076002480349008908803B
:104430007047000030060024FEFF0760024B9A1C04
:104440001880118070470000FEFF0760014815F0DA
:1044500061BC000074EE03247FB500240094019435
:1044600002940394FDF7BEFD19218DF808108DF814
:104470000C4001258DF809404FF0C0408DF80D40EB
:1044800003228DF800508DF80A408DF80E408DF80B
:104490000140019068468DF80B208DF80F50FDF714
:1044A00073FD4FF040408DF801501821019068468F
:1044B0008DF80810FDF768FD0420FDF7A1FD7FBD14
:1044C0001A48F8B5016841F0010101600068002157
:1044D000174C802500F0010000901648E21400F10E
:1044E00010076615C0E9004185609300C66004248A
:1044F00087E80E0000F12002C161032582E8320046
:10450000C1620163FDF706F808B1FCF744FB002225
:1045100001210B20FDF7A2FD0B20FDF791FDBDE869
:10452000F840054A00210348FDF7D6B9D84402589F
:1045300010000240900400244D440008F0B58FB0F4
:104540001C216846FCF769F81C2107A8FCF765F8F0
:104550001D480021DFF86CC010221C4F11250F23CD
:10456000C0F800C04FF4804CC0E90171C16017026F
:10457000C0E9041281610426C1610124C0E9081761
:104580005704C0E90A1C01634163C0E90E170164C6
:10459000552005950093CDE90130CDE90616CDE90A
:1045A0000342CDE90C51CDE90A42074807AACDE9FB
:1045B00008366946FFF7DEF8002801D0FCF7EBFA71
:1045C0000FB0F0BD00400052080500240441005225
:1045D00030B587B014216846FCF71FF82A480168F7
:1045E00041F020010160016801F02001059101689E
:1045F00041F080010160016801F0800105910168CE
:1046000041F004010160016801F0040105910168B5
:1046100041F040010160016801F04001059101682D
:1046200041F010010160016801F01001059101687D
:1046300041F008010160016801F00801059101687D
:1046400041F001010160016801F00101059101687B
:1046500041F00201016000684FF400740B4D00222C
:1046600000F00200214605902846FDF726FC0021B7
:1046700000940120CDE90101284603916946FDF728
:1046800001FB07B030BD0000E044025800040258AE
:1046900030B587B0184800241649EF2240F2E733BE
:1046A0000094802501940294039404940594069444
:1046B00080E816008561C0E90334FFF7FBF808B114
:1046C000FCF769FA4FF4805000900B486946FFF7F9
:1046D00087F908B1FCF75FFA20200490064804A986
:1046E0000694FFF795F8002801D0FCF754FA07B0BC
:1046F00030BD00000004004054050024184800218B
:1047000010B5164C0C224FF4E1330460C0E90131BE
:10471000C160C0E904128161C161016241628162CC
:10472000FFF70EFB08B1FCF736FA0D480021FFF742
:10473000E1FA08B1FCF72FFA09480021FFF7B4FAB3
:1047400008B1FCF728FA0648FFF78EFA002803D0D4
:10475000BDE81040FCF71FBA10BD0000001001407A
:10476000A0050024FEE7FEE7704700002DE9F047B2
:10477000454D044689464FF0000A2868C04380072B
:104780000AD0414E283E306820F080603060FDF74E
:104790009FFB0746B04608E00120BDE8F08700BF58
:1047A000FDF796FBC01B022867D8D8F8000000016F
:1047B000F6D4206829684FF4FE0721F47C313E02CC
:1047C00041EA00302860207AA389B4F804C040028E
:1047D0002D4D2D495B1E227CACF1010C1035091DBD
:1047E000A0F5007080B2521ECCF3080C07EA034318
:1047F00040EA0C00184306EA026210432860086889
:10480000626920F0C000104308600A68A06922F0C5
:10481000200202430A60281D0A6822F010020A6082
:1048200002684FF6F873E4699A4342EAC4020260F0
:104830000868B9F1000F40F010020A6011D0086852
:10484000B9F1010F11D040F400100860D8F8000051
:10485000444640F08060C8F80000FDF739FB05468B
:104860000DE0086840F40020EFE740F48010ECE72A
:10487000FDF72EFB401B022801D903208DE720689D
:104880000001F5D5504688E7284402582DE9F04745
:10489000454D044689464FF0000A2868C04380070A
:1048A0000AD0414E283E306820F080503060FDF73D
:1048B0000FFB0746B04608E00120BDE8F08700BFC7
:1048C000FDF706FBC01B022867D8D8F8000080005F
:1048D000F6D4208829684FF4FE0721F07C713E024F
:1048E00041EA00502860207AA389B4F804C040024D
:1048F0002D4D2D495B1E227CACF1010C1835091D94
:10490000A0F5007080B2521ECCF3080C07EA0343F6
:1049100040EA0C00184306EA026210432860086867
:10492000626920F44060104308600A68A06922F4BC
:10493000007202430A60281D0A6822F480720A602D
:1049400002684FF6F873E4699A4342EAC4020260CF
:104950000868B9F1000F40F480720A6011D008684D
:10496000B9F1010F11D040F080700860D8F8000054
:10497000444640F08050C8F80000FDF7A9FA05460B
:104980000DE0086840F48000EFE740F40000ECE739
:10499000FDF79EFA401B022801D903208DE720680D
:1049A0008000F5D5504688E7284402587047FDF747
:1049B00095BA000030B59DB04C216846FBF72DFE3E
:1049C000202113A8FBF729FE0220FDF779FB2148DF
:1049D00000242149026842F44042026002680A68E9
:1049E00042F001020A60096801F001011B910168AF
:1049F0008904FCD5022000904025049501210391F3
:104A000004220B923C23CDE90904CDE90C300FAB15
:104A10000E900C2183E8130068461294FEF74AFBBF
:104A200008B172B6FEE708221A95CDE91625D30122
:104A300013AA3F200321CDE9185382E81300042173
:104A400013A8FEF727F9002801D072B6FEE71DB0C3
:104A500030BD0000184802582C0400582C48F0B50E
:104A60002C4A016841F470010160106800F00F00E9
:104A7000072804D2106820F00F00C01D10602649DE
:104A80000020254C10340B68244D43F001030B60CB
:104A900020600B682B400B60136803F00F03072B9B
:104AA00004D9136823F00F03DB1D13601A4C1C4A52
:104AB00018341C4B261D371D2060174C1A4D283406
:104AC0003060261D3860371D23603B1D35601C1D7E
:104AD0003A60251D2E1D1860331D2260286032604B
:104AE00018600A680C4B114C22F4802260330A6073
:104AF000186020686FF30F00B0F1005F03D20C491B
:104B00000120C1F8080143F2D2000A490860F0BD53
:104B100088ED00E000200052004402587FEDF6EAE4
:104B200080020101000202020000FF010010005C8F
:104B300000800051004000522DE9F05F3220FDF767
:104B400047F8D320FFF764FCFFF700FAFE4A908095
:104B5000FFF7FCF99080FFF7F9F94FF6FF7404EACC
:104B600000209080FFF7F2F9918849F2413641F632
:104B7000631845F21037084345F21055B042908053
:104B800046D0D420FFF744FCFFF7E0F99080FFF710
:104B9000DDF99080FFF7DAF904EA00209080FFF752
:104BA000D5F9918808439080B84231D04FF45A40EB
:104BB000FFF72EFCFFF7CAF990804FF45B40FFF738
:104BC00027FCFFF7C3F904EA002090804FF45C4013
:104BD000FFF71EFCFFF7BAF9918808439080B0F503
:104BE000004F7DD0A84213D0A120FFF711FCFFF7A2
:104BF000ADF99080FFF7AAF904EA00209080FFF752
:104C0000A5F9938818439080A0F5AE41613968D02A
:104C100080B2B04266D1CF20FFF7FAFB0020FFF749
:104C2000EBFBC120FFF7E8FB3020FFF7E5FBED20B1
:104C3000FFF7EEFB6420FFF7DFFB0320FFF7DCFB51
:104C40001220FFF7D9FB8120FFF7D6FBE820FFF702
:104C5000DFFB8520FFF7D0FB1020FFF7CDFB7A208C
:104C6000FFF7CAFBCB20FFF7D3FB3920FFF7C4FBCC
:104C70002C20FFF7C1FB0020FFF7BEFB3420FFF71D
:104C8000BBFB0220FFF7B8FBF720FFF7C1FB20209A
:104C9000FFF7B2FBEA20FFF7BBFB0020FFF7ACFBFE
:104CA0000020FFF7A9FBC020FFF7B2FB1B20FFF796
:104CB000A3FBC120FFF7ACFB0120FFF79DFBC52044
:104CC000FFF7A6FB3020FFF797FB3020FFF794FBA0
:104CD000C720FFF79DFBB720FFF78EFB362002E0D1
:104CE000B5E0B0E0B5E0FFF793FB4820FFF784FBA9
:104CF0003A20FFF78DFB5520FFF77EFBB120FFF731
:104D000087FB0020FFF778FB1A20FFF775FBB62022
:104D1000FFF77EFB0A20FFF76FFBA220FFF76CFB7B
:104D2000F220FFF775FB0020FFF766FB2620FFF758
:104D30006FFB0120FFF760FBE020FFF769FB0F200E
:104D4000FFF75AFB2A20FFF757FB2820FFF754FBF9
:104D50000820FFF751FB0E20FFF74EFB0820FFF75E
:104D60004BFB5420FFF748FBA920FFF745FB4320EE
:104D7000FFF742FB0A20FFF73FFB0F20FFF73CFB4A
:104D80000020FFF739FB0020FFF736FB0020FFF77C
:104D900033FB0020FFF730FBE120FFF739FB002059
:104DA000FFF72AFB1520FFF727FB1720FFF724FB4F
:104DB0000720FFF721FB1120FFF71EFB0620FFF75E
:104DC0001BFB2B20FFF718FB5620FFF715FB3C20A1
:104DD000FFF712FB0520FFF70FFB1020FFF70CFB7E
:104DE0000F20FFF709FB3F20FFF706FB3F20FFF7EF
:104DF00003FB0F20FFF700FB2B20FFF709FB002030
:104E0000FFF7FAFA0020FFF7F7FA0120FFF7F4FAAC
:104E10003F20FFF7F1FA2A20FFF7FAFA0020FFF708
:104E2000EBFA0020FFF7E8FA0020FFF7E5FAEF20A1
:104E3000FFF7E2FA1120FFF7EBFA7820FCF7C8FE43
:104E4000292001F007BFA2F8048001F008BF958077
:104E5000FDE3B8427AD1ED20FFF7DAFA0120FFF73F
:104E6000CBFAFE20FFF7C8FAEE20FFF7D1FADE20DA
:104E7000FFF7C2FA2120FFF7BFFAF120FFF7C8FAC7
:104E80000120FFF7B9FADF20FFF7C2FA1020FFF781
:104E9000B3FAC420FFF7BCFA8F20FFF7ADFAC620A3
:104EA000FFF7B6FA0020FFF7A7FAE220FFF7A4FA0F
:104EB000E220FFF7A1FAE220FFF79EFABF20FFF7FA
:104EC000A7FAAA20FFF798FAB020FFF7A1FA0D2061
:104ED000FFF792FA0020FFF78FFA0D20FFF78CFA08
:104EE0000020FFF789FA1120FFF786FA0020FFF76C
:104EF00083FA1920FFF780FA0020FFF77DFA2120BE
:104F0000FFF77AFA0020FFF777FA2D20FFF774FAFF
:104F10000020FFF771FA3D20FFF76EFA0020FFF73F
:104F20006BFA5D20FFF768FA0020FFF765FA5D2055
:104F3000FFF762FA0020FFF75FFAB120FFF768FA87
:104F40008020FFF759FA02E030060024FEE300203B
:104F5000FFF752FA8B20FFF74FFA0020FFF74CFAC9
:104F60009620FFF749FA0020FFF746FAB220FFF734
:104F70004FFA0020FFF740FA0020FFF73DFA022029
:104F8000FFF73AFA0020FFF737FA0320FFF734FA69
:104F90000020FFF731FAB320FFF73AFA0020FFF7BD
:104FA0002BFA0020FFF728FA0020FFF725FA00204F
:104FB000FFF722FA0020FFF71FFA0020FFF71CFA84
:104FC0000020FFF719FA0020FFF716FA0020FFF77C
:104FD00013FA0020FFF710FA0020FFF70DFA002067
:104FE000FFF70AFA0020FFF707FA0020FFF704FA9C
:104FF0000020FFF701FA0020FFF7FEF90020FFF77D
:10500000FBF90020FFF7F8F90020FFF7F5F9002081
:10501000FFF7F2F90020FFF7EFF90020FFF7ECF9B6
:105020000020FFF7E9F90020FFF7E6F9B420FFF7C9
:10503000EFF98B20FFF7E0F90020FFF7DDF996206C
:10504000FFF7DAF90020FFF7D7F9A120FFF7D4F92D
:105050000020FFF7D1F9B520FFF7DAF90220FFF7BA
:10506000CBF90020FFF7C8F90320FFF7C5F90020AE
:10507000FFF7C2F90420FFF7BFF90020FFF7BCF9E2
:10508000B620FFF7C5F90020FFF7B6F90020FFF7BB
:10509000B3F9B720FFF7BCF90020FFF7ADF9002006
:1050A000FFF7AAF93F20FFF7A7F90020FFF7A4F9BF
:1050B0005E20FFF7A1F90020FFF79EF96420FFF7BB
:1050C0009BF90020FFF798F98C20FFF795F9002055
:1050D000FFF792F9AC20FFF78FF90020FFF78CF96A
:1050E000DC20FFF789F90020FFF786F97020FFF731
:1050F00083F90020FFF780F99020FFF77DF9002069
:10510000FFF77AF9EB20FFF777F90020FFF774F942
:10511000DC20FFF771F90020FFF76EF9B820FFF7E8
:1051200077F90020FFF768F90020FFF765F9002004
:10513000FFF762F90020FFF75FF90020FFF75CF945
:105140000020FFF759F90020FFF756F90020FFF77C
:1051500053F9BA20FFF75CF92420FFF74DF900203E
:10516000FFF74AF90020FFF747F90020FFF744F95D
:10517000C120FFF74DF92020FFF73EF90020FFF78F
:105180003BF95420FFF738F90020FFF735F9FF20ED
:10519000FFF732F90020FFF72FF9C220FFF738F9A7
:1051A0000A20FFF729F90020FFF726F90420FFF76E
:1051B00023F90020FFF720F9C320FFF729F93C204D
:1051C000FFF71AF90020FFF717F93A20FFF714F953
:1051D0000020FFF711F93920FFF70EF90020FFF743
:1051E0000BF93720FFF708F90020FFF705F93C20FD
:1051F000FFF702F90020FFF7FFF83620FFF7FCF871
:105200000020FFF7F9F83220FFF7F6F80020FFF74B
:10521000F3F82F20FFF7F0F80020FFF7EDF82C202F
:10522000FFF7EAF80020FFF7E7F82920FFF7E4F896
:105230000020FFF7E1F82620FFF7DEF80020FFF757
:10524000DBF82420FFF7D8F80020FFF7D5F824205A
:10525000FFF7D2F80020FFF7CFF82320FFF7CCF8B4
:105260000020FFF7C9F83C20FFF7C6F80020FFF741
:10527000C3F83620FFF7C0F80020FFF7BDF8322052
:10528000FFF7BAF80020FFF7B7F82F20FFF7B4F8C0
:105290000020FFF7B1F82C20FFF7AEF80020FFF751
:1052A000ABF82920FFF7A8F80020FFF7A5F8262083
:1052B000FFF7A2F80020FFF79FF82420FFF79CF8E3
:1052C0000020FFF799F82420FFF796F80020FFF759
:1052D00093F82320FFF790F80020FFF78DF8C42003
:1052E000FFF796F86220FFF787F80020FFF784F8B1
:1052F0000520FFF781F80020FFF77EF88420FFF7F4
:105300007BF80020FFF778F8F020FFF775F8002011
:10531000FFF772F81820FFF76FF80020FFF76CF81E
:10532000A420FFF769F80020FFF766F81820FFF7C0
:1053300063F80020FFF760F85020FFF75DF80020C9
:10534000FFF75AF80C20FFF757F80020FFF754F842
:105350001720FFF751F80020FFF74EF89520FFF7D0
:105360004BF80020FFF748F8F320FFF745F800203E
:10537000FFF742F8E620FFF73FF80020FFF73CF880
:10538000C520FFF745F83220FFF736F80020FFF779
:1053900033F84420FFF730F80020FFF72DF86520A0
:1053A000FFF72AF80020FFF727F87620FFF724F808
:1053B0000020FFF721F88820FFF71EF80020FFF7F4
:1053C0001BF8C620FFF724F82020FFF715F800206F
:1053D000FFF712F81720FFF70FF80020FFF70CF87F
:1053E0000120FFF709F80020FFF706F8C720FFF7B4
:1053F0000FF80020FFF700F80020FEF7FDFF002067
:10540000FEF7FAFF0020FEF7F7FFC820FFF700F8CD
:105410000020FEF7F1FF0020FEF7EEFF0020FEF770
:10542000EBFF0020FEF7E8FFC920FEF7F1FF0020A8
:10543000FEF7E2FF0020FEF7DFFF0020FEF7DCFFB3
:105440000020FEF7D9FF0020FEF7D6FF0020FEF770
:10545000D3FF0020FEF7D0FF0020FEF7CDFF002095
:10546000FEF7CAFF0020FEF7C7FF0020FEF7C4FFCB
:105470000020FEF7C1FF0020FEF7BEFF0020FEF770
:10548000BBFF0020FEF7B8FF0020FEF7B5FFE020CD
:10549000FEF7BEFF1620FEF7AFFF0020FEF7ACFFC1
:1054A0001C20FEF7A9FF0020FEF7A6FF2120FEF733
:1054B000A3FF0020FEF7A0FF3620FEF79DFF00208F
:1054C000FEF79AFF4620FEF797FF0020FEF794FFB5
:1054D0005220FEF791FF0020FEF78EFF6420FEF7BA
:1054E0008BFF0020FEF788FF7A20FEF785FF002063
:1054F000FEF782FF8B20FEF77FFF0020FEF77CFF88
:105500009920FEF779FF0020FEF776FFA820FEF72E
:1055100073FF0020FEF770FFB920FEF76DFF00203B
:10552000FEF76AFFC420FEF767FF0020FEF764FF66
:10553000CA20FEF761FF0020FEF75EFFD220FEF7D3
:105540005BFF0020FEF758FFD920FEF755FF002033
:10555000FEF752FFE020FEF74FFF0020FEF74CFF62
:10556000F320FEF749FF0020FEF746FFE120FEF79B
:105570004FFF1620FEF740FF0020FEF73DFF1C20E6
:10558000FEF73AFF0020FEF737FF2220FEF734FF38
:105590000020FEF731FF3620FEF72EFF0020FEF739
:1055A0002BFF4520FEF728FF0020FEF725FF5220A5
:1055B000FEF722FF0020FEF71FFF6420FEF71CFF0E
:1055C0000020FEF719FF7A20FEF716FF0020FEF7F5
:1055D00013FF8B20FEF710FF0020FEF70DFF992030
:1055E000FEF70AFF0020FEF707FFA820FEF704FFE2
:1055F0000020FEF701FFB920FEF7FEFE0020FEF7B7
:10560000FBFEC420FEF7F8FE0020FEF7F5FECA20E0
:10561000FEF7F2FE0020FEF7EFFED220FEF7ECFED2
:105620000020FEF7E9FED820FEF7E6FE0020FEF798
:10563000E3FEE020FEF7E0FE0020FEF7DDFEF320B3
:10564000FEF7DAFE0020FEF7D7FEE22000E082E35C
:10565000FEF7DEFE0520FEF7CFFE0020FEF7CCFEB3
:105660000B20FEF7C9FE0020FEF7C6FE1B20FEF74A
:10567000C3FE0020FEF7C0FE3420FEF7BDFE002072
:10568000FEF7BAFE4420FEF7B7FE0020FEF7B4FE98
:105690004F20FEF7B1FE0020FEF7AEFE6120FEF7C0
:1056A000ABFE0020FEF7A8FE7920FEF7A5FE002045
:1056B000FEF7A2FE8820FEF79FFE0020FEF79CFE6C
:1056C0009720FEF799FE0020FEF796FEA620FEF733
:1056D00093FE0020FEF790FEB720FEF78DFE00201F
:1056E000FEF78AFEC220FEF787FE0020FEF784FE4A
:1056F000C720FEF781FE0020FEF77EFED120FEF7D8
:105700007BFE0020FEF778FED620FEF775FE002017
:10571000FEF772FEDD20FEF76FFE0020FEF76CFE46
:10572000F320FEF769FE0020FEF766FEE320FEF799
:105730006FFE0520FEF760FE0020FEF75DFE0A20EA
:10574000FEF75AFE0020FEF757FE00E001E31C20A2
:10575000FEF752FE0020FEF74FFE3320FEF74CFE10
:105760000020FEF749FE4420FEF746FE0020FEF72B
:1057700043FE5020FEF740FE0020FEF73DFE622073
:10578000FEF73AFE0020FEF737FE7820FEF734FEE3
:105790000020FEF731FE8820FEF72EFE0020FEF7E7
:1057A0002BFE9720FEF728FE0020FEF725FEA62000
:1057B000FEF722FE0020FEF71FFEB720FEF71CFEBC
:1057C0000020FEF719FEC220FEF716FE0020FEF7AD
:1057D00013FEC720FEF710FE0020FEF70DFED120BD
:1057E000FEF70AFE0020FEF707FED520FEF704FEB6
:1057F0000020FEF701FEDD20FEF7FEFD0020FEF793
:10580000FBFDF320FEF7F8FD0020FEF7F5FDE42098
:10581000FEF7FEFD0120FEF7EFFD0020FEF7ECFD98
:105820000120FEF7E9FD0020FEF7E6FD0220FEF76D
:10583000E3FD0020FEF7E0FD2A20FEF7DDFD00205D
:10584000FEF7DAFD3C20FEF7D7FD0020FEF7D4FD81
:105850004B20FEF7D1FD0020FEF7CEFD5D20FEF7C8
:10586000CBFD0020FEF7C8FD7420FEF7C5FD00202B
:10587000FEF7C2FD8420FEF7BFFD0020FEF7BCFD51
:105880009320FEF7B9FD0020FEF7B6FDA220FEF73B
:10589000B3FD0020FEF7B0FDB320FEF7ADFD002004
:1058A000FEF7AAFDBE20FEF7A7FD0020FEF7A4FD2F
:1058B000C420FEF7A1FD0020FEF79EFDCD20FEF7DF
:1058C0009BFD0020FEF798FDD320FEF795FD0020FC
:1058D000FEF792FDDD20FEF78FFD0020FEF78CFD28
:1058E000F320FEF789FD0020FEF786FDE520FEF798
:1058F0008FFD0020FEF780FD0020FEF77DFD0020DB
:10590000FEF77AFD0020FEF777FD0220FEF774FD1A
:105910000020FEF771FD2920FEF76EFD0020FEF746
:105920006BFD3C20FEF768FD0020FEF765FD4B2077
:10593000FEF762FD0020FEF75FFD5D20FEF75CFDD7
:105940000020FEF759FD7420FEF756FD0020FEF7FB
:1059500053FD8420FEF750FD0020FEF74DFD9320FF
:10596000FEF74AFD0020FEF747FDA220FEF744FDAA
:105970000020FEF741FDB320FEF73EFD0020FEF7BC
:105980003BFDBE20FEF738FD0020FEF735FDC420AC
:10599000FEF732FD0020FEF72FFDCD20FEF72CFD97
:1059A0000020FEF729FDD320FEF726FD0020FEF79C
:1059B00023FDDC20FEF720FD0020FEF71DFDF32077
:1059C000FEF71AFD0020FEF717FDE620FEF720FD8A
:1059D0001120FEF711FD0020FEF70EFD3420FEF72A
:1059E0000BFD0020FEF708FD5620FEF705FD002008
:1059F000FEF702FD7620FEF7FFFC0020FEF7FCFC20
:105A00007720FEF7F9FC0020FEF7F6FC6620FEF793
:105A1000F3FC0020FEF7F0FC8820FEF7EDFC0020F0
:105A2000FEF7EAFC9920FEF7E7FC0020FEF7E4FC15
:105A3000BB20FEF7E1FC0020FEF7DEFC9920FEF71C
:105A4000DBFC0020FEF7D8FC6620FEF7D5FC00202A
:105A5000FEF7D2FC5520FEF7CFFC0020FEF7CCFC71
:105A60005520FEF7C9FC0020FEF7C6FC4520FEF7D6
:105A7000C3FC0020FEF7C0FC4320FEF7BDFC002065
:105A8000FEF7BAFC4420FEF7B7FC0020FEF7B4FC9A
:105A9000E720FEF7BDFC3220FEF7AEFC0020FEF74B
:105AA000ABFC5520FEF7A8FC0020FEF7A5FC7620F5
:105AB000FEF7A2FC0020FEF79FFC6620FEF79CFC90
:105AC0000020FEF799FC6720FEF796FC0020FEF709
:105AD00093FC6720FEF790FC0020FEF78DFC8720EA
