:020000040800F2
:10000000B819012479030008ED4000087D37000885
:10001000E94000084D070008737200080000000066
:10002000000000000000000000000000BD430008C8
:100030005107000800000000F1400008BF4300081D
:100040009303000893030008930300089303000838
:100050009303000893030008930300089303000828
:100060009303000893030008930300089303000818
:100070009303000893030008930300089303000808
:1000800093030008930300089303000893030008F8
:1000900093030008930300089303000893030008E8
:1000A00093030008930300089303000893030008D8
:1000B00093030008C1680008930300089303000835
:1000C00093030008930300089303000893030008B8
:1000D00093030008930300089303000893030008A8
:1000E0009303000893030008000000009303000836
:1000F0009303000893030008930300089303000888
:100100009303000893030008930300089303000877
:100110009303000893030008930300089303000867
:100120009303000893030008930300089303000857
:100130009303000893030008930300089303000847
:1001400000000000000000000000000000000000AF
:100150009303000893030008930300089303000827
:100160009303000893030008930300089303000817
:1001700093030008930300089303000800000000A5
:1001800093030008930300089303000893030008F7
:1001900093030008930300089303000893030008E7
:1001A00093030008930300089303000893030008D7
:1001B00093030008930300089303000893030008C7
:1001C00093030008930300089303000893030008B7
:1001D00093030008930300089303000893030008A7
:1001E0009303000893030008930300089303000897
:1001F0009303000893030008930300089303000887
:100200009303000893030008930300089303000876
:100210009303000893030008930300089303000866
:1002200093030008930300089303000800000000F4
:1002300093030008930300080000000093030008E4
:100240009303000893030008930300089303000836
:100250009303000893030008930300089303000826
:100260009303000893030008930300089303000816
:1002700093030008930300089303000800000000A4
:100280009303000893030008930300080000000094
:10029000000000009303000800F002F800F05CF892
:1002A0000AA090E8000C82448344AAF10107DA45D1
:1002B00001D100F051F8AFF2090EBAE80F0013F0C7
:1002C000010F18BFFB1A43F001031847E837050078
:1002D000083805000A444FF0000C10F8013B13F0F9
:1002E000070408BF10F8014B1D1108BF10F8015B8F
:1002F000641E05D010F8016B641E01F8016BF9D182
:1003000013F0080F1EBF10F8014BAD1C0C1B09D1D8
:100310006D1E58BF01F801CBFAD505E014F8016B4A
:1003200001F8016B6D1EF9D59142D6D370470000DC
:100330000023002400250026103A28BF78C1FBD8EE
:10034000520728BF30C148BF0B6070471FB539F056
:10035000C4FF1FBD10B510BD00F0C5F91146FFF771
:10036000F5FF32F0A7FB00F0E3F903B4FFF7F2FF6B
:1003700003BC00F0B1F90000094880470948004774
:10038000FEE7FEE7FEE7FEE7FEE7FEE7FEE7FEE745
:10039000FEE7FEE704480549054A064B70470000A2
:1003A0009D44000899020008B8090124B8190124E5
:1003B000B8110124B811012453EA020C00F069803D
:1003C0002DE9F04B4FF00006002B1FBFB3FA83F569
:1003D00003FA05F424FA05F65E4012BF1643B2FA9A
:1003E00082F502FA05F4C5F120051EBF22FA05FCCC
:1003F00044EA0C04203556EA044C4FEA144418BF72
:10040000641C4FF000084FF00009904271EB030CA0
:1004100039D3002919BFB1FA81F701FA07F6B0FA0A
:1004200080F700FA07F6C7F120071EBF20FA07FC85
:1004300046EA0C062037B6FBF4FCA7EB0507103F95
:1004400007F01F0BCBF120060CFA0BFB2CFA06F67B
:1004500044BFB3460026202FA4BF5E464FF0000BDA
:100460005BEA060C08BF4FF0010B19EB0B09ABFB65
:10047000027C48EB0608C01B06FB02CC0BFB03CC3E
:1004800071EB0C01C1E70B46024641464846BDE808
:10049000F08B13B54FF000004FF00001AFF3008078
:1004A000BDE81C40704740EA0103024630B59B0797
:1004B00010D14FF0013400E008C208C91D1B9D4354
:1004C00015EAC41FF8D013F0FF0102F8011B0DD08C
:1004D0001B0AF8E711F8013B002B02F8013B05D09D
:1004E00011F8013B002B02F8013BF3D130BD10B5F0
:1004F000431C02E010F8011B71B18107FAD14FF0E3
:10050000013202C88C1A8C4314EAC211F9D0C01A05
:100510000A0603D0C01E10BDC01A10BD0A0401D0C7
:10052000801E10BD0902FCD0401E10BD032A40F2FF
:10053000308010F0030C00F0158011F8013BBCF185
:10054000020F624498BF11F801CB00F8013B38BF9D
:1005500011F8013BA2F1040298BF00F801CB38BFAB
:1005600000F8013B11F0030300F02580083AC0F0C9
:10057000088051F8043B083A51F804CBA0E8081071
:10058000F5E7121D5CBF51F8043B40F8043BAFF3A4
:100590000080D20724BF11F8013B11F801CB48BFFE
:1005A00011F8012B24BF00F8013B00F801CB48BF34
:1005B00000F8012B704710B5203AC0F00B80B1E86D
:1005C0001850203AA0E81850B1E81850A0E8185088
:1005D000BFF4F5AF5FEA027C24BFB1E81850A0E891
:1005E000185044BF18C918C0BDE810405FEA827CAB
:1005F00024BF51F8043B40F8043B08BF7047D207C2
:1006000028BF31F8023B48BF11F8012B28BF20F862
:10061000023B48BF00F8012B70474FF0000200B5C5
:10062000134694469646203922BFA0E80C50A0E815
:100630000C50B1F12001BFF4F7AF090728BFA0E8C3
:100640000C5048BF0CC05DF804EB890028BF40F88F
:10065000042B08BF704748BF20F8022B11F0804FD1
:1006600018BF00F8012B70474FF0013C50F8042BE5
:1006700051F8043B9A4215D1A2EB0C03934313EAC1
:10068000CC130BD150F8042B51F8043B9A4209D1FA
:10069000A2EB0C03934313EACC13E7D04FF0000016
:1006A000704700BFD01A01BAB1FA81F101F0180108
:1006B00022FA01F0CB40C1F12001DBB2C0B2C01A76
:1006C0002CFA01F3D11A914311EAC311E6D1704714
:1006D000704770477047000001491820ABBEFEE725
:1006E000260002007047754600F02CF8AE46050063
:1006F0006946534620F00700854618B020B5FFF73D
:1007000049FEBDE820404FF000064FF000074FF0D3
:1007100000084FF0000B21F00701AC46ACE8C0091F
:10072000ACE8C009ACE8C009ACE8C0098D46704728
:1007300010B50446AFF300802046BDE81040FFF737
:1007400014BE0000004870475809012400BFFEE7AE
:10075000704772B600BFFEE770B50446B3F5804F30
:1007600013D1D1E9000540EA05108D6840EA052063
:100770008D6928438D8940EA054054F82250064E81
:100780003540284344F8220003E06FF0704044F8FD
:100790002200002070BD00000000F0CF70B50246BE
:1007A000086852F8200020F001000E6842F8260088
:1007B0008868082801D1402500E0002548682843C2
:1007C0008E683043CE6830430E6930434E69304303
:1007D0008E693043CE6930430E6A30434E6A3043EF
:1007E0008E6A3043CE6A40EA0603086B0343486BC7
:1007F0000343886B0343114C44F4801444F4001405
:1008000044F4E024086852F82000A04318430E681E
:1008100042F82600086BB0F5801F07D1086828B1A0
:10082000106820F480100E6B30431060086818B117
:1008300010684E6B30431060002070BD7FFB0800D5
:1008400030B50346D1E9000540EA05108D6840EA5D
:1008500005208D8940EA0545088A401E45EA005575
:10086000087D801E45EA00608D692843551C53F8B9
:10087000255005F040452843551C43F825001868CD
:1008800000F48010B0F5801F0BD1586820F470047C
:10089000088A401E44EA0054586820F4700020433F
:1008A0005860002030BD02460868B0B9D1E90103A4
:1008B0001843CB6818430B6918434B6918438B697D
:1008C0001843CB6918430B6A18434B6A18431368E3
:1008D0006FF30E031843106019E0D1E907031843C2
:1008E0004B6A1843136823F4F84318431060D1E9A6
:1008F00001031843CB6818430B6918434B6918432D
:100900008B69184353686FF30E031843506000203F
:1009100070470246506943F6FE73984340EA41002F
:1009200050610020704710B50346D1E90004204310
:100930008C68641E40EA4410CC6840EA44201C697C
:100940006FF3150420431861002010BD30B5034635
:10095000FAB90868401E4C68641E40EA04148868AE
:10096000401E44EA0024C868401E44EA0034088A55
:10097000401E44EA0044888A401E44EA0054087E2F
:10098000401E44EA00609C6804F070442043986074
:1009900022E0C868401E0403888A401E44EA0050D2
:1009A0009C680E4D2C40204398600868401E4C689F
:1009B000641E40EA04148868401E44EA0024088A41
:1009C000401E44EA0044087E401E44EA0060DC68A1
:1009D00004F070442043D860002030BDFF0F0FFFAB
:1009E00070B5044600F076F906462546681C10B13D
:1009F00004480078054400BF00F06CF9801BA84251
:100A0000FAD370BD1000002400B5B5B0142130A891
:100A1000FFF703FE2248006808B135B000BD012091
:100A20001F490860BC2101A8FFF7F7FD4FF0807057
:100A300001900020129001A800F008FD08B1FFF716
:100A400088FE00BF1748006840F4805015490860D0
:100A50000846006800F48050009000BF00BF4FF6C9
:100A6000807030900220319000203290032033902B
:100A70000C20349030A90C4800F01AF84EF2B370F4
:100A800030900220319000203290032033900C20CF
:100A9000349030A9054800F00BF800BFBDE7000016
:100AA00000000024D444025800100258000C0258E0
:100AB000F8B502460B4600216F4DD7E001278F4065
:100AC0001E6806EA0704002C72D01E7906F00306A1
:100AD000012E04D01E7906F00306022E13D1906871
:100AE0004F000326BE40B0434F00DE68BE40304397
:100AF0009060506801268E40B0431E79C6F3001600
:100B00008E40304350601E7906F00306032E09D054
:100B1000D0684F000326BE40B0434F009E68BE40E1
:100B20003043D0601E7906F00306022E13D1CF08A1
:100B300002F1200656F827004E07F70E0F26BE409A
:100B4000B0434F07FF0E1E69BE403043CF0802F18D
:100B5000200646F8270010684F000326BE40B04329
:100B60001E7906F003064F00BE40304310605E68F9
:100B700006F44036002E78D000BF404E366846F06E
:100B800002063E4F3E603E46366806F0020600967C
:100B900000BF00BF3A4E8F0856F827008E07370F68
:100BA0000F26BE40B043374EB24202D100262EE09F
:100BB0005BE0354EB24201D1012628E0334EB2420D
:100BC00001D1022623E0324EB24201D103261EE0BB
:100BD000304EB24201D1042619E02F4EB24201D16B
:100BE000052614E02D4EB24201D106260FE02C4E10
:100BF000B24201D107260AE02A4EB24201D10826AC
:100C000005E0294EB24201D1092600E00A268F07ED
:100C10003F0FBE4030431A4E8F0846F827004FF072
:100C2000B0463068A0435E6806F4801606B12043E3
:100C30004FF0B04630607068A0435E6806F400165E
:100C400006B120434FF0B04670606868A0435E680C
:100C500006F4003606B1204368602868A0435E6849
:100C600006F4803606B120432860491C1E68CE4039
:100C7000002E7FF423AFF8BD80000058F4440258E2
:100C800008040058000002580004025800080258E6
:100C9000000C0258001002580014025800180258A4
:100CA000001C025800200258002402580246136912
:100CB0000B400BB1012000E0002070470AB18161B8
:100CC00001E00B048361704701480068000C704725
:100CD0000010005C01480068704700000800002414
:100CE00003480068034909780844014908607047CF
:100CF000080000241000002410B5032000F020F9A3
:100D000001F030FB10490968C1F303210F4A515C1F
:100D100001F01F0120FA01F40B48006800F00F00F9
:100D20001146085C00F01F0024FA00F00849086032
:100D3000084804600F2000F00FF808B1012010BD32
:100D400000F09AF80020FAE7184402580CA30308B0
:100D5000180000241400002470B5044611480078DF
:100D600008B9012070BD0F4800784FF47A71B1FBCB
:100D7000F0F00D490968B1FBF0F5284602F03DF9A5
:100D800008B10120EEE7102C07D200222146501EA8
:100D900000F098F80548046001E00120E2E7002037
:100DA000E0E7000010000024140000240C000024E0
:100DB0004178154A11600178F9B1121D416811603E
:100DC000017B0907C27A41EA0261827A41EAC241A3
:100DD000427B41EA8241827B41EA4241C27B41EA55
:100DE0000241427A41EA0221027A41EA4201027852
:100DF0001143054A0832116005E00021024A121D24
:100E00001160121D1160704798ED00E000BF00BF37
:100E100000BFBFF35F8F00BF00BF00BF0548006881
:100E200020F48030034908600020024970310860D6
:100E30007047000024ED00E040F001010D4A116010
:100E40000C497039096841F480310A4A703A1160DE
:100E500000BF00BF00BFBFF34F8F00BF00BF00BF88
:100E600000BF00BF00BFBFF36F8F00BF00BF00BF58
:100E70007047000094ED00E008B500BF0648006828
:100E800040F00200044908600846006800F00200D3
:100E9000009000BF00BF08BDF44402580146084658
:100EA00000280DDB00BF00BF00F01F0301229A40A5
:100EB00043099B0003F1E023C3F8002100BF00BFFA
:100EC00000BF70472DE9F05F80460D46164606F0DC
:100ED000D3F9074639462A46334601F00700C0F1E8
:100EE000070ABAF1040F02D94FF0040A01E0C0F179
:100EF000070AD14600F1040ABAF1070F02D24FF0F7
:100F0000000A01E0A0F1030AD4464FF0010A0AFAF0
:100F100009FAAAF1010A0AEA020A0AFA0CFA4FF0DF
:100F2000010B0BFA0CFBABF1010B0BEA030B4AEACA
:100F30000B042146404606F0A7F9BDE8F09F0000EB
:100F400000BF00F00702064B19684FF6FF03194077
:100F5000044B0B4343EA0221014B196000BF704769
:100F60000CED00E00000FA0570B504461548006875
:100F7000C0F3800048B91348006800F00700A042A1
:100F800001D0012070BD0020FCE70E48006820F071
:100F9000070020430B490860FFF79CFE054607E069
:100FA000FFF798FE401BB0F57A7F01D90120E9E7F1
:100FB000044808380068C0F340300028F0D0002012
:100FC000E0E700000C48025810B501F081F905492E
:100FD0000968C1F30211044A515C01F01F01C840C5
:100FE00010BD0000204402580CA3030870B5014650
:100FF000844D2D6805F00303824D2D68C5F305303F
:10100000804D2D1D2D68C5F300147E4D14352D68BF
:10101000C5F3CC0515FB04F501EE105AB8EE411AE4
:10102000F0EE410A00286FD023B1012B4ED0022BE5
:101030006BD16BE0734D283D2D68C5F340153DB372
:10104000704D283D2D68C5F3C1066F4D25FA06F297
:1010500001EE102AF8EE411A01EE100AB8EE411A1C
:1010600081EE812A9FED691AC0EE811A654D103517
:101070002D68C5F3080501EE105AB8EE411A31EE9D
:10108000811AF7EE001A31EE211A22EE010A1CE055
:1010900001EE100AB8EE411ADFED5D1A81EE812AE9
:1010A0009FED5A1AC0EE811A564D10352D68C5F3C2
:1010B000080501EE105AB8EE411A31EE811AF7EE2A
:1010C000001A31EE211A22EE010A5BE001EE100A4D
:1010D000B8EE411ADFED4F1A81EE812A9FED4B1ACF
:1010E000C0EE811A474D10352D68C5F3080501EE95
:1010F000105AB8EE411A31EE811AF7EE001A31EEAD
:10110000211A22EE010A3DE077E01DE001EE100A0F
:10111000B8EE411A9FED402AC2EE011A9FED3B1A2C
:1011200080EE812A374D10352D68C5F3080501EE94
:10113000105AB8EE411A32EE011AB7EE002A31EE1B
:10114000021A21EE810A1DE001EE100AB8EE411AE2
:10115000DFED301A81EE812A9FED2C1AC0EE811A44
:10116000284D10352D68C5F3080501EE105AB8EE6C
:10117000411A31EE811AF7EE001A31EE211A22EEF1
:10118000010A00BF00BF1F4D10352D68C5F346256D
:1011900001EE105AB8EE411AF7EE001A31EE211A9C
:1011A000C0EE011ABCEEE11A81ED001A154D1035A2
:1011B0002D68C5F3064501EE105AB8EE411AF7EE58
:1011C000001A31EE211AC0EE011ABCEEE11A81EDCF
:1011D000011A0C4D10352D68C5F3066501EE105A45
:1011E000B8EE411AF7EE001A31EE211AC0EE011ADC
:1011F000BCEEE11A81ED021A03E000250D604D609E
:101200008D6070BD284402580090D0030000004655
:101210000024744C0024744A20BCBE4B70B50146B7
:10122000844D2D6805F00303824D2D68C5F30550EC
:10123000804D2D1D2D68C5F300247E4D1C352D6875
:10124000C5F3CC0515FB04F501EE105AB8EE411AB2
:10125000F0EE410A00286FD023B1012B4ED0022BB3
:101260006BD16BE0734D283D2D68C5F340153DB340
:10127000704D283D2D68C5F3C1066F4D25FA06F265
:1012800001EE102AF8EE411A01EE100AB8EE411AEA
:1012900081EE812A9FED691AC0EE811A654D1835DD
:1012A0002D68C5F3080501EE105AB8EE411A31EE6B
:1012B000811AF7EE001A31EE211A22EE010A1CE023
:1012C00001EE100AB8EE411ADFED5D1A81EE812AB7
:1012D0009FED5A1AC0EE811A564D18352D68C5F388
:1012E000080501EE105AB8EE411A31EE811AF7EEF8
:1012F000001A31EE211A22EE010A5BE001EE100A1B
:10130000B8EE411ADFED4F1A81EE812A9FED4B1A9C
:10131000C0EE811A474D18352D68C5F3080501EE5A
:10132000105AB8EE411A31EE811AF7EE001A31EE7A
:10133000211A22EE010A3DE077E01DE001EE100ADD
:10134000B8EE411A9FED402AC2EE011A9FED3B1AFA
:1013500080EE812A374D18352D68C5F3080501EE5A
:10136000105AB8EE411A32EE011AB7EE002A31EEE9
:10137000021A21EE810A1DE001EE100AB8EE411AB0
:10138000DFED301A81EE812A9FED2C1AC0EE811A12
:10139000284D18352D68C5F3080501EE105AB8EE32
:1013A000411A31EE811AF7EE001A31EE211A22EEBF
:1013B000010A00BF00BF1F4D18352D68C5F3462533
:1013C00001EE105AB8EE411AF7EE001A31EE211A6A
:1013D000C0EE011ABCEEE11A81ED001A154D183568
:1013E0002D68C5F3064501EE105AB8EE411AF7EE26
:1013F000001A31EE211AC0EE011ABCEEE11A81ED9D
:10140000011A0C4D18352D68C5F3066501EE105A0A
:10141000B8EE411AF7EE001A31EE211AC0EE011AA9
:10142000BCEEE11A81ED021A03E000250D604D606B
:101430008D6070BD284402580090D0030000004623
:101440000024744C0024744A20BCBE4B2DE9F041AA
:1014500004460025A846206800F00060B0F1006F47
:1014600030D1606E48B1B0F5801F0DD0B0F5001FCF
:1014700010D0B0F5401F15D113E0F948006840F4D2
:101480000030F74908600FE00221201D02F032FE13
:10149000054609E0022104F1240002F0DDFE0546C4
:1014A00002E001E0012500BF00BF55B9EC4824303F
:1014B000006820F44010616E0843E9492431086057
:1014C00000E0A846208800F48070B0F5807F2DD120
:1014D000606D05281AD2DFE800F0030A1017180023
:1014E000DF48006840F40030DD49086010E000216A
:1014F000201D02F0FFFD05460AE0002104F1240052
:1015000002F0AAFE054603E002E001E0012500BF6B
:1015100000BF55B9D2482430006820F00700616D43
:101520000843CF492431086000E0A846208800F431
:101530000070B0F5007F33D1A06D802817D003DC98
:1015400040B140281CD10CE0C02817D0B0F5807FF6
:1015500016D114E0C248006840F40030C049086069
:1015600010E00021201D02F0C5FD05460AE0002123
:1015700004F1240002F070FE054603E002E001E001
:10158000012500BF00BF55B9B5482430006820F4DC
:10159000E070A16D0843B2492431086000E0A8461C
:1015A000208800F48060B0F5806F38D1D4F8A400B2
:1015B000B0F5800F19D004DC50B1B0F5001F1DD17B
:1015C0000DE0B0F5C00F17D0B0F5000F16D114E044
:1015D000A348006840F40030A149086010E00021F1
:1015E000201D02F087FD05460AE0002104F12400D9
:1015F00002F032FE054603E002E001E0012500BFF3
:1016000000BF5DB996482C30006820F46000D4F823
:10161000A410084392492C31086000E0A8462088B5
:1016200000F40060B0F5006F38D1D4F8A800B0F134
:10163000007F19D004DC50B1B0F1807F1DD10DE0E6
:10164000B0F1407F17D0B0F1806F16D114E084481C
:10165000006840F400308249086010E00021201D3D
:1016600002F048FD05460AE0002104F1240002F0E2
:10167000F3FD054603E002E001E0012500BF00BFE5
:101680005DB977482C30006820F0E060D4F8A810ED
:10169000084373492C31086000E0A846206800F038
:1016A0000070B0F1007F27D1A06CA0B1102804D049
:1016B000202809D030280FD10CE06948006840F498
:1016C00000306749086009E00221201D02F012FD88
:1016D000054603E002E001E0012500BF00BF55B967
:1016E0005F482030006820F03000A16C08435C495E
:1016F0002031086000E0A846208800F48050B0F552
:10170000805F36D1E06DB0F5005F19D004DC50B1D8
:10171000B0F5805F1DD10DE0B0F5405F17D0B0F59A
:10172000804F16D114E04E48006840F400304C4918
:10173000086010E00021201D02F0DCFC05460AE0F4
:10174000002104F1240002F087FD054603E002E0D9
:1017500001E0012500BF00BF55B9414824300068B1
:1017600020F4E040E16D08433D492431086000E089
:10177000A846208800F40050B0F5005F34D1206EF8
:10178000B0F5403F1DD007DC68B1B0F5803F0BD00D
:10179000B0F5003F18D10DE0B0F5802F12D0B0F5B4
:1017A000A02F11D10FE011E00121201D02F0A2FCB9
:1017B00005460BE0012104F1240002F04DFD054631
:1017C00004E003E002E001E0012500BF00BF55B9DD
:1017D00023482430006820F4E020216E084320498B
:1017E0002431086000E0A846208800F48040B0F56D
:1017F000804F38D1D4F8AC00B0F1405F1DD007DC89
:1018000068B1B0F1805F0BD0B0F1005F18D10DE08E
:10181000B0F1804F12D0B0F1A04F11D10FE011E024
:101820000121201D02F066FC05460BE0012104F1B8
:10183000240002F011FD054604E003E002E001E0AF
:10184000012500BF00BF6DB905482C30006820F0AD
:10185000E040D4F8AC10084301492C31086002E0A4
:101860002C440258A846208800F40040B0F5004FF0
:1018700026D1E06E98B1B0F1805F03D0B0F1005F87
:101880000ED106E0F948006840F40030F7490860DE
:1018900008E00121201D02F02DFC054602E001E0D8
:1018A000012500BF00BF55B9F0482430006820F082
:1018B0004050E16E0843ED492431086000E0A8463D
:1018C000206800F08070B0F1807F27D1606CA0B1FB
:1018D000012804D0022809D003280FD10CE0E348E6
:1018E000006840F40030E149086009E00221201D51
:1018F00002F000FC054603E002E001E0012500BF24
:1019000000BF55B9D9482030006820F00300616C51
:101910000843D6492031086000E0A846206800F45A
:101920008000B0F5800F7DD1D148006840F4807010
:10193000CF490860FFF7CEF9064606E0FFF7CAF97F
:10194000801B642801D9032505E0C948006800F41C
:1019500080700028F2D000BF85BBC44844300068C6
:1019600000F44070B4F8B01001F44071884213D014
:10197000BE484430006820F44077BC4844300068DA
:1019800040F48030B949443108600846006820F4CA
:101990008030086008460760D4F8B000B0F5807F5A
:1019A00015D1FFF797F9064609E0FFF793F9801B79
:1019B00041F28831884202D9032507E038E0AB487C
:1019C00044300068C0F340000028EED000BF55BB93
:1019D00000BFB4F8B00000F44070B0F5407F0ED105
:1019E000A2481C38006820F47C51A24AD4F8B00008
:1019F000104041EA10109D491C39086007E09B48DF
:101A00001C38006820F47C5098491C3908609748BD
:101A100044300068B4F8B010C1F30B010843934997
:101A2000443101E005E001E0086002E0A84600E082
:101A3000A846207800F0010068B3A06F182819D0DC
:101A400005DC48B1082808D0102816D10BE0202862
:101A500011D0282811D10FE011E00121201D02F042
:101A600049FB05460BE0012104F1240002F0F4FBE0
:101A7000054604E003E002E001E0012500BF00BFED
:101A800055B97A482830006820F03800A16F084323
:101A900076492831086000E0A846207800F002006E
:101AA000022828D1606F062815D2DFE800F0030471
:101AB0000A11121311E00121201D02F01BFB054643
:101AC0000BE0012104F1240002F0C6FB054604E00E
:101AD00003E002E001E0012500BF00BF55B9634803
:101AE0002830006820F00700616F08435F49283103
:101AF000086000E0A846207800F0040004282AD1FD
:101B0000D4F89000062815D2DFE800F003040A118B
:101B1000121311E00121201D02F0ECFA05460BE042
:101B2000012104F1240002F097FB054604E003E0E4
:101B300002E001E0012500BF00BF5DB94B482C3039
:101B4000006820F00700D4F89010084347492C3172
:101B5000086000E0A846207800F02000202836D158
:101B6000D4F88C00B0F1405F1DD007DC68B1B0F153
:101B7000805F0BD0B0F1005F18D10DE0B0F1804F65
:101B800012D0B0F1A04F11D10FE011E00021201DC3
:101B900002F0B0FA05460BE0022104F1240002F045
:101BA0005BFB054604E003E002E001E0012500BF25
:101BB00000BF5DB92D482830006820F0E040D4F81F
:101BC0008C10084329492831086000E0A846207895
:101BD00000F04000402836D1D4F89800B0F5406FAE
:101BE0001DD007DC68B1B0F5806F0BD0B0F5006F89
:101BF00018D10DE0B0F5805F12D0B0F5A05F11D123
:101C00000FE011E00021201D02F074FA05460BE000
:101C1000022104F1240002F01FFB054604E003E06A
:101C200002E001E0012500BF00BF5DB90F482C3084
:101C3000006820F4E050D4F8981008430B492C3188
:101C4000086000E0A846207800F0800080283AD1A3
:101C5000D4F89C00B0F5C04F23D00DDC98B1B0F59E
:101C6000005F11D0B0F5804F1ED113E02C44025814
:101C700000480258FFFCFF0FB0F5004F12D0B0F53E
:101C8000204F11D10FE011E00021201D02F032FAA7
:101C900005460BE0022104F1240002F0DDFA0546BE
:101CA00004E003E002E001E0012500BF00BF4DB900
:101CB000BE48006820F46040D4F89C100843BB493B
:101CC000086000E0A846207800F00800082817D136
:101CD000D4F88000B0F5805F07D1022104F1240020
:101CE00002F0BAFA08B14FF00108B048001F0068CE
:101CF00020F44050D4F880100843AC49091F086014
:101D0000207800F01000102815D1D4F89400B0F518
:101D1000807F07D1022104F1240002F09DFA08B16E
:101D20004FF00108A148006820F44070D4F89410E6
:101D300008439E490860206800F40020B0F5002F99
:101D400026D1D4F8A00030B1B0F5803F09D0B0F56D
:101D5000003F0ED10CE00021201D02F0CBF905461A
:101D600009E0022104F1240002F076FA054602E0BF
:101D700001E0012500BF00BF4DB98C48006820F488
:101D80004030D4F8A01008438849086000E0A84615
:101D9000206800F48020B0F5802F2DD1D4F8840085
:101DA000B0F5801F06D0B0F5001F0CD0B0F5401F75
:101DB00011D10FE07D482C38006840F400307B4999
:101DC0002C39086009E0012104F1240002F044FAF2
:101DD000054602E001E0012500BF00BF5DB9734880
:101DE000001F006820F44010D4F8841008436F49A5
:101DF000091F086000E0A846206800F48030B0F5B4
:101E0000803F24D1E06C18B1B0F5803F0FD108E0DD
:101E100066482C38006840F4003064492C3908606A
:101E200007E00221201D02F065F9054601E00125C9
:101E300000BF00BF55B95D480C38006820F4803001
:101E4000E16C084359490C39086000E0A846206855
:101E500000F00050B0F1005F07D1022104F124002E
:101E600002F0FAF908B14FF00108206800F40030E0
:101E7000B0F5003F27D1E06FA0B1B0F5807F06D06C
:101E8000B0F5007F0CD0B0F5407F0CD109E0474899
:101E90002C38006840F4003044492C39086004E0D4
:101EA00003E002E001E0012500BF00BF55B93F4853
:101EB000001F006820F44070E16F08433B49091F90
:101EC000086000E0A846206800F48010B0F5801F8C
:101ED00009D136480838006820F00040216F0843D7
:101EE000324908390860206800F08050B0F1805F06
:101EF0000AD12E484838006820F48040D4F8B41045
:101F000008432A4948390860206800F40010B0F5F9
:101F1000001F09D125480838006820F08070A16EA4
:101F20000843224908390860206800F08040B0F179
:101F3000804F11D100BF1D484838006820F4004090
:101F40001A494839086008460068D4F8B8100843B0
:101F500016494839086000BF206800F00040B0F121
:101F6000004F09D111480C38006820F04050216D15
:101F700008430E490C390860206800F40000B0F5F1
:101F8000000F0AD10948001F006820F44000D4F86F
:101F9000881008430549091F0860B8F1000F02D1F5
:101FA0000020BDE8F0810120FBE700005844025802
:101FB0002DE9F04104460D4614B90120BDE8F08139
:101FC000BD48006800F00F00A8420ED2BA48006871
:101FD00020F00F002843B84908600846006800F068
:101FE0000F00A84201D00120E8E7207800F00400AB
:101FF00004280ED1B1492069096801F070018842B6
:1020000007D9AE48006820F0700021690843AB4949
:102010000860207800F00800082811D1A749091DA0
:102020006069096801F07001884209D9A348001D60
:10203000006820F0700061690843A049091D08602C
:10204000207800F01000102811D19C49091DA069CA
:10205000096801F4E061884209D99848001D0068C8
:1020600020F4E060A16908439449091D08602078C4
:1020700000F02000202811D190490831E06909685A
:1020800001F07001884209D98C480830006820F0BE
:102090007000E1690843894908310860207800F040
:1020A000020002280ED18549E068096801F00F019D
:1020B000884207D98148006820F00F00E168084392
:1020C0007E490860207800F00100002850D07B484D
:1020D000006820F47060A16808437849086060686F
:1020E000022807D1754818380068C0F34040F8B995
:1020F000012063E76068032807D17048183800683A
:10210000C0F34060A0B9012058E76068012807D1FA
:102110006A4818380068C0F3002048B901204DE72C
:10212000664818380068C0F3800008B9012045E708
:1021300062480838006820F00700616808435F497A
:1021400008390860FEF7C6FD064608E0FEF7C2FD46
:10215000801B41F28831884201D903202EE757487D
:102160000838006800F038006168B0EBC10FEDD1AD
:10217000207800F0020002280ED15049E06809687A
:1021800001F00F01884207D24C48006820F00F0090
:10219000E1680843494908604748006800F00F00BB
:1021A000A8420ED94448006820F00F002843424955
:1021B00008600846006800F00F00A84201D0012026
:1021C000FCE6207800F0040004280ED13B49206989
:1021D000096801F07001884207D23848006820F091
:1021E00070002169084335490860207800F0080034
:1021F000082811D13149091D6069096801F0700191
:10220000884209D22D48001D006820F070006169E5
:1022100008432A49091D0860207800F010001028A2
:1022200011D12649091DA069096801F4E0618842BD
:1022300009D22248001D006820F4E060A16908432B
:102240001E49091D0860207800F02000202811D1C7
:102250001A490831E069096801F07001884209D221
:1022600016480830006820F07000E16908431349FF
:102270000831086000F076F810490968C1F30321BD
:102280000F4A515C01F01F0120FA01F70B4800686A
:1022900000F00F001146085C00F01F0027FA00F064
:1022A000084908600848076008480068FEF754FDC0
:1022B0008046404682E60000002000521844025842
:1022C0000CA3030818000024140000240C000024B0
:1022D00010B500F047F80D490968C1F303210C4A15
:1022E000515C01F01F0120FA01F40848006800F079
:1022F0000F001146085C00F01F0024FA00F00549A9
:102300000860054804600846006810BD184402587B
:102310000CA30308180000241400002400B5FFF7E4
:10232000D7FF05490968C1F30211044A515C01F065
:102330001F01C84000BD00001C4402580CA3030844
:1023400000B5FFF7C5FF05490968C1F30221044A3A
:10235000515C01F01F01C84000BD00001C44025840
:102360000CA30308F0B5824E366806F0380636B185
:10237000082E15D0102E15D0182E7DD114E07C4ECD
:10238000103E3668C6F3401646B1794E103E3668A8
:10239000C6F3C107774E26FA07F000E07548E5E07E
:1023A0007548E3E07548E1E0714E1836366806F08E
:1023B00003046F4E18363668C6F305116C4E1C3692
:1023C000366806F001056A4E24363668C6F3CC0638
:1023D00016FB05F601EE106AB8EE410A002971D02D
:1023E00024B1012C50D0022C6DD16DE0604E103E16
:1023F0003668C6F340163EB35D4E103E3668C6F3EF
:10240000C1075C4E26FA07F301EE103AF8EE411AC6
:1024100001EE101AB8EE411A81EE812A9FED581A8A
:10242000C0EE011A524E20363668C6F3080601EE99
:10243000106AB8EE411A31EE811AF7EE001A31EE49
:10244000211A62EE010A1EE001EE101AB8EE411ADE
:10245000DFED4C1A81EE812A9FED491AC0EE011A78
:10246000434E20363668C6F3080601EE106AB8EE11
:10247000411A31EE811A00E076E0F7EE001A31EEF3
:10248000211A62EE010A5BE001EE101AB8EE411A61
:102490009FED3D2AC2EE011A9FED391A80EE012A06
:1024A000334E20363668C6F3080601EE106AB8EEE1
:1024B000411A32EE011AB7EE002A31EE021A61EE2D
:1024C000810A3DE04EE01DE001EE101AB8EE411A1F
:1024D000DFED2E1A81EE812A9FED291AC0EE011A36
:1024E000234E20363668C6F3080601EE106AB8EEB1
:1024F000411A31EE811AF7EE001A31EE211A62EE1E
:10250000010A1DE001EE101AB8EE411A9FED1E2AD5
:10251000C2EE011A9FED1A1A80EE012A144E2036DF
:102520003668C6F3080601EE106AB8EE411A32EEBC
:10253000011AB7EE002A31EE021A61EE810A00BFDD
:1025400000BF0B4E20363668C6F34626721C01EEDD
:10255000102AB8EE411AC0EE811ABCEEE11A11EE53
:10256000100A00E0002001E0034800BF00BFF0BDFA
:10257000104402580090D00300093D0040787D01CE
:10258000000000460024744C0024744A20BCBE4B5A
:102590002DE9F047044614B90120BDE8F087207802
:1025A00000F00100002870D0FA48006800F03808F8
:1025B000F8481830D0F80090B8F1100F06D0B8F1F4
:1025C000180F0FD109F0030002280BD1F148103881
:1025D0000068C0F3404000286AD06068002867D1D6
:1025E0000120DAE700BF6068B0F5803F08D1E94814
:1025F0001038006840F48030E649103908602EE059
:10260000606868B9E3481038006820F48030E14918
:10261000103908600846006820F4802008601EE039
:102620006068B0F5A02F0DD1DA481038006840F48A
:102630008020D849103908600846006840F480308E
:1026400008600CE0D3481038006820F48030D1498D
:10265000103908600846006820F48020086000BF38
:10266000606898B1FEF736FB054606E0FEF732FBE0
:10267000401B642801D903208FE7C6481038006842
:10268000C0F340400028F1D012E012E0FEF722FB38
:10269000054606E0FEF71EFB401B642801D9032017
:1026A0007BE7BC4810380068C0F340400028F1D1F7
:1026B00000BF207800F00200022874D1B5480068FD
:1026C00000F03808B3481830D0F80090B8F1000F87
:1026D00005D0B8F1180F56D109F00300D0BBAD48B2
:1026E00010380068C0F3800018B1E06808B9012014
:1026F00053E7A8481038006820F01900E168084343
:10270000A44910390860FEF7E5FA054606E0FEF731
:10271000E1FA401B022801D903203EE79D4810380A
:102720000068C0F380000028F1D000BFFEF7CCFAAB
:1027300041F2030188421AD8206940280BD19548FC
:102740000C38006820F47C3040F4003091490C399A
:10275000086017E017E08F480C38006820F47C30E0
:10276000216940EA01308B490C3908600AE0894848
:102770000C38006820F0FE40217C40EA0160854969
:102780000C39086066E0E06888B382481038006859
:1027900020F01900E16808437E4910390860FEF70F
:1027A00099FA054607E056E0FEF794FA401B022826
:1027B00001D90320F1E6774810380068C0F38000A3
:1027C0000028F1D000BFFEF77FFA41F203018842F2
:1027D0001AD8206940280BD16E480C38006820F4C4
:1027E0007C3040F400306B490C39086017E017E08A
:1027F00068480C38006820F47C30216940EA0130D8
:1028000064490C3908600AE062480C38006820F01E
:10281000FE40217C40EA01605E490C39086019E005
:102820005C481038006820F001005A4910390860EF
:10283000FEF750FA054606E0FEF74CFA401B022868
:1028400001D90320A9E6534810380068C0F380007E
:102850000028F1D100BF207800F0100010287CD1B2
:102860004C48006800F038084A481830D0F800900A
:10287000B8F1080F06D0B8F1180F3DD109F00300E8
:10288000012839D1434810380068C0F3002020B136
:10289000E069802801D001207FE600BFFEF714FA2E
:1028A00041F2030188421AD8206A20280AD1394807
:1028B0000C38006820F0F84040F0804035490C3971
:1028C000086018E033480C38006820F0F84094F8AD
:1028D000201040EA81602F490C3908600BE02D4838
:1028E000001F006820F07C5094F8201040EA01603E
:1028F0002849091F086066E0E06978B32548103868
:10290000006840F08000234910390860FEF7E2F9C2
:10291000054606E0FEF7DEF9401B022801D9032038
:102920003BE61C4810380068C0F300200028F1D0B6
:1029300000BFFEF7C9F941F2030188421CD8206AA2
:1029400020280CD113480C38006820F0F84040F0E3
:10295000804010490C3908601AE035E01CE00D4851
:102960000C38006820F0F84094F8201040EA8160AC
:1029700008490C3908600BE00648001F006820F089
:102980007C5094F8201040EA01600249091F086059
:1029900019E0000010440258FA48006820F0800056
:1029A000F8490860FEF796F9054606E0FEF792F949
:1029B000401B022801D90320EFE5F2480068C0F36C
:1029C00000200028F2D100BF207800F0080008287D
:1029D00036D16069D0B1EB487430006840F0010036
:1029E000E84974310860FEF775F9054606E0FEF720
:1029F00071F9401B022801D90320CEE5E14874306B
:102A00000068C0F340000028F1D019E0DD487430C0
:102A1000006820F00100DB4974310860FEF75AF9C4
:102A2000054606E0FEF756F9401B022801D90320AF
:102A3000B3E5D44874300068C0F340000028F1D1F9
:102A4000207800F02000202830D1A069B8B1CD480E
:102A5000006840F48050CB490860FEF73BF905461A
:102A600006E0FEF737F9401B022801D9032094E560
:102A7000C4480068C0F340300028F2D016E0C148D6
:102A8000006820F48050BF490860FEF723F905462E
:102A900006E0FEF71FF9401B022801D903207CE560
:102AA000B8480068C0F340300028F2D1207800F028
:102AB000040004287DD1B448006840F48070B24915
:102AC0000860FEF707F9054606E0FEF703F9401B2C
:102AD000642801D9032060E5AB48006800F48070E9
:102AE0000028F2D000BFA068012808D1A5487030A6
:102AF000006840F00100A349703108602DE0A06833
:102B000068B9A0487030006820F001009D4970311C
:102B100008600846006820F0040008601DE0A06816
:102B200005280DD197487030006840F004009549A1
:102B3000703108600846006840F0010008600CE051
:102B400090487030006820F001008E4970310860B4
:102B50000846006820F00400086000BFA068A0B12B
:102B6000FEF7B8F8054608E0FEF7B4F8401B41F25E
:102B70008831884201D903200FE58248703000680F
:102B8000C0F340000028EFD013E0FEF7A3F805469D
:102B900008E0FEF79FF8401B41F28831884201D9D6
:102BA0000320FAE4774870300068C0F34000002842
:102BB000EFD1606A00287DD072481030006800F0C4
:102BC0003800182877D0606A022875D16D480068EF
:102BD00020F080706B490860FEF77CF8054606E03F
:102BE000FEF778F8401B022801D90320D5E4654898
:102BF0000068C0F340600028F2D100BFD4E90A1099
:102C000041EA00105F492831096840F2F3329143EC
:102C100008435C4928310860208E401EC0F308003C
:102C2000616B491E4FF47E4202EA41210843218F25
:102C3000491ED20102EA014108433C21095D491EB7
:102C4000120202EA016108434E493031086000BFB8
:102C5000081F006820F00100091F0860494834304F
:102C600000684FF6F8718843A16C40EAC1004549FD
:102C70003431086043482C30006820F00C00216C8F
:102C8000084340492C3108600846006820F00200E3
:102C9000616C08433B492C3108600846006840F4E9
:102CA000803008600846006840F40030086008463C
:102CB000006802E06AE038E01FE040F4802008602D
:102CC0000846006840F0010008602E48006840F0A7
:102CD00080702C490860FDF7FDFF054606E0FDF712
:102CE000F9FF401B022801D9032056E4254800685B
:102CF000C0F340600028F2D048E02248006820F08D
:102D0000807020490860FDF7E5FF054606E0FDF705
:102D1000E1FF401B022801D903203EE41948006866
:102D2000C0F340600028F2D130E016482830076830
:102D3000144830300668606A012821D007F003018A
:102D4000A06A81421CD1C7F30511E06A884217D1FD
:102D5000C6F30801206B401E814211D1606B401EFA
:102D6000C6F3462188420BD1A06B401EC6F3064134
:102D7000884205D1E06B401EC6F30661884205D04B
:102D800001200AE40044025800480258002004E4EC
:102D900070B504460D460CB9012070BD94F82C00A6
:102DA00028B9002084F82D00204600F019F80220F0
:102DB00084F82C00211D2068FDF775FD2946D4E913
:102DC0000002FDF7C3FD0548006840F000400349DC
:102DD0000860012084F82C000020DEE7004000524B
:102DE00010B586B0044600BF3E48006840F48050ED
:102DF0003C4908600846006800F48050009000BF1D
:102E000000BF00BF37480C30006840F0040035496F
:102E10000C3108600846006800F00400009000BF14
:102E200000BF00BF0846006840F008000860084680
:102E3000006800F00800009000BF00BF00BF084617
:102E4000006840F0100008600846006800F01000BC
:102E5000009000BF00BF00BF0846006840F020009F
:102E600008600846006800F02000009000BF00BF26
:102E700000BF0846006840F040000860084600684F
:102E800000F04000009000BF00BF0D200190022024
:102E9000029001200390032004900C20059001A9CA
:102EA0001148FDF705FE4CF20370019001A90F488F
:102EB000FDF7FEFD4FF68370019001A90C48FDF768
:102EC000F7FD4FF63F00019001A90A48FDF7F0FD1C
:102ED00048F23710019001A90748FDF7E9FD06B057
:102EE00010BD0000D444025800080258000C0258DB
:102EF00000100258001402580018025870B5044619
:102F00000D4694F82C00022800D170BD94F82C00D6
:102F100001280AD1022084F82C0029462068FDF7F8
:102F2000F8FC012084F82C0001E00120EDE70020EE
:102F3000EBE72DE9F04104460E46174694F82C5075
:102F4000022D02D10220BDE8F081012D01D0052D16
:102F500012D1022084F82C003A4631462068FDF751
:102F6000E2FC3068022803D1052084F82C0005E03B
:102F7000012084F82C0001E00120E4E70020E2E7D2
:102F800070B504460E4615460CB9012070BD94F884
:102F9000450028B9002084F84400204600F028F8B5
:102FA00004F108012068FDF7F9FB3146A2682068AA
:102FB000FDF746FC2946E36AD4E90102FDF7CCFBA4
:102FC000A168206850F8210040F00100A268216843
:102FD00041F822000548006840F0004003490860BD
:102FE000012084F845000020D0E700000040005296
:102FF00010B50446FDF708FD10BD70B50446254622
:10300000681EB0F1807F01D301200FE0681E4FF0F1
:10301000E02148610F214FF0FF3004F035F9002026
:103020004FF0E021886107200861002070BD7047E3
:103030007047704730B502460B4600BF92F83C001F
:10304000012801D1022030BD012082F83C0000BFE0
:10305000022082F83D001068416810688468214DA4
:103060001068A84203D0204D1068A84203D121F473
:1030700070015868014321F070011868014310681D
:103080004160184D1068A8421BD01068B0F1804F05
:1030900017D0164D1068A84213D0154D1068A842DD
:1030A0000FD0144D1068A8420BD00F4D1068A842E5
:1030B00007D0114D1068A84203D0104D1068A842E7
:1030C00005D124F0800498680443106884600120CE
:1030D00082F83D0000BF002082F83C0000BF00BF26
:1030E000B1E700000000014000040140000400407E
:1030F00000080040000C0040001800400040014063
:1031000010B504460CB9012010BD94F83D0028B953
:10311000002084F83C00204600F02AF8022084F8C1
:103120003D00211D206803F0D5FB012084F84800F4
:1031300000BF84F83E0001213F2001554020015589
:1031400041200155422001554320015500BF00BFD9
:10315000012084F8440045200155462001554720B0
:10316000015500BF012084F83D000020CCE700009D
:1031700038B504460D492068884215D100BF0C4877
:10318000006840F002000A4908600846006800F044
:103190000200009000BF00BF002211461D20FDF775
:1031A00091FE1D20FDF77AFE38BD000000040040AE
:1031B000E8440258014691F83D00012801D0012061
:1031C0007047022081F83D000868C06840F00100A7
:1031D0000B68D8601C4B086898421BD00868B0F197
:1031E000804F17D0194B0868984213D0184B0868C5
:1031F00098420FD0174B086898420BD0164B0868BE
:10320000984207D0154B0868984203D0144B0868C1
:10321000984210D108688068124B00EA0302062A1F
:103220000FD0B2F5803F0CD00868006840F0010074
:103230000B68186005E00868006840F001000B6842
:1032400018600020BCE700000000014000040040BE
:1032500000080040000C004000040140001800403D
:1032600000400140070001002DE9F04104460D46F1
:10327000002700BF94F83C00012802D10220BDE8DD
:10328000F081012084F83C0000BF022084F83D005A
:10329000206886684048064026F47F46206886609D
:1032A0002868702826D00CDC00F00F01002966D1B8
:1032B0000011072863D2DFE800F0555657584B3706
:1032C0004100B0F1101F52D009DCB0F5805F10D082
:1032D000B0F5005F1BD0B0F5801F50D146E0A0F5DF
:1032E00080102038002843D0102842D0202846D112
:1032F00040E046E0D5E902136A68206803F050FB1D
:103300002068866846F077062068866039E0D5E94F
:1033100002136A68206803F043FB2068806840F469
:103320008040216888602CE0EA686968206803F0C2
:103330004FFB5021206803F03FFB22E0EA686968F8
:10334000206803F058FB6021206803F035FB18E08B
:10335000EA686968206803F03BFB4021206803F0BD
:103360002BFB0EE000BF00BF00BF00BF00BF00BFCF
:1033700000BF00BF2968206803F01EFB01E00127A1
:1033800000BF00BF012084F83D0000BF002084F88A
:103390003C0000BF384672E788FFCEFF704710B58B
:1033A000044620680069C0F34000D8B12068C068B6
:1033B000C0F34000B0B16FF0020021680861012045
:1033C00020772068806900F0030018B12046FFF7DD
:1033D000E5FF05E0204600F0BEF8204600F0BCF80E
:1033E0000020207720680069C0F38000D8B12068F1
:1033F000C068C0F38000B0B16FF0040021680861BC
:10340000022020772068806900F4407018B12046BF
:10341000FFF7C4FF05E0204600F09DF8204600F0CD
:103420009BF80020207720680069C0F3C000D8B165
:103430002068C068C0F3C000B0B16FF00800216818
:103440000861042020772068C06900F0030018B1EB
:103450002046FFF7A3FF05E0204600F07CF8204659
:1034600000F07AF80020207720680069C0F300108F
:10347000D8B12068C068C0F30010B0B16FF0100080
:1034800021680861082020772068C06900F4407036
:1034900018B12046FFF782FF05E0204600F05BF8F8
:1034A000204600F059F8002020772068006900F0DD
:1034B000010058B12068C06800F0010030B16FF021
:1034C000010021680861204600F047F82068006983
:1034D000C0F3C01058B12068C068C0F3C01030B14C
:1034E0006FF08000216808612046FFF7A1FD206889
:1034F0000069C0F3002058B12068C068C0F3C01054
:1035000030B16FF48070216808612046FFF78FFDAD
:1035100020680069C0F3801058B12068C068C0F30B
:10352000801030B16FF0400021680861204600F043
:1035300015F820680069C0F3401058B12068C068D1
:10354000C0F3401030B16FF02000216808612046C0
:10355000FFF76FFD10BD7047704770477047014619
:1035600000BF91F88000012801D10220704701209E
:1035700081F8800000BF2420C1F884000868026838
:103580000868006820F001000B68186022F0005203
:1035900000204866086802602020C1F8840000BF4F
:1035A000002081F8800000BF00BFDFE770B504464F
:1035B0000D4600BF94F88000012801D1022070BDA3
:1035C000012084F8800000BF2420C4F88400206813
:1035D00006682068006820F0010021680860206803
:1035E000806820F06060284321688860204603F0EE
:1035F00017FA206806602020C4F8840000BF00206D
:1036000084F8800000BF00BFD9E770B504460D46BE
:1036100000BF94F88000012801D1022070BD012074
:1036200084F8800000BF2420C4F884002068066865
:103630002068006820F00100216808602068806828
:1036400020F06040284321688860204603F0E8F9B4
:10365000206806602020C4F8840000BF002084F8A1
:10366000800000BF00BFD9E710B504460CB90120A7
:1036700010BDA06900B100E000BFD4F8840028B9F3
:10368000002084F88000204600F02AF82420C4F8A6
:1036900084002068006820F001002168086020464E
:1036A00003F0A2FA012800D1E2E7A06A10B1204697
:1036B00003F0E2F92068406820F4904021684860F7
:1036C0002068806820F02A002168886020680068EF
:1036D00040F0010021680860204603F049FAC7E77E
:1036E00010B5B6B00446142131A8FCF796FFBC21F2
:1036F00002A8FCF792FF1E492068884235D10120BC
:1037000002900020209002A8FDF7A0FE08B1FDF76E
:1037100020F800BF1748006840F010001549086005
:103720000846006800F01000019000BF00BF00BF15
:1037300010481038006840F001000E491039086048
:103740000846006800F00100019000BF00BF4FF480
:10375000C0603190022032900020339034900720D6
:10376000359031A90448FDF7A3F936B010BD00002B
:1037700000100140F04402580000025800BFFEE76C
:1037800070B5044600260948058840884543002155
:10379000084600F05BFA00F00DFB00BF02E00449B0
:1037A0000C80761CAE42FAD370BD000008050024E0
:1037B000000008602DE9F84F07460D4690469946EF
:1037C000DDF828B0A8EB0700401C1FFA80FAA9EB2F
:1037D0000500401C80B20090002414E0281981B23A
:1037E000384600F033FA00F0E5FA002607E004FB63
:1037F0000A603BF8100006490880701C86B25645E6
:10380000F5DB601C84B200988442E7DBBDE8F88FEA
:103810000000086010B5044655488471002C51D151
:10382000F020534908804FF4A070488008468088F3
:1038300049F24131884205D04D48808845F2103127
:10384000884214D12C204A4908812A2048812B2003
:1038500088810846808845F21031884206D14FF4AD
:10386000A070434908804FF4F07048807BE04048E6
:10387000808845F21051884210D14FF430503C49B5
:1038800008814FF4285048814FF42C5088814FF420
:10389000F07008804FF44870488064E034488088B5
:1038A00041F6631188425ED12C20314908812B20DA
:1038B00048812A2088814FF4F07008804FF44870C6
:1038C000488050E04FF4A07029490880F0204880DB
:1038D0000846808849F24131884205D024488088D2
:1038E00045F21031884207D12C20214908812A2035
:1038F00048812B20888129E01D48808845F210519D
:10390000884210D14FF43050194908814FF42850A3
:1039100048814FF42C5088814FF4487008804FF450
:10392000F070488012E01248808841F663118842A6
:103930000CD12C200E4908812A2048812B20888117
:103940004FF4487008804FF4F07048800848808831
:1039500045F21031884206D14FF4F07004490880D6
:103960004FF4A0704880002000F036F810BD000031
:103970000805002408B5034800880090BDF8000041
:1039800008BD00000000086000B50246BE2000F03F
:1039900005FA052000F0F6F900EE102AB8EE400B0B
:1039A0009FED0B1B20EE010BBCEEC00B10EE101AAE
:1039B00088B200F0E7F9012000F0E4F9FF2000F000
:1039C000E1F9002000F0DEF9002000F0DBF900BD95
:1039D0006666666666660440F0B505460024002704
:1039E00099488079012805D19748808841F663116C
:1039F000884208D194488079F0B99348808841F68C
:103A00006311884218D1082D15D2DFE805F00406AD
:103A1000080A0C0E101206250DE007250BE0042500
:103A200009E0052507E0012505E0002503E0032561
:103A300001E0022500BF00BF8348808849F2413180
:103A4000884211D08048808845F2103188420BD0DE
:103A50007D48808845F21051884205D07A48808898
:103A600041F6631188427DD1082D1CD2DFE805F0B4
:103A70000406090C0F12151800BF14E044F080046E
:103A800011E044F040040EE044F0C0040BE044F0C8
:103A9000200408E044F0600405E044F0A00402E0E3
:103AA00044F0E00400BF00BF6748808845F2105131
:103AB000884202D14FF4585700E036276248808888
:103AC00045F2103188420DD05F48808845F2105190
:103AD000884207D05C48808841F66311884201D053
:103AE00044F008042146384600F06EF956488088B4
:103AF00041F6631188421DD004F0200068B152489D
:103B0000008851494988884214DA4F48068840881D
:103B10004D490880084646800CE04B4800884A49D9
:103B20004988884206DD484806884088464908801A
:103B3000084646804448808845F21051884254D156
:103B40004149488900F02AF9002000F01BF93E495C
:103B50004989491C88B200F021F9002000F012F9CF
:103B6000394900E06FE04989891C88B200F016F9F4
:103B700035490988491EC1F30F2000F003F9324985
:103B80004989C91C88B200F009F92F490978491EF2
:103B9000C8B200F0F7F82C49888900F0FFF800203F
:103BA00000F0F0F828498989491C88B200F0F6F83D
:103BB000002000F0E7F824498989891C88B200F0C8
:103BC000EDF821494988491EC1F30F2000F0DAF8C9
:103BD0001D498989C91C88B200F0E0F81A49897822
:103BE000491EC8B200F0CEF82DE01749488900F010
:103BF000D5F8002000F0C6F8002000F0C3F8124904
:103C00000988491EC1F30F2000F0BCF80E4909785D
:103C1000491EC8B200F0B6F80B49888900F0BEF81A
:103C2000002000F0AFF8002000F0ACF80649498809
:103C3000491EC1F30F2000F0A5F803498978491EF9
:103C4000C8B200F09FF8F0BD0805002410B5024688
:103C50000C464B48808849F24131884205D048489B
:103C6000808845F21031884214D14549488900F0D6
:103C700095F8101200F086F8D0B200F083F84049B1
:103C8000888900F08BF8201200F07CF8E0B200F098
:103C900079F873E03A48808841F66311884247D149
:103CA00037488079A8B936480088401E801A82B209
:103CB0003349488900F072F8002000F063F80020D2
:103CC00000F060F8101200F05DF8D0B200F05AF881
:103CD00016E02B49488900F061F8101200F052F804
:103CE000D0B200F04FF826490988491EC1F30F20D1
:103CF00000F048F822490978491EC8B200F042F89D
:103D00001F49888900F04AF8201200F03BF8E0B221
:103D100000F038F81A494988491EC1F30F2000F015
:103D200031F817498978491EC8B200F02BF825E010
:103D30001348808845F2105188421FD110494889A4
:103D400000F02CF8101200F01DF80D494989491CAB
:103D500088B200F023F8D0B200F014F8084988893E
:103D600000F01CF8201200F00DF805498989491C63
:103D700088B200F013F8E0B200F004F810BD0000C3
:103D80000805002401B5BDF800000090BDF8000052
:103D90000149088008BD00000000086001B5BDF8B9
:103DA00000000090BDF800000149088008BD000037
:103DB000FEFF076002480089024908807047000042
:103DC00008050024FEFF0760024A1080921C118043
:103DD00070470000FEFF07601FB5002000900190B3
:103DE00002900390FDF712F801208DF800000020EA
:103DF0008DF801004FF0C040019019208DF80800A7
:103E000000208DF809008DF80A0003208DF80B00C2
:103E100000208DF80C008DF80D008DF80E000120AB
:103E20008DF80F006846FCF7C3FF01208DF80100F4
:103E30004FF04040019018208DF808006846FCF7CC
:103E4000B7FF0420FCF7F8FF1FBD000000B58FB0DE
:103E50001C2108A8FCF7E1FB1C2101A8FCF7DDFBF5
:103E600022482349086023484860002088600021D8
:103E70001F48C16001611021416100218161C16160
:103E800001624FF480514162002181624FF4804110
:103E9000C16200210163416381634FF40011C1637A
:103EA000002101640F200890099055200A900120FC
:103EB0000B9010200C9011200D9000200E900F20E0
:103EC0000190029003900120049010200590112091
:103ED00006900020079001AA08A90548FFF750F8AE
:103EE00008B1FCF736FC0FB000BD000000400052E6
:103EF000E00300240441005200B587B0142102A859
:103F0000FCF78BFB00BF3E48006840F020003C49B6
:103F100008600846006800F02000019000BF00BF64
:103F200000BF0846006840F080000860084600684E
:103F300000F08000019000BF00BF00BF084600688D
:103F400040F0040008600846006800F0040001909A
:103F500000BF00BF00BF0846006840F04000086096
:103F60000846006800F04000019000BF00BF00BF9D
:103F70000846006840F0100008600846006800F03D
:103F80001000019000BF00BF00BF0846006840F06D
:103F9000080008600846006800F00800019000BFB3
:103FA00000BF00BF0846006840F0010008600846F6
:103FB000006800F00100019000BF00BF00BF08468C
:103FC000006840F0020008600846006800F0020047
:103FD000019000BF00BF00224FF400710948FCF7B8
:103FE0006DFE4FF4007002900120039000200490B9
:103FF000059002A90348FCF75BFD07B000BD000077
:10400000E04402580004025800B587B00020039035
:104010000490059006900090019002901548164972
:104020000860EF20486000211348816040F2E731CA
:10403000C1600021016180218161FFF761F808B151
:10404000FCF787FB4FF48050039003A90A48FFF761
:104050000BF908B1FCF77DFB2020009000200290B6
:1040600069460548FEF7E6FF08B1FCF772FB07B0AA
:1040700000BD0000000400402C04002410B51848C6
:10408000184908604FF4E13048600021154881600C
:10409000C16001610C21416100218161C161016246
:1040A000416200200F4988620846FFF7DDFA08B137
:1040B000FCF74FFB00210B48FFF7A7FA08B1FCF70C
:1040C00048FB00210748FFF771FA08B1FCF741FBF4
:1040D0000448FFF744FA08B1FCF73BFB10BD0000B1
:1040E000001001407804002400BFFEE700BFFEE797
:1040F000704700002DE9F04104460E460027554860
:10410000006800F00300032802D10120BDE8F0811F
:1041100050482838006820F080604E4928390860EF
:10412000FCF7D8FD054606E0FCF7D4FD401B02284D
:1041300001D90320EAE7474828380068C0F3C06087
:104140000028F1D100BF4348006820F47C3021688A
:1041500040EA01303F490860A088401EC0F30800D3
:10416000A168491E4FF47E4202EA41210843A18919
:10417000491ED20102EA01410843217C491E120274
:1041800002EA0161084333491031086000BF314839
:10419000001D006820F0C000616908432D49091D19
:1041A00008600846006820F02000A16908432949FA
:1041B000091D08600846006820F0100008602548C6
:1041C000143000684FF6F8718843E16940EAC10095
:1041D0002049143108601F48001D006840F010009D
:1041E0001C49091D08602EB90846006840F40020EB
:1041F000086012E0012E08D11648001D006840F446
:1042000080101449091D086007E01248001D00686D
:1042100040F400100F49091D08600E482838006856
:1042200040F080600B4928390860FCF753FD0546D3
:1042300006E0FCF74FFD401B022801D9032065E78B
:10424000044828380068C0F3C0600028F1D0384620
:104250005CE70000284402582DE9F04104460E4670
:1042600000275548006800F00300032802D1012010
:10427000BDE8F08150482838006820F080504E4951
:1042800028390860FCF726FD054606E0FCF722FD0C
:10429000401B022801D90320EAE747482838006874
:1042A000C0F340700028F1D100BF4348006820F0FF
:1042B0007C70218840EA01503F490860A088401E78
:1042C000C0F30800A168491E4FF47E4202EA412172
:1042D0000843A189491ED20102EA01410843217C19
:1042E000491E120202EA016108433349183108608D
:1042F00000BF3148001D006820F440606169084338
:104300002D49091D08600846006820F40070A16965
:1043100008432949091D08600846006820F4807098
:10432000086025481C3000684FF6F8718843E16941
:1043300040EAC10020491C3108601F48001D006888
:1043400040F480701C49091D08602EB908460068B9
:1043500040F48000086012E0012E08D11648001DCC
:10436000006840F400001449091D086007E0124885
:10437000001D006840F080700F49091D08600E485C
:104380002838006840F080500B4928390860FCF755
:10439000A1FC054606E0FCF79DFC401B022801D964
:1043A000032065E7044828380068C0F340700028FF
:1043B000F1D038465CE7000028440258704710B539
:1043C000FCF78EFC10BD000000B59DB04C210AA882
:1043D000FCF723F9202102A8FCF71FF90220FCF7C3
:1043E000C3FD00BF002001902A48006840F440400F
:1043F000284908600846006800F4404001902648BB
:10440000006840F00100244908600846006800F098
:104410000100019000BF00BF00BF1E48006800F40B
:104420000050B0F5005FF8D102200A9001200D90F5
:1044300040200E9002201390002114910421159128
:104440003C21169102211791189119910C211A9172
:1044500000211B911C910AA8FEF79AF808B1FCF7FD
:1044600078F93F2002900320039000200490082058
:104470000590402006900790000108904020099088
:10448000042102A8FDF794FD08B1FCF762F91DB004
:1044900000BD0000184802582C0400583448006839
:1044A00040F47000324908603248006800F00F00A4
:1044B000072806D22F48006820F00F00C01D2D49A4
:1044C00008602D48006840F001002B49086000207A
:1044D00029491031086028480068284908402649C1
:1044E00008602448006800F00F00072806D921481A
:1044F000006820F00F00C01D1E49086000201E4902
:1045000018310860091D0860091D08601C481A4917
:10451000283108601B48091D08601B48091D0860F8
:104520000020091D08601848091D08600020091DA9
:1045300008601548091D08600020091D08600E4824
:10454000006820F480200C49086000200A4960318E
:1045500008600E4800686FF30F00B0F1005F02D2F0
:1045600001200B49086043F2D2000A4908607047F5
:1045700088ED00E000200052004402587FEDF6EA8A
:10458000000202020000FF01800201010010005C35
:10459000088100510040005210B53220FCF720FA8B
:1045A000D320FFF7FBFBFFF7E5F9FE498880FFF713
:1045B000E1F9FC498880FFF7DDF9FA49888008466F
:1045C00080884FF6FF7101EA0020F6498880FFF7E6
:1045D000D1F9F44989880843F249888008468088DF
:1045E00049F24131884278D0D420FFF7D7FBFFF75A
:1045F000C1F9EC498880FFF7BDF9EA498880FFF7E7
:10460000B9F9E8498880084680884FF6FF7101EAC9
:104610000020E4498880FFF7ADF9E2498988084322
:10462000E04988800846808845F21031884254D09D
:104630004FF45A40FFF7B2FBFFF79CF9D949888045
:104640004FF45B40FFF7AAFBFFF794F9D549888048
:10465000084680884FF6FF7101EA0020D149888022
:104660004FF45C40FFF79AFBFFF784F9CD49898846
:104670000843CC49888008468088B0F5004F02D1B5
:1046800045F210508880C748808845F21051884212
:1046900023D0A120FFF782FBFFF76CF9C149888086
:1046A000FFF768F9BF498880084680884FF6FF7198
:1046B00001EA0020BB498880FFF75CF9B949898885
:1046C0000843B84988800846808845F2617188426D
:1046D00003D141F66310B3498880B248808849F21B
:1046E000413188427ED1CF20FFF758FB0020FFF7F1
:1046F00049FBC120FFF746FB3020FFF743FBED20CD
:10470000FFF74CFB6420FFF73DFB0320FFF73AFB6C
:104710001220FFF737FB8120FFF734FBE820FFF77B
:104720003DFB8520FFF72EFB1020FFF72BFB7A20A7
:10473000FFF728FBCB20FFF731FB3920FFF722FBE7
:104740002C20FFF71FFB0020FFF71CFB3420FFF796
:1047500019FB0220FFF716FBF720FFF71FFB2020B5
:10476000FFF710FBEA20FFF719FB0020FFF70AFB19
:104770000020FFF707FBC020FFF710FB1B20FFF70F
:1047800001FBC120FFF70AFB0120FFF7FBFAC52060
:10479000FFF704FB3020FFF7F5FA3020FFF7F2FABD
:1047A000C720FFF7FBFAB720FFF7ECFA3620FFF738
:1047B000F5FA4820FFF7E6FA3A20FFF7EFFA55201E
:1047C000FFF7E0FAB120FFF7E9FA0020FFF7DAFA85
:1047D0001A20FFF7D7FAB620FFF7E0FA0A20FFF712
:1047E000D1FA00E097E0A220FFF7CCFAF220FFF721
:1047F000D5FA0020FFF7C6FA2620FFF7CFFA0120EE
:10480000FFF7C0FAE020FFF7C9FA0F20FFF7BAFA66
:104810002A20FFF7B7FA2820FFF7B4FA0820FFF79D
:10482000B1FA0E20FFF7AEFA0820FFF7ABFA5420DA
:10483000FFF7A8FAA920FFF7A5FA4320FFF7A2FA8D
:104840000A20FFF79FFA0F20FFF79CFA0020FFF7DE
:1048500099FA0020FFF796FA0020FFF793FA00205C
:10486000FFF790FAE120FFF799FA0020FFF78AFAA4
:104870001520FFF787FA1720FFF784FA0720FFF7C4
:1048800081FA1120FFF77EFA0620FFF77BFA2B2032
:10489000FFF778FA5620FFF775FA3C20FFF772FA17
:1048A0000520FFF76FFA1020FFF76CFA0F20FFF7D3
:1048B00069FA3F20FFF766FA3F20FFF763FA0F20FF
:1048C000FFF760FA2B20FFF769FA0020FFF75AFA8A
:1048D0000020FFF757FA0120FFF754FA3F20FFF7B7
:1048E00051FA2A20FFF75AFA0020FFF74BFA00206E
:1048F000FFF748FA0020FFF745FAEF20FFF742FAEA
:104900001120FFF74BFA7820FCF76AF82920FFF70F
:1049100045FA01F0CBBF2348808845F21031884228
:1049200040F07C87ED20FFF739FA0120FFF72AFAE3
:10493000FE20FFF727FAEE20FFF730FADE20FFF720
:1049400021FA2120FFF71EFAF120FFF727FA0120B4
:10495000FFF718FADF20FFF721FA1020FFF712FA0D
:10496000C420FFF71BFA8F20FFF70CFAC620FFF7D1
:1049700015FA0020FFF706FAE220FFF703FAE2201B
:10498000FFF700FAE220FFF7FDF9BF20FFF706FA74
:10499000AA20FFF7F7F9B020FFF700FA0D20FFF784
:1049A000F1F901E0080500240020FFF7EBF90D20E4
:1049B000FFF7E8F90020FFF7E5F91120FFF7E2F92A
:1049C0000020FFF7DFF91920FFF7DCF90020FFF7DF
:1049D000D9F92120FFF7D6F90020FFF7D3F92D20D0
:1049E000FFF7D0F90020FFF7CDF93D20FFF7CAF916
:1049F0000020FFF7C7F95D20FFF7C4F90020FFF79B
:104A0000C1F95D20FFF7BEF90020FFF7BBF9B12027
:104A1000FFF7C4F98020FFF7B5F90020FFF7B2F9DE
:104A20008B20FFF7AFF90020FFF7ACF99620FFF7D6
:104A3000A9F90020FFF7A6F9B220FFF7AFF900208F
:104A4000FFF7A0F90020FFF79DF90220FFF79AF980
:104A50000020FFF797F90320FFF794F90020FFF7F4
:104A600091F9B320FFF79AF90020FFF78BF90020A6
:104A7000FFF788F90020FFF785F90020FFF782F99A
:104A80000020FFF77FF90020FFF77CF90020FFF7F7
:104A900079F90020FFF776F90020FFF773F900207D
:104AA000FFF770F90020FFF76DF90020FFF76AF9B2
:104AB0000020FFF767F90020FFF764F90020FFF7F7
:104AC00061F90020FFF75EF90020FFF75BF9002095
:104AD000FFF758F90020FFF755F90020FFF752F9CA
:104AE0000020FFF74FF90020FFF74CF90020FFF7F7
:104AF00049F90020FFF746F9B420FFF74FF98B2062
:104B0000FFF740F90020FFF73DF99620FFF73AF94B
:104B10000020FFF737F9A120FFF734F90020FFF755
:104B200031F9B520FFF73AF90220FFF72BF9002001
:104B3000FFF728F90320FFF725F90020FFF722F9F6
:104B40000420FFF71FF90020FFF71CF9B620FFF73C
:104B500025F90020FFF716F90020FFF713F9B72019
:104B6000FFF71CF90020FFF70DF90020FFF70AF905
:104B70003F20FFF707F90020FFF704F95E20FFF759
:104B800001F90020FFF7FEF86420FFF7FBF8002092
:104B9000FFF7F8F88C20FFF7F5F80020FFF7F2F8A0
:104BA000AC20FFF7EFF80020FFF7ECF8DC20FFF770
:104BB000E9F80020FFF7E6F87020FFF7E3F800209F
:104BC000FFF7E0F89020FFF7DDF80020FFF7DAF8B4
:104BD000EB20FFF7D7F80020FFF7D4F8DC20FFF731
:104BE000D1F80020FFF7CEF8B820FFF7D7F8002063
:104BF000FFF7C8F80020FFF7C5F80020FFF7C2F85C
:104C00000020FFF7BFF80020FFF7BCF80020FFF7F7
:104C1000B9F80020FFF7B6F80020FFF7B3F8BA2084
:104C2000FFF7BCF82420FFF7ADF80020FFF7AAF843
:104C30000020FFF7A7F80020FFF7A4F8C120FFF736
:104C4000ADF82020FFF79EF80020FFF79BF85420D6
:104C5000FFF798F80020FFF795F8FF20FFF792F88C
:104C60000020FFF78FF8C220FFF798F80A20FFF71F
:104C700089F80020FFF786F80420FFF783F800206A
:104C8000FFF780F8C320FFF789F83C20FFF77AF898
:104C90000020FFF777F83A20FFF774F80020FFF7BD
:104CA00071F83920FFF76EF80020FFF76BF8372016
:104CB000FFF768F80020FFF765F83C20FFF762F87F
:104CC0000020FFF75FF83620FFF75CF80020FFF7C1
:104CD00059F83220FFF756F80020FFF753F82F203D
:104CE000FFF750F80020FFF74DF82C20FFF74AF8A7
:104CF0000020FFF747F82920FFF744F80020FFF7CE
:104D000041F82620FFF73EF80020FFF73BF824206B
:104D1000FFF738F80020FFF735F82420FFF732F8C6
:104D20000020FFF72FF82320FFF72CF80020FFF7D3
:104D300029F83C20FFF726F80020FFF723F836205B
:104D4000FFF720F80020FFF71DF83220FFF71AF8D0
:104D50000020FFF717F82F20FFF714F80020FFF7C7
:104D600011F82C20FFF70EF80020FFF70BF8292090
:104D7000FFF708F80020FFF705F82620FFF702F8F4
:104D80000020FEF7FFFF2420FEF7FCFF0020FEF7C7
:104D9000F9FF2420FEF7F6FF0020FEF7F3FF2320A3
:104DA000FEF7F0FF0020FEF7EDFFC420FEF7F6FF50
:104DB0006220FEF7E7FF0020FEF7E4FF0520FEF784
:104DC000E1FF0020FEF7DEFF8420FEF7DBFF00207E
:104DD000FEF7D8FFF020FEF7D5FF0020FEF7D2FF48
:104DE0001820FEF7CFFF0020FEF7CCFFA420FEF72F
:104DF000C9FF0020FEF7C6FF1820FEF7C3FF002002
:104E0000FEF7C0FF5020FEF7BDFF0020FEF7BAFFFF
:104E10000C20FEF7B7FF0020FEF7B4FF1720FEF7C7
:104E2000B1FF0020FEF7AEFF9520FEF7ABFF00209C
:104E3000FEF7A8FFF320FEF7A5FF0020FEF7A2FF74
:104E4000E620FEF79FFF0020FEF79CFFC520FEF73F
:104E5000A5FF3220FEF796FF0020FEF793FF4420C7
:104E6000FEF790FF0020FEF78DFF6520FEF78AFF1A
:104E70000020FEF787FF7620FEF784FF0020FEF774
:104E800081FF8820FEF77EFF0020FEF77BFFC62013
:104E9000FEF784FF2020FEF775FF0020FEF772FF6B
:104EA0001720FEF76FFF0020FEF76CFF0120FEF7D2
:104EB00069FF0020FEF766FFC720FEF76FFF0020A6
:104EC000FEF760FF0020FEF75DFF0020FEF75AFFAF
:104ED0000020FEF757FFC820FEF760FF0020FEF716
:104EE00051FF0020FEF74EFF0020FEF74BFF002091
:104EF000FEF748FFC920FEF751FF0020FEF742FFF2
:104F00000020FEF73FFF0020FEF73CFF0020FEF7E9
:104F100039FF0020FEF736FF0020FEF733FF0020A8
:104F2000FEF730FF0020FEF72DFF0020FEF72AFFDE
:104F30000020FEF727FF0020FEF724FF0020FEF7E9
:104F400021FF0020FEF71EFF0020FEF71BFF0020C0
:104F5000FEF718FF0020FEF715FFE020FEF71EFF0A
:104F60001620FEF70FFF0020FEF70CFF1C20FEF7B7
:104F700009FF0020FEF706FF2120FEF703FF0020B7
:104F8000FEF700FF3620FEF7FDFE0020FEF7FAFEDA
:104F90004620FEF7F7FE0020FEF7F4FE5220FEF753
:104FA000F1FE0020FEF7EEFE6420FEF7EBFE00208F
:104FB000FEF7E8FE7A20FEF7E5FE0020FEF7E2FEAF
:104FC0008B20FEF7DFFE0020FEF7DCFE9920FEF7C7
:104FD000D9FE0020FEF7D6FEA820FEF7D3FE002063
:104FE000FEF7D0FEB920FEF7CDFE0020FEF7CAFE88
:104FF000C420FEF7C7FE0020FEF7C4FECA20FEF75D
:10500000C1FE0020FEF7BEFED220FEF7BBFE002050
:10501000FEF7B8FED920FEF7B5FE0020FEF7B2FE7F
:10502000E020FEF7AFFE0020FEF7ACFEF320FEF717
:10503000A9FE0020FEF7A6FEE120FEF7AFFE162037
:10504000FEF7A0FE0020FEF79DFE1C20FEF79AFE54
:105050000020FEF797FE2220FEF794FE0020FEF7C8
:1050600091FE3620FEF78EFE0020FEF78BFE4520D7
:10507000FEF788FE0020FEF785FE5220FEF782FE36
:105080000020FEF77FFE6420FEF77CFE0020FEF786
:1050900079FE7A20FEF776FE0020FEF773FE8B2065
:1050A000FEF770FE0020FEF76DFE9920FEF76AFE07
:1050B0000020FEF767FEA820FEF764FE0020FEF742
:1050C00061FEB920FEF75EFE0020FEF75BFEC42005
:1050D000FEF758FE0020FEF755FECA20FEF752FEEE
:1050E0000020FEF74FFED220FEF74CFE0020FEF718
:1050F00049FED820FEF746FE0020FEF743FEE020E2
:10510000FEF740FE0020FEF73DFEF320FEF73AFEDC
:105110000020FEF737FEE220FEF740FE0520FEF7F6
:1051200031FE0020FEF72EFE0B20FEF72BFE0020A6
:10513000FEF728FE1B20FEF725FE0020FEF722FECC
:105140003420FEF71FFE0020FEF71CFE4420FEF771
:1051500019FE0020FEF716FE4F20FEF713FE00207A
:10516000FEF710FE6120FEF70DFE0020FEF70AFE9E
:105170007920FEF707FE0020FEF704FE8820FEF7E8
:1051800001FE0020FEF7FEFD9720FEF7FBFD00204C
:10519000FEF7F8FDA620FEF7F5FD0020FEF7F2FD74
:1051A000B720FEF7EFFD0020FEF7ECFDC220FEF772
:1051B000E9FD0020FEF7E6FDC720FEF7E3FD002035
:1051C000FEF7E0FDD120FEF7DDFD0020FEF7DAFD61
:1051D000D620FEF7D7FD0020FEF7D4FDDD20FEF738
:1051E000D1FD0020FEF7CEFDF320FEF7CBFD002021
:1051F000FEF7C8FDE320FEF7D1FD0520FEF7C2FD56
:105200000020FEF7BFFD0A20FEF7BCFD0020FEF7E0
:10521000B9FD1C20FEF7B6FD0020FEF7B3FD3320DC
:10522000FEF7B0FD0020FEF7ADFD4420FEF7AAFD1D
:105230000020FEF7A7FD5020FEF7A4FD0020FEF79A
:10524000A1FD6220FEF79EFD0020FEF79BFD782069
:10525000FEF798FD0020FEF795FD8820FEF792FDF1
:105260000020FEF78FFD9720FEF78CFD0020FEF753
:1052700089FDA620FEF786FD0020FEF783FDB720FE
:10528000FEF780FD0020FEF77DFDC220FEF77AFDCF
:105290000020FEF777FDC720FEF774FD0020FEF723
:1052A00071FDD120FEF76EFD0020FEF76BFDD520CD
:1052B000FEF768FD0020FEF765FDDD20FEF762FDCC
:1052C0000020FEF75FFDF320FEF75CFD0020FEF7F7
:1052D00059FDE420FEF762FD0120FEF753FD00209A
:1052E000FEF750FD0120FEF74DFD0020FEF74AFDC0
:1052F0000220FEF747FD0020FEF744FD2A20FEF7BE
:1053000041FD0020FEF73EFD3C20FEF73BFD002066
:10531000FEF738FD4B20FEF735FD0020FEF732FD8D
:105320005D20FEF72FFD0020FEF72CFD7420FEF718
:1053300029FD0020FEF726FD8420FEF723FD002036
:10534000FEF720FD9320FEF71DFD0020FEF71AFD5D
:10535000A220FEF717FD0020FEF714FDB320FEF794
:1053600011FD0020FEF70EFDBE20FEF70BFD002014
:10537000FEF708FDC420FEF705FD0020FEF702FD44
:10538000CD20FEF7FFFC0020FEF7FCFCD320FEF74B
:10539000F9FC0020FEF7F6FCDD20FEF7F3FC002010
:1053A000FEF7F0FCF320FEF7EDFC0020FEF7EAFC30
:1053B000E520FEF7F3FC0020FEF7E4FC0020FEF7FA
:1053C000E1FC0020FEF7DEFC0020FEF7DBFC022003
:1053D000FEF7D8FC0020FEF7D5FC2920FEF7D2FC12
:1053E0000020FEF7CFFC3C20FEF7CCFC0020FEF7AF
:1053F000C9FC4B20FEF7C6FC0020FEF7C3FC5D2075
:10540000FEF7C0FC0020FEF7BDFC7420FEF7BAFCDE
:105410000020FEF7B7FC8420FEF7B4FC0020FEF766
:10542000B1FC9320FEF7AEFC0020FEF7ABFCA220FF
:10543000FEF7A8FC0020FEF7A5FCB320FEF7A2FCB7
:105440000020FEF79FFCBE20FEF79CFC0020FEF72C
:1054500099FCC420FEF796FC0020FEF793FCCD20BB
:10546000FEF790FC0020FEF78DFCD320FEF78AFCAF
:105470000020FEF787FCDC20FEF784FC0020FEF70E
:1054800081FCF320FEF77EFC0020FEF77BFCE6208B
:10549000FEF784FC1120FEF775FC0020FEF772FC7D
:1054A0003420FEF76FFC0020FEF76CFC5620FEF760
:1054B00069FC0020FEF766FC7620FEF763FC002006
:1054C000FEF760FC7720FEF75DFC0020FEF75AFC3B
:1054D0006620FEF757FC0020FEF754FC8820FEF7FC
:1054E00051FC0020FEF74EFC9920FEF74BFC0020FB
:1054F000FEF748FCBB20FEF745FC0020FEF742FC0F
:105500009920FEF73FFC0020FEF73CFC6620FEF7EA
:1055100039FC0020FEF736FC5520FEF733FC002056
:10552000FEF730FC5520FEF72DFC0020FEF72AFC8C
:105530004520FEF727FC0020FEF724FC4320FEF761
:1055400021FC0020FEF71EFC4420FEF71BFC00207F
:10555000FEF718FCE720FEF721FC3220FEF712FCD4
:105560000020FEF70FFC5520FEF70CFC0020FEF794
:1055700009FC7620FEF706FC0020FEF703FC6620FF
:10558000FEF700FC0020FEF7FDFB6720FEF7FAFBAC
:105590000020FEF7F7FB6720FEF7F4FB0020FEF784
:1055A000F1FB8720FEF7EEFB0020FEF7EBFB9920D6
:1055B000FEF7E8FB0020FEF7E5FBBB20FEF7E2FB71
:1055C0000020FEF7DFFB9920FEF7DCFB0020FEF752
:1055D000D9FB7720FEF7D6FB0020FEF7D3FB442053
:1055E000FEF7D0FB0020FEF7CDFB5620FEF7CAFBEE
:1055F0000020FEF7C7FB2320FEF7C4FB0020FEF7C8
:10560000C1FB3320FEF7BEFB0020FEF7BBFB4520AD
:10561000FEF7B8FB0020FEF7B5FBE820FEF7BEFB67
:105620000020FEF7AFFB0020FEF7ACFB9920FEF751
:10563000A9FB0020FEF7A6FB8720FEF7A3FB0020B6
:10564000FEF7A0FB8820FEF79DFB0020FEF79AFBEB
:105650007720FEF797FB0020FEF794FB6620FEF70D
:1056600091FB0020FEF78EFB8820FEF78BFB0020CD
:10567000FEF788FBAA20FEF785FB0020FEF782FBE1
:10568000BB20FEF77FFB0020FEF77CFB9920FEF796
:1056900079FB0020FEF776FB6620FEF773FB002007
:1056A000FEF770FB5520FEF76DFB0020FEF76AFB4E
:1056B0005520FEF767FB0020FEF764FB4420FEF751
:1056C00061FB0020FEF75EFB4420FEF75BFB002041
:1056D000FEF758FB5520FEF755FB0020FEF752FB66
:1056E000E920FEF75BFBAA20FEF74CFB0020FEF74B
:1056F00049FB0020FEF746FB0020FEF743FB00209D
:10570000FEF74CFBAA20FEF73DFBCF20FEF746FB41
:105710000020FEF737FB0020FEF734FB0020FEF7E9
:1057200031FB0020FEF72EFB0020FEF72BFB0020B4
:10573000FEF728FB0020FEF725FB0020FEF722FBEA
:105740000020FEF71FFB0020FEF71CFB0020FEF7E9
:1057500019FB0020FEF716FB0020FEF713FB0020CC
:10576000FEF710FB0020FEF70DFB0020FEF70AFB02
:105770000020FEF707FBF020FEF710FB0020FEF7ED
:1057800001FB5020FEF7FEFA0020FEF7FBFA002096
:10579000FEF7F8FA0020FEF7F5FAF320FEF7FEFA1E
:1057A0000020FEF7EFFAF920FEF7F8FA0620FEF7E0
:1057B000E9FA1020FEF7E6FA2920FEF7E3FA0020C6
:1057C000FEF7E0FA3A20FEF7E9FA5520FEF7DAFA9A
:1057D0001120FEF7E3FA6420FBF702F92920FEF717
:1057E000DDFA3520FEF7DAFA0020FEF7CBFA512079
:1057F000FEF7D4FAFF20FEF7C5FA5320FEF7CEFAE3
:105800002C20FEF7BFFA5520FEF7C8FA8220FEF7DB
:10581000B9FA2C20FEF7C2FA01F048B8FE48808899
:1058200045F2105188427DD155214FF47040FEF76A
:10583000CBFAAA214FF20100FEF7C6FA52214FF22D
:105840000200FEF7C1FA08214FF20300FEF7BCFA8E
:1058500001214FF20400FEF7B7FA0D214FF430405A
:10586000FEF7B2FA0D214BF20100FEF7ADFA0D2161
:105870004BF20200FEF7A8FA34214FF43640FEF74F
:10588000A3FA34214BF20160FEF79EFA34214BF269
:105890000260FEF799FA0D214FF43140FEF794FAB9
:1058A0000D214BF20110FEF78FFA0D214BF2021081
:1058B000FEF78AFA34214FF43740FEF785FA342197
:1058C0004BF20170FEF780FA34214BF20270FEF7C2
:1058D0007BFA00214FF43240FEF776FA00214BF2BA
:1058E0000120FEF771FA00214BF20220FEF76CFA5C
:1058F00024214FF43840FEF767FA24214BF60100CB
:10590000FEF762FA24214BF60200FEF75DFA012150
:105910004FF43F40FEF758FA0F214FF43340FEF7A3
:1059200053FA00E0FDE30F214BF20130FEF74CFA91
:105930000F214BF20230FEF747FA34214FF4394081
:10594000FEF742FA34214BF60110FEF73DFA3421FE
:105950004BF60210FEF738FA08214FF43540FEF7F7
:1059600033FA08214BF20150FEF72EFA08214BF2D0
:105970000250FEF729FA03214FF44240FEF724FAC1
:1059800024214FF43A40FEF71FFA24214BF6012060
:10599000FEF71AFA24214BF60220FEF715FA002131
:1059A0004FF43C40FEF710FA78214BF60140FEF729
:1059B0000BFA00214BF60240FEF706FA00214FF4E5
:1059C0003D40FEF701FA78214BF60150FEF7FCF955
:1059D00000214BF60250FEF7F7F900214FF43E404C
:1059E000FEF7F2F964214BF60160FEF7EDF90021B4
:1059F0004FF45140FEF7E8F933214DF20110FEF764
:105A0000E3F900214DF20210FEF7DEF934214DF2E8
:105A10000310FEF7D9F900214DF20410FEF7D4F976
:105A20003A214DF20510FEF7CFF900214DF2061094
:105A3000FEF7CAF94A214DF20710FEF7C5F9002119
:105A40004DF20810FEF7C0F95C214DF20910FEF787
:105A5000BBF900214DF20A10FEF7B6F981214DF293
:105A60000B10FEF7B1F900214DF20C10FEF7ACF966
:105A7000A6214DF20D10FEF7A7F900214DF20E10F0
:105A8000FEF7A2F9E5214DF20F10FEF79DF9012175
:105A90004DF21010FEF798F913214DF21110FEF798
:105AA00093F901214DF21210FEF78EF954214DF2B7
:105AB0001310FEF789F901214DF21410FEF784F955
:105AC00082214DF21510FEF77FF901214DF21610DB
:105AD000FEF77AF9CA214DF21710FEF775F9022187
