:020000040800F2
:1000000030090024B10200086D3700086D2B00088C
:1000100069370008BD03000893670008000000006E
:100020000000000000000000000000003D3A000851
:10003000C103000800000000713700083F3A0008C3
:10004000CB020008CB020008CB020008CB0200085C
:10005000CB020008CB020008CB020008CB0200084C
:10006000CB020008CB020008CB020008CB0200083C
:10007000CB020008CB020008CB020008CB0200082C
:10008000CB020008CB020008CB020008CB0200081C
:10009000CB020008CB020008CB020008CB0200080C
:1000A000CB020008CB020008CB020008CB020008FC
:1000B000CB020008CB020008CB020008CB020008EC
:1000C000CB020008CB020008CB020008CB020008DC
:1000D000CB020008CB020008CB020008CB020008CC
:1000E000CB020008CB02000800000000CB02000891
:1000F000CB020008CB020008CB020008CB020008AC
:10010000CB020008CB020008CB020008CB0200089B
:10011000CB020008CB020008CB020008CB0200088B
:10012000CB020008CB020008CB020008CB0200087B
:10013000CB020008CB020008CB020008CB0200086B
:1001400000000000000000000000000000000000AF
:10015000CB020008CB020008CB020008CB0200084B
:10016000CB020008CB020008CB020008CB0200083B
:10017000CB020008CB020008CB0200080000000000
:10018000CB020008CB020008CB020008CB0200081B
:10019000CB020008CB020008CB020008CB0200080B
:1001A000CB020008CB020008CB020008CB020008FB
:1001B000CB020008CB020008CB020008CB020008EB
:1001C000CB020008CB020008CB020008CB020008DB
:1001D000CB020008CB020008CB020008CB020008CB
:1001E000CB020008CB020008CB020008CB020008BB
:1001F000CB020008CB020008CB020008CB020008AB
:10020000CB020008CB020008CB020008CB0200089A
:10021000CB020008CB020008CB020008CB0200088A
:10022000CB020008CB020008CB020008000000004F
:10023000CB020008CB02000800000000CB0200083F
:10024000CB020008CB020008CB020008CB0200085A
:10025000CB020008CB020008CB020008CB0200084A
:10026000CB020008CB020008CB020008CB0200083A
:10027000CB020008CB020008CB02000800000000FF
:10028000CB020008CB020008CB02000800000000EF
:1002900000000000CB020008DFF810D000F07CF86E
:1002A00000480047A56F0008AFF300803009002424
:1002B0000648804706480047FEE7FEE7FEE7FEE700
:1002C000FEE7FEE7FEE7FEE7FEE7FEE71D3B000870
:1002D000990200082DE9F05F0546002092469B46F2
:1002E00088460646814640241BE02846414647464C
:1002F000224600F041F853465A46C01A914110D3A5
:1003000011461846224600F028F82D1A67EB01081E
:100310004F4622460120002100F01FF817EB00098C
:100320004E41201EA4F10104DFDC484631462A4636
:100330004346BDE8F09FD2B201E000F8012B491E10
:10034000FBD270470022F6E710B513460A46044672
:100350001946FFF7F0FF204610BD202A04DB203AA3
:1003600000FA02F1002070479140C2F1200320FA08
:1003700003F3194390407047202A04DB203A21FA06
:1003800002F00021704721FA02F3D040C2F12002AE
:100390009140084319467047064C074D06E0E06857
:1003A00040F0010394E8070098471034AC42F6D3BC
:1003B000FFF776FF28B8000848B8000800BFFEE73E
:1003C000704772B600BFFEE770B50446B3F5804FC4
:1003D00013D1D1E9000540EA05108D6840EA0520F7
:1003E0008D6928438D8940EA054054F82250064E15
:1003F0003540284344F8220003E06FF0704044F891
:100400002200002070BD00000000F0CF70B5024651
:10041000086852F8200020F001000E6842F826001B
:100420008868082801D1402500E000254868284355
:100430008E683043CE6830430E6930434E69304396
:100440008E693043CE6930430E6A30434E6A304382
:100450008E6A3043CE6A40EA0603086B0343486B5A
:100460000343886B0343114C44F4801444F4001498
:1004700044F4E024086852F82000A04318430E68B2
:1004800042F82600086BB0F5801F07D1086828B134
:10049000106820F480100E6B30431060086818B1AB
:1004A00010684E6B30431060002070BD7FFB080069
:1004B00030B50346D1E9000540EA05108D6840EAF1
:1004C00005208D8940EA0545088A401E45EA005509
:1004D000087D801E45EA00608D692843551C53F84D
:1004E000255005F040452843551C43F82500186861
:1004F00000F48010B0F5801F0BD1586820F4700410
:10050000088A401E44EA0054586820F470002043D2
:100510005860002030BD000070B5044600F076F948
:1005200006462546681C10B104480078054400BF03
:1005300000F06CF9801BA842FAD370BD10000024B3
:1005400000B5B5B0142130A8FFF7FCFE22480068C2
:1005500008B135B000BD01201F490860BC2101A8C9
:10056000FFF7F0FE4FF0807001900020129001A87C
:1005700000F0F4FC08B1FFF724FF00BF1748006843
:1005800040F48050154908600846006800F4805027
:10059000009000BF00BF4FF6807030900220319075
:1005A00000203290032033900C20349030A90C4866
:1005B00000F01AF84EF2B370309002203190002013
:1005C0003290032033900C20349030A9054800F07D
:1005D0000BF800BFBDE7000000000024D44402581F
:1005E00000100258000C0258F8B502460B460021D4
:1005F0006F4DD7E001278F401E6806EA0704002CE4
:1006000072D01E7906F00306012E04D01E7906F082
:100610000306022E13D190684F000326BE40B0435C
:100620004F00DE68BE4030439060506801268E4027
:10063000B0431E79C6F300168E40304350601E79D9
:1006400006F00306032E09D0D0684F000326BE40F3
:10065000B0434F009E68BE403043D0601E7906F024
:100660000306022E13D1CF0802F1200656F8270008
:100670004E07F70E0F26BE40B0434F07FF0E1E6910
:10068000BE403043CF0802F1200646F8270010682C
:100690004F000326BE40B0431E7906F003064F000C
:1006A000BE40304310605E6806F44036002E78D0BD
:1006B00000BF404E366846F002063E4F3E603E4662
:1006C000366806F00206009600BF00BF3A4E8F085B
:1006D00056F827008E07370F0F26BE40B043374E1F
:1006E000B24202D100262EE05BE0354EB24201D18B
:1006F000012628E0334EB24201D1022623E0324ED9
:10070000B24201D103261EE0304EB24201D104268E
:1007100019E02F4EB24201D1052614E02D4EB2420F
:1007200001D106260FE02C4EB24201D107260AE085
:100730002A4EB24201D1082605E0294EB24201D12B
:10074000092600E00A268F073F0FBE4030431A4EAD
:100750008F0846F827004FF0B0463068A0435E6827
:1007600006F4801606B120434FF0B0463060706842
:10077000A0435E6806F4001606B120434FF0B04671
:1007800070606868A0435E6806F4003606B12043D6
:1007900068602868A0435E6806F4803606B120438E
:1007A0002860491C1E68CE40002E7FF423AFF8BDA0
:1007B00080000058F4440258080400580000025811
:1007C0000004025800080258000C02580010025899
:1007D0000014025800180258001C02580020025849
:1007E00000240258024613690B400BB1012000E0BF
:1007F000002070470AB1816101E00B0483617047FA
:1008000001480068000C70470010005C0148006857
:100810007047000008000024034800680349097875
:1008200008440149086070470800002410000024B3
:1008300010B5032000F00CF901F01CFB1049096809
:10084000C1F303210F4A515C01F01F0120FA01F4AA
:100850000B48006800F00F001146085C00F01F0014
:1008600024FA00F008490860084804600F2000F0EE
:100870000FF808B1012010BD00F09AF80020FAE747
:1008800018440258C2700008180000241400002404
:1008900070B504461148007808B9012070BD0F48B2
:1008A00000784FF47A71B1FBF0F00D490968B1FBA3
:1008B000F0F5284602F031F808B10120EEE7102CDF
:1008C00007D200222146501E00F084F8054804603B
:1008D00001E00120E2E70020E0E700001000002432
:1008E000140000240C0000244178154A116001789E
:1008F000F9B1121D41681160017B0907C27A41EA12
:100900000261827A41EAC241427B41EA8241827BB2
:1009100041EA4241C27B41EA0241427A41EA022174
:10092000027A41EA420102781143054A0832116015
:1009300005E00021024A121D1160121D116070476E
:1009400098ED00E000BF00BF00BFBFF35F8F00BFA6
:1009500000BF00BF0548006820F4803003490860EC
:1009600000200249703108607047000024ED00E06B
:1009700040F001010D4A11600C497039096841F4D9
:1009800080310A4A703A116000BF00BF00BFBFF358
:100990004F8F00BF00BF00BF00BF00BF00BFBFF34D
:1009A0006F8F00BF00BF00BF7047000094ED00E0F4
:1009B00008B500BF0648006840F00200044908601E
:1009C0000846006800F00200009000BF00BF08BDAC
:1009D000F44402582DE9F05F80460D46164605F0B6
:1009E000DBFE074639462A46334601F00700C0F1D0
:1009F000070ABAF1040F02D94FF0040A01E0C0F16E
:100A0000070AD14600F1040ABAF1070F02D24FF0EB
:100A1000000A01E0A0F1030AD4464FF0010A0AFAE5
:100A200009FAAAF1010A0AEA020A0AFA0CFA4FF0D4
:100A3000010B0BFA0CFBABF1010B0BEA030B4AEABF
:100A40000B042146404605F0AFFEBDE8F09F0000D4
:100A500000BF00F00702064B19684FF6FF0319406C
:100A6000044B0B4343EA0221014B196000BF70475E
:100A70000CED00E00000FA0570B50446154800686A
:100A8000C0F3800048B91348006800F00700A04296
:100A900001D0012070BD0020FCE70E48006820F066
:100AA000070020430B490860FFF7B0FE054607E04A
:100AB000FFF7ACFE401BB0F57A7F01D90120E9E7D2
:100AC000044808380068C0F340300028F0D0002007
:100AD000E0E700000C48025810B501F081F9054923
:100AE0000968C1F30211044A515C01F01F01C840BA
:100AF00010BD000020440258C270000870B50146C5
:100B0000844D2D6805F00303824D2D68C5F3053033
:100B1000804D2D1D2D68C5F300147E4D14352D68B4
:100B2000C5F3CC0515FB04F501EE105AB8EE411AD9
:100B3000F0EE410A00286FD023B1012B4ED0022BDA
:100B40006BD16BE0734D283D2D68C5F340153DB367
:100B5000704D283D2D68C5F3C1066F4D25FA06F28C
:100B600001EE102AF8EE411A01EE100AB8EE411A11
:100B700081EE812A9FED691AC0EE811A654D10350C
:100B80002D68C5F3080501EE105AB8EE411A31EE92
:100B9000811AF7EE001A31EE211A22EE010A1CE04A
:100BA00001EE100AB8EE411ADFED5D1A81EE812ADE
:100BB0009FED5A1AC0EE811A564D10352D68C5F3B7
:100BC000080501EE105AB8EE411A31EE811AF7EE1F
:100BD000001A31EE211A22EE010A5BE001EE100A42
:100BE000B8EE411ADFED4F1A81EE812A9FED4B1AC4
:100BF000C0EE811A474D10352D68C5F3080501EE8A
:100C0000105AB8EE411A31EE811AF7EE001A31EEA1
:100C1000211A22EE010A3DE077E01DE001EE100A04
:100C2000B8EE411A9FED402AC2EE011A9FED3B1A21
:100C300080EE812A374D10352D68C5F3080501EE89
:100C4000105AB8EE411A32EE011AB7EE002A31EE10
:100C5000021A21EE810A1DE001EE100AB8EE411AD7
:100C6000DFED301A81EE812A9FED2C1AC0EE811A39
:100C7000284D10352D68C5F3080501EE105AB8EE61
:100C8000411A31EE811AF7EE001A31EE211A22EEE6
:100C9000010A00BF00BF1F4D10352D68C5F3462562
:100CA00001EE105AB8EE411AF7EE001A31EE211A91
:100CB000C0EE011ABCEEE11A81ED001A154D103597
:100CC0002D68C5F3064501EE105AB8EE411AF7EE4D
:100CD000001A31EE211AC0EE011ABCEEE11A81EDC4
:100CE000011A0C4D10352D68C5F3066501EE105A3A
:100CF000B8EE411AF7EE001A31EE211AC0EE011AD1
:100D0000BCEEE11A81ED021A03E000250D604D6092
:100D10008D6070BD284402580090D003000000464A
:100D20000024744C0024744A20BCBE4B70B50146AC
:100D3000844D2D6805F00303824D2D68C5F30550E1
:100D4000804D2D1D2D68C5F300247E4D1C352D686A
:100D5000C5F3CC0515FB04F501EE105AB8EE411AA7
:100D6000F0EE410A00286FD023B1012B4ED0022BA8
:100D70006BD16BE0734D283D2D68C5F340153DB335
:100D8000704D283D2D68C5F3C1066F4D25FA06F25A
:100D900001EE102AF8EE411A01EE100AB8EE411ADF
:100DA00081EE812A9FED691AC0EE811A654D1835D2
:100DB0002D68C5F3080501EE105AB8EE411A31EE60
:100DC000811AF7EE001A31EE211A22EE010A1CE018
:100DD00001EE100AB8EE411ADFED5D1A81EE812AAC
:100DE0009FED5A1AC0EE811A564D18352D68C5F37D
:100DF000080501EE105AB8EE411A31EE811AF7EEED
:100E0000001A31EE211A22EE010A5BE001EE100A0F
:100E1000B8EE411ADFED4F1A81EE812A9FED4B1A91
:100E2000C0EE811A474D18352D68C5F3080501EE4F
:100E3000105AB8EE411A31EE811AF7EE001A31EE6F
:100E4000211A22EE010A3DE077E01DE001EE100AD2
:100E5000B8EE411A9FED402AC2EE011A9FED3B1AEF
:100E600080EE812A374D18352D68C5F3080501EE4F
:100E7000105AB8EE411A32EE011AB7EE002A31EEDE
:100E8000021A21EE810A1DE001EE100AB8EE411AA5
:100E9000DFED301A81EE812A9FED2C1AC0EE811A07
:100EA000284D18352D68C5F3080501EE105AB8EE27
:100EB000411A31EE811AF7EE001A31EE211A22EEB4
:100EC000010A00BF00BF1F4D18352D68C5F3462528
:100ED00001EE105AB8EE411AF7EE001A31EE211A5F
:100EE000C0EE011ABCEEE11A81ED001A154D18355D
:100EF0002D68C5F3064501EE105AB8EE411AF7EE1B
:100F0000001A31EE211AC0EE011ABCEEE11A81ED91
:100F1000011A0C4D18352D68C5F3066501EE105AFF
:100F2000B8EE411AF7EE001A31EE211AC0EE011A9E
:100F3000BCEEE11A81ED021A03E000250D604D6060
:100F40008D6070BD284402580090D0030000004618
:100F50000024744C0024744A20BCBE4B2DE9F0419F
:100F600004460025A846206800F00060B0F1006F3C
:100F700030D1606E48B1B0F5801F0DD0B0F5001FC4
:100F800010D0B0F5401F15D113E0F948006840F4C7
:100F90000030F74908600FE00221201D02F0EAFB53
:100FA000054609E0022104F1240002F095FC054603
:100FB00002E001E0012500BF00BF55B9EC48243034
:100FC000006820F44010616E0843E949243108604C
:100FD00000E0A846208800F48070B0F5807F2DD115
:100FE000606D05281AD2DFE800F0030A1017180018
:100FF000DF48006840F40030DD49086010E000215F
:10100000201D02F0B7FB05460AE0002104F1240090
:1010100002F062FC054603E002E001E0012500BFAA
:1010200000BF55B9D2482430006820F00700616D38
:101030000843CF492431086000E0A846208800F426
:101040000070B0F5007F33D1A06D802817D003DC8D
:1010500040B140281CD10CE0C02817D0B0F5807FEB
:1010600016D114E0C248006840F40030C04908605E
:1010700010E00021201D02F07DFB05460AE0002162
:1010800004F1240002F028FC054603E002E001E040
:10109000012500BF00BF55B9B5482430006820F4D1
:1010A000E070A16D0843B2492431086000E0A84611
:1010B000208800F48060B0F5806F38D1D4F8A400A7
:1010C000B0F5800F19D004DC50B1B0F5001F1DD170
:1010D0000DE0B0F5C00F17D0B0F5000F16D114E039
:1010E000A348006840F40030A149086010E00021E6
:1010F000201D02F03FFB05460AE0002104F1240018
:1011000002F0EAFB054603E002E001E0012500BF32
:1011100000BF5DB996482C30006820F46000D4F818
:10112000A410084392492C31086000E0A8462088AA
:1011300000F40060B0F5006F38D1D4F8A800B0F129
:10114000007F19D004DC50B1B0F1807F1DD10DE0DB
:10115000B0F1407F17D0B0F1806F16D114E0844811
:10116000006840F400308249086010E00021201D32
:1011700002F000FB05460AE0002104F1240002F021
:10118000ABFB054603E002E001E0012500BF00BF24
:101190005DB977482C30006820F0E060D4F8A810E2
:1011A000084373492C31086000E0A846206800F02D
:1011B0000070B0F1007F27D1A06CA0B1102804D03E
:1011C000202809D030280FD10CE06948006840F48D
:1011D00000306749086009E00221201D02F0CAFAC8
:1011E000054603E002E001E0012500BF00BF55B95C
:1011F0005F482030006820F03000A16C08435C4953
:101200002031086000E0A846208800F48050B0F546
:10121000805F36D1E06DB0F5005F19D004DC50B1CD
:10122000B0F5805F1DD10DE0B0F5405F17D0B0F58F
:10123000804F16D114E04E48006840F400304C490D
:10124000086010E00021201D02F094FA05460AE033
:10125000002104F1240002F03FFB054603E002E018
:1012600001E0012500BF00BF55B9414824300068A6
:1012700020F4E040E16D08433D492431086000E07E
:10128000A846208800F40050B0F5005F34D1206EED
:10129000B0F5403F1DD007DC68B1B0F5803F0BD002
:1012A000B0F5003F18D10DE0B0F5802F12D0B0F5A9
:1012B000A02F11D10FE011E00121201D02F05AFAF8
:1012C00005460BE0012104F1240002F005FB054670
:1012D00004E003E002E001E0012500BF00BF55B9D2
:1012E00023482430006820F4E020216E0843204980
:1012F0002431086000E0A846208800F48040B0F562
:10130000804F38D1D4F8AC00B0F1405F1DD007DC7D
:1013100068B1B0F1805F0BD0B0F1005F18D10DE083
:10132000B0F1804F12D0B0F1A04F11D10FE011E019
:101330000121201D02F01EFA05460BE0012104F1F7
:10134000240002F0C9FA054604E003E002E001E0EF
:10135000012500BF00BF6DB905482C30006820F0A2
:10136000E040D4F8AC10084301492C31086002E099
:101370002C440258A846208800F40040B0F5004FE5
:1013800026D1E06E98B1B0F1805F03D0B0F1005F7C
:101390000ED106E0F948006840F40030F7490860D3
:1013A00008E00121201D02F0E5F9054602E001E018
:1013B000012500BF00BF55B9F0482430006820F077
:1013C0004050E16E0843ED492431086000E0A84632
:1013D000206800F08070B0F1807F27D1606CA0B1F0
:1013E000012804D0022809D003280FD10CE0E348DB
:1013F000006840F40030E149086009E00221201D46
:1014000002F0B8F9054603E002E001E0012500BF63
:1014100000BF55B9D9482030006820F00300616C46
:101420000843D6492031086000E0A846206800F44F
:101430008000B0F5800F7DD1D148006840F4807005
:10144000CF490860FFF7E2F9064606E0FFF7DEF94C
:10145000801B642801D9032505E0C948006800F411
:1014600080700028F2D000BF85BBC44844300068BB
:1014700000F44070B4F8B01001F44071884213D009
:10148000BE484430006820F44077BC4844300068CF
:1014900040F48030B949443108600846006820F4BF
:1014A0008030086008460760D4F8B000B0F5807F4F
:1014B00015D1FFF7ABF9064609E0FFF7A7F9801B46
:1014C00041F28831884202D9032507E038E0AB4871
:1014D00044300068C0F340000028EED000BF55BB88
:1014E00000BFB4F8B00000F44070B0F5407F0ED1FA
:1014F000A2481C38006820F47C51A24AD4F8B000FD
:10150000104041EA10109D491C39086007E09B48D3
:101510001C38006820F47C5098491C3908609748B2
:1015200044300068B4F8B010C1F30B01084393498C
:10153000443101E005E001E0086002E0A84600E077
:10154000A846207800F0010068B3A06F182819D0D1
:1015500005DC48B1082808D0102816D10BE0202857
:1015600011D0282811D10FE011E00121201D02F037
:1015700001F905460BE0012104F1240002F0ACF969
:10158000054604E003E002E001E0012500BF00BFE2
:1015900055B97A482830006820F03800A16F084318
:1015A00076492831086000E0A846207800F0020063
:1015B000022828D1606F062815D2DFE800F0030466
:1015C0000A11121311E00121201D02F0D3F8054683
:1015D0000BE0012104F1240002F07EF9054604E04D
:1015E00003E002E001E0012500BF00BF55B96348F8
:1015F0002830006820F00700616F08435F492831F8
:10160000086000E0A846207800F0040004282AD1F1
:10161000D4F89000062815D2DFE800F003040A1180
:10162000121311E00121201D02F0A4F805460BE081
:10163000012104F1240002F04FF9054604E003E023
:1016400002E001E0012500BF00BF5DB94B482C302E
:10165000006820F00700D4F89010084347492C3167
:10166000086000E0A846207800F02000202836D14D
:10167000D4F88C00B0F1405F1DD007DC68B1B0F148
:10168000805F0BD0B0F1005F18D10DE0B0F1804F5A
:1016900012D0B0F1A04F11D10FE011E00021201DB8
:1016A00002F068F805460BE0022104F1240002F084
:1016B00013F9054604E003E002E001E0012500BF64
:1016C00000BF5DB92D482830006820F0E040D4F814
:1016D0008C10084329492831086000E0A84620788A
:1016E00000F04000402836D1D4F89800B0F5406FA3
:1016F0001DD007DC68B1B0F5806F0BD0B0F5006F7E
:1017000018D10DE0B0F5805F12D0B0F5A05F11D117
:101710000FE011E00021201D02F02CF805460BE03F
:10172000022104F1240002F0D7F8054604E003E0AA
:1017300002E001E0012500BF00BF5DB90F482C3079
:10174000006820F4E050D4F8981008430B492C317D
:10175000086000E0A846207800F0800080283AD198
:10176000D4F89C00B0F5C04F23D00DDC98B1B0F593
:10177000005F11D0B0F5804F1ED113E02C44025809
:1017800000480258FFFCFF0FB0F5004F12D0B0F533
:10179000204F11D10FE011E00021201D01F0EAFFE0
:1017A00005460BE0022104F1240002F095F80546FD
:1017B00004E003E002E001E0012500BF00BF4DB9F5
:1017C000BE48006820F46040D4F89C100843BB4930
:1017D000086000E0A846207800F00800082817D12B
:1017E000D4F88000B0F5805F07D1022104F1240015
:1017F00002F072F808B14FF00108B048001F00680D
:1018000020F44050D4F880100843AC49091F086008
:10181000207800F01000102815D1D4F89400B0F50D
:10182000807F07D1022104F1240002F055F808B1AD
:101830004FF00108A148006820F44070D4F89410DB
:1018400008439E490860206800F40020B0F5002F8E
:1018500026D1D4F8A00030B1B0F5803F09D0B0F562
:10186000003F0ED10CE00021201D01F083FF054652
:1018700009E0022104F1240002F02EF8054602E0FE
:1018800001E0012500BF00BF4DB98C48006820F47D
:101890004030D4F8A01008438849086000E0A8460A
:1018A000206800F48020B0F5802F2DD1D4F884007A
:1018B000B0F5801F06D0B0F5001F0CD0B0F5401F6A
:1018C00011D10FE07D482C38006840F400307B498E
:1018D0002C39086009E0012104F1240001F0FCFF2B
:1018E000054602E001E0012500BF00BF5DB9734875
:1018F000001F006820F44010D4F8841008436F499A
:10190000091F086000E0A846206800F48030B0F5A8
:10191000803F24D1E06C18B1B0F5803F0FD108E0D2
:1019200066482C38006840F4003064492C3908605F
:1019300007E00221201D01F01DFF054601E0012501
:1019400000BF00BF55B95D480C38006820F48030F6
:10195000E16C084359490C39086000E0A84620684A
:1019600000F00050B0F1005F07D1022104F1240023
:1019700001F0B2FF08B14FF00108206800F4003018
:10198000B0F5003F27D1E06FA0B1B0F5807F06D061
:10199000B0F5007F0CD0B0F5407F0CD109E047488E
:1019A0002C38006840F4003044492C39086004E0C9
:1019B00003E002E001E0012500BF00BF55B93F4848
:1019C000001F006820F44070E16F08433B49091F85
:1019D000086000E0A846206800F48010B0F5801F81
:1019E00009D136480838006820F00040216F0843CC
:1019F000324908390860206800F08050B0F1805FFB
:101A00000AD12E484838006820F48040D4F8B41039
:101A100008432A4948390860206800F40010B0F5EE
:101A2000001F09D125480838006820F08070A16E99
:101A30000843224908390860206800F08040B0F16E
:101A4000804F11D100BF1D484838006820F4004085
:101A50001A494839086008460068D4F8B8100843A5
:101A600016494839086000BF206800F00040B0F116
:101A7000004F09D111480C38006820F04050216D0A
:101A800008430E490C390860206800F40000B0F5E6
:101A9000000F0AD10948001F006820F44000D4F864
:101AA000881008430549091F0860B8F1000F02D1EA
:101AB0000020BDE8F0810120FBE7000058440258F7
:101AC0002DE9F04104460D4614B90120BDE8F0812E
:101AD000BD48006800F00F00A8420ED2BA48006866
:101AE00020F00F002843B84908600846006800F05D
:101AF0000F00A84201D00120E8E7207800F00400A0
:101B000004280ED1B1492069096801F070018842AA
:101B100007D9AE48006820F0700021690843AB493E
:101B20000860207800F00800082811D1A749091D95
:101B30006069096801F07001884209D9A348001D55
:101B4000006820F0700061690843A049091D086021
:101B5000207800F01000102811D19C49091DA069BF
:101B6000096801F4E061884209D99848001D0068BD
:101B700020F4E060A16908439449091D08602078B9
:101B800000F02000202811D190490831E06909684F
:101B900001F07001884209D98C480830006820F0B3
:101BA0007000E1690843894908310860207800F035
:101BB000020002280ED18549E068096801F00F0192
:101BC000884207D98148006820F00F00E168084387
:101BD0007E490860207800F00100002850D07B4842
:101BE000006820F47060A168084378490860606864
:101BF000022807D1754818380068C0F34040F8B98A
:101C0000012063E76068032807D17048183800682E
:101C1000C0F34060A0B9012058E76068012807D1EF
:101C20006A4818380068C0F3002048B901204DE721
:101C3000664818380068C0F3800008B9012045E7FD
:101C400062480838006820F00700616808435F496F
:101C500008390860FEF7DAFD064608E0FEF7D6FD13
:101C6000801B41F28831884201D903202EE7574872
:101C70000838006800F038006168B0EBC10FEDD1A2
:101C8000207800F0020002280ED15049E06809686F
:101C900001F00F01884207D24C48006820F00F0085
:101CA000E1680843494908604748006800F00F00B0
:101CB000A8420ED94448006820F00F00284342494A
:101CC00008600846006800F00F00A84201D001201B
:101CD000FCE6207800F0040004280ED13B4920697E
:101CE000096801F07001884207D23848006820F086
:101CF00070002169084335490860207800F0080029
:101D0000082811D13149091D6069096801F0700185
:101D1000884209D22D48001D006820F070006169DA
:101D200008432A49091D0860207800F01000102897
:101D300011D12649091DA069096801F4E0618842B2
:101D400009D22248001D006820F4E060A169084320
:101D50001E49091D0860207800F02000202811D1BC
:101D60001A490831E069096801F07001884209D216
:101D700016480830006820F07000E16908431349F4
:101D80000831086000F076F810490968C1F30321B2
:101D90000F4A515C01F01F0120FA01F70B4800685F
:101DA00000F00F001146085C00F01F0027FA00F059
:101DB000084908600848076008480068FEF768FDA1
:101DC0008046404682E60000002000521844025837
:101DD000C270000818000024140000240C00002425
:101DE00010B500F047F80D490968C1F303210C4A0A
:101DF000515C01F01F0120FA01F40848006800F06E
:101E00000F001146085C00F01F0024FA00F005499D
:101E10000860054804600846006810BD1844025870
:101E2000C2700008180000241400002400B5FFF759
:101E3000D7FF05490968C1F30211044A515C01F05A
:101E40001F01C84000BD00001C440258C2700008B9
:101E500000B5FFF7C5FF05490968C1F30221044A2F
:101E6000515C01F01F01C84000BD00001C44025835
:101E7000C2700008F0B5824E366806F0380636B1FA
:101E8000082E15D0102E15D0182E7DD114E07C4EC2
:101E9000103E3668C6F3401646B1794E103E36689D
:101EA000C6F3C107774E26FA07F000E07548E5E073
:101EB0007548E3E07548E1E0714E1836366806F083
:101EC00003046F4E18363668C6F305116C4E1C3687
:101ED000366806F001056A4E24363668C6F3CC062D
:101EE00016FB05F601EE106AB8EE410A002971D022
:101EF00024B1012C50D0022C6DD16DE0604E103E0B
:101F00003668C6F340163EB35D4E103E3668C6F3E3
:101F1000C1075C4E26FA07F301EE103AF8EE411ABB
:101F200001EE101AB8EE411A81EE812A9FED581A7F
:101F3000C0EE011A524E20363668C6F3080601EE8E
:101F4000106AB8EE411A31EE811AF7EE001A31EE3E
:101F5000211A62EE010A1EE001EE101AB8EE411AD3
:101F6000DFED4C1A81EE812A9FED491AC0EE011A6D
:101F7000434E20363668C6F3080601EE106AB8EE06
:101F8000411A31EE811A00E076E0F7EE001A31EEE8
:101F9000211A62EE010A5BE001EE101AB8EE411A56
:101FA0009FED3D2AC2EE011A9FED391A80EE012AFB
:101FB000334E20363668C6F3080601EE106AB8EED6
:101FC000411A32EE011AB7EE002A31EE021A61EE22
:101FD000810A3DE04EE01DE001EE101AB8EE411A14
:101FE000DFED2E1A81EE812A9FED291AC0EE011A2B
:101FF000234E20363668C6F3080601EE106AB8EEA6
:10200000411A31EE811AF7EE001A31EE211A62EE12
:10201000010A1DE001EE101AB8EE411A9FED1E2ACA
:10202000C2EE011A9FED1A1A80EE012A144E2036D4
:102030003668C6F3080601EE106AB8EE411A32EEB1
:10204000011AB7EE002A31EE021A61EE810A00BFD2
:1020500000BF0B4E20363668C6F34626721C01EED2
:10206000102AB8EE411AC0EE811ABCEEE11A11EE48
:10207000100A00E0002001E0034800BF00BFF0BDEF
:10208000104402580090D00300093D0040787D01C3
:10209000000000460024744C0024744A20BCBE4B4F
:1020A0002DE9F047044614B90120BDE8F0872078F7
:1020B00000F00100002870D0FA48006800F03808ED
:1020C000F8481830D0F80090B8F1100F06D0B8F1E9
:1020D000180F0FD109F0030002280BD1F148103876
:1020E0000068C0F3404000286AD06068002867D1CB
:1020F0000120DAE700BF6068B0F5803F08D1E94809
:102100001038006840F48030E649103908602EE04D
:10211000606868B9E3481038006820F48030E1490D
:10212000103908600846006820F4802008601EE02E
:102130006068B0F5A02F0DD1DA481038006840F47F
:102140008020D849103908600846006840F4803083
:1021500008600CE0D3481038006820F48030D14982
:10216000103908600846006820F48020086000BF2D
:10217000606898B1FEF74AFB054606E0FEF746FBAD
:10218000401B642801D903208FE7C6481038006837
:10219000C0F340400028F1D012E012E0FEF736FB19
:1021A000054606E0FEF732FB401B642801D90320F8
:1021B0007BE7BC4810380068C0F340400028F1D1EC
:1021C00000BF207800F00200022874D1B5480068F2
:1021D00000F03808B3481830D0F80090B8F1000F7C
:1021E00005D0B8F1180F56D109F00300D0BBAD48A7
:1021F00010380068C0F3800018B1E06808B9012009
:1022000053E7A8481038006820F01900E168084337
:10221000A44910390860FEF7F9FA054606E0FEF712
:10222000F5FA401B022801D903203EE79D481038EB
:102230000068C0F380000028F1D000BFFEF7E0FA8C
:1022400041F2030188421AD8206940280BD19548F1
:102250000C38006820F47C3040F4003091490C398F
:10226000086017E017E08F480C38006820F47C30D5
:10227000216940EA01308B490C3908600AE089483D
:102280000C38006820F0FE40217C40EA016085495E
:102290000C39086066E0E06888B38248103800684E
:1022A00020F01900E16808437E4910390860FEF704
:1022B000ADFA054607E056E0FEF7A8FA401B0228F3
:1022C00001D90320F1E6774810380068C0F3800098
:1022D0000028F1D000BFFEF793FA41F203018842D3
:1022E0001AD8206940280BD16E480C38006820F4B9
:1022F0007C3040F400306B490C39086017E017E07F
:1023000068480C38006820F47C30216940EA0130CC
:1023100064490C3908600AE062480C38006820F013
:10232000FE40217C40EA01605E490C39086019E0FA
:102330005C481038006820F001005A4910390860E4
:10234000FEF764FA054606E0FEF760FA401B022835
:1023500001D90320A9E6534810380068C0F3800073
:102360000028F1D100BF207800F0100010287CD1A7
:102370004C48006800F038084A481830D0F80090FF
:10238000B8F1080F06D0B8F1180F3DD109F00300DD
:10239000012839D1434810380068C0F3002020B12B
:1023A000E069802801D001207FE600BFFEF728FA0F
:1023B00041F2030188421AD8206A20280AD13948FC
:1023C0000C38006820F0F84040F0804035490C3966
:1023D000086018E033480C38006820F0F84094F8A2
:1023E000201040EA81602F490C3908600BE02D482D
:1023F000001F006820F07C5094F8201040EA016033
:102400002849091F086066E0E06978B3254810385C
:10241000006840F08000234910390860FEF7F6F9A3
:10242000054606E0FEF7F2F9401B022801D9032019
:102430003BE61C4810380068C0F300200028F1D0AB
:1024400000BFFEF7DDF941F2030188421CD8206A83
:1024500020280CD113480C38006820F0F84040F0D8
:10246000804010490C3908601AE035E01CE00D4846
:102470000C38006820F0F84094F8201040EA8160A1
:1024800008490C3908600BE00648001F006820F07E
:102490007C5094F8201040EA01600249091F08604E
:1024A00019E0000010440258FA48006820F080004B
:1024B000F8490860FEF7AAF9054606E0FEF7A6F916
:1024C000401B022801D90320EFE5F2480068C0F361
:1024D00000200028F2D100BF207800F00800082872
:1024E00036D16069D0B1EB487430006840F001002B
:1024F000E84974310860FEF789F9054606E0FEF701
:1025000085F9401B022801D90320CEE5E14874304B
:102510000068C0F340000028F1D019E0DD487430B5
:10252000006820F00100DB4974310860FEF76EF9A5
:10253000054606E0FEF76AF9401B022801D9032090
:10254000B3E5D44874300068C0F340000028F1D1EE
:10255000207800F02000202830D1A069B8B1CD4803
:10256000006840F48050CB490860FEF74FF90546FB
:1025700006E0FEF74BF9401B022801D9032094E541
:10258000C4480068C0F340300028F2D016E0C148CB
:10259000006820F48050BF490860FEF737F905460F
:1025A00006E0FEF733F9401B022801D903207CE541
:1025B000B8480068C0F340300028F2D1207800F01D
:1025C000040004287DD1B448006840F48070B2490A
:1025D0000860FEF71BF9054606E0FEF717F9401BF9
:1025E000642801D9032060E5AB48006800F48070DE
:1025F0000028F2D000BFA068012808D1A54870309B
:10260000006840F00100A349703108602DE0A06827
:1026100068B9A0487030006820F001009D49703111
:1026200008600846006820F0040008601DE0A0680B
:1026300005280DD197487030006840F00400954996
:10264000703108600846006840F0010008600CE046
:1026500090487030006820F001008E4970310860A9
:102660000846006820F00400086000BFA068A0B120
:10267000FEF7CCF8054608E0FEF7C8F8401B41F22B
:102680008831884201D903200FE582487030006804
:10269000C0F340000028EFD013E0FEF7B7F805467E
:1026A00008E0FEF7B3F8401B41F28831884201D9B7
:1026B0000320FAE4774870300068C0F34000002837
:1026C000EFD1606A00287DD072481030006800F0B9
:1026D0003800182877D0606A022875D16D480068E4
:1026E00020F080706B490860FEF790F8054606E020
:1026F000FEF78CF8401B022801D90320D5E4654879
:102700000068C0F340600028F2D100BFD4E90A108D
:1027100041EA00105F492831096840F2F3329143E1
:1027200008435C4928310860208E401EC0F3080031
:10273000616B491E4FF47E4202EA41210843218F1A
:10274000491ED20102EA014108433C21095D491EAC
:10275000120202EA016108434E493031086000BFAD
:10276000081F006820F00100091F08604948343044
:1027700000684FF6F8718843A16C40EAC1004549F2
:102780003431086043482C30006820F00C00216C84
:10279000084340492C3108600846006820F00200D8
:1027A000616C08433B492C3108600846006840F4DE
:1027B000803008600846006840F400300860084631
:1027C000006802E06AE038E01FE040F48020086022
:1027D0000846006840F0010008602E48006840F09C
:1027E00080702C490860FEF711F8054606E0FEF7F8
:1027F0000DF8401B022801D9032056E42548006843
:10280000C0F340600028F2D048E02248006820F081
:10281000807020490860FDF7F9FF054606E0FDF7E6
:10282000F5FF401B022801D903203EE41948006847
:10283000C0F340600028F2D130E016482830076825
:10284000144830300668606A012821D007F003017F
:10285000A06A81421CD1C7F30511E06A884217D1F2
:10286000C6F30801206B401E814211D1606B401EEF
:10287000C6F3462188420BD1A06B401EC6F3064129
:10288000884205D1E06B401EC6F30661884205D040
:1028900001200AE40044025800480258002004E4E1
:1028A00070B504460E4615460CB9012070BD94F86B
:1028B000450028B9002084F84400204600F028F89C
:1028C00004F108012068FDF7A1FD3146A2682068E7
:1028D000FDF7EEFD2946E36AD4E90102FDF774FD38
:1028E000A168206850F8210040F00100A26821682A
:1028F00041F822000548006840F0004003490860A4
:10290000012084F845000020D0E70000004000527C
:1029100010B50446FDF714FE10BD70B504462546FB
:10292000681EB0F1807F01D301200FE0681E4FF0D8
:10293000E02148610F214FF0FF3003F035FF002008
:102940004FF0E021886107200861002070BD01463A
:1029500000BF91F88000012801D1022070470120BA
:1029600081F8800000BF2420C1F884000868026854
:102970000868006820F001000B68186022F000521F
:1029800000204866086802602020C1F8840000BF6B
:10299000002081F8800000BF00BFDFE770B504466B
:1029A0000D4600BF94F88000012801D1022070BDBF
:1029B000012084F8800000BF2420C4F8840020682F
:1029C00006682068006820F001002168086020681F
:1029D000806820F06060284321688860204603F00A
:1029E000AFFA206806602020C4F8840000BF0020F1
:1029F00084F8800000BF00BFD9E770B504460D46DB
:102A000000BF94F88000012801D1022070BD012090
:102A100084F8800000BF2420C4F884002068066881
:102A20002068006820F00100216808602068806844
:102A300020F06040284321688860204603F080FA37
:102A4000206806602020C4F8840000BF002084F8BD
:102A5000800000BF00BFD9E710B504460CB90120C3
:102A600010BDA06900B100E000BFD4F8840028B90F
:102A7000002084F88000204600F02AF82420C4F8C2
:102A800084002068006820F001002168086020466A
:102A900003F03AFB012800D1E2E7A06A10B120461A
:102AA00003F07AFA2068406820F49040216848607A
:102AB0002068806820F02A0021688860206800680B
:102AC00040F0010021680860204603F0E1FAC7E702
:102AD00010B5B6B00446142131A8FDF733FCBC2173
:102AE00002A8FDF72FFC1E492068884235D101203D
:102AF00002900020209002A8FEF730FA08B1FDF7FE
:102B000060FC00BF1748006840F0100015490860DD
:102B10000846006800F01000019000BF00BF00BF31
:102B200010481038006840F001000E491039086064
:102B30000846006800F00100019000BF00BF4FF49C
:102B4000C0603190022032900020339034900720F2
:102B5000359031A90448FDF747FD36B010BD00009F
:102B600000100140F04402580000025800BFFEE788
:102B700070B5044600260948058840884543002171
:102B8000084600F0F5FA00F0C3FC00BF02E004497B
:102B90000C80761CAE42FAD370BD00000401002404
:102BA0000000086010B5044655488471002C51D1CE
:102BB000F020534908804FF4A07048800846808870
:102BC00049F24131884205D04D48808845F21031A4
:102BD000884214D12C204A4908812A2048812B2080
:102BE00088810846808845F21031884206D14FF42A
:102BF000A070434908804FF4F07048807BE0404863
:102C0000808845F21051884210D14FF430503C4931
:102C100008814FF4285048814FF42C5088814FF49C
:102C2000F07008804FF44870488064E03448808831
:102C300041F6631188425ED12C20314908812B2056
:102C400048812A2088814FF4F07008804FF4487042
:102C5000488050E04FF4A07029490880F020488057
:102C60000846808849F24131884205D0244880884E
:102C700045F21031884207D12C20214908812A20B1
:102C800048812B20888129E01D48808845F2105119
:102C9000884210D14FF43050194908814FF4285020
:102CA00048814FF42C5088814FF4487008804FF4CD
:102CB000F070488012E01248808841F66311884223
:102CC0000CD12C200E4908812A2048812B20888194
:102CD0004FF4487008804FF4F070488008488088AE
:102CE00045F21031884206D14FF4F0700449088053
:102CF0004FF4A0704880002000F000F910BD0000E3
:102D00000401002470B504460D4616465A488088D2
:102D100049F24131884205D05748808845F2103148
:102D2000884214D15449488900F0E6FB201200F093
:102D3000D7FBE0B200F0D4FB4F49888900F0DCFB00
:102D4000281200F0CDFBE8B200F0CAFB8CE04A4844
:102D5000808845F21051884220D14749488900F0C7
:102D6000CBFB201200F0BCFB43494989491C88B2C7
:102D700000F0C2FBE0B200F0B3FB3F49888900F0ED
:102D8000BBFB281200F0ACFB3B498989491C88B287
:102D900000F0B2FBE8B200F0A3FB65E036488088A3
:102DA00041F66311884228D13348807920B93248EE
:102DB0000088401E001B84B22F49488900F09CFB0C
:102DC000201200F08DFBE0B200F08AFB201200F030
:102DD00087FBE0B200F084FB2749888900F08CFB78
:102DE000281200F07DFBE8B200F07AFB281200F018
:102DF00077FBE8B200F074FB36E01F48808846F6A7
:102E0000040188421DD11C488079012804D11A4848
:102E10000088401E001B84B21749488900F06CFBF3
:102E2000201200F05DFBE0B200F05AFB12498889E5
:102E300000F062FB281200F053FBE8B200F050FBF8
:102E400012E00D488079012804D10B480088401E0B
:102E5000001B84B208494889214600F063FB0649FB
:102E60008889294600F05EFB0348008903490880F1
:102E7000891C0E8070BD000004010024FEFF076065
:102E800010B50246012000E050430B1EA1F10104E1
:102E9000E1B2F9D110BD000008B5034800880090E8
:102EA000BDF8000008BD00000000086000B5024643
:102EB000BE2000F021FB052000F012FB00EE102ADE
:102EC000B8EE400B9FED0B1B20EE010BBCEEC00BD0
:102ED00010EE101A88B200F003FB012000F000FB96
:102EE000FF2000F0FDFA002000F0FAFA002000F0C8
:102EF000F7FA00BD6666666666660440F0B505468C
:102F00000024002799488079012805D197488088B6
:102F100041F66311884208D194488079F0B993480A
:102F2000808841F66311884218D1082D15D2DFE858
:102F300005F00406080A0C0E101206250DE0072500
:102F40000BE0042509E0052507E0012505E0002543
:102F500003E0032501E0022500BF00BF834880880D
:102F600049F24131884211D08048808845F21031C1
:102F700088420BD07D48808845F21051884205D0A8
:102F80007A48808841F6631188427DD1082D1CD291
:102F9000DFE805F00406090C0F12151800BF14E055
:102FA00044F0800411E044F040040EE044F0C0041A
:102FB0000BE044F0200408E044F0600405E044F035
:102FC000A00402E044F0E00400BF00BF674880882E
:102FD00045F21051884202D14FF4585700E036278D
:102FE0006248808845F2103188420DD05F48808861
:102FF00045F21051884207D05C48808841F6631141
:10300000884201D044F008042146384600F08AFA8C
:103010005648808841F6631188421DD004F0200094
:1030200068B15248008851494988884214DA4F48AB
:10303000068840884D490880084646800CE04B4889
:1030400000884A494988884206DD48480688408801
:1030500046490880084646804448808845F2105119
:10306000884254D14149488900F046FA002000F0D6
:1030700037FA3E494989491C88B200F03DFA0020E0
:1030800000F02EFA394900E06FE04989891C88B2C6
:1030900000F032FA35490988491EC1F30F2000F0CB
:1030A0001FFA32494989C91C88B200F025FA2F4914
:1030B0000978491EC8B200F013FA2C49888900F03B
:1030C0001BFA002000F00CFA28498989491C88B2B3
:1030D00000F012FA002000F003FA24498989891CC3
:1030E00088B200F009FA21494988491EC1F30F202E
:1030F00000F0F6F91D498989C91C88B200F0FCF975
:103100001A498978491EC8B200F0EAF92DE017493A
:10311000488900F0F1F9002000F0E2F9002000F009
:10312000DFF912490988491EC1F30F2000F0D8F9D0
:103130000E490978491EC8B200F0D2F90B498889B6
:1031400000F0DAF9002000F0CBF9002000F0C8F917
:1031500006494988491EC1F30F2000F0C1F903490F
:103160008978491EC8B200F0BBF9F0BD0401002403
:1031700010B502460C464B48808849F241318842DE
:1031800005D04848808845F21031884214D145491D
:10319000488900F0B1F9101200F0A2F9D0B200F0A5
:1031A0009FF94049888900F0A7F9201200F098F9AA
:1031B000E0B200F095F973E03A48808841F6631177
:1031C000884247D137488079A8B936480088401EE0
:1031D000801A82B23349488900F08EF9002000F04D
:1031E0007FF9002000F07CF9101200F079F9D0B2DC
:1031F00000F076F916E02B49488900F07DF91012AD
:1032000000F06EF9D0B200F06BF926490988491E2A
:10321000C1F30F2000F064F922490978491EC8B2B1
:1032200000F05EF91F49888900F066F9201200F06D
:1032300057F9E0B200F054F91A494988491EC1F320
:103240000F2000F04DF917498978491EC8B200F0E7
:1032500047F925E01348808845F2105188421FD174
:103260001049488900F048F9101200F039F90D4969
:103270004989491C88B200F03FF9D0B200F030F91A
:103280000849888900F038F9201200F029F9054929
:103290008989491C88B200F02FF9E0B200F020F9CA
:1032A00010BD0000040100242DE9F84F80460F46B0
:1032B00016461C46BB462046E31704EB5373DB104F
:1032C00021464FEAE47C04EB5C7C4FEAEC0CA4EB77
:1032D000CC0CBCF1000F02D04FF0010C01E04FF01C
:1032E000000C6344224604EBD27C4FEA6C0C03FBD7
:1032F0000CF3DBB20093A6F12000C6B200255EE01D
:103300000C2C07D106EB46002F4901EB800010F88A
:1033100005901BE0102C05D12C4800EB061010F88E
:10332000059013E0182C07D106EBC600284901EBE5
:10333000800010F8059009E0202C05D1254800EB0D
:10334000C61010F8059001E0BDE8F88F4FF0000AB4
:103350002FE009F0800030B11F483946026840462E
:10336000FFF7D0FC07E00A9828B91C4839460268E4
:103370004046FFF7C7FC4FEA49604FEA1069781CE6
:1033800087B217484088B84200DCDDE7A7EB0B00A6
:10339000A0420AD15F4608F101001FFA80F81048E8
:1033A0000088404500DCCFE706E00AF1010000F0AC
:1033B000FF0ABAF1080FCCDB00BF681CC5B2009849
:1033C00085429DDB00BFBFE7D2700008467500084C
:1033D000367B0008928800081C000024200000248E
:1033E000040100242DE9FF4F81B0074691461E4697
:1033F0000E9D4FF0000A002439E0301B401EC1B280
:103400000A20FFF73DFDB9FBF0F00A21B0FBF1F215
:1034100001FB1208BAF1000F16D1701EA04213DD95
:10342000B8F1000F0ED10020AB4605EBDB7149105F
:1034300001FB0471009088B22B4620220299FFF70D
:1034400033FF12E04FF0010A0020AB4605EBDB71C1
:10345000491001FB0471009088B208F13001CAB232
:103460002B460299FFF720FF00BF601CC4B2B44294
:10347000C3DB05B0BDE8F08F2DE9F84704460D46E3
:1034800090469946DDE9096704F0FF0A08EB04005D
:103490001FFA80F809EB05001FFA80F916E0444591
:1034A00002DB5446A81985B24D4500DB14E000202C
:1034B00000903A78334629462046FFF7F5FE30461D
:1034C00006EBD07104EB61018CB27F1C38787E284A
:1034D00002DC38782028E2DA00BFBDE8F887000077
:1034E00001B5BDF800000090BDF80000014908805A
:1034F00008BD00000000086001B5BDF800000090A4
:10350000BDF800000149088008BD0000FEFF07600B
:103510000248008902490880704700000401002425
:10352000FEFF0760024A1080921C11807047000065
:10353000FEFF07601FB500200090019002900390ED
:10354000FDF700FA01208DF8000000208DF8010041
:103550004FF0C04001901B208DF8080000208DF82E
:1035600009008DF80A0003208DF80B0000208DF86B
:103570000C008DF80D008DF80E0001208DF80F0065
:103580006846FDF7B1F90420FDF7F2F91FBD000010
:1035900000B58FB01C2108A8FCF7D4FE1C2101A89F
:1035A000FCF7D0FE224823490860234848600020E9
:1035B000886000211F48C160016110214161002124
:1035C0008161C16101624FF48051416200218162D9
:1035D0004FF48041C16200210163416381634FF474
:1035E0000011C163002101640F200890099055204B
:1035F0000A9001200B9010200C9011200D900020BB
:103600000E900F2001900290039001200490102052
:103610000590112006900020079001AA08A90548EE
:10362000FFF73EF908B1FCF7CCFE0FB000BD00007B
:1036300000400052280000240441005200B587B029
:10364000142102A8FCF77EFE00BF2A48006840F063
:103650008000284908600846006800F0800001905A
:1036600000BF00BF00BF0846006840F010000860BF
:103670000846006800F01000019000BF00BF00BFC6
:103680000846006840F0080008600846006800F03E
:103690000800019000BF00BF00BF0846006840F06E
:1036A000010008600846006800F00100019000BFBA
:1036B00000BF00BF0846006840F0020008600846EE
:1036C000006800F00200019000BF00BF00224FF42C
:1036D00000710948FDF78EF84FF400700290012048
:1036E000039000200490059002A90348FCF77CFF9A
:1036F00007B000BDE04402580004025810B5184855
:10370000184908604FF4E130486000211548816095
:10371000C16001610C21416100218161C1610162CF
:10372000416200200F4988620846FFF795F908B109
:10373000FCF747FE00210B48FFF75FF908B1FCF7E3
:1037400040FE00210748FFF729F908B1FCF739FED0
:103750000448FFF7FCF808B1FCF733FE10BD000089
:10376000001001407400002400BFFEE700BFFEE728
:10377000704700002DE9F04104460E4600275548E9
:10378000006800F00300032802D10120BDE8F081A9
:1037900050482838006820F080604E492839086079
:1037A000FDF734F8054606E0FDF730F8401B022827
:1037B00001D90320EAE7474828380068C0F3C06011
:1037C0000028F1D100BF4348006820F47C30216814
:1037D00040EA01303F490860A088401EC0F308005D
:1037E000A168491E4FF47E4202EA41210843A189A3
:1037F000491ED20102EA01410843217C491E1202FE
:1038000002EA0161084333491031086000BF3148C2
:10381000001D006820F0C000616908432D49091DA2
:1038200008600846006820F02000A1690843294983
:10383000091D08600846006820F01000086025484F
:10384000143000684FF6F8718843E16940EAC1001E
:103850002049143108601F48001D006840F0100026
:103860001C49091D08602EB90846006840F4002074
:10387000086012E0012E08D11648001D006840F4CF
:1038800080101449091D086007E01248001D0068F7
:1038900040F400100F49091D08600E4828380068E0
:1038A00040F080600B4928390860FCF7AFFF0546FF
:1038B00006E0FCF7ABFF401B022801D9032065E7B7
:1038C000044828380068C0F3C0600028F1D03846AA
:1038D0005CE70000284402582DE9F04104460E46FA
:1038E00000275548006800F00300032802D101209A
:1038F000BDE8F08150482838006820F080504E49DB
:1039000028390860FCF782FF054606E0FCF77EFFD9
:10391000401B022801D90320EAE7474828380068FD
:10392000C0F340700028F1D100BF4348006820F088
:103930007C70218840EA01503F490860A088401E01
:10394000C0F30800A168491E4FF47E4202EA4121FB
:103950000843A189491ED20102EA01410843217CA2
:10396000491E120202EA0161084333491831086016
:1039700000BF3148001D006820F4406061690843C1
:103980002D49091D08600846006820F40070A169EF
:1039900008432949091D08600846006820F4807022
:1039A000086025481C3000684FF6F8718843E169CB
:1039B00040EAC10020491C3108601F48001D006812
:1039C00040F480701C49091D08602EB90846006843
:1039D00040F48000086012E0012E08D11648001D56
:1039E000006840F400001449091D086007E012480F
:1039F000001D006840F080700F49091D08600E48E6
:103A00002838006840F080500B4928390860FCF7DE
:103A1000FDFE054606E0FCF7F9FE401B022801D931
:103A2000032065E7044828380068C0F34070002888
:103A3000F1D038465CE7000028440258704710B5C2
:103A4000FCF7EAFE10BD000000B59DB04C210AA8AD
:103A5000FCF778FC202102A8FCF774FC0220FDF79B
:103A60000BF800BF002001902A48006840F4404055
:103A7000284908600846006800F440400190264844
:103A8000006840F00100244908600846006800F022
:103A90000100019000BF00BF00BF1E48006800F495
:103AA0000050B0F5005FF8D102200A9001200D907F
:103AB00040200E90022013900021149104211591B2
:103AC0003C21169102211791189119910C211A91FC
:103AD00000211B911C910AA8FEF7E2FA08B1FCF73D
:103AE00070FC3F20029003200390002004900820E7
:103AF0000590402006900790000108904020099012
:103B0000042102A8FDF7DCFF08B1FCF75AFC1DB048
:103B100000BD0000184802582C04005834480068C2
:103B200040F47000324908603248006800F00F002D
:103B3000072806D22F48006820F00F00C01D2D492D
:103B400008602D48006840F001002B490860002003
:103B5000294910310860284800682849084026494A
:103B600008602448006800F00F00072806D92148A3
:103B7000006820F00F00C01D1E49086000201E498B
:103B800018310860091D0860091D08601C481A49A1
:103B9000283108601B48091D08601B48091D086082
:103BA0000020091D08601848091D08600020091D33
:103BB00008601548091D08600020091D08600E48AE
:103BC000006820F480200C49086000200A49603118
:103BD00008600E4800686FF30F00B0F1005F02D27A
:103BE00001200B49086043F2D2000A49086070477F
:103BF00088ED00E000200052004402587FEDF6EA14
:103C0000000202020000FF01800201010010005CBE
:103C1000088100510040005210B53220FCF77CFCB6
:103C2000D320FFF769FCFFF737F9FE498880FFF7DB
:103C300033F9FC498880FFF72FF9FA498880084654
:103C400080884FF6FF7101EA0020F6498880FFF76F
:103C500023F9F44989880843F24988800846808816
:103C600049F24131884278D0D420FFF745FCFFF774
:103C700013F9EC498880FFF70FF9EA498880FFF7CC
:103C80000BF9E8498880084680884FF6FF7101EA01
:103C90000020E4498880FFF7FFF8E249898808435B
:103CA000E04988800846808845F21031884254D027
:103CB0004FF45A40FFF720FCFFF7EEF8D94988800F
:103CC0004FF45B40FFF718FCFFF7E6F8D549888012
:103CD000084680884FF6FF7101EA0020D1498880AC
:103CE0004FF45C40FFF708FCFFF7D6F8CD49898810
:103CF0000843CC49888008468088B0F5004F02D13F
:103D000045F210508880C748808845F2105188429B
:103D100023D0A120FFF7F0FBFFF7BEF8C149888050
:103D2000FFF7BAF8BF498880084680884FF6FF71D0
:103D300001EA0020BB498880FFF7AEF8B9498988BD
:103D40000843B84988800846808845F261718842F6
:103D500003D141F66310B3498880B248808849F2A4
:103D6000413188427ED1CF20FFF7C6FB0020FFF70C
:103D7000B7FBC120FFF7B4FB3020FFF7B1FBED200C
:103D8000FFF7BAFB6420FFF7ABFB0320FFF7A8FBAC
:103D90001220FFF7A5FB8120FFF7A2FBE820FFF729
:103DA000ABFB8520FFF79CFB1020FFF799FB7A20E7
:103DB000FFF796FBCB20FFF79FFB3920FFF790FB27
:103DC0002C20FFF78DFB0020FFF78AFB3420FFF744
:103DD00087FB0220FFF784FBF720FFF78DFB2020F5
:103DE000FFF77EFBEA20FFF787FB0020FFF778FB59
:103DF0000020FFF775FBC020FFF77EFB1B20FFF7BD
:103E00006FFBC120FFF778FB0120FFF769FBC5209E
:103E1000FFF772FB3020FFF763FB3020FFF760FBFA
:103E2000C720FFF769FBB720FFF75AFB3620FFF7E3
:103E300063FB4820FFF754FB3A20FFF75DFB55205A
:103E4000FFF74EFBB120FFF757FB0020FFF748FBC1
:103E50001A20FFF745FBB620FFF74EFB0A20FFF7BD
:103E60003FFB00E097E0A220FFF73AFBF220FFF7CC
:103E700043FB0020FFF734FB2620FFF73DFB01202A
:103E8000FFF72EFBE020FFF737FB0F20FFF728FBA3
:103E90002A20FFF725FB2820FFF722FB0820FFF749
:103EA0001FFB0E20FFF71CFB0820FFF719FB542017
:103EB000FFF716FBA920FFF713FB4320FFF710FBCA
:103EC0000A20FFF70DFB0F20FFF70AFB0020FFF78A
:103ED00007FB0020FFF704FB0020FFF701FB002099
:103EE000FFF7FEFAE120FFF707FB0020FFF7F8FAE3
:103EF0001520FFF7F5FA1720FFF7F2FA0720FFF772
:103F0000EFFA1120FFF7ECFA0620FFF7E9FA2B2071
:103F1000FFF7E6FA5620FFF7E3FA3C20FFF7E0FA56
:103F20000520FFF7DDFA1020FFF7DAFA0F20FFF780
:103F3000D7FA3F20FFF7D4FA3F20FFF7D1FA0F203E
:103F4000FFF7CEFA2B20FFF7D7FA0020FFF7C8FAC9
:103F50000020FFF7C5FA0120FFF7C2FA3F20FFF764
:103F6000BFFA2A20FFF7C8FA0020FFF7B9FA0020AD
:103F7000FFF7B6FA0020FFF7B3FAEF20FFF7B0FA29
:103F80001120FFF7B9FA7820FCF7C6FA2920FFF7CD
:103F9000B3FA01F0CBBF2348808845F21031884244
:103FA00040F07C87ED20FFF7A7FA0120FFF798FA91
:103FB000FE20FFF795FAEE20FFF79EFADE20FFF7CE
:103FC0008FFA2120FFF78CFAF120FFF795FA0120F4
:103FD000FFF786FADF20FFF78FFA1020FFF780FA4D
:103FE000C420FFF789FA8F20FFF77AFAC620FFF77F
:103FF00083FA0020FFF774FAE220FFF771FAE2205B
:10400000FFF76EFAE220FFF76BFABF20FFF774FAB2
:10401000AA20FFF765FAB020FFF76EFA0D20FFF730
:104020005FFA01E0040100240020FFF759FA0D2097
:10403000FFF756FA0020FFF753FA1120FFF750FA66
:104040000020FFF74DFA1920FFF74AFA0020FFF78A
:1040500047FA2120FFF744FA0020FFF741FA2D200C
:10406000FFF73EFA0020FFF73BFA3D20FFF738FA52
:104070000020FFF735FA5D20FFF732FA0020FFF746
:104080002FFA5D20FFF72CFA0020FFF729FAB12064
:10409000FFF732FA8020FFF723FA0020FFF720FA1B
:1040A0008B20FFF71DFA0020FFF71AFA9620FFF782
:1040B00017FA0020FFF714FAB220FFF71DFA0020CC
:1040C000FFF70EFA0020FFF70BFA0220FFF708FABD
:1040D0000020FFF705FA0320FFF702FA0020FFF7A0
:1040E000FFF9B320FFF708FA0020FFF7F9F90020E5
:1040F000FFF7F6F90020FFF7F3F90020FFF7F0F9DA
:104100000020FFF7EDF90020FFF7EAF90020FFF7A4
:10411000E7F90020FFF7E4F90020FFF7E1F90020BC
:10412000FFF7DEF90020FFF7DBF90020FFF7D8F9F1
:104130000020FFF7D5F90020FFF7D2F90020FFF7A4
:10414000CFF90020FFF7CCF90020FFF7C9F90020D4
:10415000FFF7C6F90020FFF7C3F90020FFF7C0F909
:104160000020FFF7BDF90020FFF7BAF90020FFF7A4
:10417000B7F90020FFF7B4F9B420FFF7BDF98B20A1
:10418000FFF7AEF90020FFF7ABF99620FFF7A8F98B
:104190000020FFF7A5F9A120FFF7A2F90020FFF703
:1041A0009FF9B520FFF7A8F90220FFF799F9002041
:1041B000FFF796F90320FFF793F90020FFF790F936
:1041C0000420FFF78DF90020FFF78AF9B620FFF7EA
:1041D00093F90020FFF784F90020FFF781F9B72059
:1041E000FFF78AF90020FFF77BF90020FFF778F945
:1041F0003F20FFF775F90020FFF772F95E20FFF707
:104200006FF90020FFF76CF96420FFF769F90020CF
:10421000FFF766F98C20FFF763F90020FFF760F9DC
:10422000AC20FFF75DF90020FFF75AF9DC20FFF71B
:1042300057F90020FFF754F97020FFF751F90020DB
:10424000FFF74EF99020FFF74BF90020FFF748F9F0
:10425000EB20FFF745F90020FFF742F9DC20FFF7DC
:104260003FF90020FFF73CF9B820FFF745F900209F
:10427000FFF736F90020FFF733F90020FFF730F998
:104280000020FFF72DF90020FFF72AF90020FFF7A3
:1042900027F90020FFF724F90020FFF721F9BA20C1
:1042A000FFF72AF92420FFF71BF90020FFF718F980
:1042B0000020FFF715F90020FFF712F9C120FFF7E2
:1042C0001BF92020FFF70CF90020FFF709F9542013
:1042D000FFF706F90020FFF703F9FF20FFF700F9C9
:1042E0000020FFF7FDF8C220FFF706F90A20FFF7CC
:1042F000F7F80020FFF7F4F80420FFF7F1F80020AA
:10430000FFF7EEF8C320FFF7F7F83C20FFF7E8F8D7
:104310000020FFF7E5F83A20FFF7E2F80020FFF76A
:10432000DFF83920FFF7DCF80020FFF7D9F8372055
:10433000FFF7D6F80020FFF7D3F83C20FFF7D0F8BE
:104340000020FFF7CDF83620FFF7CAF80020FFF76E
:10435000C7F83220FFF7C4F80020FFF7C1F82F207C
:10436000FFF7BEF80020FFF7BBF82C20FFF7B8F8E6
:104370000020FFF7B5F82920FFF7B2F80020FFF77B
:10438000AFF82620FFF7ACF80020FFF7A9F82420AB
:10439000FFF7A6F80020FFF7A3F82420FFF7A0F806
:1043A0000020FFF79DF82320FFF79AF80020FFF781
:1043B00097F83C20FFF794F80020FFF791F836209B
:1043C000FFF78EF80020FFF78BF83220FFF788F810
:1043D0000020FFF785F82F20FFF782F80020FFF775
:1043E0007FF82C20FFF77CF80020FFF779F82920D0
:1043F000FFF776F80020FFF773F82620FFF770F834
:104400000020FFF76DF82420FFF76AF80020FFF77F
:1044100067F82420FFF764F80020FFF761F82320F5
:10442000FFF75EF80020FFF75BF8C420FFF764F8A1
:104430006220FFF755F80020FFF752F80520FFF73C
:104440004FF80020FFF74CF88420FFF749F80020D0
:10445000FFF746F8F020FFF743F80020FFF740F899
:104460001820FFF73DF80020FFF73AF8A420FFF7E7
:1044700037F80020FFF734F81820FFF731F8002054
:10448000FFF72EF85020FFF72BF80020FFF728F851
:104490000C20FFF725F80020FFF722F81720FFF780
:1044A0001FF80020FFF71CF89520FFF719F80020EF
:1044B000FFF716F8F320FFF713F80020FFF710F8C6
:1044C000E620FFF70DF80020FFF70AF8C520FFF7F8
:1044D00013F83220FFF704F80020FFF701F844201A
:1044E000FEF7FEFF0020FEF7FBFF6520FEF7F8FF5A
:1044F0000020FEF7F5FF7620FEF7F2FF0020FEF722
:10450000EFFF8820FEF7ECFF0020FEF7E9FFC62052
:10451000FEF7F2FF2020FEF7E3FF0020FEF7E0FFAA
:104520001720FEF7DDFF0020FEF7DAFF0120FEF77F
:10453000D7FF0020FEF7D4FFC720FEF7DDFF0020E5
:10454000FEF7CEFF0020FEF7CBFF0020FEF7C8FFEE
:104550000020FEF7C5FFC820FEF7CEFF0020FEF7C3
:10456000BFFF0020FEF7BCFF0020FEF7B9FF0020D0
:10457000FEF7B6FFC920FEF7BFFF0020FEF7B0FF31
:104580000020FEF7ADFF0020FEF7AAFF0020FEF797
:10459000A7FF0020FEF7A4FF0020FEF7A1FF0020E8
:1045A000FEF79EFF0020FEF79BFF0020FEF798FF1E
:1045B0000020FEF795FF0020FEF792FF0020FEF797
:1045C0008FFF0020FEF78CFF0020FEF789FF002000
:1045D000FEF786FF0020FEF783FFE020FEF78CFF4A
:1045E0001620FEF77DFF0020FEF77AFF1C20FEF765
:1045F00077FF0020FEF774FF2120FEF771FF0020F7
:10460000FEF76EFF3620FEF76BFF0020FEF768FF17
:104610004620FEF765FF0020FEF762FF5220FEF7FE
:104620005FFF0020FEF75CFF6420FEF759FF0020CB
:10463000FEF756FF7A20FEF753FF0020FEF750FFEB
:104640008B20FEF74DFF0020FEF74AFF9920FEF772
:1046500047FF0020FEF744FFA820FEF741FF00209F
:10466000FEF73EFFB920FEF73BFF0020FEF738FFC4
:10467000C420FEF735FF0020FEF732FFCA20FEF708
:104680002FFF0020FEF72CFFD220FEF729FF00208D
:10469000FEF726FFD920FEF723FF0020FEF720FFBC
:1046A000E020FEF71DFF0020FEF71AFFF320FEF7C3
:1046B00017FF0020FEF714FFE120FEF71DFF162074
:1046C000FEF70EFF0020FEF70BFF1C20FEF708FF91
:1046D0000020FEF705FF2220FEF702FF0020FEF774
:1046E000FFFE3620FEF7FCFE0020FEF7F9FE452017
:1046F000FEF7F6FE0020FEF7F3FE5220FEF7F0FE76
:104700000020FEF7EDFE6420FEF7EAFE0020FEF733
:10471000E7FE7A20FEF7E4FE0020FEF7E1FE8B20A4
:10472000FEF7DEFE0020FEF7DBFE9920FEF7D8FE46
:104730000020FEF7D5FEA820FEF7D2FE0020FEF7EF
:10474000CFFEB920FEF7CCFE0020FEF7C9FEC42044
:10475000FEF7C6FE0020FEF7C3FECA20FEF7C0FE2D
:104760000020FEF7BDFED220FEF7BAFE0020FEF7C5
:10477000B7FED820FEF7B4FE0020FEF7B1FEE02021
:10478000FEF7AEFE0020FEF7ABFEF320FEF7A8FE1C
:104790000020FEF7A5FEE220FEF7AEFE0520FEF7A4
:1047A0009FFE0020FEF79CFE0B20FEF799FE0020E6
:1047B000FEF796FE1B20FEF793FE0020FEF790FE0C
:1047C0003420FEF78DFE0020FEF78AFE4420FEF71F
:1047D00087FE0020FEF784FE4F20FEF781FE0020BA
:1047E000FEF77EFE6120FEF77BFE0020FEF778FEDE
:1047F0007920FEF775FE0020FEF772FE8820FEF796
:104800006FFE0020FEF76CFE9720FEF769FE002089
:10481000FEF766FEA620FEF763FE0020FEF760FEB0
:10482000B720FEF75DFE0020FEF75AFEC220FEF71D
:1048300057FE0020FEF754FEC720FEF751FE002071
:10484000FEF74EFED120FEF74BFE0020FEF748FE9D
:10485000D620FEF745FE0020FEF742FEDD20FEF7E3
:104860003FFE0020FEF73CFEF320FEF739FE00205D
:10487000FEF736FEE320FEF73FFE0520FEF730FE92
:104880000020FEF72DFE0A20FEF72AFE0020FEF78C
:1048900027FE1C20FEF724FE0020FEF721FE332019
:1048A000FEF71EFE0020FEF71BFE4420FEF718FE5A
:1048B0000020FEF715FE5020FEF712FE0020FEF746
:1048C0000FFE6220FEF70CFE0020FEF709FE7820A6
:1048D000FEF706FE0020FEF703FE8820FEF700FE2E
:1048E0000020FEF7FDFD9720FEF7FAFD0020FEF701
:1048F000F7FDA620FEF7F4FD0020FEF7F1FDB7203E
:10490000FEF7EEFD0020FEF7EBFDC220FEF7E8FD0E
:104910000020FEF7E5FDC720FEF7E2FD0020FEF7D0
:10492000DFFDD120FEF7DCFD0020FEF7D9FDD5200C
:10493000FEF7D6FD0020FEF7D3FDDD20FEF7D0FD0B
:104940000020FEF7CDFDF320FEF7CAFD0020FEF7A4
:10495000C7FDE420FEF7D0FD0120FEF7C1FD0020D9
:10496000FEF7BEFD0120FEF7BBFD0020FEF7B8FDFF
:104970000220FEF7B5FD0020FEF7B2FD2A20FEF76B
:10498000AFFD0020FEF7ACFD3C20FEF7A9FD0020A6
:10499000FEF7A6FD4B20FEF7A3FD0020FEF7A0FDCD
:1049A0005D20FEF79DFD0020FEF79AFD7420FEF7C6
:1049B00097FD0020FEF794FD8420FEF791FD002076
:1049C000FEF78EFD9320FEF78BFD0020FEF788FD9D
:1049D000A220FEF785FD0020FEF782FDB320FEF742
:1049E0007FFD0020FEF77CFDBE20FEF779FD002054
:1049F000FEF776FDC420FEF773FD0020FEF770FD84
:104A0000CD20FEF76DFD0020FEF76AFDD320FEF7F6
:104A100067FD0020FEF764FDDD20FEF761FD00204C
:104A2000FEF75EFDF320FEF75BFD0020FEF758FD6C
:104A3000E520FEF761FD0020FEF752FD0020FEF7A5
:104A40004FFD0020FEF74CFD0020FEF749FD02203F
:104A5000FEF746FD0020FEF743FD2920FEF740FD4E
:104A60000020FEF73DFD3C20FEF73AFD0020FEF75A
:104A700037FD4B20FEF734FD0020FEF731FD5D20B1
:104A8000FEF72EFD0020FEF72BFD7420FEF728FD1B
:104A90000020FEF725FD8420FEF722FD0020FEF712
:104AA0001FFD9320FEF71CFD0020FEF719FDA2203C
:104AB000FEF716FD0020FEF713FDB320FEF710FDF4
:104AC0000020FEF70DFDBE20FEF70AFD0020FEF7D8
:104AD00007FDC420FEF704FD0020FEF701FDCD20F8
:104AE000FEF7FEFC0020FEF7FBFCD320FEF7F8FCEF
:104AF0000020FEF7F5FCDC20FEF7F2FC0020FEF7BC
:104B0000EFFCF320FEF7ECFC0020FEF7E9FCE620CA
:104B1000FEF7F2FC1120FEF7E3FC0020FEF7E0FCBC
:104B20003420FEF7DDFC0020FEF7DAFC5620FEF70D
:104B3000D7FC0020FEF7D4FC7620FEF7D1FC002045
:104B4000FEF7CEFC7720FEF7CBFC0020FEF7C8FC7A
:104B50006620FEF7C5FC0020FEF7C2FC8820FEF7A9
:104B6000BFFC0020FEF7BCFC9920FEF7B9FC00203A
:104B7000FEF7B6FCBB20FEF7B3FC0020FEF7B0FC4E
:104B80009920FEF7ADFC0020FEF7AAFC6620FEF798
:104B9000A7FC0020FEF7A4FC5520FEF7A1FC002096
:104BA000FEF79EFC5520FEF79BFC0020FEF798FCCC
:104BB0004520FEF795FC0020FEF792FC4320FEF70F
:104BC0008FFC0020FEF78CFC4420FEF789FC0020BF
:104BD000FEF786FCE720FEF78FFC3220FEF780FC14
:104BE0000020FEF77DFC5520FEF77AFC0020FEF742
:104BF00077FC7620FEF774FC0020FEF771FC66203F
:104C0000FEF76EFC0020FEF76BFC6720FEF768FCE9
:104C10000020FEF765FC6720FEF762FC0020FEF72F
:104C20005FFC8720FEF75CFC0020FEF759FC992012
:104C3000FEF756FC0020FEF753FCBB20FEF750FCAD
:104C40000020FEF74DFC9920FEF74AFC0020FEF7FD
:104C500047FC7720FEF744FC0020FEF741FC44208F
:104C6000FEF73EFC0020FEF73BFC5620FEF738FC2A
:104C70000020FEF735FC2320FEF732FC0020FEF773
:104C80002FFC3320FEF72CFC0020FEF729FC4520EA
:104C9000FEF726FC0020FEF723FCE820FEF72CFCA4
:104CA0000020FEF71DFC0020FEF71AFC9920FEF7FD
:104CB00017FC0020FEF714FC8720FEF711FC0020F3
:104CC000FEF70EFC8820FEF70BFC0020FEF708FC28
:104CD0007720FEF705FC0020FEF702FC6620FEF7B9
:104CE000FFFB0020FEF7FCFB8820FEF7F9FB00200D
:104CF000FEF7F6FBAA20FEF7F3FB0020FEF7F0FB21
:104D0000BB20FEF7EDFB0020FEF7EAFB9920FEF743
:104D1000E7FB0020FEF7E4FB6620FEF7E1FB002046
:104D2000FEF7DEFB5520FEF7DBFB0020FEF7D8FB8D
:104D30005520FEF7D5FB0020FEF7D2FB4420FEF7FE
:104D4000CFFB0020FEF7CCFB4420FEF7C9FB002080
:104D5000FEF7C6FB5520FEF7C3FB0020FEF7C0FBA5
:104D6000E920FEF7C9FBAA20FEF7BAFB0020FEF7F8
:104D7000B7FB0020FEF7B4FB0020FEF7B1FB0020DC
:104D8000FEF7BAFBAA20FEF7ABFBCF20FEF7B4FB81
:104D90000020FEF7A5FB0020FEF7A2FB0020FEF797
:104DA0009FFB0020FEF79CFB0020FEF799FB0020F4
:104DB000FEF796FB0020FEF793FB0020FEF790FB2A
:104DC0000020FEF78DFB0020FEF78AFB0020FEF797
:104DD00087FB0020FEF784FB0020FEF781FB00200C
:104DE000FEF77EFB0020FEF77BFB0020FEF778FB42
:104DF0000020FEF775FBF020FEF77EFB0020FEF79B
:104E00006FFB5020FEF76CFB0020FEF769FB0020D3
:104E1000FEF766FB0020FEF763FBF320FEF76CFB5A
:104E20000020FEF75DFBF920FEF766FB0620FEF78B
:104E300057FB1020FEF754FB2920FEF751FB002002
:104E4000FEF74EFB3A20FEF757FB5520FEF748FBD6
:104E50001120FEF751FB6420FBF75EFB2920FEF7D3
:104E60004BFB3520FEF748FB0020FEF739FB5120B5
:104E7000FEF742FBFF20FEF733FB5320FEF73CFB1F
:104E80002C20FEF72DFB5520FEF736FB8220FEF787
:104E900027FB2C20FEF730FB01F048B8FE48808845
:104EA00045F2105188427DD155214FF47040FEF7F4
:104EB00039FBAA214FF20100FEF734FB52214FF2D9
:104EC0000200FEF72FFB08214FF20300FEF72AFB3A
:104ED00001214FF20400FEF725FB0D214FF4304075
:104EE000FEF720FB0D214BF20100FEF71BFB0D210D
:104EF0004BF20200FEF716FB34214FF43640FEF76A
:104F000011FB34214BF20160FEF70CFB34214BF214
:104F10000260FEF707FB0D214FF43140FEF702FB64
:104F20000D214BF20110FEF7FDFA0D214BF202109C
:104F3000FEF7F8FA34214FF43740FEF7F3FA342144
:104F40004BF20170FEF7EEFA34214BF20270FEF7DD
:104F5000E9FA00214FF43240FEF7E4FA00214BF267
:104F60000120FEF7DFFA00214BF20220FEF7DAFA09
:104F700024214FF43840FEF7D5FA24214BF60100E6
:104F8000FEF7D0FA24214BF60200FEF7CBFA0121FE
:104F90004FF43F40FEF7C6FA0F214FF43340FEF7BF
:104FA000C1FA00E0FDE30F214BF20130FEF7BAFA3F
:104FB0000F214BF20230FEF7B5FA34214FF439409D
:104FC000FEF7B0FA34214BF60110FEF7ABFA3421AC
:104FD0004BF60210FEF7A6FA08214FF43540FEF713
:104FE000A1FA08214BF20150FEF79CFA08214BF27E
:104FF0000250FEF797FA03214FF44240FEF792FA6F
:1050000024214FF43A40FEF78DFA24214BF601207B
:10501000FEF788FA24214BF60220FEF783FA0021DE
:105020004FF43C40FEF77EFA78214BF60140FEF744
:1050300079FA00214BF60240FEF774FA00214FF492
:105040003D40FEF76FFA78214BF60150FEF76AFA01
:1050500000214BF60250FEF765FA00214FF43E4066
:10506000FEF760FA64214BF60160FEF75BFA00215F
:105070004FF45140FEF756FA33214DF20110FEF77E
:1050800051FA00214DF20210FEF74CFA34214DF294
:105090000310FEF747FA00214DF20410FEF742FA22
:1050A0003A214DF20510FEF73DFA00214DF20610AF
:1050B000FEF738FA4A214DF20710FEF733FA0021C5
:1050C0004DF20810FEF72EFA5C214DF20910FEF7A2
:1050D00029FA00214DF20A10FEF724FA81214DF23F
:1050E0000B10FEF71FFA00214DF20C10FEF71AFA12
:1050F000A6214DF20D10FEF715FA00214DF20E100B
:10510000FEF710FAE5214DF20F10FEF70BFA012120
:105110004DF21010FEF706FA13214DF21110FEF7B2
:1051200001FA01214DF21210FEF7FCF954214DF263
:105130001310FEF7F7F901214DF21410FEF7F2F902
:1051400082214DF21510FEF7EDF901214DF21610F6
:10515000FEF7E8F9CA214DF21710FEF7E3F9022134
:105160004DF21810FEF7DEF900214DF21910FEF78E
:10517000D9F902214DF21A10FEF7D4F901214DF2AE
:105180001B10FEF7CFF902214DF21C10FEF7CAF9F1
:1051900034214DF21D10FEF7C5F902214DF21E100B
:1051A000FEF7C0F967214DF21F10FEF7BBF902218F
:1051B0004DF22010FEF7B6F984214DF22110FEF7D2
:1051C000B1F902214DF22210FEF7ACF9A4214DF203
:1051D0002310FEF7A7F902214DF22410FEF7A2F9E1
:1051E000B7214DF22510FEF79DF902214DF2261050
:1051F000FEF798F9CF214DF22710FEF793F902211F
:105200004DF22810FEF78EF9DE214DF22910FEF73F
:1052100089F902214DF22A10FEF784F9F2214DF2AC
:105220002B10FEF77FF902214DF22C10FEF77AF9D0
:10523000FE214DF22D10FEF775F903214DF22E10CF
:10524000FEF770F910214DF22F10FEF76BF90321D4
:105250004DF23010FEF766F933214DF23110FEF7B2
:1052600061F903214DF23210FEF75CF96D214DF228
:105270003310FEF757F900214FF45240FEF752F970
:1052800033214DF20120FEF74DF900214DF20220AD
:10529000FEF748F9342101E0040100244DF2032017
:1052A000FEF740F900214DF20420FEF73BF93A21C8
:1052B0004DF20520FEF736F900214DF20620FEF7EB
:1052C00031F94A214DF20720FEF72CF900214DF269
:1052D0000820FEF727F95C214DF20920FEF722F99C
:1052E00000214DF20A20FEF71DF981214DF20B201D
:1052F000FEF718F900214DF20C20FEF713F9A62154
:105300004DF20D20FEF70EF900214DF20E20FEF7B2
:1053100009F9E5214DF20F20FEF704F901214DF2C4
:105320001020FEF7FFF813214DF21120FEF7FAF8D6
:1053300001214DF21220FEF7F5F854214DF2132011
:10534000FEF7F0F801214DF21420FEF7EBF8822170
:105350004DF21520FEF7E6F801214DF21620FEF77A
:10536000E1F8CA214DF21720FEF7DCF802214DF2D8
:105370001820FEF7D7F800214DF21920FEF7D2F8D9
:1053800002214DF21A20FEF7CDF801214DF21B202B
:10539000FEF7C8F802214DF21C20FEF7C3F83421B5
:1053A0004DF21D20FEF7BEF802214DF21E20FEF741
:1053B000B9F867214DF21F20FEF7B4F802214DF233
:1053C0002020FEF7AFF884214DF22120FEF7AAF845
:1053D00002214DF22220FEF7A5F8A4214DF2232050
:1053E000FEF7A0F802214DF22420FEF79BF8B7212A
:1053F0004DF22520FEF796F802214DF22620FEF709
:1054000091F8CF214DF22720FEF78CF802214DF2C2
:105410002820FEF787F8DE214DF22920FEF782F8DA
:1054200002214DF22A20FEF77DF8F2214DF22B20C9
:10543000FEF778F802214DF22C20FEF773F8FE21DA
:105440004DF22D20FEF76EF803214DF22E20FEF7CF
:1054500069F810214DF22F20FEF764F803214DF278
:105460003020FEF75FF833214DF23120FEF75AF875
:1054700003214DF23220FEF755F86D214DF2332015
:10548000FEF750F800214FF45340FEF74BF833215C
:105490004DF20130FEF746F800214DF20230FEF7E2
:1054A00041F834214DF20330FEF73CF800214DF273
:1054B0000430FEF737F83A214DF20530FEF732F8A6
:1054C00000214DF20630FEF72DF84A214DF207304B
:1054D000FEF728F800214DF20830FEF723F85C2192
:1054E0004DF20930FEF71EF800214DF20A30FEF7AA
:1054F00019F881214DF20B30FEF714F800214DF21E
:105500000C30FEF70FF8A6214DF20D30FEF70AF829
:1055100000214DF20E30FEF705F8E5214DF20F3077
:10552000FEF700F801214DF21030FDF7FBFF1321CB
:105530004DF21130FDF7F6FF01214DF21230FDF76B
:10554000F1FF54214DF21330FDF7ECFF01214DF234
:105550001430FDF7E7FF82214DF21530FDF7E2FF31
:1055600001214DF21630FDF7DDFFCA214DF2173053
:10557000FDF7D8FF02214DF21830FDF7D3FF0021CF
:105580004DF21930FDF7CEFF02214DF21A30FDF732
:10559000C9FF01214DF21B30FDF7C4FF02214DF27E
:1055A0001C30FDF7BFFF34214DF21D30FDF7BAFF6F
:1055B00002214DF21E30FDF7B5FF67214DF21F307D
:1055C000FDF7B0FF02214DF22030FDF7ABFF842143
:1055D0004DF22130FDF7A6FF02214DF22230FDF7FA
:1055E000A1FFA4214DF22330FDF79CFF02214DF2D3
:1055F0002430FDF797FFB7214DF22530FDF792FFDC
:1056000002214DF22630FDF78DFFCF214DF22730DC
:10561000FDF788FF02214DF22830FDF783FFDE21E0
:105620004DF22930FDF77EFF02214DF22A30FDF7C1
:1056300079FFF2214DF22B30FDF774FF02214DF27C
:105640002C30FDF76FFFFE214DF22D30FDF76AFF84
:1056500003214DF22E30FDF765FF10214DF22F3062
:10566000FDF760FF03214DF23030FDF75BFF332182
:105670004DF23130FDF756FF03214DF23230FDF788
:1056800051FF6D214DF23330FDF74CFF00214FF4F7
:105690005440FDF747FF33214DF20140FDF742FF33
:1056A00000214DF20240FDF73DFF34214DF2034051
:1056B000FDF738FF00214DF20440FDF733FF3A219A
:1056C0004DF20540FDF72EFF00214DF20640FDF79B
:1056D00029FF4A214DF20740FDF724FF00214DF23A
:1056E0000840FDF71FFF5C214DF20940FDF71AFF4E
:1056F00000214DF20A40FDF715FF81214DF20B40CC
:10570000FDF710FF00214DF20C40FDF70BFFA62125
:105710004DF20D40FDF706FF00214DF20E40FDF762
:1057200001FFE5214DF20F40FDF7FCFE01214DF296
:105730001040FDF7F7FE13214DF21140FDF7F2FE88
:1057400001214DF21240FDF7EDFE54214DF21340C0
:10575000FDF7E8FE01214DF21440FDF7E3FE822142
:105760004DF21540FDF7DEFE01214DF21640FDF72A
:10577000D9FECA214DF21740FDF7D4FE02214DF2A9
:105780001840FDF7CFFE00214DF21940FDF7CAFE8B
:1057900002214DF21A40FDF7C5FE01214DF21B40DA
:1057A00000E005E3FDF7BEFE02214DF21C40FDF7CF
:1057B000B9FE34214DF21D40FDF7B4FE02214DF239
:1057C0001E40FDF7AFFE67214DF21F40FDF7AAFE18
:1057D00002214DF22040FDF7A5FE84214DF221402B
:1057E000FDF7A0FE02214DF22240FDF79BFEA42111
:1057F0004DF22340FDF796FE02214DF22440FDF7C5
:1058000091FEB7214DF22540FDF78CFE02214DF2AD
:105810002640FDF787FECF214DF22740FDF782FE9F
:1058200002214DF22840FDF77DFEDE214DF2294098
:10583000FDF778FE02214DF22A40FDF773FEF221BA
:105840004DF22B40FDF76EFE02214DF22C40FDF78C
:1058500069FEFE214DF22D40FDF764FE03214DF25D
:105860002E40FDF75FFE10214DF22F40FDF75AFE4E
:1058700003214DF23040FDF755FE33214DF231400A
:10588000FDF750FE03214DF23240FDF74BFE6D2136
:105890004DF23340FDF746FE00214FF45540FDF731
:1058A00041FE33214DF20150FDF73CFE00214DF247
:1058B0000250FDF737FE34214DF20350FDF732FE62
:1058C00000214DF20450FDF72DFE3A214DF2055016
:1058D000FDF728FE00214DF20650FDF723FE4A2178
:1058E0004DF20750FDF71EFE00214DF20850FDF766
:1058F00019FE5C214DF20950FDF714FE00214DF216
:105900000A50FDF70FFE81214DF20B50FDF70AFE04
:1059100000214DF20C50FDF705FEA6214DF20D5071
:10592000FDF700FE00214DF20E50FDF7FBFDE521D5
:105930004DF20F50FDF7F6FD01214DF21050FDF72D
:10594000F1FD13214DF21150FDF7ECFD01214DF257
:105950001250FDF7E7FD54214DF21350FDF7E2FD23
:1059600001214DF21450FDF7DDFD82214DF215505D
:10597000FDF7D8FD01214DF21650FDF7D3FDCA21E8
:105980004DF21750FDF7CEFD02214DF21850FDF7F4
:10599000C9FD00214DF21950FDF7C4FD02214DF261
:1059A0001A50FDF7BFFD01214DF21B50FDF7BAFD66
:1059B00002214DF21C50FDF7B5FD34214DF21D5072
:1059C000FDF7B0FD02214DF21E50FDF7ABFD672142
:1059D0004DF21F50FDF7A6FD02214DF22050FDF7BC
:1059E000A1FD84214DF22150FDF79CFD02214DF2D5
:1059F0002250FDF797FDA4214DF22350FDF792FDB3
:105A000002214DF22450FDF78DFDB7214DF22550B6
:105A1000FDF788FD02214DF22650FDF783FDCF21D1
:105A20004DF22750FDF77EFD02214DF22850FDF783
:105A300079FDDE214DF22950FDF774FD02214DF272
:105A40002A50FDF76FFDF2214DF22B50FDF76AFD54
:105A500002214DF22C50FDF765FDFE214DF22D5037
:105A6000FDF760FD03214DF22E50FDF75BFD102187
:105A70004DF22F50FDF756FD03214DF23050FDF74A
:105A800051FD33214DF23150FDF74CFD03214DF214
:105A90003250FDF747FD6D214DF23350FDF742FDC9
:105AA00000214FF45640FDF73DFD33214DF20160DA
:105AB000FDF738FD00214DF20260FDF733FD342182
:105AC0004DF20360FDF72EFD00214DF20460FDF75D
:105AD00029FD3A214DF20560FDF724FD00214DF22C
