:020000040800F2
:10000000402C012499030008B56D0008E362000844
:10001000B16D0008DD1100087BA1000800000000A0
:10002000000000000000000000000000B97200089D
:100030005D17000800000000B96D0008BB720008E1
:10004000B3030008B3030008B3030008B3030008B8
:10005000B3030008B3030008B3030008B3030008A8
:10006000B3030008B3030008B3030008E11100085C
:10007000B3030008B3030008B3030008B303000888
:10008000B3030008B3030008B3030008B303000878
:10009000B3030008B3030008B3030008B303000868
:1000A000B3030008B3030008B3030008B303000858
:1000B000B3030008C9970008B3030008B30300089E
:1000C000B3030008B3030008B3030008B303000838
:1000D000B3030008B3030008B3030008B303000828
:1000E000B3030008B303000800000000B3030008D6
:1000F000B3030008B3030008B3030008B303000808
:10010000B3030008B3030008B3030008B3030008F7
:10011000B3030008B3030008B3030008B3030008E7
:10012000B3030008B3030008B3030008B3030008D7
:10013000B3030008B3030008B3030008B3030008C7
:1001400000000000000000000000000000000000AF
:10015000B3030008B3030008B3030008B3030008A7
:10016000B3030008B3030008B3030008B303000897
:10017000B3030008B3030008B30300080000000045
:10018000B3030008B3030008B3030008B303000877
:10019000B3030008B3030008B3030008B303000867
:1001A000B3030008B3030008B3030008B303000857
:1001B000B3030008B3030008B3030008B303000847
:1001C000B3030008B3030008B3030008B303000837
:1001D000B3030008B3030008B3030008B303000827
:1001E000B3030008B3030008B3030008B303000817
:1001F000B3030008B3030008B3030008B303000807
:10020000B3030008B3030008B3030008B3030008F6
:10021000B3030008B3030008B3030008B3030008E6
:10022000B3030008B3030008B30300080000000094
:10023000B3030008B303000800000000B303000884
:10024000B3030008B3030008B3030008B3030008B6
:10025000B3030008B3030008B3030008B3030008A6
:10026000B3030008B3030008B3030008B303000896
:10027000B3030008B3030008B30300080000000044
:10028000B3030008B3030008B30300080000000034
:1002900000000000B303000800F002F800F06CF862
:1002A0000AA090E8000C82448344AAF10107DA45D1
:1002B00001D100F061F8AFF2090EBAE80F0013F0B7
:1002C000010F18BFFB1A43F001031847905F0800A5
:1002D000B05F08000A444FF0000C10F8013B13F027
:1002E000070408BF10F8014B1D1108BF10F8015B8F
:1002F000641E05D010F8016B641E01F8016BF9D182
:1003000013F0080F1EBF10F8014BAD1C0C1B09D1D8
:100310006D1E58BF01F801CBFAD505E014F8016B4A
:1003200001F8016B6D1EF9D59142D6D370470000DC
:100330000023002400250026103A28BF78C1FBD8EE
:10034000520728BF30C148BF0B607047642900F0D6
:10035000FB80782900F03481002070471FB541F000
:100360005EFD9DE8030000F03DFD00F05DFB1FBD5C
:1003700010B500F0C2FB10BD00F0F3FB1146FFF713
:10038000EDFF38F0CDFA00F0F7FC03B4FFF7F0FF13
:1003900003BC0CF038F800000948804709480047C2
:1003A000FEE7FEE7FEE7FEE7FEE7FEE7FEE7FEE725
:1003B000FEE7FEE704480549054A064B7047000082
:1003C000A573000899020008401C0124402C012458
:1003D000402401244024012453EA020C00F06980E7
:1003E0002DE9F04B4FF00006002B1FBFB3FA83F549
:1003F00003FA05F424FA05F65E4012BF1643B2FA7A
:1004000082F502FA05F4C5F120051EBF22FA05FCAB
:1004100044EA0C04203556EA044C4FEA144418BF51
:10042000641C4FF000084FF00009904271EB030C80
:1004300039D3002919BFB1FA81F701FA07F6B0FAEA
:1004400080F700FA07F6C7F120071EBF20FA07FC65
:1004500046EA0C062037B6FBF4FCA7EB0507103F75
:1004600007F01F0BCBF120060CFA0BFB2CFA06F65B
:1004700044BFB3460026202FA4BF5E464FF0000BBA
:100480005BEA060C08BF4FF0010B19EB0B09ABFB45
:10049000027C48EB0608C01B06FB02CC0BFB03CC1E
:1004A00071EB0C01C1E70B46024641464846BDE8E8
:1004B000F08B13B54FF000004FF00001AFF3008058
:1004C000BDE81C40704700000FB4044910B503AAF2
:1004D000029800F073FA10BC5DF814FB341B012481
:1004E0002DE9F0410E460446002020622046E168D6
:1004F000884730B3252805D0D4E901219047206AE8
:10050000401CF2E7E168204600278847050018D024
:10051000A5F14100192802D820354FF40067324672
:10052000294620462760FFF711FF40B1012804D07B
:10053000F61D26F007060836D8E7361DD6E728460A
:10054000DAE7206ABDE8F0812DE9F0410646002493
:1005500010687529314616A510D0AFF30080002829
:1005600002DA404213A507E031688A0701D512A5D7
:1005700002E0490704D511A5012401E0AFF3008092
:1005800000210A2206F1240709E0B0FBF2FCB0FBCF
:10059000F2F302FB1C00303078541846491C002846
:1005A000F3D123462A463046BDE8F04100F0ADB90C
:1005B000000000002D0000002B00000020000000C3
:1005C00070B504460D4621461068AFF300802188BF
:1005D000090502D50F4A7A4402E00E4A7A440E32E7
:1005E000002104F1240305E000F00F060009965DE8
:1005F0005E54491C0028F7D120780023000704D559
:10060000702D02D009B1022311322046BDE870409E
:1006100000F07BB939570800401ECAB210F8011F1C
:100620008A4202D00029F9D10020704740EA010334
:1006300010B59B070FD1042A0DD310C808C9121F8B
:100640009C42F8D020BA19BA884201D9012010BDC5
:100650004FF0FF3010BD1AB1D30703D0521C07E092
:10066000002010BD10F8013B11F8014B1B1B07D1F6
:1006700010F8013B11F8014B1B1B01D1921EF1D167
:10068000184610BD40EA0103024630B59B0710D161
:100690004FF0013400E008C208C91D1B9D4315EA54
:1006A000C41FF8D013F0FF0102F8011B0DD01B0A84
:1006B000F8E711F8013B002B02F8013B05D011F8D7
:1006C000013B002B02F8013BF3D130BD10B5431CB8
:1006D00002E010F8011B71B18107FAD14FF001322D
:1006E00002C88C1A8C4314EAC211F9D0C01A0A0647
:1006F00003D0C01E10BDC01A10BD0A0401D0801E58
:1007000010BD0902FCD0401E10BD032A40F230800B
:1007100010F0030C00F0158011F8013BBCF1020F42
:10072000624498BF11F801CB00F8013B38BF11F8C3
:10073000013BA2F1040298BF00F801CB38BF00F8DA
:10074000013B11F0030300F02580083AC0F0088057
:1007500051F8043B083A51F804CBA0E80810F5E73B
:10076000121D5CBF51F8043B40F8043BAFF300801E
:10077000D20724BF11F8013B11F801CB48BF11F893
:10078000012B24BF00F8013B00F801CB48BF00F863
:10079000012B704710B5203AC0F00B80B1E818501B
:1007A000203AA0E81850B1E81850A0E81850BFF45B
:1007B000F5AF5FEA027C24BFB1E81850A0E81850FA
:1007C00044BF18C918C0BDE810405FEA827C24BF4E
:1007D00051F8043B40F8043B08BF7047D20728BFDC
:1007E00031F8023B48BF11F8012B28BF20F8023B2B
:1007F00048BF00F8012B704702F0FF0343EA0322D1
:1008000042EA024200F002B84FF000020429C0F0B0
:10081000128010F0030C00F01B80CCF1040CBCF132
:10082000020F18BF00F8012BA8BF20F8022BA1EB84
:100830000C0100F00DB85FEAC17C24BF00F8012B69
:1008400000F8012B48BF00F8012B70474FF0000261
:1008500000B5134694469646203922BFA0E80C50B6
:10086000A0E80C50B1F12001BFF4F7AF090728BF91
:10087000A0E80C5048BF0CC05DF804EB890028BF0D
:1008800040F8042B08BF704748BF20F8022B11F036
:10089000804F18BF00F8012B704700004FF0013C5B
:1008A00050F8042B51F8043B9A4215D1A2EB0C03EB
:1008B000934313EACC130BD150F8042B51F8043BAB
:1008C0009A4209D1A2EB0C03934313EACC13E7D06D
:1008D0004FF00000704700BFD01A01BAB1FA81F1A1
:1008E00001F0180122FA01F0CB40C1F12001DBB286
:1008F000C0B2C01A2CFA01F3D11A914311EAC31104
:10090000E6D170477047704770472DE9F0470D46B4
:1009100099469246044600F124080168880604D5E9
:10092000E06921F01001216000E00120A84201DD12
:10093000471B00E00027A1697A1902EB0900081A99
:10094000A0612078C00602D42046AFF300800026C4
:1009500008E0D4E901211AF806009047206A401CFB
:10096000761C20624E45F4DB2078C0060AD520466E
:10097000AFF3008006E0D4E9012130209047206ADF
:10098000401C2062381EA7F10107F4DC07E0D4E91F
:10099000012118F805009047206A401C2062281E9B
:1009A000A5F10105F3DC2046AFF3008020780006B6
:1009B00002D50220BDE8F0870120FBE7074B70B5A8
:1009C0000D467B4400F019F80446284600F028F84C
:1009D00010B14FF0FF3070BD204670BD4BC3010019
:1009E00008B569468DF800000320ABBE08BD0000C5
:1009F00001694A1C02610878704700B58FB0CDE9E3
:100A000001310021059105497944CDE903101146D2
:100A10006846FFF765FD0FB000BD0000E5FFFFFF72
:100A2000007B00F08000704710B542485421FFF76A
:100A30000DFF41485421FFF709FF40485421FFF7BB
:100A400005FF3F493B483C4A3F4B08603D490A602F
:100A50003A491960531C0365481C1065012008655C
:100A60003B48344A39A1784400F0EAF820B93848C4
:100A700078440A3800F08EF937482F4A35A1784477
:100A800000F0DEF820B9344878440A3800F082F9E2
:100A900032482A4A2FA1784400F0D2F820B92F48D2
:100AA00078440A3800F076F940232248DC0000211F
:100AB000224600F0A2F820B125487844543800F0CE
:100AC00069F91D4822464023002100F096F820B124
:100AD00021487844543800F05DF918482246102324
:100AE000002100F08AF8002806D01C487844BDE8B0
:100AF0001040563800F04EB910BD104870B5006D6A
:100B000020F001040B4800F011F90B4800F00EF939
:100B10000A4800F00BF909E0206D20F0010520469D
:100B200000F004F9204600F041F82C46002CF3D1E7
:100B300070BD0000E01A0124341B0124881B01242D
:100B400014040024180400241C0400247200000073
:100B5000925208007700000081520800715208008C
:100B60007047754600F01EF9AE46050069465346CB
:100B700020F00700854618B020B5FFF71BFCBDE844
:100B800020404FF000064FF000074FF000084FF0F4
:100B9000000B21F00701AC46ACE8C009ACE8C00985
:100BA000ACE8C009ACE8C0098D46704770B5044692
:100BB000051F00F0FBF80068002C14BF446870BDEE
:100BC000002C18BFAC423CBF20466468F8D30168D3
:100BD0000A18AA4218BF456003D12A680546114485
:100BE000016028684119A1421CBF6C6070BD61683A
:100BF000696021680844286070BD70B5C468A507A5
:100C000013D0650211D4B2F5807F09D0B2F5007F10
:100C100006D0B2F5806F08D1012300F1240106E06F
:100C20005D1E6FF07F46B54201D3012070BD0161AA
:100C3000C361416024F470611143C160002070BD44
:100C40002DE9F0410C4607461646104600F06EF8B6
:100C50002078611C61280AD0722802D077283CD104
:100C600002E00125002405E00225042402E0082416
:100C700048F2020511F8010B2B2806D0622809D092
:100C800011F8010C74280AD00BE045F0030544F07C
:100C90000204EFE745F0040544F00104EAE744F0FC
:100CA0001004384621460BF0D5FB411C15D000211D
:100CB000316171604FF40071F560F161706120077E
:100CC00004D530460222002100F0EAF8306D40F0F1
:100CD000010030653046BDE8F0810020FBE72DE9DA
:100CE000F0410D460646104C206DC10704D0410866
:100CF00004D020F00104F7E722460EE0542000F073
:100D0000A0F807000ED0206D47F0010108435421E0
:100D100020653846FFF79AFD3A4629463046BDE839
:100D2000F0418DE70020D6E7E01A01242DE9F047D5
:100D300004464FF000094FF0FF37C568D4E9048638
:100D4000A80707D0204600F05BF930460BF048FBBF
:100D5000002802DA3846BDE8F087280502D540466B
:100D6000FFF724FF4C212046FFF770FD206D20F097
:100D7000010020654846EEE710B50446AFF3008059
:100D80002046BDE81040FFF700BB002801D00BF063
:100D90003ABB704710B500F091F9BDE81040FFF77D
:100DA000F4BF000000487047DC1B01240048704776
:100DB000E41B0124704770477047704738B50446FC
:100DC0000A4600206946AFF30080002808BF38BDFE
:100DD00002460099204600F092F9012038BD01201A
:100DE00000F0C8B9F8B5AFF30080054600200C4606
:100DF000102000BF0646A819A0420DD93246694608
:100E00000020AFF30080070008BF00F0B3F900989E
:100E1000A04218BF0546C419FFF7C8FF0560074682
:100E2000F01D20F007004619284600F061F9B44291
:100E300008BFF8BDA21B31463868BDE8F84000F095
:100E40005EB970B50646FFF7B1FF056806F10B0005
:100E500020F00704B4429CBF002070BD2B466A6896
:100E6000BAB11068A04210D304F1080188423CBF17
:100E70005068586007D35168101941601168091B08
:100E8000016058601460101D70BD13465268002A3E
:100E9000E7D121462846FFF791FF0028DED170BD3B
:100EA0002DE9F041044616460D464769007B800750
:100EB0002ED038460BF0BBFA50BB3EB3012E02D009
:100EC000022E25D104E0204600F033F905441DE050
:100ED00038460BF09AFAE168002841F01001E16011
:100EE00005DA204600F058F80120BDE8F081C9037A
:100EF0000BD56268E16A914200D81146A26911449B
:100F00002269891A814200DD08460544002D01DA74
:100F10000220EAE7E16A6068E268814206D2910352
:100F2000E06203D522F4003141F01002A6690027E7
:100F3000AE4213DCE16A814201D90B4600E0034670
:100F400003EB060C2369ACEB030CAC4506DD8142D8
:100F500001D98C4600E084469C4505D1A7602760F6
:100F600042F02000A5620DE0AD1BE669AE1B814298
:100F7000A66000D90846C01A281A20605819606077
:100F800022F0200003490840E060002084F8487007
:100F9000ABE70000BFCFD7FFC16821F4001141F0DB
:100FA0008001C16000218160016070472DE9F04738
:100FB000814614460E464FF0FF383248D5685769CF
:100FC000054209D03846A1690BF078FA002811DBF8
:100FD0002C48C0430540E5602B463246494638461A
:100FE0000BF082FAA16920F00042B21A11440028E5
:100FF000A16103D02046FFF7CFFF4046BDE8F08750
:1010000070B504460569C06A6168884200D8084620
:10101000E16821F42011E160C90312D5A84208D08B
:101020002246411B2846FFF7C1FF10B14FF0FF30A9
:1010300070BD0020E562C4E90150E06820F4803012
:10104000E060002070BD10B50446C06820F02000AC
:10105000E060A16AA06988420DD02046FFF7D0FF6A
:10106000E06820F4405040F01000E060A06AA06109
:101070002069E062606044F24001E0688843E0601B
:1010800010BD00001000020070B505460C460A2095
:1010900000E06D1CFFF7A4FC35B128780028F8D1DA
:1010A00002E0641CFFF79CFC14B120780028F8D102
:1010B000BDE870400A20FFF793BC000010B5014660
:1010C00002A0FFF7E1FF012010BD00005349475285
:1010D000545245443A2052656469726563743A20FB
:1010E00063616E2774206F70656E3A200000000007
:1010F00000210160C0E901107047102070470346CD
:1011000040688C46002818BF88423CBF03464068B0
:10111000F8D318681844884207D00CF1030020F077
:101120000700001D411A521A0146081D0A60FFF708
:101130003DBD10B50146C268900703D0900607D5A3
:10114000886A0AE000F01EF801210160881E10BDC7
:101150008B69486818440B69C01A91F848301BB174
:1011600091F84910401A10BD1103FCD50028FADD92
:10117000401E10BD10B500F009F8BDE81040FFF7A3
:1011800004BE000000487047DC1B012410B5012894
:1011900005D0002103A0FFF777FF012010BD09A1B2
:1011A000F8E7000053494752544D454D3A204F75DA
:1011B00074206F662068656170206D656D6F72794F
:1011C000000000003A2048656170206D656D6F7207
:1011D0007920636F727275707465640000BFFEE7FA
:1011E00010B5024800F03CFC10BD000020040024B3
:1011F0000146374A0868904249D0354A1832086893
:10120000904244D0324A3032086890423FD0304A4F
:101210004832086890423AD02D4A603208689042BD
:1012200035D02B4A78320868904230D0284A903224
:10123000086890422BD0264AA8320868904226D0EF
:10124000244A0868904222D0224A18320868904204
:101250001DD0204A30320868904218D01D4A4832CA
:101260000868904213D01B4A6032086890420ED042
:10127000184A78320868904209D0164A90320868B5
:10128000904204D0134AA8320868904201D101204C
:1012900000E00020B0B10A78103A1823B2FBF3F056
:1012A00000F007020C4B9A5CCA65032805D90A684E
:1012B0006FF30902121D8A6503E00A686FF30902E1
:1012C0008A6503E0086820F0FF008865886D704734
:1012D0001000024010040240281E040810B50268E5
:1012E0002B4C0368A34222D0294C14340368A34238
:1012F0001DD0274C28340368A34218D0244C3C341A
:101300000368A34213D0224C50340368A3420ED08A
:101310001F4C64340368A34209D01D4C7834036821
:10132000A34204D01A4C8C340368A34201D1012398
:1013300000E000238BB10378083B1424B3FBF4F1E5
:10134000144B03EB81030366124B8033436601F0B9
:101350001F040123A340836618E00378103B182480
:10136000B3FBF4F10C4B9A4204D80B4BA83B9A42C6
:1013700000D30831094B03EB81030366074B80332D
:10138000436601F01F040123A340836610BD0000E3
:101390000854025800580258B8040240000802409D
:1013A0000179A9B3082940D8204B02689A4222D07B
:1013B0001E4B143302689A421DD01C4B283302681E
:1013C0009A4218D0194B3C3302689A4213D0174BFB
:1013D000503302689A420ED0144B643302689A422A
:1013E00009D0124B783302689A4204D00F4B8C33E9
:1013F00002689A4201D1012200E000224AB14A1E4D
:101400000B4B03EB8202C266094A4032026708E0D6
:101410000BE04A1E074B03EB8202C266054A4032CC
:1014200002674A1E012393404367704708540258DD
:101430000059025800090240014600208A69D2B9C9
:101440008A6A32B1012A0DD0022A03D0032A10D1B0
:101450000EE000BFCA6A02F08072B2F1807F00D154
:10146000012007E0CA6AB2F1C07F00D1012001E08B
:1014700000E000BF36E08A69B2F5005F1BD18A6ADE
:1014800032B1012A07D0022A03D0032A11D10AE07F
:1014900000BF01200EE0CA6A02F08072B2F1807FC4
:1014A00000D1012006E0CA6AB2F1C07F00D101205C
:1014B00000E000BF16E08A6A32B1012A05D0022A94
:1014C00004D0032A0CD103E000BF00BF012008E0D4
:1014D000CA6A02F08072B2F1807F00D1012000E080
:1014E00000BF00BF70470000F0B5856D846D984F58
:1014F0000668BE4270D0964F18370668BE426BD061
:10150000934F30370668BE4266D0914F4837066821
:10151000BE4261D08E4F60370668BE425CD08C4FB1
:1015200078370668BE4257D0894F90370668BE426A
:1015300052D0874FA8370668BE424DD0854F066807
:10154000BE4249D0834F18370668BE4244D0814F0F
:1015500030370668BE423FD07E4F48370668BE42ED
:101560003AD07C4F60370668BE4235D0794F783725
:101570000668BE4230D0774F90370668BE422BD007
:10158000744FA8370668BE4226D0734F0668BE4225
:1015900022D0714F14370668BE421DD06E4F2837D7
:1015A0000668BE4218D06C4F3C370668BE4213D066
:1015B000694F50370668BE420ED0674F64370668E1
:1015C000BE4209D0644F78370668BE4204D0624FED
:1015D0008C370668BE4201D1012600E000263EB1EC
:1015E000D0E919767E60C66E16B1D0E91C767E60B1
:1015F000574F0668BE4249D0554F18370668BE425D
:1016000044D0534F30370668BE423FD0504F483722
:101610000668BE423AD04E4F60370668BE4235D0AB
:101620004B4F78370668BE4230D0494F9037066836
:10163000BE422BD0464FA8370668BE4226D0454F43
:101640000668BE4222D0434F18370668BE421DD0FE
:10165000404F30370668BE4218D03E4F48370668C4
:10166000BE4213D03B4F60370668BE420ED0394FA2
:1016700078370668BE4209D0364F90370668BE42BA
:1016800004D0344FA8370668BE4201D1012600E0DD
:101690000026DEB190F85C6006F01F073F26BE40D2
:1016A000AE600668366826F4802607683E600668E5
:1016B00073608668402E04D10668B2600668F160E7
:1016C00044E00668B1600668F2603FE0224F0668B9
:1016D000BE4222D0204F14370668BE421DD01E4F96
:1016E00028370668BE4218D01B4F3C370668BE42FA
:1016F00013D0194F50370668BE420ED0164F6437CC
:101700000668BE4209D0144F78370668BE4204D03E
:10171000114F8C370668BE4201D1012600E0002639
:10172000A6B190F85C6006F01F070126BE40666017
:10173000066873608668402E04D10668B260066849
:10174000F16003E00668B1600668F260F0BD000079
:10175000100002401004024008540258704772B64C
:1017600000BFFEE710B50346D1E9000440EA0420BB
:101770000C8940EA04400C7B40EA0460DC68D860D5
:10178000002010BD10B50346D1E9000440EA042052
:101790000C8940EA04400C7B40EA04609C68986035
:1017A000002010BD10B50246486840F008008B6864
:1017B0001843CB6818430B6918434B6940EA432030
:1017C0008B6940EA43301368024C23401843106091
:1017D000002010BD8901F0FF70B50446B3F5804FBD
:1017E00013D1D1E9000540EA05108D6840EA0520D3
:1017F0008D6928438D8940EA054054F82250064EF1
:101800003540284344F8220003E06FF0704044F86C
:101810002200002070BD00000000F0CF70B502462D
:10182000086852F8200020F001000E6842F82600F7
:101830008868082801D1402500E000254868284331
:101840008E683043CE6830430E6930434E69304372
:101850008E693043CE6930430E6A30434E6A30435E
:101860008E6A3043CE6A40EA0603086B0343486B36
:101870000343886B0343114C44F4801444F4001474
:1018800044F4E024086852F82000A04318430E688E
:1018900042F82600086BB0F5801F07D1086828B110
:1018A000106820F480100E6B30431060086818B187
:1018B00010684E6B30431060002070BD7FFB080045
:1018C00030B50346D1E9000540EA05108D6840EACD
:1018D00005208D8940EA0545088A401E45EA0055E5
:1018E000087D801E45EA00608D692843551C53F829
:1018F000255005F040452843551C43F8250018683D
:1019000000F48010B0F5801F0BD1586820F47004EB
:10191000088A401E44EA0054586820F470002043AE
:101920005860002030BD02460868B0B9D1E9010313
:101930001843CB6818430B6918434B6918438B69EC
:101940001843CB6918430B6A18434B6A1843136852
:101950006FF30E031843106019E0D1E90703184331
:101960004B6A1843136823F4F84318431060D1E915
:1019700001031843CB6818430B6918434B6918439C
:101980008B69184353686FF30E03184350600020AF
:1019900070470246506943F6FE73984340EA41009F
:1019A00050610020704710B50346D1E90004204380
:1019B0008C68641E40EA4410CC6840EA44201C69EC
:1019C0006FF3150420431861002010BD30B50346A5
:1019D000FAB90868401E4C68641E40EA041488681E
:1019E000401E44EA0024C868401E44EA0034088AC5
:1019F000401E44EA0044888A401E44EA0054087E9F
:101A0000401E44EA00609C6804F0704420439860E3
:101A100022E0C868401E0403888A401E44EA005041
:101A20009C680E4D2C40204398600868401E4C680E
:101A3000641E40EA04148868401E44EA0024088AB0
:101A4000401E44EA0044087E401E44EA0060DC6810
:101A500004F070442043D860002030BDFF0F0FFF1A
:101A60002DE9F84F044600200090FE4800684FF42E
:101A70001651B0FBF1FAA66DD4F858803768D8F843
:101A80000090F9492068884249D0F7491831206808
:101A9000884244D0F4493031206888423FD0F2492E
:101AA0004831206888423AD0EF4960312068884246
:101AB00035D0ED4978312068884230D0EA499031FC
:101AC000206888422BD0E849A8312068884226D077
:101AD000E6492068884222D0E449183120688842CB
:101AE0001DD0E24930312068884218D0DF494831A2
:101AF0002068884213D0DD496031206888420ED0CA
:101B0000DA4978312068884209D0D8499031206874
:101B1000884204D0D549A8312068884201D10120EB
:101B200000E0002000287DD094F85C0000F01F0148
:101B3000082088403840002868D0CB492068884277
:101B400049D0C94918312068884244D0C64930314B
:101B5000206888423FD0C4494831206888423AD042
:101B6000C14960312068884235D0BF49783120684A
:101B7000884230D0BC499031206888422BD0BA4985
:101B8000A8312068884226D0B8492068884222D0EF
:101B9000B6491831206888421DD0B44930312068D8
:101BA000884218D0B14948312068884213D0AF49E3
:101BB0006031206888420ED0AC4978312068884274
:101BC00009D0AA4990312068884204D0A749A83199
:101BD0002068884204D12068006800F0040003E017
:101BE0002068006800F0080080B12068006820F0DC
:101BF00004002168086094F85C0000F01F010820D0
:101C00008840B060606D40F00100606594F85C0051
:101C100000F01F01012088403840E8B39249206855
:101C2000884200E0B7E24BD08F49183120688842E3
:101C300046D08D4930312068884241D08A494831A8
:101C4000206888423CD0884960312068884237D07B
:101C5000854978312068884232D0834990312068A4
:101C600088422DD08049A8312068884228D07F49F9
:101C70002068884224D07D491831206888421FD0CE
:101C80007A493031206888421AD078494831206832
:101C9000884215D0754900E026E06031206888420E
:101CA0000ED0724978312068884209D06F4990314E
:101CB0002068884204D06D49A8312068884204D148
:101CC0002068406900F0800002E020680068002081
:101CD00050B194F85C0000F01F0101208840B06012
:101CE000606D40F00200606594F85C0000F01F0138
:101CF000042088403840E8B35B49206888424BD0D4
:101D0000594918312068884246D0574930312068F7
:101D1000884241D054494831206888423CD05249D9
:101D200060312068884237D04F4978312068884236
:101D300032D04D499031206888422DD04A49A8318F
:101D40002068884228D049492068884224D04749E1
:101D50001831206888421FD04449303120688842B9
:101D60001AD0424948312068884215D03F49603135
:101D7000206800E024E088420ED03C497831206899
:101D8000884209D0394990312068884204D03749C7
:101D9000A8312068884204D12068006800F0020061
:101DA00002E020680068002050B194F85C0000F068
:101DB0001F0104208840B060606D40F00400606541
:101DC00094F85C0000F01F01102088403840E8B310
:101DD00025492068884251D023491831206888421B
:101DE0004CD0214930312068884247D01E494831C3
:101DF0002068884242D01C496031206888423DD02A
:101E0000194978312068884238D0174990312068C4
:101E1000884233D01449A831206888422ED0134913
:101E2000206888422AD0114918312068884225D07C
:101E30000E4930312068884220D00C494831206852
:101E400088421BD009496031206800E04DE088429B
:101E500014D006497831206888420FD00349903168
:101E6000206805E014000024100002401004024025
:101E7000884203D0FE492068884204D12068006867
:101E800000F0080003E02068006800F0040060B380
:101E900094F85C0000F01F0110208840B0602068BA
:101EA000006800F4802080B12068006800F4002001
:101EB00028B9206CC8B12046216C884715E0A06C79
:101EC00098B12046A16C88470FE02068006800F4B4
:101ED000807028B92068006820F008002168086038
:101EE000206C10B12046216C884794F85C0000F00B
:101EF0001F0120208840384000287DD0DD4920681F
:101F0000884249D0DB4918312068884244D0D949F9
:101F10003031206888423FD0D64948312068884215
:101F20003AD0D44960312068884235D0D1497831DF
:101F30002068884230D0CF499031206888422BD029
:101F4000CC49A8312068884226D0C949A8392068E0
:101F5000884221D0C6499039206888421CD0C449A3
:101F600078392068884217D0C14960392068884292
:101F700012D0BF494839206888420DD0BC49303959
:101F80002068884208D0BA4918392068884203D0AE
:101F9000B7492068884204D12068006800F010002A
:101FA00003E02068006800F0020028B394F85C00A9
:101FB00000F01F0120208840B06094F8350004280C
:101FC0002DD12068006820F0160021680860206884
:101FD000406920F0800021684861206C08B9A06C3D
:101FE00028B12068006820F008002168086094F893
:101FF0005C0000F01F0100E03FE03F208840B0603F
:10200000012084F8350000BF002084F8340000BFB0
:10201000206D10B12046216D8847BDE8F88F2068FB
:10202000006800F4802080B12068006800F400207F
:1020300028B9606C08B32046616C88471DE0E06BEE
:10204000D8B12046E16B884717E02068006800F4AB
:10205000807068B92068006820F01000216808606E
:10206000012084F8350000BF002084F8340000BF50
:10207000E06B10B12046E16B8847606D00287AD094
:10208000606D00F00100E8B3042084F83500794960
:10209000206888424BD0774918312068884246D062
:1020A000744930312068884241D0724948312068F3
:1020B00088423CD06F4960312068884237D06D49F2
:1020C00078312068884232D06A499031206888424D
:1020D0002DD06849A8312068884228D06449A839A1
:1020E0002068884223D062499039206888421ED0F7
:1020F0005F4978392068884219D05D496039206885
:10210000884200E040E012D05949483920688842AE
:102110000DD0574930392068884208D054491839C1
:102120002068884203D052492068884206D120683E
:10213000006820F001002168086005E02068006860
:1021400020F001002168086000BF0098401C00904A
:10215000504500D905E02068006800F00100002823
:10216000F3D100BF2068006800F0010020B1032017
:1021700084F8350003E00DE0012084F8350000BF4D
:10218000002084F8340000BFE06C002802D0204614
:10219000E16C8847D9E138492068884222D0364925
:1021A0001431206888421DD0334928312068884284
:1021B00018D031493C312068884213D02E49503123
:1021C000206888420ED02C4964312068884209D0AA
:1021D000294978312068884204D027498C31206809
:1021E000884201D1012000E000200028D2D02068E0
:1021F000056894F85C0000F01F010420884000EAA4
:102200000900D8B305F00400C0B394F85C0000F0F6
:102210001F0104208840C8F8040005F4004080B184
:1022200005F4803030B9A06C0028B3D02046A16CF2
:1022300088478AE1206C0028ACD02046216C884772
:1022400083E105F02000E8BB0A492068884253D0AA
:1022500008491831206888424ED00649303120683C
:10226000884249D0034948312068884244D006E07A
:10227000B804024010000240085402584FE0B4492C
:1022800060312068884237D0B1497831206888426F
:1022900032D0AF499031206888422DD0AC49A83166
:1022A0002068884228D0AB492068884224D0A949B8
:1022B0001831206888421FD0A649303120688842F2
:1022C0001AD000E025E0A34948312068884213D0A5
:1022D000A0496031206888420ED09E49783120683C
:1022E000884209D09B4990312068884204D099499E
:1022F000A8312068884206D12068006820F00800D4
:102300002168086005E02068006820F0040021686A
:102310000860206C10B32046216C884715E194F8C2
:102320005C0000F01F010220884000EA0900E8B3C9
:1023300005F00200D0B394F85C0000F01F01022009
:102340008840C8F8040005F4004070B105F48030FE
:1023500028B9606C10B12046616C8847F5E0E06BED
:10236000F0B32046E16B8847EFE005F02000C0BBEA
:102370007749206888424ED07549183120688842D4
:1023800049D0734930312068884244D0704948317F
:10239000206888423FD06E496031206888423AD038
:1023A0006B4978312068884235D000E04EE06849BA
:1023B0009031206888422ED06549A8312068884233
:1023C00029D064492068884225D0624918312068A4
:1023D000884220D05F493031206888421BD001E01C
:1023E0006EE02DE05B4948312068884213D059499E
:1023F0006031206888420ED0564978312068884282
:1024000009D0544990312068884204D05149A831FC
:102410002068884206D12068006820F014002168F6
:10242000086005E02068006820F00A002168086064
:10243000012084F8350000BF002084F8340000BF7C
:10244000E06BE8B32046E16B88477EE094F85C00DF
:1024500000F01F010820884000EA090080B305F061
:10246000080068B33A49206888424BD0384918318F
:102470002068884246D0364930312068884241D0B1
:1024800033494831206888423CD031496031206866
:10249000884237D02E4978312068884232D02C4982
:1024A0009031206888422DD02949A831206888427F
:1024B00028D028492068884224D02649183100E0D5
:1024C00043E0206888421DD022493031206888428C
:1024D00018D0204948312068884213D01D49603106
:1024E000206888420ED01B4978312068884209D084
:1024F000184990312068884204D01649A8312068D4
:10250000884206D12068006820F01C00216808601D
:1025100005E02068006820F00E002168086094F84B
:102520005C0000F01F0101208840C8F80400012071
:10253000606584F8350000BF002084F8340000BFD7
:10254000E06C10B12046E16C884700BF65E50000F3
:1025500010000240100402402DE9F041044600F052
:1025600027FE804614B90120BDE8F081FE492068AD
:10257000884249D0FC4918312068884244D0FA4941
:102580003031206888423FD0F7494831206888427E
:102590003AD0F54960312068884235D0F249783127
:1025A0002068884230D0F0499031206888422BD092
:1025B000ED49A8312068884226D0EC49206888423D
:1025C00022D0EA491831206888421DD0E7493031CD
:1025D0002068884218D0E54948312068884213D0E5
:1025E000E2496031206888420ED0E04978312068A5
:1025F000884209D0DD4990312068884204D0DB4907
:10260000A8312068884201D1012000E00020002884
:1026100073D0606A00B100BF022084F8350000BFAB
:10262000002084F8340000BFCF492068884249D098
:10263000CD4918312068884244D0CB4930312068D8
:1026400088423FD0C8494831206888423AD0C649BC
:1026500060312068884235D0C3497831206888428B
:1026600030D0C1499031206888422BD0BE49A83172
:102670002068884226D0BD492068884222D0BB49C4
:102680001831206888421DD0B8493031206888420E
:1026900018D0B64948312068884213D0B349603118
:1026A000206888420ED0B14978312068884209D02C
:1026B000AE4990312068884204D0AC49A8312068E6
:1026C000884206D12068006820F001002168086077
:1026D00005E02068006820F00100216808600DE036
:1026E00000F066FDA0EB0800052807D920206065F2
:1026F000032084F83500012036E76AE0206800688E
:1027000000F001000028EBD12068056898480540DA
:10271000D4E9020108432169084361690843A169BA
:102720000843E1690843216A08430543606A0428B5
:1027300003D1D4E90B01084305438E4800686FF3C9
:102740000F00B0F1005F1DD36068292802D36068D4
:102750002E2811D960683F2802D3606842280BD91F
:102760006068472802D36068482805D960684F2808
:1027700004D36068522801D8012000E0002008B18D
:1027800045F48015206805602068456925F0070537
:10279000606A0543606A04280DD1A06A0543E06AB7
:1027A00048B12046FEF748FE28B140206065012070
:1027B00084F83500D8E6206845612046FEF718FD0C
:1027C000064694F85C0000F01F013F208840B0608E
:1027D0009EE069492068884222D067491431206808
:1027E00088421DD0644928312068884218D0624947
:1027F0003C312068884213D05F49503120688842BC
:102800000ED05D4964312068884209D05A49783138
:102810002068884204D058498C312068884201D110
:10282000012000E00020E0B353492068884222D014
:1028300051491431206888421DD04F492831206801
:10284000884218D04C493C312068884213D04A490C
:102850005031206888420ED0474964312068884250
:1028600009D0454978312068884204D042498C31EA
:102870002068884201D1012000E0002000B100BFA3
:10288000022084F8350000BF002084F8340000BF27
:102890002068056839480540A068402802D1102109
:1028A00006E02EE0A068802801D1C10100E00021EF
:1028B000E06841EAD001206941EAD001606941EA5B
:1028C000D001A06941EAD001E06941EAD001206A63
:1028D00041EA101005432068056027492068401A26
:1028E0001421B0FBF1F08000E0652046FEF780FC8B
:1028F000074694F85C0000F01F01012088407860D2
:1029000006E040206065032084F8350001202BE6B6
:102910001549206888427FD01349183120688842C1
:102920007AD0114930312068884275D00E4948313B
:102930002068884270D00C496031206888426BD092
:10294000094978312068884266D00749903120686B
:10295000884261D00449A831206888425CD003498C
:102960002068884258D00BE010000240100402405A
:102970003F8010FE0010005C085402580F00FEFF5C
:102980003B4918312068884246D0394930312068A7
:10299000884241D036494831206888423CD0344989
:1029A00060312068884237D03149783120688842C8
:1029B00032D02F499031206888422DD02C49A8313F
:1029C0002068884228D02B492068884224D0294991
:1029D0001431206888421FD0264928312068884257
:1029E0001AD024493C312068884215D02149503101
:1029F0002068884210D01F496431206888420BD07B
:102A00001C4978312068884206D01A498C312068E8
:102A1000884200E000E001D1012000E0002000B386
:102A20002046FEF75BFCA068802801D10020606092
:102A30002079216E0860D4E919104860606860B19F
:102A40006068082809D82046FEF7AAFC0020E16E3D
:102A50000860D4E91C10486003E00020E0662067AD
:102A6000606700206065012084F8350000207BE568
:102A7000100402400854025810B5034600240BB954
:102A8000012010BD00BF93F83400012801D10220BD
:102A9000F7E7012083F8340000BF93F835000128E0
:102AA00015D1062910D2DFE801F0030507090B0D47
:102AB000DA630BE01A6409E05A6407E09A6405E0FF
:102AC000DA6403E01A6501E0012400BF00E001249C
:102AD00000BF002083F8340000BF2046D1E700008B
:102AE0002DE9F04104460D4616461F464FF00008FA
:102AF00014B90120BDE8F08100BF94F8340001282A
:102B000001D10220F6E7012084F8340000BF94F8D8
:102B1000350001287ED1022084F835000020606550
:102B2000E4492068884249D0E24918312068884247
:102B300044D0E0493031206888423FD0DD494831F7
:102B4000206888423AD0DB4960312068884235D01D
:102B5000D84978312068884230D0D64990312068F1
:102B600088422BD0D349A8312068884226D0D24948
:102B70002068884222D0D0491831206888421DD070
:102B8000CD4930312068884218D0CB49483120687F
:102B9000884213D0C8496031206888420ED0C649A7
:102BA00078312068884209D0C34990312068884232
:102BB00004D0C149A8312068884206D12068006845
:102BC00020F001002168086005E02068006820F01E
:102BD0000100216808603B46324629462046FEF740
:102BE00083FCB449206888424BD0B2491831206830
:102BF000884246D0AF4930312068884241D0AD4943
:102C00004831206888423CD0AA4960312068884217
:102C100037D000E042E1A74978312068884230D0BF
:102C2000A4499031206888422BD0A249A83120685D
:102C3000884226D0A0492068884222D09E49183177
:102C4000206888421DD09C4930312068884218D0C5
:102C5000994948312068884213D0974960312068EB
:102C600088420ED0944978312068884209D0924930
:102C700090312068884204D08F49A831206888426A
:102C800001D1012000E0002080B12068006820F020
:102C90001E0040F0160021680860206CB0B120686A
:102CA000006840F00800216808600FE020680068B4
:102CB00020F00E0040F00A0021680860206C28B166
:102CC0002068006840F004002168086079492068A5
:102CD000884270D077491831206888426BD0754996
:102CE00030312068884266D0724948312068884275
:102CF00061D070496031206888425CD06D4978317C
:102D00002068884257D06B4990312068884252D061
:102D10006849A831206888424DD0674920688842B8
:102D200049D0654918312068884244D06249303121
:102D3000206888423FD060494831206888423AD0B4
:102D40005D4960312068884235D05B497831206820
:102D5000884230D058499031206888422BD056495B
:102D6000A8312068884226D054492068884222D061
:102D700052491431206888421DD0504928312068BA
:102D8000884218D04D493C312068884213D04B49C5
:102D90005031206888420ED048496431206888420A
:102DA00009D0464978312068884204D043498C31A3
:102DB0002068884201D1012000E0002090B1206EFF
:102DC000006800F4803028B1206E006840F4807004
:102DD000216E0860E06E28B1E06E006840F48070FB
:102DE000E16E086033492068884249D03149183182
:102DF0002068884244D02F493031206888423FD033
:102E00002C494831206888423AD02A4960312068EC
:102E1000884235D0274978312068884230D025490A
:102E20009031206888422BD02249A83120688842FE
:102E300026D021492068884222D01F4918312068B5
:102E400088421DD01C4930312068884218D01A4968
:102E500048312068884213D0174960312068884281
:102E60000ED0154978312068884209D01249903136
:102E70002068884204D01049A8312068884206D1D1
:102E80002068006840F001002168086010E02068B8
:102E9000006840F001002168086009E04FF400601C
:102EA000606500BF002084F8340000BF4FF00108C7
:102EB00040461FE610000240100402400854025829
:102EC00010B50446A0B20EF0C1FC10BD00B5B5B0FF
:102ED000142130A8FDF7BAFC2848006808B135B0C5
:102EE00000BD012025490860BC2101A8FDF7AEFC0A
:102EF0004FF080700190052002905821039102212B
:102F000004910591069180210791002108910220EA
:102F1000129001A800F0E2FF08B1FEF720FC00BF0C
:102F20001748006840F4805015490860084600685A
:102F300000F48050009000BF00BF4FF680703090CA
:102F40000220319000203290032033900C203490E6
:102F500030A90C4800F01AF84EF2B37030900220FD
:102F6000319000203290032033900C20349030A90F
:102F7000054800F00BF800BFB1E700000000002496
:102F8000D444025800100258000C0258F8B502460A
:102F90000B4600216F4DD7E001278F401E6806EADF
:102FA0000704002C72D01E7906F00306012E04D00F
:102FB0001E7906F00306022E13D190684F000326F7
:102FC000BE40B0434F00DE68BE4030439060506862
:102FD00001268E40B0431E79C6F300168E40304362
:102FE00050601E7906F00306032E09D0D0684F000A
:102FF0000326BE40B0434F009E68BE403043D060C1
:103000001E7906F00306022E13D1CF0802F1200626
:1030100056F827004E07F70E0F26BE40B0434F0765
:10302000FF0E1E69BE403043CF0802F1200646F86D
:10303000270010684F000326BE40B0431E7906F0FB
:1030400003064F00BE40304310605E6806F4403611
:10305000002E78D000BF404E366846F002063E4F44
:103060003E603E46366806F00206009600BF00BF8E
:103070003A4E8F0856F827008E07370F0F26BE40AE
:10308000B043374EB24202D100262EE05BE0354E0F
:10309000B24201D1012628E0334EB24201D10226CC
:1030A00023E0324EB24201D103261EE0304EB2423E
:1030B00001D1042619E02F4EB24201D1052614E0B9
:1030C0002D4EB24201D106260FE02C4EB24201D164
:1030D00007260AE02A4EB24201D1082605E0294E11
:1030E000B24201D1092600E00A268F073F0FBE40F9
:1030F00030431A4E8F0846F827004FF0B04630682C
:10310000A0435E6806F4801606B120434FF0B04637
:1031100030607068A0435E6806F4001606B1204374
:103120004FF0B04670606868A0435E6806F40036F1
:1031300006B1204368602868A0435E6806F48036C4
:1031400006B120432860491C1E68CE40002E7FF443
:1031500023AFF8BD80000058F4440258080400581A
:10316000000002580004025800080258000C0258DF
:10317000001002580014025800180258001C02588F
:103180000020025800240258024613690B400BB17C
:10319000012000E0002070470AB1816101E00B04CA
:1031A0008361704701480068000C70470010005CA4
:1031B00001480068704700000800002403480068C8
:1031C0000349097808440149086070470800002451
:1031D0001000002410B5032000F0C2F901F00AFE2F
:1031E00010490968C1F303210F4A515C01F01F0126
:1031F00020FA01F40B48006800F00F001146085C4B
:1032000000F01F0024FA00F0084908600848046034
:103210000F2000F00FF808B1012010BD00F09AF85F
:103220000020FAE718440258581E04081800002429
:103230001400002470B504461148007808B9012034
:1032400070BD0F4800784FF47A71B1FBF0F00D4972
:103250000968B1FBF0F5284602F017FC08B101201F
:10326000EEE7102C07D200222146501E00F03AF95A
:103270000548046001E00120E2E70020E0E70000EB
:1032800010000024140000240C0000244178154A8A
:1032900011600178F9B1121D41681160017B0907C5
:1032A000C27A41EA0261827A41EAC241427B41EA42
:1032B0008241827B41EA4241C27B41EA0241427A39
:1032C00041EA0221027A41EA420102781143054AA9
:1032D0000832116005E00021024A121D1160121D22
:1032E0001160704798ED00E000BF00BF00BFBFF362
:1032F0005F8F00BF00BF00BF0548006820F480302A
:1033000003490860002002497031086070470000DE
:1033100024ED00E040F001010D4A11600C497039C4
:10332000096841F480310A4A703A116000BF00BF59
:1033300000BFBFF34F8F00BF00BF00BF00BF00BF83
:1033400000BFBFF36F8F00BF00BF00BF704700001A
:1033500094ED00E008B500BF0648006840F00200A8
:10336000044908600846006800F00200009000BFB1
:1033700000BF08BDF444025870B504460E46154619
:103380000CB9012070BD94F8210028B9002084F800
:103390002000204600F022F8211D2068FEF702FAE6
:1033A0003146D4E90002FEF7EDF92946D4E90002DE
:1033B000FEF7D8F92068006840F004002168086032
:1033C0000548006840F0004003490860012084F887
:1033D00021000020D6E700000040005210B586B062
:1033E000044600BF3148006840F480502F4908600F
:1033F0000846006800F48050009000BF00BF00BF86
:103400002A480C30006840F0080028490C31086058
:103410000846006800F00800009000BF00BF00BF31
:103420000846006840F0100008600846006800F098
:103430001000009000BF00BF00BF0846006840F0C9
:10344000400008600846006800F04000009000BF9F
:1034500000BF402001900020029001200390032033
:10346000049001A91248FFF791FD4FF400700190FC
:103470000220029000200390032004900C2005906D
:1034800001A90C48FFF782FD4DF6330001900020A2
:10349000039001A90648FFF779FD4FF4F060019011
:1034A00001A90548FFF772FD06B010BDD4440258CB
:1034B000000C025800180258001002580146084635
:1034C00000280DDB00BF00BF00F01F0301229A405F
:1034D00043099B0003F1E023C3F8002100BF00BFB4
:1034E00000BF70472DE9F05F80460D46164606F096
:1034F00047FE074639462A46334601F00700C0F129
:10350000070ABAF1040F02D94FF0040A01E0C0F132
:10351000070AD14600F1040ABAF1070F02D24FF0B0
:10352000000A01E0A0F1030AD4464FF0010A0AFAAA
:1035300009FAAAF1010A0AEA020A0AFA0CFA4FF099
:10354000010B0BFA0CFBABF1010B0BEA030B4AEA84
:103550000B042146404606F01BFEBDE8F09F00002C
:1035600000BF00F00702064B19684FF6FF03194031
:10357000044B0B4343EA0221014B196000BF704723
:103580000CED00E00000FA0570B50446154800682F
:10359000C0F3800048B91348006800F00700A0425B
:1035A00001D0012070BD0020FCE70E48006820F02B
:1035B000070020430B490860FFF7FAFD054607E0C6
:1035C000FFF7F6FD401BB0F57A7F01D90120E9E74E
:1035D000044808380068C0F340300028F0D00020CC
:1035E000E0E700000C4802582DE9F84304460D4678
:1035F0001746FFF7DDFD8046A86900B100BFE86906
:1036000000B100BF286A00B100BF00BF94F84000BD
:10361000012802D10220BDE8F883012084F840008F
:1036200000BF94F84100012828D1002060640220E6
:1036300084F841004346002220212046009703F0F1
:10364000B0FC0646DEB900222946204603F0B5FB51
:10365000686A78B94346012202212046009703F0A8
:10366000A0FC06465EB902202168C860012084F8EB
:10367000410004E0012084F8410000E0022600BF80
:10368000002084F8400000BF3046C4E7F8B5044687
:10369000FFF78EFD06460CB90120F8BD206A4028D0
:1036A00000D000BF94F8410038B9204600F046F839
:1036B00041F28831204600F063F92068006820F468
:1036C0007061A068401E41EA002021680860A06C7B
:1036D0003346002220210090204603F062FC05467C
:1036E00035BB2179E06840EA0160E1690843216A5D
:1036F0000843216809680F4A11400843216808609F
:10370000208A616941EA0040A1690843216849684B
:10371000094A11400843216848602068006840F069
:1037200001002168086000206064012084F84100E5
:103730002846B2E72FFFFF00FEF8E0FF10B586B085
:10374000044600BF5248006840F480405049086079
:103750000846006800F48040009000BF00BF00BF32
:1037600000BF4B480C30006840F0020048490C3163
:1037700008600846006800F00200009000BF00BF2B
:1037800000BF00BF00BF0846006840F002000860AC
:103790000846006800F00200009000BF00BF00BFB4
:1037A00000BF00BF0846006840F0200008600846DF
:1037B000006800F02000009000BF00BF00BF00BF05
:1037C00000BF0846006840F0200008600846006816
:1037D00000F02000009000BF00BF00BF00BF00BF8E
:1037E0000846006840F0200008600846006800F0C5
:1037F0002000009000BF00BF00BF00BF00BF084610
:10380000006840F0200008600846006800F02000D2
:10381000009000BF00BF00BF402001900220029036
:1038200001200390032004900A20059001A9194863
:10383000FFF7ACFB4FF4807001900020039001A9CA
:103840001548FFF7A3FB4FF4007001900020039090
:1038500001A91148FFF79AFB042001900220029071
:1038600000200390032004900920059001A9094835
:10387000FFF78CFB4020019001A90748FFF786FB6A
:103880008020019001A90448FFF780FB06B010BD1D
:10389000D444025800040258001402582DE9F84F8D
:1038A00004460E4617460025FFF782FC8046206836
:1038B000D0F81890206800F1200A00BF94F840006A
:1038C000012802D10220BDE8F88F012084F84000D1
:1038D00000BF94F8410001284AD100206064002E06
:1038E00040D0222084F8410020680069401CA06379
:1038F00020680069401C606326632068406920F0EE
:10390000406040F08060216848612068C0F81890ED
:1039100013E04346012206212046009703F041FBB5
:10392000054605B10CE09AF80000216B0870206B89
:10393000401C2063A06B401EA063A06B0028E8D150
:1039400000BF5DB94346012202212046009703F0E3
:1039500028FB054615B902202168C860012084F8BB
:10396000410006E0606C40F008006064012500E062
:10397000022500BF002084F8400000BF2846A2E7CF
:10398000816470472DE9F84304460E46174600252A
:10399000FFF70EFC8046206800F1200900BF94F874
:1039A0004000012802D10220BDE8F883012084F8FC
:1039B000400000BF94F84100012845D10020606418
:1039C000002E3BD0122084F8410020680069401C82
:1039D000E06220680069401CA0626662206840695D
:1039E00020F040602168486113E043460122042131
:1039F0002046009703F0D5FA054605B10CE0606A51
:103A0000007889F80000606A401C6062E06A401E2D
:103A1000E062E06A0028E8D100BF5DB943460122B8
:103A200002212046009703F0BCFA054615B9022092
:103A30002168C860012084F8410006E0606C40F015
:103A400008006064012500E0022500BF002084F822
:103A5000400000BF2846A7E710B501F081F90549ED
:103A60000968C1F30211044A515C01F01F01C8400A
:103A700010BD000020440258581E040870B50146CD
:103A8000844D2D6805F00303824D2D68C5F3053084
:103A9000804D2D1D2D68C5F300147E4D14352D6805
:103AA000C5F3CC0515FB04F501EE105AB8EE411A2A
:103AB000F0EE410A00286FD023B1012B4ED0022B2B
:103AC0006BD16BE0734D283D2D68C5F340153DB3B8
:103AD000704D283D2D68C5F3C1066F4D25FA06F2DD
:103AE00001EE102AF8EE411A01EE100AB8EE411A62
:103AF00081EE812A9FED691AC0EE811A654D10355D
:103B00002D68C5F3080501EE105AB8EE411A31EEE2
:103B1000811AF7EE001A31EE211A22EE010A1CE09A
:103B200001EE100AB8EE411ADFED5D1A81EE812A2E
:103B30009FED5A1AC0EE811A564D10352D68C5F307
:103B4000080501EE105AB8EE411A31EE811AF7EE6F
:103B5000001A31EE211A22EE010A5BE001EE100A92
:103B6000B8EE411ADFED4F1A81EE812A9FED4B1A14
:103B7000C0EE811A474D10352D68C5F3080501EEDA
:103B8000105AB8EE411A31EE811AF7EE001A31EEF2
:103B9000211A22EE010A3DE077E01DE001EE100A55
:103BA000B8EE411A9FED402AC2EE011A9FED3B1A72
:103BB00080EE812A374D10352D68C5F3080501EEDA
:103BC000105AB8EE411A32EE011AB7EE002A31EE61
:103BD000021A21EE810A1DE001EE100AB8EE411A28
:103BE000DFED301A81EE812A9FED2C1AC0EE811A8A
:103BF000284D10352D68C5F3080501EE105AB8EEB2
:103C0000411A31EE811AF7EE001A31EE211A22EE36
:103C1000010A00BF00BF1F4D10352D68C5F34625B2
:103C200001EE105AB8EE411AF7EE001A31EE211AE1
:103C3000C0EE011ABCEEE11A81ED001A154D1035E7
:103C40002D68C5F3064501EE105AB8EE411AF7EE9D
:103C5000001A31EE211AC0EE011ABCEEE11A81ED14
:103C6000011A0C4D10352D68C5F3066501EE105A8A
:103C7000B8EE411AF7EE001A31EE211AC0EE011A21
:103C8000BCEEE11A81ED021A03E000250D604D60E3
:103C90008D6070BD284402580090D003000000469B
:103CA0000024744C0024744A20BCBE4B70B50146FD
:103CB000844D2D6805F00303824D2D68C5F3055032
:103CC000804D2D1D2D68C5F300247E4D1C352D68BB
:103CD000C5F3CC0515FB04F501EE105AB8EE411AF8
:103CE000F0EE410A00286FD023B1012B4ED0022BF9
:103CF0006BD16BE0734D283D2D68C5F340153DB386
:103D0000704D283D2D68C5F3C1066F4D25FA06F2AA
:103D100001EE102AF8EE411A01EE100AB8EE411A2F
:103D200081EE812A9FED691AC0EE811A654D183522
:103D30002D68C5F3080501EE105AB8EE411A31EEB0
:103D4000811AF7EE001A31EE211A22EE010A1CE068
:103D500001EE100AB8EE411ADFED5D1A81EE812AFC
:103D60009FED5A1AC0EE811A564D18352D68C5F3CD
:103D7000080501EE105AB8EE411A31EE811AF7EE3D
:103D8000001A31EE211A22EE010A5BE001EE100A60
:103D9000B8EE411ADFED4F1A81EE812A9FED4B1AE2
:103DA000C0EE811A474D18352D68C5F3080501EEA0
:103DB000105AB8EE411A31EE811AF7EE001A31EEC0
:103DC000211A22EE010A3DE077E01DE001EE100A23
:103DD000B8EE411A9FED402AC2EE011A9FED3B1A40
:103DE00080EE812A374D18352D68C5F3080501EEA0
:103DF000105AB8EE411A32EE011AB7EE002A31EE2F
:103E0000021A21EE810A1DE001EE100AB8EE411AF5
:103E1000DFED301A81EE812A9FED2C1AC0EE811A57
:103E2000284D18352D68C5F3080501EE105AB8EE77
:103E3000411A31EE811AF7EE001A31EE211A22EE04
:103E4000010A00BF00BF1F4D18352D68C5F3462578
:103E500001EE105AB8EE411AF7EE001A31EE211AAF
:103E6000C0EE011ABCEEE11A81ED001A154D1835AD
:103E70002D68C5F3064501EE105AB8EE411AF7EE6B
:103E8000001A31EE211AC0EE011ABCEEE11A81EDE2
:103E9000011A0C4D18352D68C5F3066501EE105A50
:103EA000B8EE411AF7EE001A31EE211AC0EE011AEF
:103EB000BCEEE11A81ED021A03E000250D604D60B1
:103EC0008D6070BD284402580090D0030000004669
:103ED0000024744C0024744A20BCBE4B2DE9F041F0
:103EE00004460025A846206800F00060B0F1006F8D
:103EF00030D1606E48B1B0F5801F0DD0B0F5001F15
:103F000010D0B0F5401F15D113E0F948006840F417
:103F10000030F74908600FE00221201D03F068F827
:103F2000054609E0022104F1240003F013F90546D7
:103F300002E001E0012500BF00BF55B9EC48243084
:103F4000006820F44010616E0843E949243108609C
:103F500000E0A846208800F48070B0F5807F2DD165
:103F6000606D05281AD2DFE800F0030A1017180068
:103F7000DF48006840F40030DD49086010E00021AF
:103F8000201D03F035F805460AE0002104F1240065
:103F900003F0E0F8054603E002E001E0012500BF80
:103FA00000BF55B9D2482430006820F00700616D89
:103FB0000843CF492431086000E0A846208800F477
:103FC0000070B0F5007F33D1A06D802817D003DCDE
:103FD00040B140281CD10CE0C02817D0B0F5807F3C
:103FE00016D114E0C248006840F40030C0490860AF
:103FF00010E00021201D02F0FBFF05460AE0002131
:1040000004F1240003F0A6F8054603E002E001E015
:10401000012500BF00BF55B9B5482430006820F421
:10402000E070A16D0843B2492431086000E0A84661
:10403000208800F48060B0F5806F38D1D4F8A400F7
:10404000B0F5800F19D004DC50B1B0F5001F1DD1C0
:104050000DE0B0F5C00F17D0B0F5000F16D114E089
:10406000A348006840F40030A149086010E0002136
:10407000201D02F0BDFF05460AE0002104F12400E6
:1040800003F068F8054603E002E001E0012500BF07
:1040900000BF5DB996482C30006820F46000D4F869
:1040A000A410084392492C31086000E0A8462088FB
:1040B00000F40060B0F5006F38D1D4F8A800B0F17A
:1040C000007F19D004DC50B1B0F1807F1DD10DE02C
:1040D000B0F1407F17D0B0F1806F16D114E0844862
:1040E000006840F400308249086010E00021201D83
:1040F00002F07EFF05460AE0002104F1240003F0EF
:1041000029F8054603E002E001E0012500BF00BFF9
:104110005DB977482C30006820F0E060D4F8A81032
:10412000084373492C31086000E0A846206800F07D
:104130000070B0F1007F27D1A06CA0B1102804D08E
:10414000202809D030280FD10CE06948006840F4DD
:1041500000306749086009E00221201D02F048FF95
:10416000054603E002E001E0012500BF00BF55B9AC
:104170005F482030006820F03000A16C08435C49A3
:104180002031086000E0A846208800F48050B0F597
:10419000805F36D1E06DB0F5005F19D004DC50B11E
:1041A000B0F5805F1DD10DE0B0F5405F17D0B0F5E0
:1041B000804F16D114E04E48006840F400304C495E
:1041C000086010E00021201D02F012FF05460AE001
:1041D000002104F1240002F0BDFF054603E002E0E7
:1041E00001E0012500BF00BF55B9414824300068F7
:1041F00020F4E040E16D08433D492431086000E0CF
:10420000A846208800F40050B0F5005F34D1206E3D
:10421000B0F5403F1DD007DC68B1B0F5803F0BD052
:10422000B0F5003F18D10DE0B0F5802F12D0B0F5F9
:10423000A02F11D10FE011E00121201D02F0D8FEC6
:1042400005460BE0012104F1240002F083FF05463E
:1042500004E003E002E001E0012500BF00BF55B922
:1042600023482430006820F4E020216E08432049D0
:104270002431086000E0A846208800F48040B0F5B2
:10428000804F38D1D4F8AC00B0F1405F1DD007DCCE
:1042900068B1B0F1805F0BD0B0F1005F18D10DE0D4
:1042A000B0F1804F12D0B0F1A04F11D10FE011E06A
:1042B0000121201D02F09CFE05460BE0012104F1C6
:1042C000240002F047FF054604E003E002E001E0BD
:1042D000012500BF00BF6DB905482C30006820F0F3
:1042E000E040D4F8AC10084301492C31086002E0EA
:1042F0002C440258A846208800F40040B0F5004F36
:1043000026D1E06E98B1B0F1805F03D0B0F1005FCC
:104310000ED106E0F948006840F40030F749086023
:1043200008E00121201D02F063FE054602E001E0E5
:10433000012500BF00BF55B9F0482430006820F0C7
:104340004050E16E0843ED492431086000E0A84682
:10435000206800F08070B0F1807F27D1606CA0B140
:10436000012804D0022809D003280FD10CE0E3482B
:10437000006840F40030E149086009E00221201D96
:1043800002F036FE054603E002E001E0012500BF31
:1043900000BF55B9D9482030006820F00300616C97
:1043A0000843D6492031086000E0A846206800F4A0
:1043B0008000B0F5800F7DD1D148006840F4807056
:1043C000CF490860FEF7F4FE064606E0FEF7F0FE71
:1043D000801B642801D9032505E0C948006800F462
:1043E00080700028F2D000BF85BBC448443000680C
:1043F00000F44070B4F8B01001F44071884213D05A
:10440000BE484430006820F44077BC48443000681F
:1044100040F48030B949443108600846006820F40F
:104420008030086008460760D4F8B000B0F5807F9F
:1044300015D1FEF7BDFE064609E0FEF7B9FE801B6A
:1044400041F28831884202D9032507E038E0AB48C1
:1044500044300068C0F340000028EED000BF55BBD8
:1044600000BFB4F8B00000F44070B0F5407F0ED14A
:10447000A2481C38006820F47C51A24AD4F8B0004D
:10448000104041EA10109D491C39086007E09B4824
:104490001C38006820F47C5098491C390860974803
:1044A00044300068B4F8B010C1F30B0108439349DD
:1044B000443101E005E001E0086002E0A84600E0C8
:1044C000A846207800F0010068B3A06F182819D022
:1044D00005DC48B1082808D0102816D10BE02028A8
:1044E00011D0282811D10FE011E00121201D02F088
:1044F0007FFD05460BE0012104F1240002F02AFEB5
:10450000054604E003E002E001E0012500BF00BF32
:1045100055B97A482830006820F03800A16F084368
:1045200076492831086000E0A846207800F00200B3
:10453000022828D1606F062815D2DFE800F00304B6
:104540000A11121311E00121201D02F051FD054650
:104550000BE0012104F1240002F0FCFD054604E01B
:1045600003E002E001E0012500BF00BF55B9634848
:104570002830006820F00700616F08435F49283148
:10458000086000E0A846207800F0040004282AD142
:10459000D4F89000062815D2DFE800F003040A11D1
:1045A000121311E00121201D02F022FD05460BE04F
:1045B000012104F1240002F0CDFD054604E003E0F2
:1045C00002E001E0012500BF00BF5DB94B482C307F
:1045D000006820F00700D4F89010084347492C31B8
:1045E000086000E0A846207800F02000202836D19E
:1045F000D4F88C00B0F1405F1DD007DC68B1B0F199
:10460000805F0BD0B0F1005F18D10DE0B0F1804FAA
:1046100012D0B0F1A04F11D10FE011E00021201D08
:1046200002F0E6FC05460BE0022104F1240002F052
:1046300091FD054604E003E002E001E0012500BF32
:1046400000BF5DB92D482830006820F0E040D4F864
:104650008C10084329492831086000E0A8462078DA
:1046600000F04000402836D1D4F89800B0F5406FF3
:104670001DD007DC68B1B0F5806F0BD0B0F5006FCE
:1046800018D10DE0B0F5805F12D0B0F5A05F11D168
:104690000FE011E00021201D02F0AAFC05460BE00E
:1046A000022104F1240002F055FD054604E003E078
:1046B00002E001E0012500BF00BF5DB90F482C30CA
:1046C000006820F4E050D4F8981008430B492C31CE
:1046D000086000E0A846207800F0800080283AD1E9
:1046E000D4F89C00B0F5C04F23D00DDC98B1B0F5E4
:1046F000005F11D0B0F5804F1ED113E02C4402585A
:1047000000480258FFFCFF0FB0F5004F12D0B0F583
:10471000204F11D10FE011E00021201D02F068FCB4
:1047200005460BE0022104F1240002F013FD0546CA
:1047300004E003E002E001E0012500BF00BF4DB945
:10474000BE48006820F46040D4F89C100843BB4980
:10475000086000E0A846207800F00800082817D17B
:10476000D4F88000B0F5805F07D1022104F1240065
:1047700002F0F0FC08B14FF00108B048001F0068DB
:1047800020F44050D4F880100843AC49091F086059
:10479000207800F01000102815D1D4F89400B0F55E
:1047A000807F07D1022104F1240002F0D3FC08B17C
:1047B0004FF00108A148006820F44070D4F894102C
:1047C00008439E490860206800F40020B0F5002FDF
:1047D00026D1D4F8A00030B1B0F5803F09D0B0F5B3
:1047E000003F0ED10CE00021201D02F001FC054627
:1047F00009E0022104F1240002F0ACFC054602E0CD
:1048000001E0012500BF00BF4DB98C48006820F4CD
:104810004030D4F8A01008438849086000E0A8465A
:10482000206800F48020B0F5802F2DD1D4F88400CA
:10483000B0F5801F06D0B0F5001F0CD0B0F5401FBA
:1048400011D10FE07D482C38006840F400307B49DE
:104850002C39086009E0012104F1240002F07AFCFF
:10486000054602E001E0012500BF00BF5DB97348C5
:10487000001F006820F44010D4F8841008436F49EA
:10488000091F086000E0A846206800F48030B0F5F9
:10489000803F24D1E06C18B1B0F5803F0FD108E023
:1048A00066482C38006840F4003064492C390860B0
:1048B00007E00221201D02F09BFB054601E00125D7
:1048C00000BF00BF55B95D480C38006820F4803047
:1048D000E16C084359490C39086000E0A84620689B
:1048E00000F00050B0F1005F07D1022104F1240074
:1048F00002F030FC08B14FF00108206800F40030ED
:10490000B0F5003F27D1E06FA0B1B0F5807F06D0B1
:10491000B0F5007F0CD0B0F5407F0CD109E04748DE
:104920002C38006840F4003044492C39086004E019
:1049300003E002E001E0012500BF00BF55B93F4898
:10494000001F006820F44070E16F08433B49091FD5
:10495000086000E0A846206800F48010B0F5801FD1
:1049600009D136480838006820F00040216F08431C
:10497000324908390860206800F08050B0F1805F4B
:104980000AD12E484838006820F48040D4F8B4108A
:1049900008432A4948390860206800F40010B0F53F
:1049A000001F09D125480838006820F08070A16EEA
:1049B0000843224908390860206800F08040B0F1BF
:1049C000804F11D100BF1D484838006820F40040D6
:1049D0001A494839086008460068D4F8B8100843F6
:1049E00016494839086000BF206800F00040B0F167
:1049F000004F09D111480C38006820F04050216D5B
:104A000008430E490C390860206800F40000B0F536
:104A1000000F0AD10948001F006820F44000D4F8B4
:104A2000881008430549091F0860B8F1000F02D13A
:104A30000020BDE8F0810120FBE700005844025847
:104A40002DE9F04104460D4614B90120BDE8F0817E
:104A5000BD48006800F00F00A8420ED2BA480068B6
:104A600020F00F002843B84908600846006800F0AD
:104A70000F00A84201D00120E8E7207800F00400F0
:104A800004280ED1B1492069096801F070018842FB
:104A900007D9AE48006820F0700021690843AB498F
:104AA0000860207800F00800082811D1A749091DE6
:104AB0006069096801F07001884209D9A348001DA6
:104AC000006820F0700061690843A049091D086072
:104AD000207800F01000102811D19C49091DA06910
:104AE000096801F4E061884209D99848001D00680E
:104AF00020F4E060A16908439449091D086020780A
:104B000000F02000202811D190490831E06909689F
:104B100001F07001884209D98C480830006820F003
:104B20007000E1690843894908310860207800F085
:104B3000020002280ED18549E068096801F00F01E2
:104B4000884207D98148006820F00F00E1680843D7
:104B50007E490860207800F00100002850D07B4892
:104B6000006820F47060A1680843784908606068B4
:104B7000022807D1754818380068C0F34040F8B9DA
:104B8000012063E76068032807D17048183800687F
:104B9000C0F34060A0B9012058E76068012807D140
:104BA0006A4818380068C0F3002048B901204DE772
:104BB000664818380068C0F3800008B9012045E74E
:104BC00062480838006820F00700616808435F49C0
:104BD00008390860FEF7ECFA064608E0FEF7E8FA46
:104BE000801B41F28831884201D903202EE75748C3
:104BF0000838006800F038006168B0EBC10FEDD1F3
:104C0000207800F0020002280ED15049E0680968BF
:104C100001F00F01884207D24C48006820F00F00D5
:104C2000E1680843494908604748006800F00F0000
:104C3000A8420ED94448006820F00F00284342499A
:104C400008600846006800F00F00A84201D001206B
:104C5000FCE6207800F0040004280ED13B492069CE
:104C6000096801F07001884207D23848006820F0D6
:104C700070002169084335490860207800F0080079
:104C8000082811D13149091D6069096801F07001D6
:104C9000884209D22D48001D006820F0700061692B
:104CA00008432A49091D0860207800F010001028E8
:104CB00011D12649091DA069096801F4E061884203
:104CC00009D22248001D006820F4E060A169084371
:104CD0001E49091D0860207800F02000202811D10D
:104CE0001A490831E069096801F07001884209D267
:104CF00016480830006820F07000E1690843134945
:104D00000831086000F076F810490968C1F3032102
:104D10000F4A515C01F01F0120FA01F70B480068AF
:104D200000F00F001146085C00F01F0027FA00F0A9
:104D3000084908600848076008480068FEF77AFAE2
:104D40008046404682E60000002000521844025887
:104D5000581E040818000024140000240C0000242D
:104D600010B500F047F80D490968C1F303210C4A5A
:104D7000515C01F01F0120FA01F40848006800F0BE
:104D80000F001146085C00F01F0024FA00F00549EE
:104D90000860054804600846006810BD18440258C1
:104DA000581E0408180000241400002400B5FFF762
:104DB000D7FF05490968C1F30211044A515C01F0AB
:104DC0001F01C84000BD00001C440258581E0408C2
:104DD00000B5FFF7C5FF05490968C1F30221044A80
:104DE000515C01F01F01C84000BD00001C44025886
:104DF000581E0408F0B5824E366806F0380636B103
:104E0000082E15D0102E15D0182E7DD114E07C4E12
:104E1000103E3668C6F3401646B1794E103E3668ED
:104E2000C6F3C107774E26FA07F000E07548E5E0C3
:104E30007548E3E07548E1E0714E1836366806F0D3
:104E400003046F4E18363668C6F305116C4E1C36D7
:104E5000366806F001056A4E24363668C6F3CC067D
:104E600016FB05F601EE106AB8EE410A002971D072
:104E700024B1012C50D0022C6DD16DE0604E103E5B
:104E80003668C6F340163EB35D4E103E3668C6F334
:104E9000C1075C4E26FA07F301EE103AF8EE411A0C
:104EA00001EE101AB8EE411A81EE812A9FED581AD0
:104EB000C0EE011A524E20363668C6F3080601EEDF
:104EC000106AB8EE411A31EE811AF7EE001A31EE8F
:104ED000211A62EE010A1EE001EE101AB8EE411A24
:104EE000DFED4C1A81EE812A9FED491AC0EE011ABE
:104EF000434E20363668C6F3080601EE106AB8EE57
:104F0000411A31EE811A00E076E0F7EE001A31EE38
:104F1000211A62EE010A5BE001EE101AB8EE411AA6
:104F20009FED3D2AC2EE011A9FED391A80EE012A4B
:104F3000334E20363668C6F3080601EE106AB8EE26
:104F4000411A32EE011AB7EE002A31EE021A61EE72
:104F5000810A3DE04EE01DE001EE101AB8EE411A64
:104F6000DFED2E1A81EE812A9FED291AC0EE011A7B
:104F7000234E20363668C6F3080601EE106AB8EEF6
:104F8000411A31EE811AF7EE001A31EE211A62EE63
:104F9000010A1DE001EE101AB8EE411A9FED1E2A1B
:104FA000C2EE011A9FED1A1A80EE012A144E203625
:104FB0003668C6F3080601EE106AB8EE411A32EE02
:104FC000011AB7EE002A31EE021A61EE810A00BF23
:104FD00000BF0B4E20363668C6F34626721C01EE23
:104FE000102AB8EE411AC0EE811ABCEEE11A11EE99
:104FF000100A00E0002001E0034800BF00BFF0BD40
:10500000104402580090D00300093D0040787D0113
:10501000000000460024744C0024744A20BCBE4B9F
:105020002DE9F047044614B90120BDE8F087207847
:1050300000F00100002870D0FA48006800F038083D
:10504000F8481830D0F80090B8F1100F06D0B8F139
:10505000180F0FD109F0030002280BD1F1481038C6
:105060000068C0F3404000286AD06068002867D11B
:105070000120DAE700BF6068B0F5803F08D1E94859
:105080001038006840F48030E649103908602EE09E
:10509000606868B9E3481038006820F48030E1495E
:1050A000103908600846006820F4802008601EE07F
:1050B0006068B0F5A02F0DD1DA481038006840F4D0
:1050C0008020D849103908600846006840F48030D4
:1050D00008600CE0D3481038006820F48030D149D3
:1050E000103908600846006820F48020086000BF7E
:1050F000606898B1FEF75CF8054606E0FEF758F8E0
:10510000401B642801D903208FE7C6481038006887
:10511000C0F340400028F1D012E012E0FEF748F85A
:10512000054606E0FEF744F8401B642801D9032039
:105130007BE7BC4810380068C0F340400028F1D13C
:1051400000BF207800F00200022874D1B548006842
:1051500000F03808B3481830D0F80090B8F1000FCC
:1051600005D0B8F1180F56D109F00300D0BBAD48F7
:1051700010380068C0F3800018B1E06808B9012059
:1051800053E7A8481038006820F01900E168084388
:10519000A44910390860FEF70BF8054606E0FEF753
:1051A00007F8401B022801D903203EE79D4810382C
:1051B0000068C0F380000028F1D000BFFDF7F2FFC7
:1051C00041F2030188421AD8206940280BD1954842
:1051D0000C38006820F47C3040F4003091490C39E0
:1051E000086017E017E08F480C38006820F47C3026
:1051F000216940EA01308B490C3908600AE089488E
:105200000C38006820F0FE40217C40EA01608549AE
:105210000C39086066E0E06888B38248103800689E
:1052200020F01900E16808437E4910390860FDF755
:10523000BFFF054607E056E0FDF7BAFF401B022816
:1052400001D90320F1E6774810380068C0F38000E8
:105250000028F1D000BFFDF7A5FF41F2030188420D
:105260001AD8206940280BD16E480C38006820F409
:105270007C3040F400306B490C39086017E017E0CF
:1052800068480C38006820F47C30216940EA01301D
:1052900064490C3908600AE062480C38006820F064
:1052A000FE40217C40EA01605E490C39086019E04B
:1052B0005C481038006820F001005A491039086035
:1052C000FDF776FF054606E0FDF772FF401B02285A
:1052D00001D90320A9E6534810380068C0F38000C4
:1052E0000028F1D100BF207800F0100010287CD1F8
:1052F0004C48006800F038084A481830D0F8009050
:10530000B8F1080F06D0B8F1180F3DD109F003002D
:10531000012839D1434810380068C0F3002020B17B
:10532000E069802801D001207FE600BFFDF73AFF49
:1053300041F2030188421AD8206A20280AD139484C
:105340000C38006820F0F84040F0804035490C39B6
:10535000086018E033480C38006820F0F84094F8F2
:10536000201040EA81602F490C3908600BE02D487D
:10537000001F006820F07C5094F8201040EA016083
:105380002849091F086066E0E06978B325481038AD
:10539000006840F08000234910390860FDF708FFDD
:1053A000054606E0FDF704FF401B022801D9032053
:1053B0003BE61C4810380068C0F300200028F1D0FC
:1053C00000BFFDF7EFFE41F2030188421CD8206ABE
:1053D00020280CD113480C38006820F0F84040F029
:1053E000804010490C3908601AE035E01CE00D4897
:1053F0000C38006820F0F84094F8201040EA8160F2
:1054000008490C3908600BE00648001F006820F0CE
:105410007C5094F8201040EA01600249091F08609E
:1054200019E0000010440258FA48006820F080009B
:10543000F8490860FDF7BCFE054606E0FDF7B8FE3A
:10544000401B022801D90320EFE5F2480068C0F3B1
:1054500000200028F2D100BF207800F008000828C2
:1054600036D16069D0B1EB487430006840F001007B
:10547000E84974310860FDF79BFE054606E0FDF73C
:1054800097FE401B022801D90320CEE5E148743085
:105490000068C0F340000028F1D019E0DD48743006
:1054A000006820F00100DB4974310860FDF780FEE0
:1054B000054606E0FDF77CFE401B022801D90320CB
:1054C000B3E5D44874300068C0F340000028F1D13F
:1054D000207800F02000202830D1A069B8B1CD4854
:1054E000006840F48050CB490860FDF761FE054636
:1054F00006E0FDF75DFE401B022801D9032094E57C
:10550000C4480068C0F340300028F2D016E0C1481B
:10551000006820F48050BF490860FDF749FE054649
:1055200006E0FDF745FE401B022801D903207CE57B
:10553000B8480068C0F340300028F2D1207800F06D
:10554000040004287DD1B448006840F48070B2495A
:105550000860FDF72DFE054606E0FDF729FE401B1D
:10556000642801D9032060E5AB48006800F480702E
:105570000028F2D000BFA068012808D1A5487030EB
:10558000006840F00100A349703108602DE0A06878
:1055900068B9A0487030006820F001009D49703162
:1055A00008600846006820F0040008601DE0A0685C
:1055B00005280DD197487030006840F004009549E7
:1055C000703108600846006840F0010008600CE097
:1055D00090487030006820F001008E4970310860FA
:1055E0000846006820F00400086000BFA068A0B171
:1055F000FDF7DEFD054608E0FDF7DAFD401B41F250
:105600008831884201D903200FE582487030006854
:10561000C0F340000028EFD013E0FDF7C9FD0546B8
:1056200008E0FDF7C5FD401B41F28831884201D9F1
:105630000320FAE4774870300068C0F34000002887
:10564000EFD1606A00287DD072481030006800F009
:105650003800182877D0606A022875D16D48006834
:1056600020F080706B490860FDF7A2FD054606E05A
:10567000FDF79EFD401B022801D90320D5E46548B3
:105680000068C0F340600028F2D100BFD4E90A10DE
:1056900041EA00105F492831096840F2F332914332
:1056A00008435C4928310860208E401EC0F3080082
:1056B000616B491E4FF47E4202EA41210843218F6B
:1056C000491ED20102EA014108433C21095D491EFD
:1056D000120202EA016108434E493031086000BFFE
:1056E000081F006820F00100091F08604948343095
:1056F00000684FF6F8718843A16C40EAC100454943
:105700003431086043482C30006820F00C00216CD4
:10571000084340492C3108600846006820F0020028
:10572000616C08433B492C3108600846006840F42E
:10573000803008600846006840F400300860084681
:10574000006802E06AE038E01FE040F48020086072
:105750000846006840F0010008602E48006840F0EC
:1057600080702C490860FDF723FD054606E0FDF733
:105770001FFD401B022801D9032056E4254800687C
:10578000C0F340600028F2D048E02248006820F0D2
:10579000807020490860FDF70BFD054606E0FDF727
:1057A00007FD401B022801D903203EE41948006888
:1057B000C0F340600028F2D130E016482830076876
:1057C000144830300668606A012821D007F00301D0
:1057D000A06A81421CD1C7F30511E06A884217D143
:1057E000C6F30801206B401E814211D1606B401E40
:1057F000C6F3462188420BD1A06B401EC6F306417A
:10580000884205D1E06B401EC6F30661884205D090
:1058100001200AE40044025800480258002004E431
:1058200070B504460D460CB9012070BD94F82C00EB
:1058300028B9002084F82D00204600F019F8022035
:1058400084F82C00211D2068FCF76DF82946D4E966
:105850000002FCF7BBF80548006840F0004003492F
:105860000860012084F82C000020DEE70040005290
:1058700010B586B0044600BF3E48006840F4805032
:105880003C4908600846006800F48050009000BF62
:1058900000BF00BF37480C30006840F004003549B5
:1058A0000C3108600846006800F00400009000BF5A
:1058B00000BF00BF0846006840F0080008600846C6
:1058C000006800F00800009000BF00BF00BF08465D
:1058D000006840F0100008600846006800F0100002
:1058E000009000BF00BF00BF0846006840F02000E5
:1058F00008600846006800F02000009000BF00BF6C
:1059000000BF0846006840F0400008600846006894
:1059100000F04000009000BF00BF0D200190022069
:10592000029001200390032004900C20059001A90F
:105930001148FDF72BFB4CF20370019001A90F48B1
:10594000FDF724FB4FF68370019001A90C48FDF789
:105950001DFB4FF63F00019001A90A48FDF716FB19
:1059600048F23710019001A90748FDF70FFB06B078
:1059700010BD0000D444025800080258000C025820
:1059800000100258001402580018025870B504465E
:105990000D4694F82C00022800D170BD94F82C001C
:1059A00001280AD1022084F82C0029462068FBF740
:1059B000F0FF012084F82C0001E00120EDE7002039
:1059C000EBE72DE9F04104460E46174694F82C50BB
:1059D000022D02D10220BDE8F081012D01D0052D5C
:1059E00012D1022084F82C003A4631462068FBF799
:1059F000DAFF3068022803D1052084F82C0005E086
:105A0000012084F82C0001E00120E4E70020E2E717
:105A100070B504460E4615460CB9012070BD94F8C9
:105A2000450028B9002084F84400204600F028F8FA
:105A300004F108012068FBF7F1FE3146A2682068F6
:105A4000FBF73EFF2946E36AD4E90102FBF7C4FEF7
:105A5000A168206850F8210040F00100A268216888
:105A600041F822000548006840F000400349086002
:105A7000012084F845000020D0E7000000400052DB
:105A800010B50446FDF722FA10BD70B50446254650
:105A9000681EB0F1807F01D301200FE0681E4FF037
:105AA000E02148610F214FF0FF3004F071FB00202E
:105AB0004FF0E021886107200861002070BD704729
:105AC0007047704730B502460B4600BF92F83C0065
:105AD000012801D1022030BD012082F83C0000BF26
