:020000040800F2
:10000000B01B01249903000843530008774A0008F5
:10001000415300086D110008F7800008000000003F
:1000200000000000000000000000000089550008EA
:10003000B515000800000000455300088B55000866
:10004000B3030008B3030008B3030008B3030008B8
:10005000B3030008B3030008B3030008B3030008A8
:10006000B3030008B3030008B303000871110008CC
:10007000B3030008B3030008B3030008B303000888
:10008000B3030008B3030008B3030008B303000878
:10009000B3030008B3030008B3030008B303000868
:1000A000B3030008B3030008B3030008B303000858
:1000B000B3030008C9790008B3030008B3030008BC
:1000C000B3030008B3030008B3030008B303000838
:1000D000B3030008B3030008B3030008B303000828
:1000E000B3030008B303000800000000B3030008D6
:1000F000B3030008B3030008B3030008B303000808
:10010000B3030008B3030008B3030008B3030008F7
:10011000B3030008B3030008B3030008B3030008E7
:10012000B3030008B3030008B3030008B3030008D7
:10013000B3030008B3030008B3030008B3030008C7
:1001400000000000000000000000000000000000AF
:10015000B3030008B3030008B3030008B3030008A7
:10016000B3030008B3030008B3030008B303000897
:10017000B3030008B3030008B30300080000000045
:10018000B3030008B3030008B3030008B303000877
:10019000B3030008B3030008B3030008B303000867
:1001A000B3030008B3030008B3030008B303000857
:1001B000B3030008B3030008B3030008B303000847
:1001C000B3030008B3030008B3030008B303000837
:1001D000B3030008B3030008B3030008B303000827
:1001E000B3030008B3030008B3030008B303000817
:1001F000B3030008B3030008B3030008B303000807
:10020000B3030008B3030008B3030008B3030008F6
:10021000B3030008B3030008B3030008B3030008E6
:10022000B3030008B3030008B30300080000000094
:10023000B3030008B303000800000000B303000884
:10024000B3030008B3030008B3030008B3030008B6
:10025000B3030008B3030008B3030008B3030008A6
:10026000B3030008B3030008B3030008B303000896
:10027000B3030008B3030008B30300080000000044
:10028000B3030008B3030008B30300080000000034
:1002900000000000B303000800F002F800F06CF862
:1002A0000AA090E8000C82448344AAF10107DA45D1
:1002B00001D100F061F8AFF2090EBAE80F0013F0B7
:1002C000010F18BFFB1A43F0010318473C980400C4
:1002D0005C9804000A444FF0000C10F8013B13F046
:1002E000070408BF10F8014B1D1108BF10F8015B8F
:1002F000641E05D010F8016B641E01F8016BF9D182
:1003000013F0080F1EBF10F8014BAD1C0C1B09D1D8
:100310006D1E58BF01F801CBFAD505E014F8016B4A
:1003200001F8016B6D1EF9D59142D6D370470000DC
:100330000023002400250026103A28BF78C1FBD8EE
:10034000520728BF30C148BF0B607047642900F0D6
:10035000FB80782900F03481002070471FB52FF012
:10036000C0FF9DE8030000F01FFD00F021FB1FBD52
:1003700010B500F086FB10BD00F0BBFB1146FFF787
:10038000EDFF29F0D3FB00F0BFFC03B4FFF7F0FF53
:1003900003BC00F07DFA0000094880470948004787
:1003A000FEE7FEE7FEE7FEE7FEE7FEE7FEE7FEE725
:1003B000FEE7FEE704480549054A064B7047000082
:1003C0004556000899020008B00B0124B01B012417
:1003D000B0130124B013012453EA020C00F0698029
:1003E0002DE9F04B4FF00006002B1FBFB3FA83F549
:1003F00003FA05F424FA05F65E4012BF1643B2FA7A
:1004000082F502FA05F4C5F120051EBF22FA05FCAB
:1004100044EA0C04203556EA044C4FEA144418BF51
:10042000641C4FF000084FF00009904271EB030C80
:1004300039D3002919BFB1FA81F701FA07F6B0FAEA
:1004400080F700FA07F6C7F120071EBF20FA07FC65
:1004500046EA0C062037B6FBF4FCA7EB0507103F75
:1004600007F01F0BCBF120060CFA0BFB2CFA06F65B
:1004700044BFB3460026202FA4BF5E464FF0000BBA
:100480005BEA060C08BF4FF0010B19EB0B09ABFB45
:10049000027C48EB0608C01B06FB02CC0BFB03CC1E
:1004A00071EB0C01C1E70B46024641464846BDE8E8
:1004B000F08B13B54FF000004FF00001AFF3008058
:1004C000BDE81C40704700000FB4044910B503AAF2
:1004D000029800F03DFA10BC5DF814FBA80A012454
:1004E0002DE9F0410E460446002020622046E168D6
:1004F000884730B3252805D0D4E901219047206AE8
:10050000401CF2E7E168204600278847050018D024
:10051000A5F14100192802D820354FF40067324672
:10052000294620462760FFF711FF40B1012804D07B
:10053000F61D26F007060836D8E7361DD6E728460A
:10054000DAE7206ABDE8F0812DE9F0410646002493
:1005500010687529314616A510D0AFF30080002829
:1005600002DA404213A507E031688A0701D512A5D7
:1005700002E0490704D511A5012401E0AFF3008092
:1005800000210A2206F1240709E0B0FBF2FCB0FBCF
:10059000F2F302FB1C00303078541846491C002846
:1005A000F3D123462A463046BDE8F04100F076B943
:1005B000000000002D0000002B00000020000000C3
:1005C00070B504460D4621461068AFF300802188BF
:1005D000090502D50F4A7A4402E00E4A7A440E32E7
:1005E000002104F1240305E000F00F060009965DE8
:1005F0005E54491C0028F7D120780023000704D559
:10060000702D02D009B1022311322046BDE870409E
:1006100000F044B9E58F040040EA0103024630B51A
:100620009B0710D14FF0013400E008C208C91D1B20
:100630009D4315EAC41FF8D013F0FF0102F8011B17
:100640000DD01B0AF8E711F8013B002B02F8013B23
:1006500005D011F8013B002B02F8013BF3D130BD6E
:1006600010B5431C02E010F8011B71B18107FAD1EB
:100670004FF0013202C88C1A8C4314EAC211F9D02F
:10068000C01A0A0603D0C01E10BDC01A10BD0A044D
:1006900001D0801E10BD0902FCD0401E10BD032AEF
:1006A00040F2308010F0030C00F0158011F8013B8F
:1006B000BCF1020F624498BF11F801CB00F8013B76
:1006C00038BF11F8013BA2F1040298BF00F801CB3A
:1006D00038BF00F8013B11F0030300F02580083A11
:1006E000C0F0088051F8043B083A51F804CBA0E868
:1006F0000810F5E7121D5CBF51F8043B40F8043BBD
:10070000AFF30080D20724BF11F8013B11F801CBF1
:1007100048BF11F8012B24BF00F8013B00F801CBC2
:1007200048BF00F8012B704710B5203AC0F00B808D
:10073000B1E81850203AA0E81850B1E81850A0E8E5
:100740001850BFF4F5AF5FEA027C24BFB1E818503F
:10075000A0E8185044BF18C918C0BDE810405FEAAF
:10076000827C24BF51F8043B40F8043B08BF70472B
:10077000D20728BF31F8023B48BF11F8012B28BF30
:1007800020F8023B48BF00F8012B70474FF00002F1
:100790000429C0F0128010F0030C00F01B80CCF193
:1007A000040CBCF1020F18BF00F8012BA8BF20F801
:1007B000022BA1EB0C0100F00DB85FEAC17C24BF55
:1007C00000F8012B00F8012B48BF00F8012B7047FF
:1007D0004FF0000200B5134694469646203922BFDA
:1007E000A0E80C50A0E80C50B1F12001BFF4F7AF25
:1007F000090728BFA0E80C5048BF0CC05DF804EB07
:10080000890028BF40F8042B08BF704748BF20F874
:10081000022B11F0804F18BF00F8012B7047000029
:100820004FF0013C50F8042B51F8043B9A4215D18B
:10083000A2EB0C03934313EACC130BD150F8042B17
:1008400051F8043B9A4209D1A2EB0C03934313EAFB
:10085000CC13E7D04FF00000704700BFD01A01BAA8
:10086000B1FA81F101F0180122FA01F0CB40C1F197
:100870002001DBB2C0B2C01A2CFA01F3D11A9143A5
:1008800011EAC311E6D17047704770477047000006
:1008900001491820ABBEFEE7260002002DE9F04713
:1008A0000D4699469246044600F1240801688806E0
:1008B00004D5E06921F01001216000E00120A84288
:1008C00001DD471B00E00027A1697A1902EB09004E
:1008D000081AA0612078C00602D42046AFF3008039
:1008E000002608E0D4E901211AF806009047206AA2
:1008F000401C761C20624E45F4DB2078C0060AD5E9
:100900002046AFF3008006E0D4E901213020904773
:10091000206A401C2062381EA7F10107F4DC07E0C2
:10092000D4E9012118F805009047206A401C206294
:10093000281EA5F10105F3DC2046AFF300802078E6
:10094000000602D50220BDE8F0870120FBE7000089
:10095000074B70B50D467B4400F013F8044628465B
:1009600000F022F810B14FF0FF3070BD204670BD8E
:10097000374D01007047000001694A1C0261087888
:10098000704700B58FB0CDE90131002105910549CF
:100990007944CDE9031011466846FFF7A1FD0FB079
:1009A00000BD0000E5FFFFFF007B00F08000704706
:1009B00010B542485421FFF70BFF41485421FFF77F
:1009C00007FF40485421FFF703FF3F493B483C4A9B
:1009D0003F4B08603D490A603A491960531C036562
:1009E000481C1065012008653B48344A39A1784409
:1009F00000F0EEF820B9384878440A3800F0A6F93B
:100A000037482F4A35A1784400F0E2F820B934483D
:100A100078440A3800F09AF932482A4A2FA17844DB
:100A200000F0D6F820B92F4878440A3800F08EF943
:100A300040232248DC000021224600F0A6F820B125
:100A400025487844543800F081F91D482246402357
:100A5000002100F09AF820B121487844543800F081
:100A600075F9184822461023002100F08EF800285E
:100A700006D01C487844BDE81040563800F066B9EE
:100A800010BD104870B5006D20F001040B4800F057
:100A900015F90B4800F012F90A4800F00FF909E0C7
:100AA000206D20F00105204600F008F9204600F0F6
:100AB00045F82C46002CF3D170BD0000540A0124E7
:100AC000A80A0124FC0A0124D4030024D80300242A
:100AD000DC03002472000000B68B040077000000E5
:100AE000A58B0400958B0400002801D0FFF7D0BE31
:100AF0007047754600F038F9AE4605006946534622
:100B000020F00700854618B020B5FFF753FCBDE87C
:100B100020404FF000064FF000074FF000084FF064
:100B2000000B21F00701AC46ACE8C009ACE8C009F5
:100B3000ACE8C009ACE8C0098D46704770B5044602
:100B4000051F00F015F90068002C14BF446870BD43
:100B5000002C18BFAC423CBF20466468F8D3016843
:100B60000A18AA4218BF456003D12A6805461144F5
:100B7000016028684119A1421CBF6C6070BD6168AA
:100B8000696021680844286070BD70B5C468A50715
:100B900013D0650211D4B2F5807F09D0B2F5007F81
:100BA00006D0B2F5806F08D1012300F1240106E0E0
:100BB0005D1E6FF07F46B54201D3012070BD01611B
:100BC000C361416024F470611143C160002070BDB5
:100BD0002DE9F0410C4607461646104600F06EF827
:100BE0002078611C61280AD0722802D077283CD175
:100BF00002E00125002405E00225042402E0082487
:100C000048F2020511F8010B2B2806D0622809D002
:100C100011F8010C74280AD00BE045F0030544F0EC
:100C20000204EFE745F0040544F00104EAE744F06C
:100C300010043846214609F00BF8411C15D000215C
:100C4000316171604FF40071F560F16170612007EE
:100C500004D530460222002100F004F9306D40F046
:100C6000010030653046BDE8F0810020FBE72DE94A
:100C7000F0410D460646104C206DC10704D04108D6
:100C800004D020F00104F7E722460EE0542000F0E3
:100C9000BAF807000ED0206D47F001010843542137
:100CA00020653846FFF794FD3A4629463046BDE8B0
:100CB000F0418DE70020D6E7540A01242DE9F047E2
:100CC00004464FF000094FF0FF37C568D4E90486A9
:100CD000A80707D0204600F075F9304608F09AFFC3
:100CE000002802DA3846BDE8F087280502D54046DC
:100CF000FFF724FF4C212046FFF76AFD206D20F00E
:100D0000010020654846EEE710B50446AFF30080C9
:100D10002046BDE81040FFF738BB70B505460C46CD
:100D20000A2000E06D1C00F018F835B12878002882
:100D3000F8D102E0641C00F010F814B1207800280B
:100D4000F8D1BDE870400A2000F007B810B500F0F7
:100D50007DF9BDE81040FFF7C7BE08B569468DF8BC
:100D600000000320ABBE08BD00487047500B0124B3
:100D700000487047580B0124704770477047704710
:100D800038B504460A4600206946AFF300800028C3
:100D900008BF38BD02460099204600F078F90120CE
:100DA00038BD012000F0D6B9F8B5AFF30080054694
:100DB00000200C46102000BF0646A819A0420DD9FD
:100DC000324669460020AFF30080070008BF00F0FC
:100DD000C1F90098A04218BF0546C419FFF7C8FF23
:100DE00005600746F01D20F007004619284600F070
:100DF00047F9B44208BFF8BDA21B31463868BDE8C8
:100E0000F84000F044B970B50646FFF7B1FF056839
:100E100006F10B0020F00704B4429CBF002070BD17
:100E20002B466A68BAB11068A04210D304F10801D9
:100E300088423CBF5068586007D351681019416020
:100E40001168091B016058601460101D70BD1346C5
:100E50005268002AE7D121462846FFF791FF002873
:100E6000DED170BD2DE9F041044616460D464769B6
:100E7000007B80072ED0384608F0DEFE50BB3EB324
:100E8000012E02D0022E25D104E0204600F019F9EF
:100E900005441DE0384608F0C9FEE168002841F02D
:100EA0001001E16005DA204600F058F80120BDE8A5
:100EB000F081C9030BD56268E16A914200D81146FE
:100EC000A26911442269891A814200DD084605445D
:100ED000002D01DA0220EAE7E16A6068E2688142F7
:100EE00006D29103E06203D522F4003141F01002F2
:100EF000A6690027AE4213DCE16A814201D90B46A4
:100F000000E0034603EB060C2369ACEB030CAC4595
:100F100006DD814201D98C4600E084469C4505D11E
:100F2000A760276042F02000A5620DE0AD1BE669D6
:100F3000AE1B8142A66000D90846C01A281A20605C
:100F40005819606022F0200003490840E06000204A
:100F500084F84870ABE70000BFCFD7FFC16821F429
:100F6000001141F08001C160002181600160704783
:100F70002DE9F047814614460E464FF0FF383248BF
:100F8000D5685769054209D03846A16908F08EFE38
:100F9000002811DB2C48C0430540E5602B46324653
:100FA0004946384608F087FEA16920F00042B21A8F
:100FB00011440028A16103D02046FFF7CFFF40462F
:100FC000BDE8F08770B504460569C06A616888426B
:100FD00000D80846E16821F42011E160C90312D568
:100FE000A84208D02246411B2846FFF7C1FF10B196
:100FF0004FF0FF3070BD0020E562C4E90150E068A9
:1010000020F48030E060002070BD10B50446C06858
:1010100020F02000E060A16AA06988420DD020463F
:10102000FFF7D0FFE06820F4405040F01000E0608F
:10103000A06AA0612069E062606044F24001E0685B
:101040008843E06010BD00001000020010B50146AA
:1010500002A0FFF762FE012010BD00005349475275
:10106000545245443A2052656469726563743A206B
:1010700063616E2774206F70656E3A200000000077
:1010800000210160C0E9011070471020704703463D
:1010900040688C46002818BF88423CBF0346406821
:1010A000F8D318681844884207D00CF1030020F0E8
:1010B0000700001D411A521A0146081D0A60FFF779
:1010C0003DBD10B50146C268900703D0900607D514
:1010D000886A0AE000F046F801210160881E10BD10
:1010E0008B69486818440B69C01A91F848301BB1E5
:1010F00091F84910401A10BD1103FCD50028FADD03
:10110000401E10BD10B5012805D0002103A0FFF737
:1011100004FE012010BD09A1F8E700005349475221
:10112000544D454D3A204F7574206F6620686561B7
:1011300070206D656D6F7279000000003A2048657F
:101140006170206D656D6F727920636F727275705A
:101150007465640010B5FFF7D5FFBDE81040FFF7D8
:10116000C3BC000000487047500B0124FEE700009C
:10117000014800F0A3BB0000E0030024294A0168F5
:1011800091423AD0274A1832914236D0254A30321D
:10119000914232D0234A483291422ED0214A6032C5
:1011A00091422AD01F4A7832914226D01D4A90326D
:1011B000914222D01B4AA83291421ED01A4A914233
:1011C0001BD0194A1832914217D0174A3032914237
:1011D00013D0154A483291420FD0134A60329142DF
:1011E0000BD0114A7832914207D00F4A9032914287
:1011F00003D00D4AA832914211D1CAB21823103A35
:10120000B2FBF3F26FF30901032A02F00703074A66
:10121000D25CC26500D9091D81650846704721F07E
:10122000FF01F9E71000024010040240EC0203083D
:1012300030B5224A012301689142CAB21BD01F4C2B
:101240001434A14217D01D4C2834A14213D01B4C9A
:101250003C34A1420FD0194C5034A1420BD0174C52
:101260006434A14207D0154C7834A14203D0134C0A
:101270008C34A1420CD11421114C083AB2FBF1F18B
:101280000F4A803201F01F0504EB8101AB4010E0F2
:101290000C4D1824103A0D44B2FBF4F1A82D00D8DF
:1012A0000831094A01F01F0402EB8101064AA340FC
:1012B0008032603080E80E0030BD000008540258D3
:1012C00000580258F0FBFDBF0008024010B502793B
:1012D000531E072B2DD8174C0168A1421BD0154C6B
:1012E0001434A14217D0134C2834A14213D0114C0E
:1012F0003C34A1420FD00F4C5034A1420BD00D4CC6
:101300006434A14207D00B4C7834A14203D0094C7D
:101310008C34A14203D10849074C443102E007490B
:10132000064C443104EB8202C0E91B2101219940A3
:10133000416710BD08540258FC580258FC0802408E
:1013400010B583694FF0C074826A0146002053B122
:10135000B3F5005F15D072B1012A0CD0022A0AD071
:10136000032A09D104E01AB1012A06D0022A03D1C6
:10137000C96AC90100D5012010BDC96AA142FAD0CD
:1013800010BD002AF7D0012AF2D0022AF3D0032A96
:10139000F3D010BD2DE9F04F804E804FDFF8FC9167
:1013A0001836DFF8F8A148370468856D0AF1300A6D
:1013B000DFF8ECB14C45DFF8ECC1DFF8ECE16DD0C3
:1013C000B4426BD0544569D0BC4267D0DFF8D081BD
:1013D000A8F11808444561D05C455FD064455DD0F4
:1013E00074455BD0DFF8C481444557D0DFF8BC8139
:1013F00008F11808444551D0DFF8B08108F13008F1
:1014000044454BD0DFF8A48108F14808444545D055
:10141000DFF8988108F1600844453FD0DFF88C81FF
:1014200008F17808444539D0DFF8808108F1900848
:10143000444533D0DFF8748108F1A80844452DD025
:10144000DFF86C81444529D0DFF8648108F1140885
:10145000444523D0DFF8588108F1280844451DD0C1
:10146000DFF84C8108F13C08444517D0DFF8408193
:1014700008F15008444511D0DFF8348108F16408C0
:1014800044450BD0DFF8288108F17808444505D0A1
:10149000DFF81C8108F18C08444509D1D0E91948CE
:1014A000C4F80480C46E1CB1D0E91C48C4F80480A0
:1014B00004684C452ED0B4422CD054452AD0BC42AE
:1014C00028D0374E183EB44224D05C4522D0644523
:1014D00020D074451ED0354EB4421BD0334E183642
:1014E000B44217D0314E3036B44213D02F4E483666
:1014F000B4420FD02D4E6036B4420BD02B4E78360E
:10150000B44207D0294E9036B44203D0274EA836B5
:10151000B44215D190F85C603F2406F01F06B44039
:10152000AC600468256825F4802525602EE09A606B
:101530000068C160BDE8F08F99600068C260F9E79B
:101540001B4EB4421BD01A4E1436B44217D0184E5C
:101550002836B44213D0164E3C36B4420FD0144E47
:101560005036B4420BD0124E6436B44207D0104EFF
:101570007836B44203D00E4E8C36B442DAD190F8AD
:101580005C60012406F01F06B4406C600468636070
:101590008368402B0368CFD1C9E7000010000240E8
:1015A00088000240A0000240B8000240100402403F
:1015B00008540258704772B6FEE730B50C89D1E97D
:1015C00000230D7BC168240442EA032144EA05623A
:1015D0001143C160002030BD30B50C89D1E9002332
:1015E0000D7B8168240442EA032144EA0562114329
:1015F0008160002030BD000070B5D1E90125D1E93E
:1016000003362A43D1E90545016833431A43064BA3
:1016100042EA4422194042EA45320A4342F00801B4
:101620000160002070BD00008901F0FFF0B5B3F546
:10163000804F05D06FF0704140F822100020F0BDBF
:1016400091E838008F898E6950F8221024013343C5
:10165000054E44EA05242343314043EA07430B4344
:1016600040F82230EAE700000000F0CFF0B50A6849
:1016700050F8223023F0010340F822308C68082C07
:101680002CD000264A68D1E903CE22434CEA060C4E
:1016900001F1140342EA0C0242EA0E0293E8F85008
:1016A0001A4322430C682A43D1E90C35324350F8DF
:1016B00024603A4342EA0C02DFF840C042EA0E02DC
:1016C0008F6B13431D432F4326EA0C063E4340F81D
:1016D00024600A6BB2F5801F02D007E04026D1E7F4
:1016E0000A684AB1026842F4801202600A681AB1BC
:1016F0000268496B0A4302600020F0BD7FFB3F0097
:10170000F0B58C6800EB8202D1E90036B1F80CE04C
:101710004FEA042C134C0D8A43EA06130E7D670131
:101720004CEA0E4C43EA0C0304EB05552B438D6940
:1017300007EB0666576833432B4307F040452B43BE
:1017400053600268D2020BD5098A4268436804EBF1
:10175000015122F47002114323F470030B434360E0
:101760000020F0BD0000F0FFF0B5D1E90843CD69DD
:101770000A68C2B10268254322F4F84213431D43AC
:101780000560D1E90125D1E903364C692A43456852
:10179000334389691A43EB0B2243DB030A431A43A1
:1017A00042600020F0BDD1E9012ED1E9036CD1E9FE
:1017B000057142EA0E0246EA0C0632433A430A43F6
:1017C00001682A4322431A436FF30E010A43026061
:1017D000E7E7426943F6FE739A4342EA41014161F9
:1017E0000020704770B591E81C00C9686FF01F05B4
:1017F00006691A4305EB441444EA41210A4306EA08
:1018000045431A430261002070BD00002DE9F04FEE
:101810008B8A6FF00F05264C4FF07F4BD1F80C9060
:1018200004EB03536FF0FF044FEA042A1AB38668EF
:101830004FEA09321F4FA2F580521A433E4032430D
:101840008260D1E900278E68521E05EB07150F8ACA
:101850002A43C56804EB06240E7E0AEB07432243A5
:101860001A430BEB06610A4305F070431A43C2604A
:101870000020BDE8F08F91E804110F4E521E0F8A30
:1018800005EB08152A4304EB0C2C06EB09350E7EFC
:1018900042EA0C022A4385680AEB074422431A43B2
:1018A0000BEB06610A4305F070431A438260DFE7E1
:1018B0000000F0FFFF0F0FFF00F0FFFF2DE9FC5FBE
:1018C0000446F74E0020DFF8D88300904FF41652FC
:1018D000F44808F11808A56DDFF8C493DFF8C0A339
:1018E000016809F1300920680AF1480AB1FBF2F1F8
:1018F000B04201912F68D5F800C0DFF8ACB335D005
:101900004146884232D0484530D050452ED05845C7
:101910002CD0E5491831884228D0E349303188423B
:1019200024D0E1494831884220D0E04988421DD086
:10193000DE491831884219D0DC493031884215D04F
:10194000DA494831884211D0DFF860E30EF1600EC9
:1019500070450BD0D54A7832904207D0D34B9033A4
:10196000984203D0D149A83188427DD194F85C20B7
:10197000082102F01F0201FA02F23A424AD0B042B4
:1019800032D0404530D048452ED050452CD0584517
:101990002AD0C54A1832904226D0C34A30329042EB
:1019A00022D0C14A483290421ED0C04A90421BD039
:1019B000BE4A1832904217D0BC4A3032904213D0FF
:1019C000BA4A483290420FD0B84A603290420BD0A7
:1019D000B64A7832904207D0B44A9032904203D04F
:1019E000B24AA832904203D1026802F0040202E037
:1019F000026802F008026AB1026822F00402026082
:101A000094F85C0000F01F008140A960606D40F018
:101A10000100606594F85C00012100F01F00814026
:101A2000394240D02068B04234D0404532D0484599
:101A300030D050452ED058452CD09B4A1832904279
:101A400028D0994A3032904224D0974A4832904266
:101A500020D0964A90421DD0944A1832904219D014
:101A6000924A3032904200E0AFE113D08F4A4832C0
:101A700090420FD08D4A603290420BD08B4A783220
:101A8000904207D0894A9032904203D0874AA832C8
:101A900090427DD1406910F0800F04D0A960606D44
:101AA00040F00200606594F85C00042100F01F0023
:101AB000814039423ED02068B04232D0404530D0DB
:101AC00048452ED050452CD058452AD0764A183259
:101AD000904226D0744A3032904222D0724A483224
:101AE00090421ED0714A90421BD0704A18329042E8
:101AF00017D06E4A3032904213D06C4A483290422E
:101B00000FD06A4A603290420BD0684A78329042D5
:101B100007D0664A9032904203D0644AA83290427D
:101B20004ED1006810F0020F04D0A960606D40F043
:101B30000400606594F85C00102100F01F008140F3
:101B4000394258D02068B04234D0404532D0484560
:101B500030D050452ED058452CD0534A18329042A0
:101B600028D0514A3032904224D04F4A48329042D5
:101B700020D04E4A90421DD04C4A1832904219D083
:101B80004A4A3032904215D0484A4832904200E0EA
:101B900014E00FD0454A603290420BD0434A78326D
:101BA000904207D0414A9032904203D03F4AA83237
:101BB000904207D1006800F0080006E0006872E774
:101BC0000068B7E7006800F00400A0B1A9602068D1
:101BD0000168490304D50068000308D5A16C07E03B
:101BE0000168C90503D4016821F008010160216C76
:101BF00009B12046884794F85C00202100F01F00BE
:101C00008140394279D02068B04232D0404530D04E
:101C100048452ED050452CD058452AD0224A18325B
:101C2000904226D0204A3032904222D01E4A48327A
:101C300090421ED01D4A90421BD01C4A183290423E
:101C400017D01A4A3032904213D0184A4832904284
:101C50000FD0164A603290420BD0144A783290422C
:101C600007D0124A9032904203D0104AA8329042D4
:101C700003D1006800F0100002E0006800F00200EC
:101C8000B0B3A96094F835000428206801680FD02B
:101C900049037ED5006800032BD4616C2AE0000064
:101CA00010000240140000247000024010040240A2
:101CB00021F0160101602068416921F08001416135
:101CC000206C08B9A06C20B12068016821F00801DF
:101CD000016094F85C303F21012003F01F030022D3
:101CE0009940A96084F8350084F83420216D65E0BE
:101CF00003E0E16B09B120468847606D00287DD084
:101D0000606DC00759D02068042184F83510B042B6
:101D10002BD0404529D0484527D0504525D058459F
:101D200023D09D49884220D09B49183188421CD03D
:101D300099493031884218D09849884215D097493E
:101D40001831884211D09549303188420DD09349DD
:101D50004831884209D091496031884205D08F4985
:101D60007831884201D08D499031016821F001011C
:101D7000016020680099019A491C0091914202D8A3
:101D80000168C907F6D10068C00710D003200FE032
:101D9000FFE70168C905ACD403680121002223F0E4
:101DA0001003036084F8351084F83420A1E7012083
:101DB00084F83500002084F83400E16C00291DD03F
:101DC00002B02046BDE8F05F0847754988421DD043
:101DD00073491431884219D071492831884215D08D
:101DE0006F493C31884211D06D49503188420DD045
:101DF0006B496431884209D0694900E084E0783158
:101E0000884203D066498C3188427DD194F85C8049
:101E10000427016808F01F0807FA08F717EA0C0FF3
:101E2000009746D04F0744D500980F04686003D54B
:101E3000C8033CD4A16CC1E7880638D42068B042FE
:101E40002DD055496039884229D0484527D0504582
:101E500025D0584523D05049884220D04E491831CA
:101E600088421CD04C493031884218D04B498842B6
:101E700015D04A491831884211D04849303188423A
:101E80000DD046494831884209D0704507D090426C
:101E900005D0984203D04149A831884203D1016856
:101EA00021F0080102E0016821F004010160216CC9
:101EB00084E7022707FA08F717EA0C0F00974ED0BD
:101EC0008F074CD500980F04686003D5C80344D42D
:101ED000616C73E7880640D42068B0422FD02E4949
:101EE000603988422BD0484529D0504527D05845E5
:101EF00025D02949884222D02749183188421ED04E
:101F000025493031884200E044E018D02349884216
:101F100015D022491831884211D0204930318842E9
:101F20000DD01E494831884209D0704507D09042F3
:101F300005D0984203D01949A831884203D10168DD
:101F400021F0140102E0016821F00A010160012181
:101F500084F83510002084F83400E16B2EE7082265
:101F600002FA08F212EA0C0F14D0090712D5016820
:101F700021F00E01016094F85C100120002201F0B4
:101F80001F0100FA01F16960606584F8350084F88A
:101F9000342012E7BDE8FC9F880002401004024094
:101FA000085402582DE9F05F044600F0CFFC002CE5
:101FB00007467DD0E34E022120684FF00308DFF88A
:101FC00088934FF00005DFF884A3B042DFF880B3B8
:101FD00034D0DC4A1832904230D048452ED050459B
:101FE0002CD058452AD0DA4A1832904226D0D84A06
:101FF0003032904222D0D64A483290421ED0D54A42
:1020000090421BD0D34A1832904217D0D14A303276
:10201000904213D0CF4A483290420FD0CD4A60321E
:1020200090420BD0CB4A7832904207D0C94A9032C6
:10203000904203D0C74AA83290427DD184F835102F
:10204000B04284F834502ED0BE49183188422AD08C
:10205000484528D0504526D0584524D0BC49183191
:10206000884220D0BA49303188421CD0B849483122
:10207000884218D0B749884215D0B64918318842ED
:1020800011D0B449303188420DD0B249483188422C
:1020900009D0B0496031884205D0AE4978318842D4
:1020A00001D0AC499031016821F00101016008E0E4
:1020B00027E100BF00F04AFCC01B052801D9202100
:1020C0001CE120680068C007F4D104F10800216811
:1020D000D4E9053C8E4685C809681043D4E9072831
:1020E0001F43636A38439C4F40EA0C001043394059
:1020F00040EA0800042B40EA010003D1D4E90B12A6
:1021000011430843954909686FF30F01B1F1005F6E
:102110000FD36168A1F12902052A08D9163A032ACA
:1021200005D9083A012A02D94F39032901D840F4C8
:102130008010CEF8000000E023E02068676A406964
:10214000042F20F0070047EA00070DD1D4E90A0167
:10215000074349B12046FFF7F3F828B140206065F6
:10216000012184F83510CCE0206847612046FFF754
:1021700005F894F85C203F2102F01F029140816035
:1021800054E0774A90421BD0754B1433984217D0D5
:10219000734B2833984213D0714B3C3398420FD085
:1021A0006F4B503398420BD06D4B6433984207D03D
:1021B0006B4B7833984203D0694B8C3398427DD176
:1021C00084F8351084F83450664B0168A26801EA3F
:1021D000030E402A73D0802A72D00022D4E90378FB
:1021E000D4E9053142EAD70242EAD8085C4AD4E988
:1021F000077C48EAD30848EAD10141EAD7015242B4
:1022000041EA1C11142341EA0E01016020681044C8
:10221000B0FBF3F08000E0652046FEF7AFFF94F8D6
:102220005C20012102F01F02914041602068B04211
:1022300057D044491831884253D0484551D0504571
:102240004FD058454DD042491831884249D0404975
:102250003031884245D03E494831884241D03D49DD
:1022600088423ED03B49183188423AD03949303112
:10227000884236D037494831884232D035496031BA
:1022800088422ED03349783188422AD03149903162
:10229000884226D02F49A831884222D0304988422E
:1022A0001FD02F49143188421BD02D492831884234
:1022B00017D02B493C31884213D002E01DE017E0D3
:1022C00018E02749503188420BD0254964318842B3
:1022D00007D023497831884203D021498C31884284
:1022E00029D12046FEF7A4FFA06880280CD00CE07E
:1022F000102273E74FF4804270E74021616584F853
:1023000035800120BDE8F09F6560216E207908606E
:10231000D4E9190141606068401E072808D82046AA
:10232000FEF7D4FFE06E0560D4E91C01416002E0D5
:10233000E566256765670120656584F8350000203E
:10234000E0E7000010000240400002405800024058
:1023500070000240100402403F8010FE0010005C3C
:10236000085402580F00FEFF30B54FF0000358B17B
:1023700090F83440012C09D090F83550012480F8B1
:102380003440012D04D016E0012030BD022030BDC4
:10239000062910D2DFE801F0030507090B0DC2631F
:1023A0000AE0026408E0426406E0826404E0C26479
:1023B00002E0026500E00123002180F83410184695
:1023C00030BD00002DE9F84F04008C464FF00000AE
:1023D000009014D094F83400012812D094F83550AD
:1023E0000120002184F83400012D0CD0C00260656A
:1023F0000120009084F834100098BDE8F88F012087
:10240000FBE70220F9E78C4D0226206884F835604E
:10241000A8428A4D61658A4E8A4FDFF82C82DFF828
:102420002C92DFF82CA2DFF82CB226D0A84224D0C0
:10243000B04222D0B84220D040451ED048451CD0E2
:1024400050451AD0584518D08349884215D0824942
:102450001831884211D08049303188420DD07E49F0
:102460004831884209D07C496031884205D07A4998
:102470007831884201D078499031016821F001011A
:10248000016061462046FEF785FF6B49206888425F
:102490002CD0A8422AD0B04228D0B84226D04045FD
:1024A00024D0484522D0504520D058451ED06A4AF5
:1024B00090421BD0684A1832904217D0664A303298
:1024C000904213D0644A483290420FD0624A603240
:1024D00090420BD0604A7832904207D05E4A9032E8
:1024E000904203D05C4AA83290420CD1026822F09C
:1024F0001E0242F016020260206C88B12068026859
:1025000042F008020BE0026822F00E0242F00A02DA
:102510000260206C20B12068026842F00402026070
:10252000206888424BD0A84249D0B04247D0B84238
:1025300045D0404543D0484541D050453FD058450F
:102540003DD0454A90423AD0434A1832904236D064
:10255000414A3032904232D03F4A483290422ED0E7
:102560003D4A603290422AD03B4A7832904226D08F
:10257000394A9032904222D0374AA83290421ED037
:10258000364A90421BD0354A1432904217D0334A13
:102590002832904213D0314A3C3290420FD02F4A19
:1025A000503290420BD02D4A6432904207D02B4AD1
:1025B0007832904203D0294A8C3290420DD1206E5D
:1025C0000268D20303D5026842F480720260E06EB2
:1025D00018B1026842F4807202602068884226D0F6
:1025E000A84224D0B04222D0B84220D040451ED0CC
:1025F00048451CD050451AD0584518D01649884235
:1026000015D015491831884211D01349303188420C
:102610000DD011494831884209D00F4960318842B4
:1026200005D00D497831884201D00B4990310168BD
:1026300041F001010160DFE6100002402800024085
:1026400040000240580002407000024088000240F2
:10265000A0000240B8000240100402400854025892
:1026600080B20BF0D9B80000F0B5B5B014212FA896
:10267000FEF7AEF81E480168002936D1012101603D
:10268000BC216846FEF7A4F801AE052158220224B9
:102690004FF08073009386E8160080200494002594
:1026A0000795CDE905406846119400F04DFC08B14E
:1026B000FEF781FF0F48016841F480510160006816
:1026C0002FA9032600F4805034900C274FF6807019
:1026D00081E8F100084800F013F82FA94EF2B3701A
:1026E00081E8F100054800F00BF835B0F0BD0000BE
:1026F00000000024D444025800100258000C025874
:102700002DE9F84F03247D4D00234FF001094FF0D0
:10271000B04B4FF00F0AE9E009FA03F73A4076D0E0
:102720000E7906F00306012E01D0022E18D1D0F842
:1027300008C04FEA430ECE6804FA0EF82CEA080CE3
:1027400006FA0EF646EA0C068660D0F804C00E794A
:102750002CEA070CC6F300169E4046EA0C064660BB
:102760000E79F643B6070BD0C6684FEA43088F6868
:1027700004FA08FC26EA0C0607FA08F73743C76094
:102780000E7906F00306022E12D1DE080F694FEA19
:10279000437C00EB8606B646366A4FEADC6C0AFAE2
:1027A0000CF807FA0CF726EA08063743CEF8207033
:1027B0000F7906684FEA430807F0030704FA08FC9C
:1027C00007FA08F726EA0C06374307604E6816F446
:1027D000403F1CD04A4E376847F0020737603668E2
:1027E0009F0706F00206009623F0030606F1B046A6
:1027F000B6463F0FD6F80864DFF808810AFA07FCEE
:10280000404526EA0C0603D14FF0000C41E06CE095
:10281000DFF8F4C0604502D14FF0010C39E0DFF879
:10282000ECC0604502D14FF0020C32E0DFF8E0C0AE
:10283000604502D14FF0030C2BE0DFF8D8C06045B3
:1028400002D14FF0040C24E0DFF8CCC0604502D187
:102850004FF0050C1DE0DFF8C4C0604502D14FF019
:10286000060C16E0DFF8B8C0604502D14FF0070C47
:102870000FE0DFF8B0C0604502D14FF0080C08E06F
:10288000DFF8A4C0604502D14FF0090C01E04FF021
:102890000A0C0CFA07FC4CEA060CCEF808C44F6888
:1028A000DBF80060FF0226EA020600D516435F4609
:1028B000CBF80060D1F804C0DBF804605FEA8C2C30
:1028C00026EA020600D516437E606E684F6826EA47
:1028D0000206BF0300D516436E602E684F6826EAD5
:1028E0000206FF0300D516432E605B1C0A6832FA0D
:1028F00003F67FF411AFBDE8F88F000080000058A8
:10290000F44402580000025800040258000802581B
:10291000000C025800100258001402580018025807
:10292000001C025800200258002402580069084088
:1029300000D0012070470AB1816170470904FBE7AC
:1029400001480068000C70470010005C0148806876
:102950007047000008000024024881680278114492
:102960008160704708000024032010B500F05AF978
:1029700001F0C8F80F4A104914681368C4F3032221
:1029800003F00F038A5CC95C02F01F0201F01F0113
:10299000D0400A4A20FA01F11160094908600F206D
:1029A00000F010F808B1012010BD00F079F8002007
:1029B00010BD0000184402581C030308180000242E
:1029C0001400002470B50D4D04462878A0B14FF4D2
:1029D0007A71B1FBF0F00A490968B1FBF0F001F03F
:1029E000C5FC48B9102C07D200222146501E00F029
:1029F000F9F800206C6070BD012070BD0800002453
:102A000014000024F0B5154C4378211D0A1D2360E5
:102A10000378F3B143680B60057BC67A817A437B08
:102A20002D07847B45EA0665C77B90F809C0067AC6
:102A300090F800E045EAC14040EA834040EA444063
:102A400040EA074040EA0C2040EA460040EA0E0017
:102A500001E0002008601060F0BD000098ED00E08B
:102A6000BFF35F8F044800210368034A23F48033D7
:102A7000036070321160704724ED00E0074A40F0B7
:102A80000100064970321060086840F48030086028
:102A9000BFF34F8FBFF36F8F7047000024ED00E04E
:102AA000054808B5016841F002010160006800F0C6
:102AB0000200009008BD0000F444025870B5040004
:102AC00015460E4603D094F8210010B107E001200E
:102AD00070BD002084F82000204600F01FF8206818
:102AE000211DFEF789FDD4E900023146FEF774FD91
:102AF000D4E900022946FEF760FD2068012206495C
:102B0000036843F004030360086840F00040086075
:102B100084F82120002070BD00400052264870B586
:102B200086B0016841F480510160006800F4805073
:102B3000059021480C30016841F0080101600168EE
:102B400001F008010591016841F010010160016880
:102B500001F010010591016841F040010160006839
:102B60000121164E002400F0400005900325039536
:102B700040200090CDE9014169463046FFF7C0FD95
:102B800002210C2204924FF400708DE833000C48AF
:102B90006946FFF7B5FD4DF6330069460294009093
:102BA0003046FFF7ADFD4FF4F060009005486946F0
:102BB000FFF7A6FD06B070BDD4440258000C0258C1
:102BC0000018025800100258002809DB410900F0E3
:102BD0001F028900012001F1E0219040C1F80001AD
:102BE000704700000E4BF0B41B680D46C3F3022380
:102BF000C3F10706042E00D90426191D072901D2A6
:102C0000002300E0DB1E012404FA06F19C40491E6B
:102C10002940641E994014402143F0BC05F06CBA71
:102C20000CED00E0064900F0070210B54FF6FF0476
:102C30000868044B204040EA02201843086010BD99
:102C40000CED00E00000FA05134970B50A68D243A4
:102C5000520705D5096801F00701814213D118E038
:102C60000A6822F0070202430A60FFF76FFE0A4D6E
:102C70004FF47A760446083D07E000BFFFF766FE92
:102C8000001BB04201D9012070BD2868C0438004F8
:102C9000F4D4002070BD00000C48025810B500F0BC
:102CA000EBFE05490968054AC1F30211515C01F0C8
:102CB0001F01C84010BD0000204402581C03030837
:102CC000494930B5484C0B1D0A68143409681D6821
:102CD000246802F00303C5F30012C1F30531C4F305
:102CE000CC04002914FB02F200EE102AF8EE400A90
:102CF00075D03F4A9FED3D1AB7EE000A6BB1DFED8C
:102D00003D1A012B01D0022B64D002EE101A11687B
:102D1000F8EE422A81EEA22A21E0334C283C2368B7
:102D20009B0612D5344B246801EE901A1168C4F347
:102D3000C104F8EE612AE34001EE903AC1F30801C4
:102D4000F8EE611A81EEA22A0BE001EE901ADFED97
:102D50002B2A00BFF8EE611A116882EEA12AC1F396
:102D6000080101EE901A1168F8EE611A40EE811A1E
:102D700071EE800A62EE200AC1F3462101EE101ABC
:102D8000B8EE411A31EE001AC0EE811ABCEEE11A1B
:102D900080ED001A1168C1F3064101EE101AB8EE79
:102DA000411A31EE001AC0EE811ABCEEE11A80ED34
:102DB000011A1168C1F3066101EE101AB8EE411A4A
:102DC00031EE000A80EE801ABCEEC10A80ED020AE4
:102DD00030BD04E001EE901ADFED092ABAE70021C8
:102DE000016041608160F3E7284402580000003927
:102DF000384402580024744A0090D0030024744CD4
:102E000020BCBE4B494930B5484C0B1D0A681C34E8
:102E100009681D68246802F00303C5F30022C1F3AA
:102E20000551C4F3CC04002914FB02F200EE102A71
:102E3000F8EE400A75D03F4A9FED3D1AB7EE000A02
:102E40006BB1DFED3D1A012B01D0022B64D002EEF5
:102E5000101A1168F8EE422A81EEA22A21E0334CC2
:102E6000283C23689B0612D5344B246801EE901A47
:102E70001168C4F3C104F8EE612AE34001EE903A10
:102E8000C1F30801F8EE611A81EEA22A0BE001EE0F
:102E9000901ADFED2B2A00BFF8EE611A116882EE5E
:102EA000A12AC1F3080101EE901A1168F8EE611A27
:102EB00040EE811A71EE800A62EE200AC1F34621CB
:102EC00001EE101AB8EE411A31EE001AC0EE811A66
:102ED000BCEEE11A80ED001A1168C1F3064101EE63
:102EE000101AB8EE411A31EE001AC0EE811ABCEE8B
:102EF000E11A80ED011A1168C1F3066101EE101AA2
:102F0000B8EE411A31EE000A80EE801ABCEEC10A1A
:102F100080ED020A30BD04E001EE901ADFED092ACF
:102F2000BAE70021016041608160F3E7284402585C
:102F300000000039404402580024744A0090D00335
:102F40000024744C20BCBE4B2DE9FC5F044650F8B5
:102F5000241B002500902E460801FE4FDFF8F88361
:102F60001DD5606E50B1B0F5801F0CD0B0F5001FBC
:102F70000ED0B0F5401F1DD001250FE0386840F499
:102F80000030386016E00221201D02F0DDF903E078
:102F90000098022102F068FA05000BD02E46208826
:102FA000C00523D5606D05281ED2DFE800F00C11A6
:102FB000161B1B00626ED8F8001021F4401111435B
:102FC000C8F80010EBE7386840F40030386009E0DA
:102FD0000021201D02F0B8F903E00098002102F062
:102FE00043FA05466DB100E001252E462088800594
:102FF00028D5A06D80281ED00CDC90B140280ED1C1
:1030000014E0626DD8F8001021F007011143C8F8F0
:103010000010EBE7C02813D0B0F5807F10D0012559
:103020000FE0386840F40030386009E00021201DCE
:1030300002F08AF903E00098002102F015FA054633
:1030400095B12E462088DFF81093400509F1080954
:103050002CD5D4F8A400B0F5800F20D00DDCA0B1A1
:10306000B0F5001F0FD115E0A26DD8F8001021F4C3
:10307000E0711143C8F80010E4E7B0F5C00F13D0B9
:10308000B0F5000F10D001250FE0386840F4003093
:10309000386009E00021201D02F056F903E0009895
:1030A000002102F0E1F9054675B12E4620880005A1
:1030B0002DD5D4F8A800B0F1007F21D00EDCA8B146
:1030C000B0F1807F10D116E0D4F8A420D9F8001018
:1030D00021F460011143C9F80010E7E7B0F1407F27
:1030E00013D0B0F1806F10D001250FE0386840F4A4
:1030F0000030386009E00021201D02F025F903E0CE
:103100000098002102F0B0F905466DB12E46206806
:1031100080011FD5A06CD8B110280FD0202812D064
:10312000302815D0012514E0D4F8A820D9F80010D3
:1031300021F0E0611143C9F80010E8E7386840F475
:103140000030386004E00221201D02F0FDF8054641
:103150006DB12E462088C0042BD5E06DB0F5005F20
:1031600020D00DDCA0B1B0F5805F0FD115E07A481A
:10317000A26C001F016821F0300111430160E9E7F2
:10318000B0F5405F13D0B0F5804F10D001250FE0AF
:10319000386840F40030386009E00021201D02F05A
:1031A000D3F803E00098002102F05EF9054685B1EE
:1031B0002E462088800429D5206EB0F5403F23D0CC
:1031C00010DC08B3B0F5803F14D0B0F5003F0FD14C
:1031D00015E0E26DD8F8001021F4E0411143C8F881
:1031E0000010E6E7B0F5802F0ED0B0F5A02F0BD081
:1031F00001250AE00121201D02F0A6F803E0009855
:10320000012102F031F905468DB12E462088400497
:103210002AD5D4F8AC00B0F1405F23D010DC08B35D
:10322000B0F1805F14D0B0F1005F0FD115E0226ED5
:10323000D8F8001021F4E0211143C8F80010E5E7A8
:10324000B0F1804F0ED0B0F1A04F0BD001250AE0B5
:103250000121201D02F078F803E00098012102F01E
:1032600003F905466DB12E46208800041FD5E06E97
:10327000D8B1B0F1805F0ED0B0F1005F10D0012561
:1032800014E0D4F8AC20D9F8001021F0E04111434B
:10329000C9F80010E8E7386840F40030386004E00E
:1032A0000121201D02F050F805466DB12E46206820
:1032B000C0011ED5606CD0B101280ED0022811D0FB
:1032C000032814D0012513E0E26ED8F8001021F095
:1032D00040511143C8F80010E9E7386840F4003065
:1032E000386004E00221201D02F02EF8054685B169
:1032F0002E462068DFF85CB04002ABF11C0B57D5BE
:103300001648016841F480710160FFF71FFB824697
:103310000EE01148626C001F016821F003011143A7
:103320000160E6E7FFF712FBA0EB0A0064283DD836
:103330000A480068C005F5D57DBBDFF81CA0B4F8CD
:10334000B0200AF1200ADAF8001002F4407001F40B
:10335000407105E02C44025850440258004802587D
:10336000814211D0DAF80010DAF8002021F440711F
:1033700042F48032CAF80020DAF8002022F48032C9
:10338000CAF80020CAF80010D4F8B000B0F5807F69
:1033900021D1FFF7DBFA019019E008E0FFF7D6FA38
:1033A0000199411A41F28830814210D903252E46F5
:1033B0002078DFF844A4C0073DD0A06F182838D08B
:1033C00026DC80B3082829D0102825D12CE0DAF893
:1033D00000008007E2D5D4F8B010C1F30120032823
:1033E00058460DD0016821F47C510160B4F8B0203A
:1033F000DAF80010C2F30B021143CAF80010D7E745
:10340000FE4A036802EA111223F47C511143ECE7EF
:1034100020280ED028280CD001250BE00121201DEA
:1034200001F092FF04E004E00098012102F01CF892
:1034300005465DB12E46207880071ED5606F0628B0
:1034400019D2DFE800F0160C11161616A26FDAF882
:10345000001021F038011143CAF80010EBE70121F8
:10346000201D01F071FF03E00098012101F0FCFF35
:10347000054675B100E001252E46207840071FD58E
:10348000D4F89000062819D2DFE800F0160C1116C7
:103490001616626FDAF8001021F007011143CAF81E
:1034A0000010EAE70121201D01F04EFF03E0009823
:1034B000012101F0D9FF05469DB100E001252E460E
:1034C000207880062BD5D4F88C00B0F1405F24D052
:1034D00011DC10B3B0F1805F15D0B0F1005F10D1F6
:1034E00016E0D4F89020D9F8001021F0070111431C
:1034F000C9F80010E4E7B0F1804F0ED0B0F1A04F52
:103500000BD001250AE00021201D01F01DFF03E082
:103510000098022101F0A8FF05468DB12E462078C3
:1035200040062BD5D4F89800B0F5406F24D011DCBC
:1035300010B3B0F5806F15D0B0F5006F10D116E064
:10354000D4F88C20DAF8001021F0E0411143CAF8D9
:103550000010E4E7B0F5805F0ED0B0F5A05F0BD0AF
:1035600001250AE00021201D01F0EEFE03E0009895
:10357000022101F079FF05468DB12E462078000624
:103580002BD5D4F89C00B0F5C04F24D011DC10B37B
:10359000B0F5005F15D0B0F5804F10D116E0D4F82B
:1035A0009820D9F8001021F4E0511143C9F8001017
:1035B000E4E7B0F5004F0ED0B0F5204F0BD0012559
:1035C0000AE00021201D01F0BFFE03E00098022167
:1035D00001F04AFF05464DB12E46207800071ED562
:1035E000D4F88000B0F5805F0AD00FE0D4F89C20BA
:1035F000D9F8001021F460411143C9F80010ECE73C
:103600000098022101F030FF00B10126D4F880209B
:10361000DAF8001021F440511143CAF80010207864
:10362000C00613D5D4F89400B0F5807F05D100987A
:10363000022101F019FF00B10126D4F89420D9F835
:10364000001021F440711143C9F8001020680003F4
:1036500016D5D4F8A00038B1B0F5803F09D0B0F548
:10366000003F0BD001250AE00021201D01F06CFE77
:1036700003E00098022101F0F7FE054685B12E46D1
:103680002068400322D5D4F88400B0F5801F11D003
:10369000B0F5001F13D0B0F5401F15D0012514E080
:1036A000D4F8A020D9F8001021F440311143C9F812
:1036B0000010E5E7386840F40030386004E0009816
:1036C000012101F0D1FE054655B12E462068C00308
:1036D0001CD5E06C70B1B0F5803F10D0012514E02E
:1036E000D4F88420DAF8001021F440111143CAF80C
:1036F0000010EBE7386840F40030386004E0022145
:10370000201D01F021FE0546CDB12E462068800027
:1037100005D50098022101F0A7FE00B1012620681E
:1037200080031BD5E06FB8B1B0F5807F10D0B0F545
:10373000007F11D0B0F5407F0ED001250DE02E485E
:10374000E26C0838016821F4803111430160DDE743
:10375000386840F400303860F5B32E462068C00267
:1037600007D5226FD8F8001021F000411143C8F8A6
:1037700000102068C00008D5D4F8B420DBF8001091
:1037800021F480411143CBF800102068800207D556
:10379000A26ED8F8001021F080711143C8F8001013
:1037A000206840000CD5DBF8001021F40041CBF874
:1037B0000010DBF80010D4F8B8201143CBF800104B
:1037C0002068002807DA0C48226D0838016821F0CB
:1037D00040511143016000E014E02068000208D568
:1037E000D4F88820DAF8001021F440011143CAF817
:1037F000001086B1012003E054440258CFFFFF00BF
:10380000BDE8FC9FE26FDAF8001021F4407111432B
:10381000CAF80010A2E70020EDE700002DE9F05FF4
:1038200004000F467ED0DFF83882D8F8000000F0A0
:103830000F00B8420CD2D8F8001021F00F01394324
:10384000C8F80010D8F8000000F00F00B84269D1A5
:103850002078844D40070AD52069296801F070015D
:10386000884204D9296821F0700101432960207839
:103870007C4E361D00070AD56069316801F0700181
:10388000884204D9316821F0700101433160207809
:10389000C0060AD5A069316801F4E061884204D904
:1038A000316821F4E061014331602078DFF8B4B180
:1038B00080060BF1080B0CD5E1695846DBF80020B7
:1038C00002F07002914204D9026822F070020A43A9
:1038D0000260207880070AD5E068296801F00F01AE
:1038E000884204D9296821F00F010143296020781A
:1038F000C0073ED05B49A2682868183920F4706080
:10390000104328606068022818D0032819D009687D
:10391000012819D0490700294ADADFF848A1AAF19D
:10392000080A00E044E0DAF8002022F0070202432F
:10393000CAF80020FFF70AF8814612E009688903F7
:10394000E9E709688901E6E7C905E4E7FEF7FEFF54
:10395000A0EB090141F28830814202D90320BDE881
:10396000F09F6168DAF8000000F03800B0EBC10F9A
:10397000ECD1207880070AD5E068296801F00F01B2
:10398000884204D2296821F00F0101432960D8F848
:103990000010404601F00F01B9420BD9016821F037
:1039A0000F0139430160006800F00F00B84201D0F8
:1039B0000120D4E7207840070AD52069296801F062
:1039C0007001884204D2296821F070010143296006
:1039D000207800070AD56069316801F070018842DB
:1039E00004D2316821F07001014331602078C006B3
:1039F0000AD5A069316801F4E061884204D23168D7
:103A000021F4E06101433160207880060CD5E16942
:103A10005846DBF8002002F07002914204D202689E
:103A200022F070020A43026000F06CF80E492A6826
:103A30002B68C2F3032203F00F038A5CC95C02F017
:103A40001F0201F01F01D040084A20FA01F1116065
:103A50000749086007480068BDE8F05FFEF7B2BF9D
:103A600000200052184402581C03030818000024C8
:103A7000140000240C00002430B500F043F80B4A79
:103A80000B490C4B15681468C5F3032204F00F04AE
:103A90008A5C095D02F01F0201F01F01D040064A56
:103AA00020FA01F119601060084630BD1844025830
:103AB0001C030308180000241400002400B5FFF7BD
:103AC000DBFF05490968054AC1F30211515C01F0A9
:103AD0001F01C84000BD00001C4402581C0303081D
:103AE00000B5FFF7C9FF05490968054AC1F302217E
:103AF000515C01F01F01C84000BD00001C44025889
:103B00001C030308454970B545480968434B103B01
:103B100011F0380208D00111082A03D0102A0BD066
:103B2000182A0BD0084670BD19688906FBD519689C
:103B3000C1F3C101C84070BD3A4870BD3749374D27
:103B400018310C1D24350A68096826682D6802F0B2
:103B5000030406F00102C1F30511C5F3CC0515FB02
:103B600002F200EE102AB8EE400AE9B32F4ADFED68
:103B70002E0AB7EE001A6CB1DFED2D1A012C01D020
:103B8000022C43D002EE101A1068F8EE422A81EEA1
:103B9000A22A1EE01C68A40611D51B6801EE901A2B
:103BA0001168C3F3C103F8EE612AD84001EE900A10
:103BB000C1F30800F8EE611A81EEA22A0BE001EED3
:103BC000901ADFED1C2A00BFF8EE611A106882EE31
:103BD000A12AC0F3080001EE900AF8EE611A40EE47
:103BE000201A31EE810A00E015E022EE000A10688A
:103BF000C0F34620401C00EE900AF8EE600A80EE0A
:103C0000201ABCEEC10A10EE100A70BD01EE901A27
:103C1000DFED092AD8E7002070BD000010440258EB
:103C20000090D00340787D010000003930440258F4
:103C30000024744A0024744C20BCBE4B2DE9F05F74
:103C400004007DD0FF4F2078FE4D1837DFF8F49345
:103C5000103DC00748D0D9F80000396800F038009E
:103C6000102815D0182803D101F0030002280FD026
:103C70006068B0F5803F12D010B1B0F5A02F18D019
:103C8000286820F480302860286820F4802009E02B
:103C90002868800328D560680028D2D024E02868EE
:103CA00040F480302860606888B1FEF74FFE064619
:103CB00009E0286840F480202860F0E7FEF746FE1F
:103CC000801B64286FD828688003F7D50CE0FEF7C6
:103CD0003DFE064605E000BFFEF738FE801B642867
:103CE000F0D828688003F7D4207841F20308D54E35
:103CF0000C3E800769D5D9F80000396810F038000B
:103D00000ED0182801D188070AD0E06890B329683E
:103D100021F0190101432960FEF718FE824631E0C7
:103D20002868400702D5E06800288AD0E168286842
:103D300020F0190008432860FEF708FE824607E0DD
:103D4000DFE000BFFEF702FEA0EB0A000228B9D8B0
:103D500028684007F6D500BFFEF7F2FD40451BD8A6
:103D60002069402812D0316821F47C3141EA0030CA
:103D700030602AE018E000BFFEF7E8FDA0EB0A0083
:103D800002289FD828684007F6D5E5E7306820F478
:103D90007C3040F40030EBE7207C316821F0FE41BC
:103DA00041EA0060E4E70DE1286820F001002860A6
:103DB000FEF7CCFD824605E0FEF7C8FDA0EB0A0049
:103DC00002288DD828684007F6D42078C0065DD533
:103DD000D9F80000DFF86CB2396800F03800ABF1B8
:103DE000040B082810D0182803D101F00300012883
:103DF0000AD0E0690028286838D040F080002860A8
:103E0000FEF7A4FD824623E02868C00523D5E069BB
:103E1000802876D11FE0206A202821D0316821F047
:103E2000F84141EA8060306030E000BF94F8201033
:103E3000DBF8002022F07C5242EA0161CBF800104E
:103E400024E000BFFEF782FDA0EB0A00022898D80C
:103E50002868C005F6D5FEF773FD4045E6D8DAE7D9
:103E6000306820F0F84040F08040DCE720F080002F
:103E70002860FEF76BFD064605E000BFFEF766FD15
:103E8000801B02289DD82868C005F7D42078000739
:103E900029D56C486169643000298046016811D0D9
:103EA00041F001010160FEF751FD064605E000BF4B
:103EB000FEF74CFD801B0228C9D8D8F80000800707
:103EC000F6D510E021F001010160FEF73FFD064646
:103ED00005E000BFFEF73AFD801B022872D8D8F833
:103EE00000008007F6D42078800623D5A06900283A
:103EF000286810D040F480502860FEF727FD064661
:103F000005E02CE1FEF722FD801B02285AD8286824
:103F10008004F7D50EE020F480502860FEF716FDEF
:103F2000064604E0FEF712FD801B02284AD82868E6
:103F30008004F7D4207840074FD5DFF80C81D8F8FB
:103F4000001041F48071C8F80010FEF7FFFC06462F
:103F500005E000BFFEF7FAFC801B642832D8D8F8D1
:103F60000000C005F6D5374EA068603601280AD09B
:103F700008B1052813D0306820F0010030603068A7
:103F800020F0040002E0306840F001003060A068DA
:103F900041F2883A90B1FEF7D9FC80460AE03068D9
:103FA00040F004003060EEE7FEF7D0FCA0EB080123
:103FB000514507D830688007F6D50EE0FEF7C6FCFD
:103FC000804607E084E000BFFEF7C0FCA0EB0801DC
:103FD00051457DD830688007F6D4606AB0B3DFF809
:103FE0006480D9F8001008F12008C1F3C201032948
:103FF0006FD00228286820F08070286003D0FEF778
:10400000A5FC044680E0FEF7A1FC064605E000BFE3
:10401000FEF79CFC801B022873D828688001F7D427
:10402000E26A40F2F331386854F8283F884340EAA6
:10403000021018433860217B4FF4FE0C22894FF0A8
:10404000FE4704E0104402580048025889E0208AE4
:104050004902521E267DA1F5007189B2401EC2F3AD
:1040600008021143761E0CEA004001433E4807EA6D
:10407000066211433C4AC8F800100832016821F07A
:104080000101016011684FF6F876236AB14341EAF5
:10409000C30111600168A26921F00C0111430160A4
:1040A0000168E26921F0020111430160016841F4F5
:1040B00080310160016841F400310160016841F420
:1040C00080210160016841F001010160286801E080
:1040D00017E01DE040F080702860FEF737FC0446D2
:1040E00005E000BFFEF732FC001B022809D8286853
:1040F0008001F7D535E000BFFEF728FC001B022841
:1041000002D90320BDE8F09F28688001F4D428E09C
:1041100039680128D8F8000021D0A26A01F0030311
:1041200093421CD1E26AC1F305118A4217D1216B77
:10413000C0F30802491E8A4211D1616BC0F34622C6
:10414000491E91420BD1A16BC0F30642491E914218
:1041500005D1E16BC0F30660491E814201D0012008
:10416000D0E70020CEE700002C44025870B50400D0
:104170000D4603D094F82C0010B107E0012070BD6B
:10418000002084F82D00204600F018F8022084F862
:104190002C002068211DFDF7E7FAD4E9000229462A
:1041A000FDF734FB04480121026842F0004202603E
:1041B00084F82C10002070BD004000522E4810B52D
:1041C00086B0016841F480510160006800F48050BD
:1041D000059029480C30016841F004010160016834
:1041E00001F004010591016841F0080101600168D6
:1041F00001F008010591016841F0100101600168BA
:1042000001F010010591016841F020010160016891
:1042100001F020010591016841F040010160006852
:104220000221012200F0400005900D2003230C2400
:104230008DE81F0011486946FEF762FA4CF20370E0
:1042400000900F486946FEF75BFA4FF683700090C6
:104250000C486946FEF754FA4FF63F0000900A48B2
:104260006946FEF74DFA48F2371000900748694654
:10427000FEF746FA06B010BDD444025800080258B2
:10428000000C02580010025800140258001802587E
:1042900010B5044690F82C00022804D094F82C00A5
:1042A000012801D0012010BD022084F82C002068D4
:1042B000FDF78FFA012084F82C00002010BD0000CB
:1042C00070B5044690F82C000D46022804D0012851
:1042D00003D0052801D0012070BD022084F82C00F5
:1042E0002068FDF77FFA2868022805D05FF00100FA
:1042F00084F82C00002070BD0520F9E770B504009B
:1043000015460E4603D094F8450010B107E0012091
:1043100070BD002084F84400204600F025F8206895
:1043200004F10801FDF7A2F9A26831462068FDF703
:10433000E7F9E36A2946D4E90102FDF777F9A168B4
:1043400001232068074A50F8215045F0010540F844
:104350002150106840F00040106084F84530002083
:1043600070BD000000400052FEF77EB9401EB0F163
:10437000807F10B501D3012010BD4FF0E0246061B3
:104380000F21601703F0B8FE0020A0610721216112
:1043900010BD704770477047F0B590F83C20012A77
:1043A0003BD01F4E012480F83C40022280F83D2083
:1043B00002681C4D5368B242D2F808C001D0AA422C
:1043C00003D14F6823F470033B430F6823F070035D
:1043D0001F4357600268B24213D0B2F1804F10D031
:1043E000114B9A420DD0114B9A420AD0104B9A426F
:1043F00007D0AA4205D00F4B9A4202D00E4B9A42E8
:1044000004D189682CF0800319439160002180F861
:104410003D4080F83C100846F0BD0220F0BD000091
:10442000000001400004014000040040000800407A
:10443000000C0040001800400040014010B504008E
:1044400003D094F83D0010B107E0012010BD00201A
:1044500084F83C00204600F023F8022084F83D0058
:104460002068211D03F0BCFA012084F8480084F87C
:104470003E0084F83F0084F8400084F8410084F84E
:10448000420084F8430084F8440084F8450084F82E
:10449000460084F8470084F83D00002010BD00006D
:1044A00008B500680B49884212D10B48016841F0F9
:1044B0000201016000680022114600F00200009035
:1044C0001D20FEF78FFBBDE808401D20FEF77CBBDA
:1044D00008BD000000040040E844025890F83D1078
:1044E000012901D001207047174A022180F83D10B0
:1044F0000168CB6843F00103CB600068904214D0A0
:10450000B0F1804F11D0114988420ED01049884235
:104510000BD01049884208D00F49884205D00F4976
:10452000884202D00E49884207D181680D4A114065
:10453000062906D0B1F5803F03D0016841F00101A2
:1045400001600020704700000000014000040040AE
:1045500000080040000C004000040140001800402A
:10456000004001400700010070B5044690F83C008F
:104570000025012814D03A4B012684F83C60022023
:1045800084F83D0022689068184020F47F409060D5
:10459000086870282FD010DC10F00F0F03D022E035
:1045A0004FF0020070BD4FEA2012072A1BD2DFE84D
:1045B00002F0535353534B394100B0F1101F4BD00D
:1045C00009DCB0F5805F0FD0B0F5005F1ED0B0F50C
:1045D000801F08D140E0A0F5801120393CD010297F
:1045E0003AD0202938D0012584F83D60002084F895
:1045F0003C00284670BD4A682068D1E9021303F0E8
:1046000051FA2068816841F0770109E04A68206822
:10461000D1E9021303F046FA2068816841F4804131
:104620008160E1E7CA684968206803F04FFA2068B2
:10463000502106E0CA684968206803F058FA2068EB
:10464000602103F039FACFE7CA684968206803F0AF
:104650003DFA20684021F4E7226801461046F0E761
:1046600088FFCEFF704770B50446006800250169D9
:10467000C943890715D4C168C943890711D4EA1E03
:10468000026101212177206880698007204602D0DD
:10469000FFF7E8FF04E000F0A7F8204600F0A5F8D7
:1046A000257720680169C943490717D4C168C94300
:1046B000490713D402216FF00402026121772068B8
:1046C000806910F4407F204602D0FFF7CBFF04E062
:1046D00000F08AF8204600F088F825772068016904
:1046E000C943090716D4C168C943090712D4042174
:1046F0006FF00802026121772068C06980072046B8
:1047000002D0FFF7AFFF04E000F06EF8204600F0A3
:104710006CF8257720680169C943C90617D4C168B8
:10472000C943C90613D408216FF010020261217732
:104730002068C06910F4407F204602D0FFF792FF46
:1047400004E000F051F8204600F04FF8257720688B
:104750000169C943C90708D1C168C943C90704D160
:10476000891E0161204600F041F820680169C943B3
:10477000090609D4C168C943090605D46FF0800150
:1047800001612046FFF706FE20680169C943C9059B
:1047900009D4C168C943090605D46FF48071016169
:1047A0002046FFF7F6FD20680169C943490609D490
:1047B000C168C943490605D46FF040010161204634
:1047C00000F015F820680169C94389060BD4C16857
:1047D000C943890607D46FF0200101612046BDE876
:1047E0007040FFF7D8BD70BD704770477047704785
:1047F00030B590F88010012918D0012280F880206F
:104800002421C0F884100022202450F8641B0B6877
:104810000D6823F0005325F001050D60026050F88B
:10482000641C0B6004620277104630BD022030BD6C
:1048300070B5044690F8800001281DD0012284F84C
:1048400080202420C4F8840020680568026822F0D3
:10485000010202602068826822F060620A4382607E
:10486000204603F057F92268202100201560C4F883
:10487000841084F8800070BD022070BD70B50446BD
:1048800090F8800001281DD0012284F88020242087
:10489000C4F8840020680568026822F00102026002
:1048A0002068826822F060420A438260204603F05A
:1048B00031F92268202100201560C4F8841084F8A2
:1048C000800070BD022070BD10B5040003D0D4F884
:1048D000840010B107E0012010BD002084F88000A2
:1048E000204600F027F82420C4F8840020680168DE
:1048F00021F001010160204603F0C2F90128EBD04C
:10490000A06A10B1204603F027F92068416821F41D
:10491000904141602068816821F02A01816020680F
:10492000016841F0010101602046BDE8104003F03C
:1049300077B9000010B5B6B0044614212FA8FBF7D4
:1049400047FFBC216846FBF743FF184920688842AF
:1049500029D100241E94012000906846FEF7F4FA45
:1049600008B1FCF728FE1248016841F0100101600F
:10497000006800F0100034900D481038016841F0D4
:104980000101016000682FAB022100F001003490AA
:104990004FF4C060072283E8130006482FA9CDE931
:1049A0003242FDF7ADFE36B010BD000000100140F0
:1049B000F0440258000002582DE9F8430446D0F8AC
:1049C00084001F4616460D46202852D1DDB1D6B1CF
:1049D00094F8800001284CD0012084F88000212226
:1049E0004FF00008C4F88C80C4F884201834FDF718
:1049F000ADFF814654F8100CA687E687183CB0F549
:104A0000805F03D004E00120BDE8F883206920B175
:104A10002E46002584F8808010E00026FAE78021E9
:104A2000204603F003FBB8B9C6B116F8010B2168A4
:104A30008862B4F85600401EA4F85600B4F8560038
:104A40004B464FF0000200970028E8D14FF040019C
:104A5000204603F0EBFA38B10320D5E735F8020B16
:104A60002168C0F30800E3E72020C4F88400002098
:104A7000CAE70220C8E7FEE70A4970B5064608887B
:104A800000244D8821464543204600F091F900F06E
:104A9000EDFAB0B2044901E00880641CAC42FBD3DB
:104AA00070BD000080050024000008602DE9F04F73
:104AB00036492C2300284FF02A094FF4305E4FF07E
:104AC0002B044FF4487545F2105B887108464FF48B
:104AD000A0774FF0F00C4FF4F07249F24138808823
:104AE00045F210360CD00F804045BA46A1F802C0FE
:104AF00001D0B0422AD10B81A1F80A908C813AE012
:104B0000A1F800C040454F8001D0B04208D10B81D0
:104B1000B042A1F80A908C8132D10F804A802FE0F8
:104B2000584508D1A1F808E04FF428544C814FF4BF
:104B30002C538B8107E0A0F5C856633E20D10B8132
:104B40004C81A1F80C900A804D8019E0584508D19D
:104B5000A1F808E04FF428544C814FF42C578F8172
:104B600007E0A0F5C857633F05D10B81A1F80A9073
:104B70008C810D804A80B04202D10A80A1F802A047
:104B80000020BDE8F04F00F037B800008005002499
:104B9000034808B50088ADF80000BDF8000008BD66
:104BA000000008600246BE2000B500F053FA052060
:104BB00000F044FA00EE102A9FED0D1BB8EE400BFA
:104BC00020EE010BBCEEC00B10EE100A80B200F01C
:104BD00035FA012000F032FAFF2000F02FFA002011
:104BE00000F02CFA5DF804EB002000F027BA00007A
:104BF0006666666666660440F0B56C4C002541F654
:104C000063172146A2798988012A01D01AB11BE0D5
:104C1000B94202D118E0B94216D1082814D2DFE80F
:104C200000F00406080A0C0E101206200CE0072003
:104C30000AE0042008E0052006E0012004E000204E
:104C400002E0032000E0022045F21032A1F51343F8
:104C500045F21056413B05D0914203D0B14201D0FC
:104C6000B94277D1082812D2DFE800F01104060813
:104C70000A0C0E1080250AE0402508E0C02506E059
:104C8000202504E0602502E0A02500E0E025B142F7
:104C900002D14FF4585000E03620914205D0B14285
:104CA00003D0B94201D045F00805294600F0E8F9E3
:104CB000A188B9420AD06288A806208802D590420D
:104CC00002D303E0904201D922806080B142608922
:104CD00041D100F0BFF9002000F0B0F96089401C1C
:104CE00080B200F0B7F9002000F0A8F96089801CBC
:104CF00080B200F0AFF92088401EC0F30F2000F012
:104D00009DF96089C01C80B200F0A4F92078401E93
:104D1000C0B200F093F9A08900F09CF9002000F0E7
:104D20008DF9A089401C80B200F094F9002000F0B9
:104D300085F9A089801C80B200F08CF96088401E43
:104D4000C0F30F2000F07AF9A089C01C80B200F0F7
:104D500081F922E028E000F07DF9002000F06EF9F2
:104D6000002000F06BF92088401EC0F30F2000F0F7
:104D700065F92078401EC0B200F060F9A08900F00B
:104D800069F9002000F05AF9002000F057F9608816
:104D9000401EC0F30F2000F051F9A078BDE8F040AC
:104DA000401EC0B200F04AB9F0BD000080050024EA
:104DB000F0B53F4A060A04460D4610460F0A918890
:104DC0004089A1F51343413B28D0A1F5A643103BF0
:104DD00024D0A1F5C853633B2FD0A1F5AA43103BC3
:104DE00064D100F037F9304600F028F95089401CB2
:104DF00080B200F02FF9E0B200F020F9908900F0C5
:104E000029F9384600F01AF99089401C80B200F068
:104E100021F9E8B2BDE8F04000F010B900F01AF94D
:104E2000304600F00BF9E0B200F008F9908900F08C
:104E300011F9384600F002F9EBE7917929B300F057
:104E400009F9304600F0FAF8E0B200F0F7F81088FF
:104E5000401EC0F30F2000F0F1F81078401EC0B2E1
:104E600000F0ECF8908900F0F5F8384600F0E6F82C
:104E7000E8B200F0E3F85088401EC0F30F2000F0C5
:104E8000DDF89078401EC0B2C4E71188091B491EA6
:104E90008CB200F0DFF8002000F0D0F8002000F025
:104EA000CDF8200A00F0CAF8E0B2D9E7F0BD000062
:104EB000800500242DE9FC4FDFF87C910D46194454
:104EC000044683185B1E8618B9F804004FEA034CA9
:104ED000491E761EA0F51343413BC1F307230193FE
:104EE0004FEA152300934B46B6B21FFA81F85B894F
:104EF0004FEA1C6B4FEA142A0BD0A0F5A647103FCF
:104F000007D099F8067041F6631C012F1ED1604549
:104F10001CD1184600F09EF8504600F08FF8E0B221
:104F200000F08CF8584600F089F8F0B200F086F8EE
:104F3000B9F80C0000F08EF8009800F07FF8E8B2A5
:104F400000F07CF8019800F079F86CE0604526D11B
:104F5000B9F800008EB2801A001B84B2184600F027
:104F600079F8200A00F06AF8E0B200F067F822440D
:104F7000521EC2F30F2000F061F8D0B200F05EF8CC
:104F8000B9F80C0000F066F8009800F057F8E8B2A5
:104F900000F054F8300A00F051F8F0B245E0A0F506
:104FA000AA41103945D1184600F054F8504600F097
:104FB00045F8B9F80A00401C80B200F04BF8E0B2A6
:104FC00000F03CF8B9F80A00801C80B200F042F80A
:104FD000584600F033F8B9F80A00C01C80B200F05F
:104FE00039F8F0B200F02AF8B9F80C0000F032F805
:104FF000009800F023F8B9F80C00401C80B200F0D3
:1050000029F8E8B200F01AF8B9F80C00801C80B258
:1050100000F020F8019800F011F8B9F80C00C01C5D
:1050200080B200F017F808F0FF00BDE8FC4F00F078
:1050300005B8BDE8FC8F00008005002401B5BDF86F
:1050400000100348ADF80010BDF80010018008BD45
:105050000000086001B5BDF800100348ADF800106D
:10506000BDF80010018008BDFEFF0760024803493B
:10507000008908807047000080050024FEFF07605B
:10508000024B9A1C1880118070470000FEFF0760D9
:10509000014816F007BD0000C40500241A48F8B501
:1050A000016841F00101016000680021174C802572
:1050B00000F0010000901648E21400F11007661598
:1050C000C0E9004185609300C660042487E80E00B3
:1050D00000F12002C161032582E83200C162016350
:1050E000FCF760FF08B1FCF766FA002201210B20F3
:1050F000FDF778FD0B20FDF767FDBDE8F840054A98
:1051000000210348FDF730B9D8440258100002408E
:10511000E003002491500008F0B58FB01C216846D0
:10512000FBF756FB1C2107A8FBF752FB1D4800218B
:10513000DFF86CC010221C4F11250F23C0F800C0EF
:105140004FF4804CC0E90171C1601702C0E904123C
:1051500081610426C1610124C0E908175704C0E930
:105160000A1C01634163C0E90E17016455200595CF
:105170000093CDE90130CDE90616CDE90342CDE932
:105180000C51CDE90A42074807AACDE9083669461D
:10519000FFF7B4F8002801D0FCF70DFA0FB0F0BD0E
:1051A00000400052580400240441005230B587B03A
:1051B00014216846FBF70CFB2A48016841F02001E6
:1051C0000160016801F020010591016841F0800152
:1051D0000160016801F080010591016841F004015E
:1051E0000160016801F004010591016841F040018E
:1051F0000160016801F040010591016841F0100172
:105200000160016801F010010591016841F0080199
:105210000160016801F008010591016841F0010198
:105220000160016801F001010591016841F002018E
:10523000016000684FF400740B4D002200F0020082
:10524000214605902846FDF776FB002100940120B9
:10525000CDE90101284603916946FDF751FA07B0EF
:1052600030BD0000E04402580004025830B587B059
:10527000184800241649EF2240F2E73300948025B5
:1052800001940294039404940594069480E8160013
:105290008561C0E90334FFF7D1F808B1FCF78BF959
:1052A0004FF4805000900B486946FFF75DF908B154
:1052B000FCF781F920200490064804A90694FFF722
:1052C0006BF8002801D0FCF776F907B030BD00007C
:1052D00000040040A40400241848002110B5164C16
:1052E0000C224FF4E1330460C0E90131C160C0E930
:1052F00004128161C161016241628162FFF7E4FAD7
:1053000008B1FCF758F90D480021FFF7B7FA08B1CA
:10531000FCF751F909480021FFF78AFA08B1FCF7B8
:105320004AF90648FFF764FA002803D0BDE81040A8
:10533000FCF741B910BD000000100140F00400244A
:10534000FEE7FEE7704700002DE9F047454D0446B3
:1053500089464FF0000A2868C04380070AD0414EB2
:10536000283E306820F080603060FDF7EFFA074695
:10537000B04608E00120BDE8F08700BFFDF7E6FA7F
:10538000C01B022867D8D8F800000001F6D42068B6
:1053900029684FF4FE0721F47C313E0241EA0030D7
:1053A0002860207AA389B4F804C040022D4D2D490D
:1053B0005B1E227CACF1010C1035091DA0F50070BC
:1053C00080B2521ECCF3080C07EA034340EA0C00FB
:1053D000184306EA0262104328600868626920F0F8
:1053E000C000104308600A68A06922F0200202434E
:1053F0000A60281D0A6822F010020A6002684FF64F
:10540000F873E4699A4342EAC40202600868B9F199
:10541000000F40F010020A6011D00868B9F1010FC6
:1054200011D040F400100860D8F80000444640F065
:105430008060C8F80000FDF789FA05460DE00868AD
:1054400040F40020EFE740F48010ECE7FDF77EFA2F
:10545000401B022801D903208DE720680001F5D503
:10546000504688E7284402582DE9F047454D044648
:1054700089464FF0000A2868C04380070AD0414E91
:10548000283E306820F080503060FDF75FFA074614
:10549000B04608E00120BDE8F08700BFFDF756FAEE
:1054A000C01B022867D8D8F800008000F6D42088F6
:1054B00029684FF4FE0721F07C713E0241EA00505A
:1054C0002860207AA389B4F804C040022D4D2D49EC
:1054D0005B1E227CACF1010C1835091DA0F5007093
:1054E00080B2521ECCF3080C07EA034340EA0C00DA
:1054F000184306EA0262104328600868626920F4D3
:105500004060104308600A68A06922F400720243F8
:105510000A60281D0A6822F480720A6002684FF649
:10552000F873E4699A4342EAC40202600868B9F178
:10553000000F40F480720A6011D00868B9F1010FC1
:1055400011D040F080700860D8F80000444640F068
:105550008050C8F80000FDF7F9F905460DE008682D
:1055600040F48000EFE740F40000ECE7FDF7EEF9CF
:10557000401B022801D903208DE720688000F5D563
:10558000504688E7284402587047FDF7E5B9000007
:10559000F0B59DB04C216846FBF71AF9202113A8FD
:1055A000FBF716F90220FDF74FFB2348002423499F
:1055B000026842F44042026002680A6842F0010256
:1055C0000A60096801F001011B9101688904FCD59A
:1055D0001B4902200A6808250123C603052722F07B
:1055E0000302921C0A60C0210990CDE90A07CDE9A7
:1055F0000C100F90CDE91054CDE900360E9068469E
:105600001294FEF71BFB08B172B6FEE740201A9019
:105610003F210301CDE916500322CDE9180313AB56
:1056200013A883E816000421FEF7F8F8002801D03B
:1056300072B6FEE71DB0F0BD184802582C040058A1
:10564000284402582C48F0B52C4A016841F47001F6
:105650000160106800F00F00072804D2106820F0E5
:105660000F00C01D106026490020254C10340B6827
:10567000244D43F001030B6020600B682B400B604E
:10568000136803F00F03072B04D9136823F00F03EB
:10569000DB1D13601A4C1C4A18341C4B261D371D89
:1056A0002060174C1A4D28343060261D3860371D95
:1056B00023603B1D35601C1D3A60251D2E1D1860A2
:1056C000331D22602860326018600A680C4B114C50
:1056D00022F4802260330A60186020686FF30F00A4
:1056E000B0F1005F03D20C490120C1F8080143F278
:1056F000D2000A490860F0BD88ED00E000200052A9
:10570000004402587FEDF6EA800201010002020225
:105710000000FF010010005C0080005100400052BA
:105720002DE9F05F3220FCF79BFFD320FFF792FCBE
:10573000FFF72EFAFE4A9080FFF72AFA9080FFF7D3
:1057400027FA4FF6FF7404EA00209080FFF720FA52
:10575000918849F2413641F6631845F21037084303
:1057600045F21055B042908046D0D420FFF772FC2D
:10577000FFF70EFA9080FFF70BFA9080FFF708FA18
:1057800004EA00209080FFF703FA91880843908094
:10579000B84231D04FF45A40FFF75CFCFFF7F8F9FC
:1057A00090804FF45B40FFF755FCFFF7F1F904EAF6
:1057B000002090804FF45C40FFF74CFCFFF7E8F9C5
:1057C000918808439080B0F5004F7DD0A84213D057
:1057D000A120FFF73FFCFFF7DBF99080FFF7D8F936
:1057E00004EA00209080FFF7D3F993881843908053
:1057F000A0F5AE41613968D080B2B04266D1CF2009
:10580000FFF728FC0020FFF719FCC120FFF716FC6A
:105810003020FFF713FCED20FFF71CFC6420FFF79E
:105820000DFC0320FFF70AFC1220FFF707FC812084
:10583000FFF704FCE820FFF70DFC8520FFF7FEFBD7
:105840001020FFF7FBFB7A20FFF7F8FBCB20FFF7D8
:1058500001FC3920FFF7F2FB2C20FFF7EFFB0020C3
:10586000FFF7ECFB3420FFF7E9FB0220FFF7E6FB34
:10587000F720FFF7EFFB2020FFF7E0FBEA20FFF720
:10588000E9FB0020FFF7DAFB0020FFF7D7FBC02081
:10589000FFF7E0FB1B20FFF7D1FBC120FFF7DAFB8E
:1058A0000120FFF7CBFBC520FFF7D4FB3020FFF72B
:1058B000C5FB3020FFF7C2FBC720FFF7CBFBB720AB
:1058C000FFF7BCFB362002E0B5E0B0E0B5E0FFF743
:1058D000C1FB4820FFF7B2FB3A20FFF7BBFB552086
:1058E000FFF7ACFBB120FFF7B5FB0020FFF7A6FBED
:1058F0001A20FFF7A3FBB620FFF7ACFB0A20FFF747
:105900009DFBA220FFF79AFBF220FFF7A3FB0020EC
:10591000FFF794FB2620FFF79DFB0120FFF78EFB8E
:10592000E020FFF797FB0F20FFF788FB2A20FFF707
:1059300085FB2820FFF782FB0820FFF77FFB0E2066
:10594000FFF77CFB0820FFF779FB5420FFF776FB7D
:10595000A920FFF773FB4320FFF770FB0A20FFF736
:105960006DFB0F20FFF76AFB0020FFF767FB0020AD
:10597000FFF764FB0020FFF761FB0020FFF75EFBF1
:10598000E120FFF767FB0020FFF758FB1520FFF72A
:1059900055FB1720FFF752FB0720FFF74FFB1120A5
:1059A000FFF74CFB0620FFF749FB2B20FFF746FBD8
:1059B0005620FFF743FB3C20FFF740FB0520FFF795
:1059C0003DFB1020FFF73AFB0F20FFF737FB3F208E
:1059D000FFF734FB3F20FFF731FB0F20FFF72EFBD3
:1059E0002B20FFF737FB0020FFF728FB0020FFF7F5
:1059F00025FB0120FFF722FB3F20FFF71FFB2A209A
:105A0000FFF728FB0020FFF719FB0020FFF716FB2C
:105A10000020FFF713FBEF20FFF710FB1120FFF72B
:105A200019FB7820FCF71CFE292001F007BFA2F823
:105A3000048001F008BF9580FDE3B8427AD1ED20E3
:105A4000FFF708FB0120FFF7F9FAFE20FFF7F6FA4F
:105A5000EE20FFF7FFFADE20FFF7F0FA2120FFF734
:105A6000EDFAF120FFF7F6FA0120FFF7E7FADF2061
:105A7000FFF7F0FA1020FFF7E1FAC420FFF7EAFA87
:105A80008F20FFF7DBFAC620FFF7E4FA0020FFF7CC
:105A9000D5FAE220FFF7D2FAE220FFF7CFFAE220B0
:105AA000FFF7CCFABF20FFF7D5FAAA20FFF7C6FA16
:105AB000B020FFF7CFFA0D20FFF7C0FA0020FFF764
:105AC000BDFA0D20FFF7BAFA0020FFF7B7FA112050
:105AD000FFF7B4FA0020FFF7B1FA1920FFF7AEFA8A
