:020000040800F2
:10000000E03E01247903000843300008612900081C
:10001000413000084D070008EB5D000800000000BB
:10002000000000000000000000000000893200080D
:100030004F07000800000000453000088B32000820
:100040009303000893030008930300089303000838
:100050009303000893030008930300089303000828
:100060009303000893030008930300089303000818
:100070009303000893030008930300089303000808
:1000800093030008930300089303000893030008F8
:1000900093030008930300089303000893030008E8
:1000A00093030008930300089303000893030008D8
:1000B00093030008BD56000893030008930300084B
:1000C00093030008930300089303000893030008B8
:1000D00093030008930300089303000893030008A8
:1000E0009303000893030008000000009303000836
:1000F0009303000893030008930300089303000888
:100100009303000893030008930300089303000877
:100110009303000893030008930300089303000867
:100120009303000893030008930300089303000857
:100130009303000893030008930300089303000847
:1001400000000000000000000000000000000000AF
:100150009303000893030008930300089303000827
:100160009303000893030008930300089303000817
:1001700093030008930300089303000800000000A5
:1001800093030008930300089303000893030008F7
:1001900093030008930300089303000893030008E7
:1001A00093030008930300089303000893030008D7
:1001B00093030008930300089303000893030008C7
:1001C00093030008930300089303000893030008B7
:1001D00093030008930300089303000893030008A7
:1001E0009303000893030008930300089303000897
:1001F0009303000893030008930300089303000887
:100200009303000893030008930300089303000876
:100210009303000893030008930300089303000866
:1002200093030008930300089303000800000000F4
:1002300093030008930300080000000093030008E4
:100240009303000893030008930300089303000836
:100250009303000893030008930300089303000826
:100260009303000893030008930300089303000816
:1002700093030008930300089303000800000000A4
:100280009303000893030008930300080000000094
:10029000000000009303000800F002F800F05CF892
:1002A0000AA090E8000C82448344AAF10107DA45D1
:1002B00001D100F051F8AFF2090EBAE80F0013F0C7
:1002C000010F18BFFB1A43F0010318471C67040015
:1002D0003C6704000A444FF0000C10F8013B13F097
:1002E000070408BF10F8014B1D1108BF10F8015B8F
:1002F000641E05D010F8016B641E01F8016BF9D182
:1003000013F0080F1EBF10F8014BAD1C0C1B09D1D8
:100310006D1E58BF01F801CBFAD505E014F8016B4A
:1003200001F8016B6D1EF9D59142D6D370470000DC
:100330000023002400250026103A28BF78C1FBD8EE
:10034000520728BF30C148BF0B6070471FB52CF063
:1003500062FF1FBD10B510BD00F0C5F91146FFF7D3
:10036000F5FF27F0DDF800F0E3F903B4FFF7F2FF43
:1003700003BC00F0B1F90000094880470948004774
:10038000FEE7FEE7FEE7FEE7FEE7FEE7FEE7FEE745
:10039000FEE7FEE704480549054A064B70470000A2
:1003A0003933000899020008E02E0124E03E0124C0
:1003B000E0360124E036012453EA020C00F06980A3
:1003C0002DE9F04B4FF00006002B1FBFB3FA83F569
:1003D00003FA05F424FA05F65E4012BF1643B2FA9A
:1003E00082F502FA05F4C5F120051EBF22FA05FCCC
:1003F00044EA0C04203556EA044C4FEA144418BF72
:10040000641C4FF000084FF00009904271EB030CA0
:1004100039D3002919BFB1FA81F701FA07F6B0FA0A
:1004200080F700FA07F6C7F120071EBF20FA07FC85
:1004300046EA0C062037B6FBF4FCA7EB0507103F95
:1004400007F01F0BCBF120060CFA0BFB2CFA06F67B
:1004500044BFB3460026202FA4BF5E464FF0000BDA
:100460005BEA060C08BF4FF0010B19EB0B09ABFB65
:10047000027C48EB0608C01B06FB02CC0BFB03CC3E
:1004800071EB0C01C1E70B46024641464846BDE808
:10049000F08B13B54FF000004FF00001AFF3008078
:1004A000BDE81C40704740EA0103024630B59B0797
:1004B00010D14FF0013400E008C208C91D1B9D4354
:1004C00015EAC41FF8D013F0FF0102F8011B0DD08C
:1004D0001B0AF8E711F8013B002B02F8013B05D09D
:1004E00011F8013B002B02F8013BF3D130BD10B5F0
:1004F000431C02E010F8011B71B18107FAD14FF0E3
:10050000013202C88C1A8C4314EAC211F9D0C01A05
:100510000A0603D0C01E10BDC01A10BD0A0401D0C7
:10052000801E10BD0902FCD0401E10BD032A40F2FF
:10053000308010F0030C00F0158011F8013BBCF185
:10054000020F624498BF11F801CB00F8013B38BF9D
:1005500011F8013BA2F1040298BF00F801CB38BFAB
:1005600000F8013B11F0030300F02580083AC0F0C9
:10057000088051F8043B083A51F804CBA0E8081071
:10058000F5E7121D5CBF51F8043B40F8043BAFF3A4
:100590000080D20724BF11F8013B11F801CB48BFFE
:1005A00011F8012B24BF00F8013B00F801CB48BF34
:1005B00000F8012B704710B5203AC0F00B80B1E86D
:1005C0001850203AA0E81850B1E81850A0E8185088
:1005D000BFF4F5AF5FEA027C24BFB1E81850A0E891
:1005E000185044BF18C918C0BDE810405FEA827CAB
:1005F00024BF51F8043B40F8043B08BF7047D207C2
:1006000028BF31F8023B48BF11F8012B28BF20F862
:10061000023B48BF00F8012B70474FF0000200B5C5
:10062000134694469646203922BFA0E80C50A0E815
:100630000C50B1F12001BFF4F7AF090728BFA0E8C3
:100640000C5048BF0CC05DF804EB890028BF40F88F
:10065000042B08BF704748BF20F8022B11F0804FD1
:1006600018BF00F8012B70474FF0013C50F8042BE5
:1006700051F8043B9A4215D1A2EB0C03934313EAC1
:10068000CC130BD150F8042B51F8043B9A4209D1FA
:10069000A2EB0C03934313EACC13E7D04FF0000016
:1006A000704700BFD01A01BAB1FA81F101F0180108
:1006B00022FA01F0CB40C1F12001DBB2C0B2C01A76
:1006C0002CFA01F3D11A914311EAC311E6D1704714
:1006D000704770477047000001491820ABBEFEE725
:1006E000260002007047754600F02CF8AE46050063
:1006F0006946534620F00700854618B020B5FFF73D
:1007000049FEBDE820404FF000064FF000074FF0D3
:1007100000084FF0000B21F00701AC46ACE8C0091F
:10072000ACE8C009ACE8C009ACE8C0098D46704728
:1007300010B50446AFF300802046BDE81040FFF737
:1007400014BE000000487047802E0124FEE7704769
:1007500072B6FEE7F0B5B3F5804F05D06FF070418B
:1007600040F822100020F0BD91E838008F898E6992
:1007700050F8221024013343054E44EA0524234354
:10078000314043EA07430B4340F82230EAE70000D8
:100790000000F0CFF0B50A6850F8223023F00103D2
:1007A00040F822308C68082C2CD000264A68D1E909
:1007B00003CE22434CEA060C01F1140342EA0C0278
:1007C00042EA0E0293E8F8501A4322430C682A4387
:1007D000D1E90C35324350F824603A4342EA0C0226
:1007E000DFF840C042EA0E028F6B13431D432F43D4
:1007F00026EA0C063E4340F824600A6BB2F5801FDF
:1008000002D007E04026D1E70A684AB1026842F404
:10081000801202600A681AB10268496B0A430260DA
:100820000020F0BD7FFB3F00F0B58C6800EB82023A
:10083000D1E90036B1F80CE04FEA042C134C0D8AD4
:1008400043EA06130E7D67014CEA0E4C43EA0C03A3
:1008500004EB05552B438D6907EB06665768334358
:100860002B4307F040452B4353600268D2020BD55F
:10087000098A4268436804EB015122F47002114373
:1008800023F470030B4343600020F0BD0000F0FF31
:1008900070B5044600F07CF90546601C02D004489F
:1008A0000078044400F074F9401BA042FAD370BDF4
:1008B00008000024F0B5B5B014212FA8FFF7ADFE55
:1008C0001C480168002932D101210160BC21684621
:1008D000FFF7A3FE4FF0807000900024684611944B
:1008E00000F0CEFB08B1FFF733FF1348016841F475
:1008F000805101600068022531AA00F480503490D4
:100900004FF68070CDE92F0503260C480C2782E8AE
:10091000D0002FA900F016F831AA4EF2B370CDE93D
:100920002F0507482FA982E8D00000F00BF835B05A
:10093000F0BD000000000024D4440258001002580A
:10094000000C02582DE9F84F03247D4D00234FF091
:1009500001094FF0B04B4FF00F0AE9E009FA03F735
:100960003A4076D00E7906F00306012E01D0022E11
:1009700018D1D0F808C04FEA430ECE6804FA0EF83A
:100980002CEA080C06FA0EF646EA0C068660D0F849
:1009900004C00E792CEA070CC6F300169E4046EA06
:1009A0000C0646600E79F643B6070BD0C6684FEAD0
:1009B00043088F6804FA08FC26EA0C0607FA08F7D1
:1009C0003743C7600E7906F00306022E12D1DE0807
:1009D0000F694FEA437C00EB8606B646366A4FEA5B
:1009E000DC6C0AFA0CF807FA0CF726EA080637431B
:1009F000CEF820700F7906684FEA430807F0030726
:100A000004FA08FC07FA08F726EA0C0637430760E1
:100A10004E6816F4403F1CD04A4E376847F0020734
:100A2000376036689F0706F00206009623F003063B
:100A300006F1B046B6463F0FD6F80864DFF80881E5
:100A40000AFA07FC404526EA0C0603D14FF0000CD9
:100A500041E06CE0DFF8F4C0604502D14FF0010CDA
:100A600039E0DFF8ECC0604502D14FF0020C32E013
:100A7000DFF8E0C0604502D14FF0030C2BE0DFF857
:100A8000D8C0604502D14FF0040C24E0DFF8CCC0A0
:100A9000604502D14FF0050C1DE0DFF8C4C0604591
:100AA00002D14FF0060C16E0DFF8B8C0604502D165
:100AB0004FF0070C0FE0DFF8B0C0604502D14FF0F7
:100AC000080C08E0DFF8A4C0604502D14FF0090C23
:100AD00001E04FF00A0C0CFA07FC4CEA060CCEF8C9
:100AE00008C44F68DBF80060FF0226EA020600D562
:100AF00016435F46CBF80060D1F804C0DBF8046011
:100B00005FEA8C2C26EA020600D516437E606E68EA
:100B10004F6826EA0206BF0300D516436E602E68B2
:100B20004F6826EA0206FF0300D516432E605B1CC1
:100B30000A6832FA03F67FF411AFBDE8F88F0000BF
:100B400080000058F4440258000002580004025883
:100B500000080258000C02580010025800140258F5
:100B600000180258001C02580020025800240258A5
:100B70000069084000D0012070470AB181617047C8
:100B80000904FBE701480068000C70470010005C96
:100B9000014880687047000008000024024881680E
:100BA000027811448160704708000024032010B5CA
:100BB00000F0D4F801F042F80F4A104914681368A5
:100BC000C4F3032203F00F038A5CC95C02F01F0226
:100BD00001F01F01D0400A4A20FA01F111600949D1
:100BE00008600F2000F010F808B1012010BD00F0DF
:100BF00079F8002010BD00001844025848D20208BD
:100C0000180000241400002470B50D4D0446287807
:100C1000A0B14FF47A71B1FBF0F00A490968B1FB59
:100C2000F0F001F077FB48B9102C07D200222146E2
:100C3000501E00F073F800206C6070BD012070BD84
:100C40000800002414000024F0B5154C4378211D41
:100C50000A1D23600378F3B143680B60057BC67AF5
:100C6000817A437B2D07847B45EA0665C77B90F834
:100C700009C0067A90F800E045EAC14040EA8340A6
:100C800040EA444040EA074040EA0C2040EA46007F
:100C900040EA0E0001E0002008601060F0BD000096
:100CA00098ED00E0BFF35F8F044800210368034A1A
:100CB00023F48033036070321160704724ED00E04C
:100CC000074A40F00100064970321060086840F49D
:100CD00080300860BFF34F8FBFF36F8F7047000005
:100CE00024ED00E0054808B5016841F0020101600B
:100CF000006800F00200009008BD0000F4440258B3
:100D0000002809DB410900F01F028900012001F1E0
:100D1000E0219040C1F80001704700000E4BF0B494
:100D20001B680D46C3F30223C3F10706042E00D946
:100D30000426191D072901D2002300E0DB1E01242F
:100D400004FA06F19C40491E2940641E9940144053
:100D50002143F0BC05F04AB80CED00E0064900F074
:100D6000070210B54FF6FF040868044B204040EA24
:100D700002201843086010BD0CED00E00000FA05E9
:100D8000134970B50A68D243520705D5096801F0C6
:100D90000701814213D118E00A6822F007020243DA
:100DA0000A60FFF7F5FE0A4D4FF47A760446083DD7
:100DB00007E000BFFFF7ECFE001BB04201D90120A5
:100DC00070BD2868C0438004F4D4002070BD0000CA
:100DD0000C48025810B500F0EBFE05490968054AB9
:100DE000C1F30211515C01F01F01C84010BD0000A9
:100DF0002044025848D20208494930B5484C0B1DDE
:100E00000A68143409681D68246802F00303C5F3F6
:100E10000012C1F30531C4F3CC04002914FB02F223
:100E200000EE102AF8EE400A75D03F4A9FED3D1AB9
:100E3000B7EE000A6BB1DFED3D1A012B01D0022B9A
:100E400064D002EE101A1168F8EE422A81EEA22A4E
:100E500021E0334C283C23689B0612D5344B246890
:100E600001EE901A1168C4F3C104F8EE612AE34060
:100E700001EE903AC1F30801F8EE611A81EEA22A60
:100E80000BE001EE901ADFED2B2A00BFF8EE611A9D
:100E9000116882EEA12AC1F3080101EE901A1168CF
:100EA000F8EE611A40EE811A71EE800A62EE200AB5
:100EB000C1F3462101EE101AB8EE411A31EE001AC4
:100EC000C0EE811ABCEEE11A80ED001A1168C1F380
:100ED000064101EE101AB8EE411A31EE001AC0EECA
:100EE000811ABCEEE11A80ED011A1168C1F30661A6
:100EF00001EE101AB8EE411A31EE000A80EE801AA7
:100F0000BCEEC10A80ED020A30BD04E001EE901A89
:100F1000DFED092ABAE70021016041608160F3E753
:100F20002844025800000039384402580024744A0A
:100F30000090D0030024744C20BCBE4B494930B50E
:100F4000484C0B1D0A681C3409681D68246802F0AF
:100F50000303C5F30022C1F30551C4F3CC040029F7
:100F600014FB02F200EE102AF8EE400A75D03F4A58
:100F70009FED3D1AB7EE000A6BB1DFED3D1A012B74
:100F800001D0022B64D002EE101A1168F8EE422A4A
:100F900081EEA22A21E0334C283C23689B0612D51F
:100FA000344B246801EE901A1168C4F3C104F8EEC2
:100FB000612AE34001EE903AC1F30801F8EE611AAC
:100FC00081EEA22A0BE001EE901ADFED2B2A00BF82
:100FD000F8EE611A116882EEA12AC1F3080101EE50
:100FE000901A1168F8EE611A40EE811A71EE800ACB
:100FF00062EE200AC1F3462101EE101AB8EE411A42
:1010000031EE001AC0EE811ABCEEE11A80ED001A32
:101010001168C1F3064101EE101AB8EE411A31EE23
:10102000001AC0EE811ABCEEE11A80ED011A1168B7
:10103000C1F3066101EE101AB8EE411A31EE000A52
:1010400080EE801ABCEEC10A80ED020A30BD04E0D9
:1010500001EE901ADFED092ABAE700210160416034
:101060008160F3E7284402580000003940440258E8
:101070000024744A0090D0030024744C20BCBE4B62
:101080002DE9FC5F044650F8241B002500902E46F5
:101090000801FE4FDFF8F8831DD5606E50B1B0F542
:1010A000801F0CD0B0F5001F0ED0B0F5401F1DD032
:1010B00001250FE0386840F40030386016E0022166
:1010C000201D01F0C1FF03E00098022102F04CF85E
:1010D00005000BD02E462088C00523D5606D05285D
:1010E0001ED2DFE800F00C11161B1B00626ED8F850
:1010F000001021F440111143C8F80010EBE73868E4
:1011000040F40030386009E00021201D01F09CFF10
:1011100003E00098002102F027F805466DB100E0D9
:1011200001252E462088800528D5A06D80281ED058
:101130000CDC90B140280ED114E0626DD8F800109C
:1011400021F007011143C8F80010EBE7C02813D0C5
:10115000B0F5807F10D001250FE0386840F40030F2
:10116000386009E00021201D01F06EFF03E00098C7
:10117000002101F0F9FF054695B12E462088DFF8E1
:101180001093400509F108092CD5D4F8A400B0F556
:10119000800F20D00DDCA0B1B0F5001F0FD115E0FD
:1011A000A26DD8F8001021F4E0711143C8F80010C6
:1011B000E4E7B0F5C00F13D0B0F5000F10D0012553
:1011C0000FE0386840F40030386009E00021201D4D
:1011D00001F03AFF03E00098002101F0C5FF054649
:1011E00075B12E46208800052DD5D4F8A800B0F1A1
:1011F000007F21D00EDCA8B1B0F1807F10D116E0C5
:10120000D4F8A420D9F8001021F460011143C9F8E2
:101210000010E7E7B0F1407F13D0B0F1806F10D03D
:1012200001250FE0386840F40030386009E0002103
:10123000201D01F009FF03E00098002101F094FF58
:1012400005466DB12E46206880011FD5A06CD8B12F
:1012500010280FD0202812D0302815D0012514E0F6
:10126000D4F8A820D9F8001021F0E0611143C9F8A2
:101270000010E8E7386840F40030386004E00221EC
:10128000201D01F0E1FE05466DB12E462088C00408
:101290002BD5E06DB0F5005F20D00DDCA0B1B0F52E
:1012A000805F0FD115E07A48A26C001F016821F021
:1012B000300111430160E9E7B0F5405F13D0B0F5AC
:1012C000804F10D001250FE0386840F400303860BE
:1012D00009E00021201D01F0B7FE03E00098002185
:1012E00001F042FF054685B12E462088800429D5AD
:1012F000206EB0F5403F23D010DC08B3B0F5803F3E
:1013000014D0B0F5003F0FD115E0E26DD8F8001011
:1013100021F4E0411143C8F80010E6E7B0F5802F52
:101320000ED0B0F5A02F0BD001250AE00121201D21
:1013300001F08AFE03E00098012101F015FF054647
:101340008DB12E46208840042AD5D4F8AC00B0F1E7
:10135000405F23D010DC08B3B0F1805F14D0B0F14F
:10136000005F0FD115E0226ED8F8001021F4E021C3
:101370001143C8F80010E5E7B0F1804F0ED0B0F18E
:10138000A04F0BD001250AE00121201D01F05CFED9
:1013900003E00098012101F0E7FE05466DB12E46FD
:1013A000208800041FD5E06ED8B1B0F1805F0ED068
:1013B000B0F1005F10D0012514E0D4F8AC20D9F8CA
:1013C000001021F0E0411143C9F80010E8E7386847
:1013D00040F40030386004E00121201D01F034FEAB
:1013E00005466DB12E462068C0011ED5606CD0B197
:1013F00001280ED0022811D0032814D0012513E0B3
:10140000E26ED8F8001021F040511143C8F80010E6
:10141000E9E7386840F40030386004E00221201D1C
:1014200001F012FE054685B12E462068DFF85CB05B
:101430004002ABF11C0B57D51648016841F480718E
:101440000160FFF7A5FB82460EE01148626C001FA9
:10145000016821F0030111430160E6E7FFF798FB03
:10146000A0EB0A0064283DD80A480068C005F5D5FD
:101470007DBBDFF81CA0B4F8B0200AF1200ADAF82E
:10148000001002F4407001F4407105E02C44025851
:101490005044025800480258814211D0DAF8001036
:1014A000DAF8002021F4407142F48032CAF80020BA
:1014B000DAF8002022F48032CAF80020CAF80010BE
:1014C000D4F8B000B0F5807F21D1FFF761FB019027
:1014D00019E008E0FFF75CFB0199411A41F28830FE
:1014E000814210D903252E462078DFF844A4C00796
:1014F0003DD0A06F182838D026DC80B3082829D02A
:10150000102825D12CE0DAF800008007E2D5D4F8C5
:10151000B010C1F30120032858460DD0016821F412
:101520007C510160B4F8B020DAF80010C2F30B026D
:101530001143CAF80010D7E7FE4A036802EA111205
:1015400023F47C511143ECE720280ED028280CD03E
:1015500001250BE00121201D01F076FD04E004E0EF
:101560000098012101F000FE05465DB12E4620786D
:1015700080071ED5606F062819D2DFE800F0160C30
:1015800011161616A26FDAF8001021F03801114377
:10159000CAF80010EBE70121201D01F055FD03E022
:1015A0000098012101F0E0FD054675B100E001253C
:1015B0002E46207840071FD5D4F89000062819D26F
:1015C000DFE800F0160C11161616626FDAF800103C
:1015D00021F007011143CAF80010EAE70121201D9C
:1015E00001F032FD03E00098012101F0BDFD054648
:1015F0009DB100E001252E46207880062BD5D4F839
:101600008C00B0F1405F24D011DC10B3B0F1805FEA
:1016100015D0B0F1005F10D116E0D4F89020D9F8C1
:10162000001021F007011143C9F80010E4E7B0F100
:10163000804F0ED0B0F1A04F0BD001250AE0002161
:10164000201D01F001FD03E00098022101F08CFD56
:1016500005468DB12E46207840062BD5D4F898004B
:10166000B0F5406F24D011DC10B3B0F5806F15D009
:10167000B0F5006F10D116E0D4F88C20DAF8001025
:1016800021F0E0411143CAF80010E4E7B0F5805FB3
:101690000ED0B0F5A05F0BD001250AE00021201D7F
:1016A00001F0D2FC03E00098022101F05DFD054647
:1016B0008DB12E46207800062BD5D4F89C00B0F5CD
:1016C000C04F24D011DC10B3B0F5005F15D0B0F5D9
:1016D000804F10D116E0D4F89820D9F8001021F4EA
:1016E000E0511143C9F80010E4E7B0F5004F0ED007
:1016F000B0F5204F0BD001250AE00021201D01F09C
:10170000A3FC03E00098022101F02EFD05464DB137
:101710002E46207800071ED5D4F88000B0F5805FF3
:101720000AD00FE0D4F89C20D9F8001021F46041D1
:101730001143C9F80010ECE70098022101F014FDF4
:1017400000B10126D4F88020DAF8001021F44051CD
:101750001143CAF800102078C00613D5D4F89400BD
:10176000B0F5807F05D10098022101F0FDFC00B1A9
:101770000126D4F89420D9F8001021F440711143C7
:10178000C9F800102068000316D5D4F8A00038B1BD
:10179000B0F5803F09D0B0F5003F0BD001250AE03D
:1017A0000021201D01F050FC03E00098022101F00F
:1017B000DBFC054685B12E462068400322D5D4F8CF
:1017C0008400B0F5801F11D0B0F5001F13D0B0F524
:1017D000401F15D0012514E0D4F8A020D9F800103E
:1017E00021F440311143C9F80010E5E7386840F4AE
:1017F0000030386004E00098012101F0B5FC054696
:1018000055B12E462068C0031CD5E06C70B1B0F510
:10181000803F10D0012514E0D4F88420DAF80010BD
:1018200021F440111143CAF80010EBE7386840F486
:101830000030386004E00221201D01F005FC05465F
:10184000CDB12E462068800005D50098022101F018
:101850008BFC00B10126206880031BD5E06FB8B176
:10186000B0F5807F10D0B0F5007F11D0B0F5407F8B
:101870000ED001250DE02E48E26C0838016821F4F5
:10188000803111430160DDE7386840F40030386092
:10189000F5B32E462068C00207D5226FD8F8001095
:1018A00021F000411143C8F800102068C00008D59D
:1018B000D4F8B420DBF8001021F480411143CBF8B8
:1018C00000102068800207D5A26ED8F8001021F021
:1018D00080711143C8F80010206840000CD5DBF877
:1018E000001021F40041CBF80010DBF80010D4F810
:1018F000B8201143CBF800102068002807DA0C4804
:10190000226D0838016821F040511143016000E068
:1019100014E02068000208D5D4F88820DAF8001016
:1019200021F440011143CAF8001086B1012003E000
:1019300054440258CFFFFF00BDE8FC9FE26FDAF885
:10194000001021F440711143CAF80010A2E70020F2
:10195000EDE700002DE9F05F04000F467ED0DFF8D0
:101960003882D8F8000000F00F00B8420CD2D8F846
:10197000001021F00F013943C8F80010D8F800001A
:1019800000F00F00B84269D12078844D40070AD595
:101990002069296801F07001884204D9296821F082
:1019A00070010143296020787C4E361D00070AD55E
:1019B0006069316801F07001884204D9316821F012
:1019C0007001014331602078C0060AD5A0693168F2
:1019D00001F4E061884204D9316821F4E0610143F7
:1019E00031602078DFF8B4B180060BF1080B0CD51C
:1019F000E1695846DBF8002002F07002914204D9F8
:101A0000026822F070020A430260207880070AD53B
:101A1000E068296801F00F01884204D9296821F0A3
:101A20000F01014329602078C0073ED05B49A268BE
:101A30002868183920F47060104328606068022814
:101A400018D0032819D00968012819D0490700299E
:101A50004ADADFF848A1AAF1080A00E044E0DAF81F
:101A6000002022F007020243CAF80020FFF790F896
:101A7000814612E009688903E9E709688901E6E718
:101A8000C905E4E7FFF784F8A0EB090141F28830CB
:101A9000814202D90320BDE8F09F6168DAF80000B6
:101AA00000F03800B0EBC10FECD1207880070AD5E8
:101AB000E068296801F00F01884204D2296821F00A
:101AC0000F0101432960D8F80010404601F00F01D2
:101AD000B9420BD9016821F00F0139430160006858
:101AE00000F00F00B84201D00120D4E72078400771
:101AF0000AD52069296801F07001884204D229685A
:101B000021F0700101432960207800070AD560693F
:101B1000316801F07001884204D2316821F070010F
:101B2000014331602078C0060AD5A069316801F40C
:101B3000E061884204D2316821F4E0610143316000
:101B4000207880060CD5E1695846DBF8002002F0C9
:101B50007002914204D2026822F070020A430260CD
:101B600000F06CF80E492A682B68C2F3032203F0D8
:101B70000F038A5CC95C02F01F0201F01F01D04014
:101B8000084A20FA01F11160074908600748006817
:101B9000BDE8F05FFFF738B8002000521844025843
:101BA00048D2020818000024140000240C0000246D
:101BB00030B500F043F80B4A0B490C4B156814681C
:101BC000C5F3032204F00F048A5C095D02F01F02D2
:101BD00001F01F01D040064A20FA01F1196010609F
:101BE000084630BD1844025848D2020818000024A4
:101BF0001400002400B5FFF7DBFF05490968054A1A
:101C0000C1F30211515C01F01F01C84000BD00008A
:101C10001C44025848D2020800B5FFF7C9FF054925
:101C20000968054AC1F30221515C01F01F01C84057
:101C300000BD00001C44025848D20208454970B556
:101C400045480968434B103B11F0380208D0011198
:101C5000082A03D0102A0BD0182A0BD0084670BDD2
:101C600019688906FBD51968C1F3C101C84070BD68
:101C70003A4870BD3749374D18310C1D24350A6874
:101C8000096826682D6802F0030406F00102C1F31A
:101C90000511C5F3CC0515FB02F200EE102AB8EED3
:101CA000400AE9B32F4ADFED2E0AB7EE001A6CB1F5
:101CB000DFED2D1A012C01D0022C43D002EE101AB8
:101CC0001068F8EE422A81EEA22A1EE01C68A406E3
:101CD00011D51B6801EE901A1168C3F3C103F8EE29
:101CE000612AD84001EE900AC1F30800F8EE611AAB
:101CF00081EEA22A0BE001EE901ADFED1C2A00BF54
:101D0000F8EE611A106882EEA12AC0F3080001EE15
:101D1000900AF8EE611A40EE201A31EE810A00E0D6
:101D200015E022EE000A1068C0F34620401C00EEC9
:101D3000900AF8EE600A80EE201ABCEEC10A10EE9E
:101D4000100A70BD01EE901ADFED092AD8E70020D5
:101D500070BD0000104402580090D00340787D010F
:101D600000000039304402580024744A0024744CA6
:101D700020BCBE4B2DE9F05F04007DD0FF4F2078E2
:101D8000FE4D1837DFF8F493103DC00748D0D9F85E
:101D90000000396800F03800102815D0182803D149
:101DA00001F0030002280FD06068B0F5803F12D028
:101DB00010B1B0F5A02F18D0286820F4803028602A
:101DC000286820F4802009E02868800328D560680E
:101DD0000028D2D024E0286840F480302860606871
:101DE00088B1FEF7D5FE064609E0286840F4802059
:101DF0002860F0E7FEF7CCFE801B64286FD82868C7
:101E00008003F7D50CE0FEF7C3FE064605E000BFF1
:101E1000FEF7BEFE801B6428F0D828688003F7D444
:101E2000207841F20308D54E0C3E800769D5D9F8D9
:101E30000000396810F038000ED0182801D188074A
:101E40000AD0E06890B3296821F0190101432960A4
:101E5000FEF79EFE824631E02868400702D5E06822
:101E600000288AD0E168286820F01900084328601B
:101E7000FEF78EFE824607E0DFE000BFFEF788FE39
:101E8000A0EB0A000228B9D828684007F6D500BFA1
:101E9000FEF778FE40451BD82069402812D03168F3
:101EA00021F47C3141EA003030602AE018E000BFC4
:101EB000FEF76EFEA0EB0A0002289FD828684007B4
:101EC000F6D5E5E7306820F47C3040F40030EBE7ED
:101ED000207C316821F0FE4141EA0060E4E70DE139
:101EE000286820F001002860FEF752FE824605E0D7
:101EF000FEF74EFEA0EB0A0002288DD828684007A6
:101F0000F6D42078C0065DD5D9F80000DFF86CB2B1
:101F1000396800F03800ABF1040B082810D01828FD
:101F200003D101F0030001280AD0E06900282868E5
:101F300038D040F080002860FEF72AFE824623E079
:101F40002868C00523D5E069802876D11FE0206A83
:101F5000202821D0316821F0F84141EA80603060CA
:101F600030E000BF94F82010DBF8002022F07C5213
:101F700042EA0161CBF8001024E000BFFEF708FE42
:101F8000A0EB0A00022898D82868C005F6D5FEF70D
:101F9000F9FD4045E6D8DAE7306820F0F84040F037
:101FA0008040DCE720F080002860FEF7F1FD064667
:101FB00005E000BFFEF7ECFD801B02289DD82868D5
:101FC000C005F7D42078000729D56C4861696430D2
:101FD00000298046016811D041F001010160FEF73F
:101FE000D7FD064605E000BFFEF7D2FD801B0228A4
:101FF000C9D8D8F800008007F6D510E021F001011B
:102000000160FEF7C5FD064605E000BFFEF7C0FD16
:10201000801B022872D8D8F800008007F6D42078F8
:10202000800623D5A0690028286810D040F480508D
:102030002860FEF7ADFD064605E02CE1FEF7A8FDA1
:10204000801B02285AD828688004F7D50EE020F4B7
:1020500080502860FEF79CFD064604E0FEF798FDE0
:10206000801B02284AD828688004F7D420784007CB
:102070004FD5DFF80C81D8F8001041F48071C8F812
:102080000010FEF785FD064605E000BFFEF780FD67
:10209000801B642832D8D8F80000C005F6D5374E2A
:1020A000A068603601280AD008B1052813D030682E
:1020B00020F001003060306820F0040002E0306859
:1020C00040F001003060A06841F2883A90B1FEF71C
:1020D0005FFD80460AE0306840F004003060EEE7C3
:1020E000FEF756FDA0EB0801514507D83068800780
:1020F000F6D50EE0FEF74CFD804607E084E000BF19
:10210000FEF746FDA0EB080151457DD830688007F9
:10211000F6D4606AB0B3DFF86480D9F8001008F133
:102120002008C1F3C20103296FD00228286820F0DB
:102130008070286003D0FEF72BFD044680E0FEF798
:1021400027FD064605E000BFFEF722FD801B0228A2
:1021500073D828688001F7D4E26A40F2F331386816
:1021600054F8283F884340EA021018433860217B26
:102170004FF4FE0C22894FF0FE4704E01044025851
:102180000048025889E0208A4902521E267DA1F5A6
:10219000007189B2401EC2F308021143761E0CEA98
:1021A000004001433E4807EA066211433C4AC8F832
:1021B00000100832016821F00101016011684FF63A
:1021C000F876236AB14341EAC30111600168A2694C
:1021D00021F00C01114301600168E26921F0020164
:1021E00011430160016841F480310160016841F4EC
:1021F00000310160016841F480210160016841F013
:1022000001010160286801E017E01DE040F08070E6
:102210002860FEF7BDFC044605E000BFFEF7B8FCF1
:10222000001B022809D828688001F7D535E000BFD7
:10223000FEF7AEFC001B022802D90320BDE8F09F88
:1022400028688001F4D428E039680128D8F8000013
:1022500021D0A26A01F0030393421CD1E26AC1F3C8
:1022600005118A4217D1216BC0F30802491E8A4228
:1022700011D1616BC0F34622491E91420BD1A16B73
:10228000C0F30642491E914205D1E16BC0F30660DE
:10229000491E814201D00120D0E70020CEE7000096
:1022A0002C44025870B5040015460E4603D094F82D
:1022B000450010B107E0012070BD002084F8440003
:1022C000204600F025F8206804F10801FEF762FAC4
:1022D000A26831462068FEF7A7FAE36A2946D4E9E6
:1022E0000102FEF737FAA16801232068074A50F877
:1022F000215045F0010540F82150106840F00040A1
:10230000106084F84530002070BD0000004000528D
:10231000FEF7D0BA401EB0F1807F10B501D3012086
:1023200010BD4FF0E02460610F21601703F05EFDE7
:102330000020A0610721216110BD704770477047E0
:10234000F0B590F83C20012A3BD01F4E012480F8C4
:102350003C40022280F83D2002681C4D5368B24286
:10236000D2F808C001D0AA4203D14F6823F4700309
:102370003B430F6823F070031F4357600268B2426B
:1023800013D0B2F1804F10D0114B9A420DD0114BA7
:102390009A420AD0104B9A4207D0AA4205D00F4B5E
:1023A0009A4202D00E4B9A4204D189682CF08003E5
:1023B00019439160002180F83D4080F83C100846A8
:1023C000F0BD0220F0BD000000000140000401400B
:1023D0000004004000080040000C004000180040CD
:1023E0000040014010B5040003D094F83D0010B146
:1023F00007E0012010BD002084F83C00204600F0DA
:1024000023F8022084F83D002068211D03F062F9C2
:10241000012084F8480084F83E0084F83F0084F8E6
:10242000400084F8410084F8420084F8430084F8B6
:10243000440084F8450084F8460084F8470084F896
:102440003D00002010BD000008B500680B4988421F
:1024500012D10B48016841F00201016000680022BE
:10246000114600F0020000901D20FEF757FCBDE869
:1024700008401D20FEF744BC08BD000000040040D9
:10248000E844025890F83D10012901D0012070471E
:10249000174A022180F83D100168CB6843F0010320
:1024A000CB600068904214D0B0F1804F11D0114938
:1024B00088420ED0104988420BD01049884208D07B
:1024C0000F49884205D00F49884202D00E49884200
:1024D00007D181680D4A1140062906D0B1F5803F29
:1024E00003D0016841F00101016000207047000045
:1024F000000001400004004000080040000C0040C3
:1025000000040140001800400040014007000100A5
:1025100070B5044690F83C000025012814D03A4BD1
:10252000012684F83C60022084F83D00226890680F
:10253000184020F47F409060086870282FD010DC8D
:1025400010F00F0F03D022E04FF0020070BD4FEAF1
:102550002012072A1BD2DFE802F0535353534B39A2
:102560004100B0F1101F4BD009DCB0F5805F0FD0F7
:10257000B0F5005F1ED0B0F5801F08D140E0A0F597
:10258000801120393CD010293AD0202938D001259B
:1025900084F83D60002084F83C00284670BD4A68FD
:1025A0002068D1E9021303F0F7F82068816841F050
:1025B000770109E04A682068D1E9021303F0ECF8DA
:1025C0002068816841F480418160E1E7CA68496818
:1025D000206803F0F5F82068502106E0CA684968D1
:1025E000206803F0FEF82068602103F0DFF8CFE7F1
:1025F000CA684968206803F0E3F820684021F4E7DE
:10260000226801461046F0E788FFCEFF704770B59C
:102610000446006800250169C943890715D4C168CB
:10262000C943890711D4EA1E02610121217720687C
:1026300080698007204602D0FFF7E8FF04E000F041
:10264000A7F8204600F0A5F8257720680169C9435E
:10265000490717D4C168C943490713D402216FF051
:102660000402026121772068806910F4407F2046CF
:1026700002D0FFF7CBFF04E000F08AF8204600F01C
:1026800088F8257720680169C943090716D4C1680D
:10269000C943090712D404216FF0080202612177AF
:1026A0002068C0698007204602D0FFF7AFFF04E032
:1026B00000F06EF8204600F06CF82577206801697C
:1026C000C943C90617D4C168C943C90613D4082130
:1026D0006FF01002026121772068C06910F4407F1A
:1026E000204602D0FFF792FF04E000F051F82046A8
:1026F00000F04FF8257720680169C943C90708D160
:10270000C168C943C90704D1891E0161204600F090
:1027100041F820680169C943090609D4C168C94361
:10272000090605D46FF0800101612046FFF706FE1F
:1027300020680169C943C90509D4C168C9430906AC
:1027400005D46FF4807101612046FFF7F6FD206823
:102750000169C943490609D4C168C943490605D47A
:102760006FF040010161204600F015F82068016912
:10277000C94389060BD4C168C943890607D46FF0E1
:10278000200101612046BDE87040FFF7D8BD70BD53
:10279000704770477047704730B590F88010012936
:1027A00018D0012280F880202421C0F88410002253
:1027B000202450F8641B0B680D6823F0005325F0AB
:1027C00001050D60026050F8641C0B600462027722
:1027D000104630BD022030BD70B5044690F8800030
:1027E00001281DD0012284F880202420C4F8840010
:1027F00020680568026822F0010202602068826891
:1028000022F060620A438260204602F0FDFF2268E7
:10281000202100201560C4F8841084F8800070BD69
:10282000022070BD70B5044690F8800001281DD0CC
:10283000012284F880202420C4F8840020680568E0
:10284000026822F0010202602068826822F0604281
:102850000A438260204602F0D7FF22682021002030
:102860001560C4F8841084F8800070BD022070BD2B
:1028700010B5040003D0D4F8840010B107E00120A3
:1028800010BD002084F88000204600F027F82420A6
:10289000C4F884002068016821F00101016020462D
:1028A00003F068F80128EBD0A06A10B1204602F0CE
:1028B000CDFF2068416821F4904141602068816823
:1028C00021F02A0181602068016841F00101016066
:1028D0002046BDE8104003F01DB8000010B5B6B0AA
:1028E000044614212FA8FDF798FEBC216846FDF789
:1028F00094FE18492068884229D100241E940120A2
:1029000000906846FEF7BCFB08B1FDF721FF1248B6
:10291000016841F010010160006800F0100034907F
:102920000D481038016841F00101016000682FABCB
:10293000022100F0010034904FF4C060072283E8C8
:10294000130006482FA9CDE93242FDF7FBFF36B050
:1029500010BD000000100140F04402580000025871
:10296000FEE700000A4970B50646088800244D8835
:1029700021464543204600F0BFF900F057FAB0B2B7
:10298000044901E00880641CAC42FBD370BD000028
:10299000E4040024000008602DE9F04782460E465A
:1029A000A2EB0A00DFF84890401CDDF82080991B5C
:1029B0000024491C85B28FB215E0301981B250460F
:1029C00000F09AF900F032FA0020494607E000BF13
:1029D00004FB0503401C80B238F813200A80A8428B
:1029E000F6D3641CA4B2BC42E7D3BDE8F087000074
:1029F000000008602DE9F04F36492C2300284FF0E5
:102A00002A094FF4305E4FF02B044FF4487545F21D
:102A1000105B887108464FF4A0774FF0F00C4FF42C
:102A2000F07249F24138808845F210360CD00F80A0
:102A30004045BA46A1F802C001D0B0422AD10B816C
:102A4000A1F80A908C813AE0A1F800C040454F807F
:102A500001D0B04208D10B81B042A1F80A908C811C
:102A600032D10F804A802FE0584508D1A1F808E004
:102A70004FF428544C814FF42C538B8107E0A0F580
:102A8000C856633E20D10B814C81A1F80C900A807E
:102A90004D8019E0584508D1A1F808E04FF42854BA
:102AA0004C814FF42C578F8107E0A0F5C857633F46
:102AB00005D10B81A1F80A908C810D804A80B0422B
:102AC00002D10A80A1F802A00020BDE8F04F00F07A
:102AD00037B80000E4040024034808B50088ADF8C6
:102AE0000000BDF8000008BD000008600246BE20DE
:102AF00000B500F08FF9052000F080F900EE102AF3
:102B00009FED0D1BB8EE400B20EE010BBCEEC00B91
:102B100010EE100A80B200F071F9012000F06EF999
:102B2000FF2000F06BF9002000F068F95DF804EB7D
:102B3000002000F063B900006666666666660440C1
:102B4000F0B56C4C002541F663172146A2798988BF
:102B5000012A01D01AB11BE0B94202D118E0B942F2
:102B600016D1082814D2DFE800F00406080A0C0E7B
:102B7000101206200CE007200AE0042008E00520DF
:102B800006E0012004E0002002E0032000E0022033
:102B900045F21032A1F5134345F21056413B05D0E2
:102BA000914203D0B14201D0B94277D1082812D264
:102BB000DFE800F0110406080A0C0E1080250AE078
:102BC000402508E0C02506E0202504E0602502E05D
:102BD000A02500E0E025B14202D14FF4585000E0BA
:102BE0003620914205D0B14203D0B94201D045F020
:102BF0000805294600F024F9A188B9420AD0628864
:102C0000A806208802D5904202D303E0904201D961
:102C100022806080B142608941D100F0FBF8002041
:102C200000F0ECF86089401C80B200F0F3F800205E
:102C300000F0E4F86089801C80B200F0EBF8208896
:102C4000401EC0F30F2000F0D9F86089C01C80B28C
:102C500000F0E0F82078401EC0B200F0CFF8A08964
:102C600000F0D8F8002000F0C9F8A089401C80B21C
:102C700000F0D0F8002000F0C1F8A089801C80B2DC
:102C800000F0C8F86088401EC0F30F2000F0B6F8CE
:102C9000A089C01C80B200F0BDF822E028E000F05E
:102CA000B9F8002000F0AAF8002000F0A7F820886A
:102CB000401EC0F30F2000F0A1F82078401EC0B2E3
:102CC00000F09CF8A08900F0A5F8002000F096F82C
:102CD000002000F093F86088401EC0F30F2000F041
:102CE0008DF8A078BDE8F040401EC0B200F086B874
:102CF000F0BD0000E4040024F0B53F4A060A044693
:102D00000D4610460F0A91884089A1F51343413BB7
:102D100028D0A1F5A643103B24D0A1F5C853633BAE
:102D20002FD0A1F5AA43103B64D100F073F83046D0
:102D300000F064F85089401C80B200F06BF8E0B2FB
:102D400000F05CF8908900F065F8384600F056F81D
:102D50009089401C80B200F05DF8E8B2BDE8F04018
:102D600000F04CB800F056F8304600F047F8E0B2FA
:102D700000F044F8908900F04DF8384600F03EF835
:102D8000EBE7917929B300F045F8304600F036F8CA
:102D9000E0B200F033F81088401EC0F30F2000F0BE
:102DA0002DF81078401EC0B200F028F8908900F08D
:102DB00031F8384600F022F8E8B200F01FF85088E9
:102DC000401EC0F30F2000F019F89078401EC0B2EA
:102DD000C4E71188091B491E8CB200F01BF80020C3
:102DE00000F00CF8002000F009F8200A00F006F8C6
:102DF000E0B2D9E7F0BD0000E404002401B5BDF85D
:102E000000100348ADF80010BDF80010018008BDA7
:102E10000000086001B5BDF800100348ADF80010CF
:102E2000BDF80010018008BDFEFF0760024803499D
:102E30000089088070470000E4040024FEFF07605A
:102E4000024B9A1C1880118070470000FEFF07603B
:102E5000F0B58FB01C216846FDF7DFFB1C2107A8E9
:102E6000FDF7DBFB1B480021194F10231A4E1125DB
:102E70000F2207609F02C0E90161C1601E02C0E924
:102E8000041381610124C161C0E908165E04C0E930
:102E90000A1701634163C0E90E16552601640595C2
:102EA0000092CDE90126CDE906120892CDE903434F
:102EB0000B93CDE90924CDE90C5107AA6946FFF728
:102EC000F1F9002801D0FDF743FC0FB0F0BD000080
:102ED00000400052BC0300240441005230B587B0CA
:102EE00014216846FDF799FB1E48016841F08001F6
:102EF0000160016801F080010591016841F0100155
:102F00000160016801F010010591016841F00801BC
:102F10000160016801F008010591016841F00101BB
:102F20000160016801F001010591016841F00201B1
:102F3000016000684FF400740B4D002200F00200A5
:102F4000214605902846FDF718FE00210094012037
:102F5000CDE90101284603916946FDF7F3FC07B06E
:102F600030BD0000E04402580004025830B587B07C
:102F7000184800241649EF2240F2E73300948025D8
:102F800001940294039404940594069480E8160036
:102F90008561C0E90334FFF725FA08B1FDF7D8FBD6
:102FA0004FF4805000900B486946FFF7B1FA08B122
:102FB000FDF7CEFB20200490064804A90694FFF7F5
:102FC000BFF9002801D0FDF7C3FB07B030BD0000FA
:102FD00000040040080400241848002110B5164CD5
:102FE0000C224FF4E1330460C0E90131C160C0E953
:102FF00004128161C161016241628162FFF738FCA4
:1030000008B1FDF7A5FB0D480021FFF70BFC08B147
:10301000FDF79EFB09480021FFF7DEFB08B1FDF735
:1030200097FB0648FFF7B8FB002803D0BDE8104027
:10303000FDF78EBB10BD00000010014054040024B9
:10304000FEE7FEE7704700002DE9F047454D0446D6
:1030500089464FF0000A2868C04380070AD0414ED5
:10306000283E306820F080603060FDF791FD074613
:10307000B04608E00120BDE8F08700BFFDF788FDFD
:10308000C01B022867D8D8F800000001F6D42068D9
:1030900029684FF4FE0721F47C313E0241EA0030FA
:1030A0002860207AA389B4F804C040022D4D2D4930
:1030B0005B1E227CACF1010C1035091DA0F50070DF
:1030C00080B2521ECCF3080C07EA034340EA0C001E
:1030D000184306EA0262104328600868626920F01B
:1030E000C000104308600A68A06922F02002024371
:1030F0000A60281D0A6822F010020A6002684FF672
:10310000F873E4699A4342EAC40202600868B9F1BC
:10311000000F40F010020A6011D00868B9F1010FE9
:1031200011D040F400100860D8F80000444640F088
:103130008060C8F80000FDF72BFD05460DE008682B
:1031400040F40020EFE740F48010ECE7FDF720FDAD
:10315000401B022801D903208DE720680001F5D526
:10316000504688E7284402582DE9F047454D04466B
:1031700089464FF0000A2868C04380070AD0414EB4
:10318000283E306820F080503060FDF701FD074692
:10319000B04608E00120BDE8F08700BFFDF7F8FC6D
:1031A000C01B022867D8D8F800008000F6D4208819
:1031B00029684FF4FE0721F07C713E0241EA00507D
:1031C0002860207AA389B4F804C040022D4D2D490F
:1031D0005B1E227CACF1010C1835091DA0F50070B6
:1031E00080B2521ECCF3080C07EA034340EA0C00FD
:1031F000184306EA0262104328600868626920F4F6
:103200004060104308600A68A06922F4007202431B
:103210000A60281D0A6822F480720A6002684FF66C
:10322000F873E4699A4342EAC40202600868B9F19B
:10323000000F40F480720A6011D00868B9F1010FE4
:1032400011D040F080700860D8F80000444640F08B
:103250008050C8F80000FDF79BFC05460DE00868AB
:1032600040F48000EFE740F40000ECE7FDF790FC4D
:10327000401B022801D903208DE720688000F5D586
:10328000504688E7284402587047FDF787BC000085
:1032900030B59DB04C216846FDF7BFF9202113A839
:1032A000FDF7BBF90220FDF76BFD21480024214901
:1032B000026842F44042026002680A6842F0010279
:1032C0000A60096801F001011B9101688904FCD5BD
:1032D00002200090402504950121039104220B92C5
:1032E0003C23CDE90904CDE90C300FAB0E900C2145
:1032F00083E8130068461294FEF73CFD08B172B6ED
:10330000FEE708221A95CDE91625D30113AA3F201E
:103310000321CDE9185382E81300042113A8FEF716
:1033200019FB002801D072B6FEE71DB030BD0000C9
:10333000184802582C0400582C48F0B52C4A016853
:1033400041F470010160106800F00F00072804D2FA
:10335000106820F00F00C01D106026490020254C89
:1033600010340B68244D43F001030B6020600B68A0
:103370002B400B60136803F00F03072B04D913686D
:1033800023F00F03DB1D13601A4C1C4A18341C4B2E
:10339000261D371D2060174C1A4D28343060261D1D
:1033A0003860371D23603B1D35601C1D3A60251DAC
:1033B0002E1D1860331D22602860326018600A6874
:1033C0000C4B114C22F4802260330A601860206894
:1033D0006FF30F00B0F1005F03D20C490120C1F878
:1033E000080143F2D2000A490860F0BD88ED00E010
:1033F00000200052004402587FEDF6EA80020101ED
:10340000000202020000FF010010005C0080005179
:10341000004000522DE9F05F3220FDF739FAD32049
:10342000FFF7F8FCFFF758FBFE4A9080FFF754FBCC
:103430009080FFF751FB4FF6FF7404EA0020908064
:10344000FFF74AFB918849F2413641F6631845F28D
:103450001037084345F21055B042908046D0D42032
:10346000FFF7D8FCFFF738FB9080FFF735FB908023
:10347000FFF732FB04EA00209080FFF72DFB9188D4
:1034800008439080B84231D04FF45A40FFF7C2FC55
:10349000FFF722FB90804FF45B40FFF7BBFCFFF788
:1034A0001BFB04EA002090804FF45C40FFF7B2FC65
:1034B000FFF712FB918808439080B0F5004F7DD054
:1034C000A84213D0A120FFF7A5FCFFF705FB9080D1
:1034D000FFF702FB04EA00209080FFF7FDFA9388D3
:1034E00018439080A0F5AE41613968D080B2B042F7
:1034F00066D1CF20FFF78EFC0020FFF77FFCC120B4
:10350000FFF77CFC3020FFF779FCED20FFF782FC11
:103510006420FFF773FC0320FFF770FC1220FFF715
:103520006DFC8120FFF76AFCE820FFF773FC852023
:10353000FFF764FC1020FFF761FC7A20FFF75EFCC8
:10354000CB20FFF767FC3920FFF758FC2C20FFF752
:1035500055FC0020FFF752FC3420FFF74FFC0220FF
:10356000FFF74CFCF720FFF755FC2020FFF746FC47
:10357000EA20FFF74FFC0020FFF740FC0020FFF798
:103580003DFCC020FFF746FC1B20FFF737FCC120A5
:10359000FFF740FC0120FFF731FCC520FFF73AFCA4
:1035A0003020FFF72BFC3020FFF728FCC720FFF767
:1035B00031FCB720FFF722FC362002E0B5E0B0E096
:1035C000B5E0FFF727FC4820FFF718FC3A20FFF78B
:1035D00021FC5520FFF712FCB120FFF71BFC002057
:1035E000FFF70CFC1A20FFF709FCB620FFF712FCCE
:1035F0000A20FFF703FCA220FFF700FCF220FFF7F0
:1036000009FC0020FFF7FAFB2620FFF703FC01204E
:10361000FFF7F4FBE020FFF7FDFB0F20FFF7EEFBC9
:103620002A20FFF7EBFB2820FFF7E8FB0820FFF735
:10363000E5FB0E20FFF7E2FB0820FFF7DFFB54203D
:10364000FFF7DCFBA920FFF7D9FB4320FFF7D6FBF0
:103650000A20FFF7D3FB0F20FFF7D0FB0020FFF776
:10366000CDFB0020FFF7CAFB0020FFF7C7FB0020BF
:10367000FFF7C4FBE120FFF7CDFB0020FFF7BEFB07
:103680001520FFF7BBFB1720FFF7B8FB0720FFF75C
:10369000B5FB1120FFF7B2FB0620FFF7AFFB2B2095
:1036A000FFF7ACFB5620FFF7A9FB3C20FFF7A6FB7A
:1036B0000520FFF7A3FB1020FFF7A0FB0F20FFF76B
:1036C0009DFB3F20FFF79AFB3F20FFF797FB0F2062
:1036D000FFF794FB2B20FFF79DFB0020FFF78EFBED
:1036E0000020FFF78BFB0120FFF788FB3F20FFF74F
:1036F00085FB2A20FFF78EFB0020FFF77FFB0020D1
:10370000FFF77CFB0020FFF779FBEF20FFF776FB4C
:103710001120FFF77FFB7820FDF7BAF8292001F090
:1037200007BFA2F8048001F008BF9580FDE3B8420E
:103730007AD1ED20FFF76EFB0120FFF75FFBFE2043
:10374000FFF75CFBEE20FFF765FBDE20FFF756FB83
:103750002120FFF753FBF120FFF75CFB0120FFF76F
:103760004DFBDF20FFF756FB1020FFF747FBC4207F
:10377000FFF750FB8F20FFF741FBC620FFF74AFB06
:103780000020FFF73BFBE220FFF738FBE220FFF7CA
:1037900035FBE220FFF732FBBF20FFF73BFBAA20FF
:1037A000FFF72CFBB020FFF735FB0D20FFF726FBC2
:1037B0000020FFF723FB0D20FFF720FB0020FFF781
:1037C0001DFB1120FFF71AFB0020FFF717FB192044
:1037D000FFF714FB0020FFF711FB2120FFF70EFB82
:1037E0000020FFF70BFB2D20FFF708FB0020FFF761
:1037F00005FB3D20FFF702FB0020FFF7FFFA5D20ED
:10380000FFF7FCFA0020FFF7F9FA5D20FFF7F6FA60
:103810000020FFF7F3FAB120FFF7FCFA8020FFF752
:10382000EDFA02E0E4040024FEE30020FFF7E6FAEC
:103830008B20FFF7E3FA0020FFF7E0FA9620FFF76E
:10384000DDFA0020FFF7DAFAB220FFF7E3FA0020F2
:10385000FFF7D4FA0020FFF7D1FA0220FFF7CEFAE3
:103860000020FFF7CBFA0320FFF7C8FA0020FFF78C
:10387000C5FAB320FFF7CEFA0020FFF7BFFA002009
:10388000FFF7BCFA0020FFF7B9FA0020FFF7B6FAFD
:103890000020FFF7B3FA0020FFF7B0FA0020FFF78F
:1038A000ADFA0020FFF7AAFA0020FFF7A7FA0020E0
:1038B000FFF7A4FA0020FFF7A1FA0020FFF79EFA15
:1038C0000020FFF79BFA0020FFF798FA0020FFF78F
:1038D00095FA0020FFF792FA0020FFF78FFA0020F8
:1038E000FFF78CFA0020FFF789FA0020FFF786FA2D
:1038F0000020FFF783FA0020FFF780FA0020FFF78F
:103900007DFA0020FFF77AFAB420FFF783FA8B20C4
:10391000FFF774FA0020FFF771FA9620FFF76EFAAE
:103920000020FFF76BFAA120FFF768FA0020FFF7ED
:1039300065FAB520FFF76EFA0220FFF75FFA002064
:10394000FFF75CFA0320FFF759FA0020FFF756FA59
:103950000420FFF753FA0020FFF750FAB620FFF7D4
:1039600059FA0020FFF74AFA0020FFF747FAB7207C
:10397000FFF750FA0020FFF741FA0020FFF73EFA68
:103980003F20FFF73BFA0020FFF738FA5E20FFF7F1
:1039900035FA0020FFF732FA6420FFF72FFA0020F3
:1039A000FFF72CFA8C20FFF729FA0020FFF726FA00
:1039B000AC20FFF723FA0020FFF720FADC20FFF706
:1039C0001DFA0020FFF71AFA7020FFF717FA0020FF
:1039D000FFF714FA9020FFF711FA0020FFF70EFA14
:1039E000EB20FFF70BFA0020FFF708FADC20FFF7C7
:1039F00005FA0020FFF702FAB820FFF70BFA0020C3
:103A0000FFF7FCF90020FFF7F9F90020FFF7F6F9BE
:103A10000020FFF7F3F90020FFF7F0F90020FFF78F
:103A2000EDF90020FFF7EAF90020FFF7E7F9BA20E7
:103A3000FFF7F0F92420FFF7E1F90020FFF7DEF9A6
:103A40000020FFF7DBF90020FFF7D8F9C120FFF7CE
:103A5000E1F92020FFF7D2F90020FFF7CFF9542039
:103A6000FFF7CCF90020FFF7C9F9FF20FFF7C6F9EF
:103A70000020FFF7C3F9C220FFF7CCF90A20FFF7B7
:103A8000BDF90020FFF7BAF90420FFF7B7F90020CD
:103A9000FFF7B4F9C320FFF7BDF93C20FFF7AEF9FB
:103AA0000020FFF7ABF93A20FFF7A8F90020FFF755
:103AB000A5F93920FFF7A2F90020FFF79FF9372079
:103AC000FFF79CF90020FFF799F93C20FFF796F9E2
:103AD0000020FFF793F93620FFF790F90020FFF759
:103AE0008DF93220FFF78AF90020FFF787F92F20A0
:103AF000FFF784F90020FFF781F92C20FFF77EF90A
:103B00000020FFF77BF92920FFF778F90020FFF765
:103B100075F92620FFF772F90020FFF76FF92420CE
:103B2000FFF76CF90020FFF769F92420FFF766F929
:103B30000020FFF763F92320FFF760F90020FFF76B
:103B40005DF93C20FFF75AF90020FFF757F93620BE
:103B5000FFF754F90020FFF751F93220FFF74EF933
:103B60000020FFF74BF92F20FFF748F90020FFF75F
:103B700045F92C20FFF742F90020FFF73FF92920F3
:103B8000FFF73CF90020FFF739F92620FFF736F957
:103B90000020FFF733F92420FFF730F90020FFF76A
:103BA0002DF92420FFF72AF90020FFF727F9232019
:103BB000FFF724F90020FFF721F9C420FFF72AF9C5
:103BC0006220FFF71BF90020FFF718F90520FFF727
:103BD00015F90020FFF712F98420FFF70FF90020F4
:103BE000FFF70CF9F020FFF709F90020FFF706F9BD
:103BF0001820FFF703F90020FFF700F9A420FFF7D2
:103C0000FDF80020FFF7FAF81820FFF7F7F800207A
:103C1000FFF7F4F85020FFF7F1F80020FFF7EEF877
:103C20000C20FFF7EBF80020FFF7E8F81720FFF76C
:103C3000E5F80020FFF7E2F89520FFF7DFF8002015
:103C4000FFF7DCF8F320FFF7D9F80020FFF7D6F8EC
:103C5000E620FFF7D3F80020FFF7D0F8C520FFF7E4
:103C6000D9F83220FFF7CAF80020FFF7C7F8442040
:103C7000FFF7C4F80020FFF7C1F86520FFF7BEF892
:103C80000020FFF7BBF87620FFF7B8F80020FFF719
:103C9000B5F88820FFF7B2F80020FFF7AFF8C6208C
:103CA000FFF7B8F82020FFF7A9F80020FFF7A6F8E3
:103CB0001720FFF7A3F80020FFF7A0F80120FFF777
:103CC0009DF80020FFF79AF8C720FFF7A3F800201F
:103CD000FFF794F80020FFF791F80020FFF78EF827
:103CE0000020FFF78BF8C820FFF794F80020FFF7BB
:103CF00085F80020FFF782F80020FFF77FF800200A
:103D0000FFF77CF8C920FFF785F80020FFF776F869
:103D10000020FFF773F80020FFF770F80020FFF78E
:103D20006DF80020FFF76AF80020FFF767F8002021
:103D3000FFF764F80020FFF761F80020FFF75EF856
:103D40000020FFF75BF80020FFF758F80020FFF78E
:103D500055F80020FFF752F80020FFF74FF8002039
:103D6000FFF74CF80020FFF749F8E020FFF752F882
:103D70001620FFF743F80020FFF740F81C20FFF75C
:103D80003DF80020FFF73AF82120FFF737F8002030
:103D9000FFF734F83620FFF731F80020FFF72EF850
:103DA0004620FFF72BF80020FFF728F85220FFF7F6
:103DB00025F80020FFF722F86420FFF71FF8002005
:103DC000FFF71CF87A20FFF719F80020FFF716F824
:103DD0008B20FFF713F80020FFF710F89920FFF76A
:103DE0000DF80020FFF70AF8A820FFF707F80020D9
:103DF000FFF704F8B920FFF701F80020FEF7FEFFF7
:103E0000C420FEF7FBFF0020FEF7F8FFCA20FEF7F4
:103E1000F5FF0020FEF7F2FFD220FEF7EFFF0020B3
:103E2000FEF7ECFFD920FEF7E9FF0020FEF7E6FFE2
:103E3000E020FEF7E3FF0020FEF7E0FFF320FEF7AF
:103E4000DDFF0020FEF7DAFFE120FEF7E3FF16209A
:103E5000FEF7D4FF0020FEF7D1FF1C20FEF7CEFFB7
:103E60000020FEF7CBFF2220FEF7C8FF0020FEF760
:103E7000C5FF3620FEF7C2FF0020FEF7BFFF45203A
:103E8000FEF7BCFF0020FEF7B9FF5220FEF7B6FF99
:103E90000020FEF7B3FF6420FEF7B0FF0020FEF71E
:103EA000ADFF7A20FEF7AAFF0020FEF7A7FF8B20C8
:103EB000FEF7A4FF0020FEF7A1FF9920FEF79EFF6A
:103EC0000020FEF79BFFA820FEF798FF0020FEF7DA
:103ED00095FFB920FEF792FF0020FEF78FFFC42068
:103EE000FEF78CFF0020FEF789FFCA20FEF786FF51
:103EF0000020FEF783FFD220FEF780FF0020FEF7B0
:103F00007DFFD820FEF77AFF0020FEF777FFE02044
:103F1000FEF774FF0020FEF771FFF320FEF76EFF3F
:103F20000020FEF76BFFE22000E082E3FEF772FF65
:103F30000520FEF763FF0020FEF760FF0B20FEF771
:103F40005DFF0020FEF75AFF1B20FEF757FF002001
:103F5000FEF754FF3420FEF751FF0020FEF74EFF1E
:103F60004420FEF74BFF0020FEF748FF4F20FEF7EE
:103F700045FF0020FEF742FF6120FEF73FFF0020D3
:103F8000FEF73CFF7920FEF739FF0020FEF736FFF1
:103F90008820FEF733FF0020FEF730FF9720FEF762
:103FA0002DFF0020FEF72AFFA620FEF727FF0020A6
:103FB000FEF724FFB720FEF721FF0020FEF71EFFCB
:103FC000C220FEF71BFF0020FEF718FFC720FEF7F8
:103FD00015FF0020FEF712FFD120FEF70FFF002093
:103FE000FEF70CFFD620FEF709FF0020FEF706FFC4
:103FF000DD20FEF703FF0020FEF700FFF320FEF7B1
:10400000FDFE0020FEF7FAFEE320FEF703FF052089
:10401000FEF7F4FE0020FEF7F1FE0A20FEF7EEFEAA
:104020000020FEF7EBFE00E001E31C20FEF7E6FEB9
:104030000020FEF7E3FE3320FEF7E0FE0020FEF74F
:10404000DDFE4420FEF7DAFE0020FEF7D7FE50200A
:10405000FEF7D4FE0020FEF7D1FE6220FEF7CEFE72
:104060000020FEF7CBFE7820FEF7C8FE0020FEF70A
:10407000C5FE8820FEF7C2FE0020FEF7BFFE972097
:10408000FEF7BCFE0020FEF7B9FEA620FEF7B6FE46
:104090000020FEF7B3FEB720FEF7B0FE0020FEF7CB
:1040A000ADFEC220FEF7AAFE0020FEF7A7FEC72045
:1040B000FEF7A4FE0020FEF7A1FED120FEF79EFE33
:1040C0000020FEF79BFED520FEF798FE0020FEF7AD
:1040D00095FEDD20FEF792FE0020FEF78FFEF32016
:1040E000FEF78CFE0020FEF789FEE420FEF792FE2C
:1040F0000120FEF783FE0020FEF780FE0120FEF780
:104100007DFE0020FEF77AFE0220FEF777FE0020FB
:10411000FEF774FE2A20FEF771FE0020FEF76EFE09
:104120003C20FEF76BFE0020FEF768FE4B20FEF7FA
:1041300065FE0020FEF762FE5D20FEF75FFE0020B8
:10414000FEF75CFE7420FEF759FE0020FEF756FED7
:104150008420FEF753FE0020FEF750FE9320FEF76A
:104160004DFE0020FEF74AFEA220FEF747FE00208B
:10417000FEF744FEB320FEF741FE0020FEF73EFEB0
:10418000BE20FEF73BFE0020FEF738FEC420FEF7FF
:1041900035FE0020FEF732FECD20FEF72FFE002078
:1041A000FEF72CFED320FEF729FE0020FEF726FEA8
:1041B000DD20FEF723FE0020FEF720FEF320FEF7B1
:1041C0001DFE0020FEF71AFEE520FEF723FE00206C
:1041D000FEF714FE0020FEF711FE0020FEF70EFE93
:1041E0000020FEF70BFE0220FEF708FE0020FEF77F
:1041F00005FE2920FEF702FE0020FEF7FFFD3C2011
:10420000FEF7FCFD0020FEF7F9FD4B20FEF7F6FD62
:104210000020FEF7F3FD5D20FEF7F0FD0020FEF725
:10422000EDFD7420FEF7EAFD0020FEF7E7FD842097
:10423000FEF7E4FD0020FEF7E1FD9320FEF7DEFD32
:104240000020FEF7DBFDA220FEF7D8FD0020FEF7E0
:10425000D5FDB320FEF7D2FD0020FEF7CFFDBE2036
:10426000FEF7CCFD0020FEF7C9FDC420FEF7C6FD19
:104270000020FEF7C3FDCD20FEF7C0FD0020FEF7B5
:10428000BDFDD320FEF7BAFD0020FEF7B7FDDC2010
:10429000FEF7B4FD0020FEF7B1FDF320FEF7AEFD02
:1042A0000020FEF7ABFDE620FEF7B4FD1120FEF77F
:1042B000A5FD0020FEF7A2FD3420FEF79FFD0020A3
:1042C000FEF79CFD5620FEF799FD0020FEF796FDB7
:1042D0007620FEF793FD0020FEF790FD7720FEF795
:1042E0008DFD0020FEF78AFD6620FEF787FD002089
:1042F000FEF784FD8820FEF781FD0020FEF77EFD9D
:104300009920FEF77BFD0020FEF778FDBB20FEF72D
:1043100075FD0020FEF772FD9920FEF76FFD00206D
:10432000FEF76CFD6620FEF769FD0020FEF766FDD6
:104330005520FEF763FD0020FEF760FD5520FEF7D7
:104340005DFD0020FEF75AFD4520FEF757FD0020D9
:10435000FEF754FD4320FEF751FD0020FEF74EFD11
:104360004420FEF74BFD0020FEF748FDE720FEF756
:1043700051FD3220FEF742FD0020FEF73FFD5520A3
:10438000FEF73CFD0020FEF739FD7620FEF736FDF6
:104390000020FEF733FD6620FEF730FD0020FEF71B
:1043A0002DFD6720FEF72AFD0020FEF727FD672080
:1043B000FEF724FD0020FEF721FD8720FEF71EFDFD
:1043C0000020FEF71BFD9920FEF718FD0020FEF7E8
:1043D00015FDBB20FEF712FD0020FEF70FFD992012
:1043E000FEF70CFD0020FEF709FD7720FEF706FD25
:1043F0000020FEF703FD4420FEF700FD0020FEF73D
:10440000FDFC5620FEF7FAFC0020FEF7F7FC232007
:10441000FEF7F4FC0020FEF7F1FC3320FEF7EEFC83
:104420000020FEF7EBFC4520FEF7E8FC0020FEF73D
:10443000E5FCE820FEF7EEFC0020FEF7DFFC0020A4
:10444000FEF7DCFC9920FEF7D9FC0020FEF7D6FC35
:104450008720FEF7D3FC0020FEF7D0FC8820FEF773
:10446000CDFC0020FEF7CAFC7720FEF7C7FC002039
:10447000FEF7C4FC6620FEF7C1FC0020FEF7BEFC80
:104480008820FEF7BBFC0020FEF7B8FCAA20FEF750
:10449000B5FC0020FEF7B2FCBB20FEF7AFFC00200D
:1044A000FEF7ACFC9920FEF7A9FC0020FEF7A6FC65
:1044B0006620FEF7A3FC0020FEF7A0FC5520FEF7C7
:1044C0009DFC0020FEF79AFC5520FEF797FC00208B
:1044D000FEF794FC4420FEF791FC0020FEF78EFCD2
:1044E0004420FEF78BFC0020FEF788FC5520FEF7E9
:1044F00085FC0020FEF782FCE920FEF78BFCAA2059
:10450000FEF77CFC0020FEF779FC0020FEF776FC2D
:104510000020FEF773FC0020FEF77CFCAA20FEF7CB
:104520006DFCCF20FEF776FC0020FEF767FC002034
:10453000FEF764FC0020FEF761FC0020FEF75EFC45
:104540000020FEF75BFC0020FEF758FC0020FEF781
:1045500055FC0020FEF752FC0020FEF74FFC002027
:10456000FEF74CFC0020FEF749FC0020FEF746FC5D
:104570000020FEF743FC0020FEF740FC0020FEF781
:104580003DFC0020FEF73AFC0020FEF737FCF0204F
:10459000FEF740FC0020FEF731FC5020FEF72EFC19
:1045A0000020FEF72BFC0020FEF728FC0020FEF781
:1045B00025FCF320FEF72EFC0020FEF71FFCF9205F
:1045C000FEF728FC0620FEF719FC1020FEF716FC6B
:1045D0002920FEF713FC0020FEF710FC3A20FEF71E
:1045E00019FC5520FEF70AFC1120FEF713FC64208D
:1045F000FCF74EF92920FEF70DFC3520FEF70AFCEA
:104600000020FEF7FBFB5120FEF704FCFF20FEF725
:10461000F5FB5320FEF7FEFB2C20FEF7EFFB5520A9
:10462000FEF7F8FB8220FEF7E9FB2C20FEE3A84210
:104630007ED14FF4704555212846FEF701FC6E1CD3
:10464000AA213046FEF7FCFBAF1C52213846FEF78C
:10465000F7FB4FF2030808214046FEF7F1FB4FF24B
:10466000040901214846FEF7EBFB0D214FF43040D1
:10467000FEF7E6FB0D214BF20100FEF7E1FB0D21F9
:104680004BF20200FEF7DCFB4FF4364A3421504671
:10469000FEF7D6FB34214BF20160FEF7D1FB34214B
:1046A0004BF20260FEF7CCFB4FF4314B0D21584624
:1046B000FEF7C6FB0D214BF20110FEF7C1FB0D21E9
:1046C0004BF20210FEF7BCFB34214FF43740FEF7EB
:1046D000B7FB34214BF20170FEF7B2FB34214BF2F1
:1046E0000270FEF7ADFB00214FF43240FEF7A8FB4D
:1046F00000214BF20120FEF7A3FB00214BF2022028
:10470000FEF79EFB24214FF43840FEF799FB24214D
:104710004BF60100FEF794FB24214BF60200FEF756
:104720008FFB01214FF43F40FEF78AFB0F2100E091
:10473000FEE34FF43340FEF783FB0F214BF20130D1
:10474000FEF77EFB0F214BF20230FEF779FB34219E
:104750004FF43940FEF774FB34214BF60110FEF79D
:104760006FFB34214BF60210FEF76AFB08214FF471
:104770003540FEF765FB08214BF20150FEF760FB68
:1047800008214BF20250FEF75BFB03214FF442403D
:10479000FEF756FB24214FF43A40FEF751FB24214B
:1047A0004BF60120FEF74CFB24214BF60220FEF7CE
:1047B00047FB00214FF43C40FEF742FB78214BF6CB
:1047C0000140FEF73DFB00214BF60240FEF738FBAF
:1047D00000214FF43D40FEF733FB78214BF60150AA
:1047E000FEF72EFB00214BF60250FEF729FB0021BD
:1047F0004FF43E40FEF724FB64214BF60160FEF7C8
:104800001FFB00214FF45140FEF71AFB33214DF2FC
:104810000110FEF715FB00214DF20210FEF710FB10
:1048200034214DF20310FEF70BFB00214DF2041072
:10483000FEF706FB3A214DF20510FEF701FB0021C1
:104840004DF20610FEF7FCFA4A214DF20710FEF772
:10485000F7FA00214DF20810FEF7F2FA5C214DF252
:104860000910FEF7EDFA00214DF20A10FEF7E8FA02
:1048700081214DF20B10FEF7E3FA00214DF20C10EE
:10488000FEF7DEFAA6214DF20D10FEF7D9FA00214F
:104890004DF20E10FEF7D4FAE5214DF20F10FEF79F
:1048A000CFFA01214DF21010FEF7CAFA13214DF292
:1048B0001110FEF7C5FA01214DF21210FEF7C0FAF1
:1048C00054214DF21310FEF7BBFA01214DF21410E2
:1048D000FEF7B6FA82214DF21510FEF7B1FA01216A
:1048E0004DF21610FEF7ACFACA214DF21710FEF782
:1048F000A7FA02214DF21810FEF7A2FA00214DF29C
:104900001910FEF79DFA02214DF21A10FEF798FADF
:1049100001214DF21B10FEF793FA02214DF21C10FB
:10492000FEF78EFA34214DF21D10FEF789FA0221AE
:104930004DF21E10FEF784FA67214DF21F10FEF7AC
:104940007FFA02214DF22010FEF77AFA84214DF20F
:104950002110FEF775FA02214DF22210FEF770FACF
:10496000A4214DF22310FEF76BFA02214DF2241020
:10497000FEF766FAB7214DF22510FEF761FA022123
:104980004DF22610FEF75CFACF214DF22710FEF70C
:1049900057FA02214DF22810FEF752FADE214DF2AD
:1049A0002910FEF74DFA02214DF22A10FEF748FABF
:1049B000F2214DF22B10FEF743FA02214DF22C109A
:1049C000FEF73EFAFE214DF22D10FEF739FA0321D3
:1049D0004DF22E10FEF734FA10214DF22F10FEF793
:1049E0002FFA03214DF23010FEF72AFA33214DF24F
:1049F0003110FEF725FA03214DF23210FEF720FAAE
:104A00006D214DF23310FEF71BFA00214FF4524096
:104A1000FEF716FA33214DF20120FEF711FA0021BC
:104A20004DF20220FEF70CFA34214DF20320FEF77E
:104A300007FA00214DF20420FEF702FA3A214DF266
:104A40000520FEF7FDF900214DF20620FEF7F8F9EA
:104A50004A214DF20720FEF7F3F900214DF208201C
:104A6000FEF7EEF95C214DF20920FEF7E9F900218D
:104A70004DF20A20FEF7E4F981214DF20B20FEF7FA
:104A8000DFF900214DF20C20FEF7DAF9A6214DF2F4
:104A90000D20FEF7D5F900214DF20E20FEF7D0F9DA
:104AA000E5214DF20F20FEF7CBF901214DF2102048
:104AB000FEF7C6F913214DF21120FEF7C1F90121CD
:104AC0004DF21220FEF7BCF954214DF21320FEF7EF
:104AD000B7F901214DF21420FEF7B2F982214DF20F
:104AE0001520FEF7ADF901214DF21620FEF7A8F9C9
:104AF000CA214DF21720FEF7A3F902214DF218202A
:104B0000FEF79EF900214DF21920FEF799F90221D6
:104B10004DF21A20FEF794F901214DF21B20FEF709
:104B20008FF902214DF21C20FEF78AF934214DF253
:104B30001D20FEF785F902214DF21E20FEF780F9B7
:104B400067214DF21F20FEF77BF902214DF2202054
:104B5000FEF776F984214DF22120FEF771F902214A
:104B60004DF22220FEF76CF9A4214DF22320FEF72E
:104B700067F902214DF22420FEF762F9B7214DF2C8
:104B80002520FEF75DF902214DF22620FEF758F9A7
:104B9000CF214DF22720FEF753F902214DF22820B4
:104BA000FEF74EF9DE214DF22920FEF749F90221E8
:104BB0004DF22A20FEF744F9F2214DF22B20FEF7A8
:104BC0003FF902214DF22C20FEF73AF9FE214DF279
:104BD0002D20FEF735F903214DF22E20FEF730F996
:104BE00010214DF22F20FEF72BF903214DF230203A
:104BF000FEF726F933214DF23120FEF721F903218A
:104C00004DF23220FEF71CF96D214DF23320FEF7F4
:104C100017F900214FF45340FEF712F933214DF2FA
:104C20000130FEF70DF900214DF20230FEF708F9D0
:104C300034214DF20330FEF703F900214DF2043028
:104C4000FEF7FEF83A214DF20530FEF7F9F80021A3
:104C50004DF20630FEF7F4F84A214DF20730FEF728
:104C6000EFF800214DF20830FEF7EAF85C214DF232
:104C70000930FEF7E5F800214DF20A30FEF7E0F8C2
:104C800081214DF20B30FEF7DBF800214DF20C30A4
:104C9000FEF7D6F8A6214DF20D30FEF7D1F800212F
:104CA0004DF20E30FEF7CCF8E5214DF20F30FEF755
:104CB000C7F801214DF21030FEF7C2F813214DF272
:104CC0001130FEF7BDF801214DF21230FEF7B8F8B1
:104CD00054214DF21330FEF7B3F801214DF2143098
:104CE000FEF7AEF882214DF21530FEF7A9F801214A
:104CF0004DF21630FEF7A4F8CA214DF21730FEF738
:104D00009FF802214DF21830FEF79AF800214DF27B
:104D10001930FEF795F802214DF21A30FEF790F89F
:104D200001214DF21B30FEF78BF802214DF21C30B1
:104D3000FEF786F834214DF21D30FEF781F802218E
:104D40004DF21E30FEF77CF867214DF21F30FEF762
:104D500077F802214DF22030FEF772F884214DF2EF
:104D60002130FEF76DF802214DF22230FEF768F88F
:104D7000A4214DF22330FEF763F802214DF22430D6
:104D8000FEF75EF8B7214DF22530FEF759F8022103
:104D90004DF22630FEF754F8CF214DF22730FEF7C2
:104DA0004FF802214DF22830FEF74AF8DE214DF28D
:104DB0002930FEF745F802214DF22A30FEF740F87F
:104DC000F2214DF22B30FEF73BF802214DF22C3050
:104DD000FEF736F8FE214DF22D30FEF731F80321B3
:104DE0004DF22E30FEF72CF810214DF22F30FEF749
:104DF00027F803214DF23030FEF722F833214DF22F
:104E00003130FEF71DF803214DF23230FEF718F86D
:104E10006D214DF23330FEF713F800214FF454406A
:104E2000FEF70EF833214DF2014000E080E3FEF77B
:104E300007F800214DF20240FEF702F834214DF24E
:104E40000340FDF7FDFF00214DF20440FDF7F8FFA0
:104E50003A214DF20540FDF7F3FF00214DF20640E7
:104E6000FDF7EEFF4A214DF20740FDF7E9FF002173
:104E70004DF20840FDF7E4FF5C214DF20940FDF7DB
:104E8000DFFF00214DF20A40FDF7DAFF81214DF2EC
:104E90000B40FDF7D5FF00214DF20C40FDF7D0FF90
:104EA000A6214DF20D40FDF7CBFF00214DF20E4043
:104EB000FDF7C6FFE5214DF20F40FDF7C1FF0121CF
:104EC0004DF21040FDF7BCFF13214DF21140FDF7EC
:104ED000B7FF01214DF21240FDF7B2FF54214DF210
:104EE0001340FDF7ADFF01214DF21440FDF7A8FF7F
:104EF00082214DF21540FDF7A3FF01214DF216402E
:104F0000FDF79EFFCA214DF21740FDF799FF0221E0
:104F10004DF21840FDF794FF00214DF21940FDF7C6
:104F20008FFF02214DF21A40FDF78AFF012100E0B8
:104F300001E34DF21B40FDF783FF02214DF21C40BF
:104F4000FDF77EFF34214DF21D40FDF779FF022170
:104F50004DF21E40FDF774FF67214DF21F40FDF733
:104F60006FFF02214DF22040FDF76AFF84214DF2D0
:104F70002140FDF765FF02214DF22240FDF760FF61
:104F8000A4214DF22340FDF75BFF02214DF22440A6
:104F9000FDF756FFB7214DF22540FDF751FF0221E5
:104FA0004DF22640FDF74CFFCF214DF22740FDF793
:104FB00047FF02214DF22840FDF742FFDE214DF26E
:104FC0002940FDF73DFF02214DF22A40FDF738FF51
:104FD000F2214DF22B40FDF733FF02214DF22C4020
:104FE000FDF72EFFFE214DF22D40FDF729FF032195
:104FF0004DF22E40FDF724FF10214DF22F40FDF71A
:105000001FFF03214DF23040FDF71AFF33214DF20F
:105010003140FDF715FF03214DF23240FDF710FF3F
:105020006D214DF23340FDF70BFF00214FF4554049
:10503000FDF706FF33214DF20150FDF701FF00217E
:105040004DF20250FDF7FCFE34214DF20350FDF706
:10505000F7FE00214DF20450FDF7F2FE3A214DF229
:105060000550FDF7EDFE00214DF20650FDF7E8FE7C
:105070004A214DF20750FDF7E3FE00214DF20850A2
:10508000FDF7DEFE5C214DF20950FDF7D9FE00214F
:105090004DF20A50FDF7D4FE81214DF20B50FDF781
:1050A000CFFE00214DF20C50FDF7CAFEA6214DF2B5
:1050B0000D50FDF7C5FE00214DF20E50FDF7C0FE6C
:1050C000E5214DF20F50FDF7BBFE01214DF21050CE
:1050D000FDF7B6FE13214DF21150FDF7B1FE01218F
:1050E0004DF21250FDF7ACFE54214DF21350FDF776
:1050F000A7FE01214DF21450FDF7A2FE82214DF2D0
:105100001550FDF79DFE01214DF21650FDF798FE5A
:10511000CA214DF21750FDF793FE02214DF21850AF
:10512000FDF78EFE00214DF21950FDF789FE022198
:105130004DF21A50FDF784FE01214DF21B50FDF790
:105140007FFE02214DF21C50FDF77AFE34214DF214
:105150001D50FDF775FE02214DF21E50FDF770FE49
:1051600067214DF21F50FDF76BFE02214DF22050DA
:10517000FDF766FE84214DF22150FDF761FE02210C
:105180004DF22250FDF75CFEA4214DF22350FDF7B5
:1051900057FE02214DF22450FDF752FEB7214DF289
:1051A0002550FDF74DFE02214DF22650FDF748FE39
:1051B000CF214DF22750FDF743FE02214DF228503A
:1051C000FDF73EFEDE214DF22950FDF739FE0221AA
:1051D0004DF22A50FDF734FEF2214DF22B50FDF72F
:1051E0002FFE02214DF22C50FDF72AFEFE214DF23A
:1051F0002D50FDF725FE03214DF22E50FDF720FE28
:1052000010214DF22F50FDF71BFE03214DF23050BF
:10521000FDF716FE33214DF23150FDF711FE03214B
:105220004DF23250FDF70CFE6D214DF23350FDF77B
:1052300007FE00214FF45640FDF702FE33214DF2E8
:105240000160FDF7FDFD00214DF20260FDF7F8FD64
:1052500034214DF20360FDF7F3FD00214DF20460AF
:10526000FDF7EEFD3A214DF20560FDF7E9FD002165
:105270004DF20660FDF7E4FD4A214DF20760FDF7AF
:10528000DFFD00214DF20860FDF7DAFD5C214DF2F3
:105290000960FDF7D5FD00214DF20A60FDF7D0FD54
:1052A00081214DF20B60FDF7CBFD00214DF20C602A
:1052B000FDF7C6FDA6214DF20D60FDF7C1FD0021F1
:1052C0004DF20E60FDF7BCFDE5214DF20F60FDF7DC
:1052D000B7FD01214DF21060FDF7B2FD13214DF233
:1052E0001160FDF7ADFD01214DF21260FDF7A8FD43
:1052F00054214DF21360FDF7A3FD01214DF214601E
:10530000FDF79EFD82214DF21560FDF799FD01210B
:105310004DF21660FDF794FDCA214DF21760FDF7BE
:105320008FFD02214DF21860FDF78AFD00214DF23C
:105330001960FDF785FD02214DF21A60FDF780FD31
:1053400001214DF21B60FDF77BFD02214DF21C6037
:10535000FDF776FD34214DF21D60FDF771FD022150
:105360004DF21E60FDF76CFD67214DF21F60FDF7E9
:1053700067FD02214DF22060FDF762FD84214DF2B0
:105380002160FDF75DFD02214DF22260FDF758FD21
:10539000A4214DF22360FDF753FD02214DF224605C
:1053A000FDF74EFDB7214DF22560FDF749FD0221C5
:1053B0004DF22660FDF744FDCF214DF22760FDF749
:1053C0003FFD02214DF22860FDF73AFDDE214DF24E
:1053D0002960FDF735FD02214DF22A60FDF730FD11
:1053E000F2214DF22B60FDF72BFD02214DF22C60D6
:1053F000FDF726FDFE214DF22D60FDF721FD032175
:105400004DF22E60FDF71CFD10214DF22F60FDF7CF
:1054100017FD03214DF23060FDF712FD33214DF2EF
:105420003160FDF70DFD03214DF23260FDF708FDFF
:105430006D214DF23360FDF703FD55212846FDF740
:10544000FFFCAA213046FDF7FBFC52213846FDF750
:10545000F7FC08214046FDF7F3FC00214846FDF724
:10546000EFFCCC215846FDF7EBFC00214BF201107C
:10547000FDF7E6FC05215046FDF7E2FC70214FF4F4
:105480003740FDF7DDFC70214BF20170FDF7D8FCD1
:1054900001214FF43840FDF7D3FC03214BF6010006
:1054A000FDF7CEFC03214BF60200FDF7C9FC0321FA
:1054B0004BF60300FDF7C4FC02214FF43C40FDF71E
:1054C000BFFC00214BF60140FDF7BAFC00214BF672
:1054D0000240FDF7B5FCD0214FF44940FDF7B0FC88
:1054E00002214CF60110FDF7ABFC50214CF60210E6
:1054F000FDF7A6FC50214CF60310FDF7A1FC50214E
:105500004CF60410FDF79CFC00214FF45450FDF7BD
:1055100097FC55214FF46850FDF792FC4FF48850EA
:10552000FDF778FC7720411EC8B2FCD24FF424501E
:10553000FDF770FCBAE04045FCD1E220FDF76AFCC3
:105540001D20FDF75BFC0220FDF758FC0420FDF751
:1055500055FC6320411EC8B2FCD2E020FDF75AFC86
:105560000120FDF74BFC0A20FBF792F9E020FDF744
:1055700051FC0320FDF742FC0C20FBF789F90120C8
:10558000FDF748FC0A20FBF783F9E620FDF742FC13
:105590002F20FDF733FCFF20FDF730FCFF20FDF747
:1055A0002DFCB020FDF736FC2020FDF727FC002065
:1055B000FDF724FC0320FDF721FC40F21F30FDF72E
:1055C0001DFC0120FDF71AFC40F2DF10FDF716FC70
:1055D0000020FDF713FCB420FDF71CFC0420FDF7B0
:1055E0000DFC40F21F40FDF709FC0020FDF706FC12
:1055F0002E20FDF703FC0020FDF700FC0020FDF746
:10560000FDFB0020FDF7FAFB0020FDF7F7FBB620BD
:10561000FDF700FC0220FDF7F1FB4FF40370FDF7EE
:10562000EDFB0020FDF7EAFB1720FDF7E7FB152057
:10563000FDF7E4FB0020FDF7E1FB0020FDF7DEFBBA
:10564000F020FDF7E7FB0320FDF7D8FB2920FDF74D
:10565000E1FBD020FDF7DEFB0020FDF7CFFBBE20F5
:10566000FDF7D8FB0520FDF7C9FBFE20FDF7C6FBC3
:105670000120FDF7C3FB0020FDF7C0FB0020FDF774
:10568000BDFB0020FDF7BAFBB820FDF7C3FB0320EC
:10569000FDF7B4FB0120FDF7B1FBBA20FDF7BAFB23
:1056A0000120FDF7ABFB6420FDF720FA0020FDF799
:1056B000A1F92046BDE8F05FFDF754B9012010B50F
:1056C00021F006FABDE810400148FCF7A0BF000039
:1056D000080400242DE9F047274B4FF0804A274D5E
:1056E00002689842264E274F274C09D0504507D0D4
:1056F000A84205D0B04203D0B84201D0A04205D1A3
:10570000D1F804C022F070024CEA0202DFF87CC03B
:10571000DFF87C809842DFF87C900FD050450DD0A8
:10572000A8420BD0B04209D0B84207D0A04205D061
:10573000604503D0404501D0484503D1CD6822F4EF
:1057400040722A434D6922F080022A430260984247
:105750008A68C2620A68826207D0A04205D06045AA
:1057600003D0404501D0484501D1096901630121B9
:105770004161BDE8F08700000000014000040040E6
:1057800000080040000C00400004014000400140BF
:10579000004401400048014042EA032283680A4372
:1057A00023F47F410A43826070470000034B826804
:1057B0001A400A4342F00701816070478FFFCFFF14
:1057C00010B5036A046A23F00A0324F0010404629A
:1057D00084690B4324F0F00141EA02118161036204
:1057E00010BD10B5036A23F0100303628369046AD5
:1057F00023F4704324F0A00443EA0232826144EAB5
:105800000111016210BD000030B5416EB9B10168EF
:105810000D4B03F108048A688968C2F34262490F9C
:105820005D5C615C2D01B5FBF1F1A0F86A10995C3B
:10583000A25C0901B1FBF2F1A0F8681030BD0121B2
:10584000A0F86A10F8E7000038D2020890F8281093
:10585000C90706D00168C36A4A6822F400321A43B5
:105860004A6090F82810890706D50168036B4A68DA
:1058700022F480321A434A6090F82810490706D56E
:105880000168436B4A6822F480221A434A6090F808
:105890002810090706D50168836B4A6822F4004284
:1058A0001A434A6090F82810C90606D50168C36BF0
:1058B0008A6822F480521A438A6090F82810890678
:1058C00006D50168036C8A6822F400521A438A6084
:1058D00090F82810490611D50168436C4A6822F4F3
:1058E00080121A434A60416CB1F5801F06D10168ED
:1058F000836C4A6822F4C0021A434A6090F8281068
:10590000090606D50168C26C486820F400201043DF
:1059100048607047F8B500260446C0F88C60FBF775
:1059200037F9054620686FF07E470068000708D504
:1059300000222B464FF400112046009700F0F0F9AA
:1059400060B92068006840070AD500222B464FF452
:1059500080012046009700F0E3F908B10320F8BD6C
:105960002020C4F88400C4F88800E666002084F88B
:105970008060F8BD2DE9F04304468068D84E87B0BA
:10598000D84B2168D4E90427D4F81CC010430A6816
:10599000002547EA0C073843324002430A6020687A
:1059A000E268416821F44051114341602268A169D5
:1059B0009A4201D0206A01439768DFF82CC3CB4E8E
:1059C000CB4807EA0C070F4397602168676ACA6AE9
:1059D00022F00F023A43CA622268B2420ED1006836
:1059E00000F03800182873D047DCB8B3082879D005
:1059F00010286FD178E028287ED17BE0BD498A420B
:105A000009D1006800F00700062875D2DFE800F031
:105A1000546A6C6E7072B8498A4209D1006800F00D
:105A20000700062868D2DFE800F0475D5F61636524
:105A3000B2498A4209D1006800F0070006285BD20B
:105A4000DFE800F03A5052545658AD498A420BD123
:105A5000006800F0070006284ED200E010E0DFE802
:105A600000F02B4143454749A6498A420AD10068C4
:105A700000F03800182839D0B7DD2028BBD13CE031
:105A800001203AE0A0498A4209D1006800F00700ED
:105A9000062831D2DFE800F01026282A2C2E9B4958
:105AA0008A420BD1006800F00700062824D2DFE804
:105AB00000F003191B1D1F2100201EE09A421BD17C
:105AC0008B48001D006800F00700062814D202E091
:105AD0000CE007E010E0DFE800F0030507090B0D1C
